{
	"compilerInput": "{\"language\":\"Solidity\",\"sources\":{\"KinGallery.sol\":{\"content\":\"// SPDX-License-Identifier: MIT\\npragma solidity ^0.8.19;\\n\\nimport \\\"https://github.com/OpenZeppelin/openzeppelin-contracts/blob/v4.9.0/contracts/token/ERC20/extensions/IERC20Metadata.sol\\\";\\nimport \\\"https://github.com/OpenZeppelin/openzeppelin-contracts/blob/v4.9.0/contracts/token/ERC20/utils/SafeERC20.sol\\\";\\nimport \\\"https://github.com/OpenZeppelin/openzeppelin-contracts/blob/v4.9.0/contracts/security/ReentrancyGuard.sol\\\";\\nimport \\\"https://github.com/OpenZeppelin/openzeppelin-contracts/blob/v4.9.0/contracts/security/Pausable.sol\\\";\\nimport \\\"https://github.com/OpenZeppelin/openzeppelin-contracts/blob/v4.9.0/contracts/access/AccessControl.sol\\\";\\n\\ninterface IMferMint {\\n    function mintFor(address to, string calldata paymentId) external;\\n    function mintForWithEthFromGallery(address to, string calldata paymentId) external payable;\\n    function owner() external view returns (address);\\n}\\n\\ncontract KinGallery is AccessControl, ReentrancyGuard, Pausable {\\n    using SafeERC20 for IERC20Metadata;\\n\\n    bytes32 public constant ADMIN_ROLE = DEFAULT_ADMIN_ROLE;\\n    bytes32 public constant RELAYER_ROLE = keccak256(\\\"RELAYER_ROLE\\\");\\n    address private constant ADDRESS_ZERO = address(0);\\n\\n    // State variables\\n    IERC20Metadata public immutable usdc;\\n    address public feeRecipient;\\n    uint256 public feeBps; // parts per 10k (e.g., 500 = 5%)\\n\\n    // Payee addresses (configurable by admin)\\n    // payee1: Collection Issuer owner (REMOVED - now dynamic via owner())\\n    // payee2: Gallery address (fixed at deployment)\\n    address public payee2;\\n    uint256 public constant PAYEE1_AMOUNT = 200_000_000_000_000; // 0.0002 ETH (Artist)\\n    uint256 public constant PAYEE2_AMOUNT = 100_000_000_000_000; // 0.0001 ETH (Gallery)\\n\\n    // Track processed payments to prevent replay attacks\\n    mapping(string => bool) public processedPayment;\\n\\n    // Events\\n    event FeeUpdated(address indexed recipient, uint256 indexed oldBps, uint256 indexed newBps);\\n    event Processed(address indexed artistContract, address indexed artistPayee, address indexed to, uint256 amount, string paymentId);\\n    event WithdrawnUSDC(address indexed to, uint256 amount);\\n    event WithdrawnETH(address indexed to, uint256 amount);\\n    event RoleGranted(bytes32 indexed role, address indexed account);\\n    event RoleRevoked(bytes32 indexed role, address indexed account);\\n    event GalleryPayeeUpdated(address indexed newPayee2);\\n    event ETHReceived(address indexed sender, uint256 amount);\\n\\n    // Fixed mint price in wei (0.0003 ETH)\\n    uint256 public constant MINT_PRICE = 300_000_000_000_000;\\n\\n    modifier onlyRelayer() {\\n        require(hasRole(RELAYER_ROLE, msg.sender), \\\"Only relayer\\\");\\n        _;\\n    }\\n\\n    modifier onlyNonRenouncingAdmin() {\\n        require(hasRole(DEFAULT_ADMIN_ROLE, msg.sender), \\\"Only admin\\\");\\n        _;\\n    }\\n\\n    constructor(\\n        address _usdc,\\n        address _multisig,\\n        address _payee2,\\n        address _relayer,\\n        address _admin\\n    ) {\\n        usdc = IERC20Metadata(_usdc);\\n        require(_usdc != ADDRESS_ZERO, \\\"USDC address required\\\");\\n\\n        feeRecipient = _multisig;\\n        require(_multisig != ADDRESS_ZERO, \\\"Invalid multisig\\\");\\n\\n        feeBps = 0;\\n        payee2 = _payee2;  // Gallery address (fixed)\\n        require(_payee2 != ADDRESS_ZERO, \\\"Gallery payee required\\\");\\n\\n        require(_relayer != ADDRESS_ZERO, \\\"Invalid relayer\\\");\\n        require(_admin != ADDRESS_ZERO, \\\"Invalid admin\\\");\\n\\n        _grantRole(DEFAULT_ADMIN_ROLE, _admin);\\n        _grantRole(DEFAULT_ADMIN_ROLE, _multisig);\\n        _grantRole(RELAYER_ROLE, _relayer);\\n    }\\n\\n    // --- Admin Functions ---\\n    function setFee(address _recipient, uint256 _bps) external onlyRole(DEFAULT_ADMIN_ROLE) {\\n        require(_bps <= 10000, \\\"bps too large\\\");\\n        require(_recipient != ADDRESS_ZERO || _bps == 0, \\\"invalid fee recipient\\\");\\n        uint256 oldBps = feeBps;\\n        feeRecipient = _recipient;\\n        feeBps = _bps;\\n        emit FeeUpdated(_recipient, oldBps, _bps);\\n    }\\n\\n    function setGalleryPayee(address _payee2) external onlyRole(DEFAULT_ADMIN_ROLE) {\\n        require(_payee2 != ADDRESS_ZERO, \\\"invalid payee\\\");\\n        payee2 = _payee2;\\n        emit GalleryPayeeUpdated(_payee2);\\n    }\\n\\n    function pause() external onlyRole(DEFAULT_ADMIN_ROLE) {\\n        _pause();\\n    }\\n\\n    function unpause() external onlyRole(DEFAULT_ADMIN_ROLE) {\\n        _unpause();\\n    }\\n\\n    function setRelayer(address _relayer) external onlyRole(DEFAULT_ADMIN_ROLE) {\\n        require(_relayer != ADDRESS_ZERO, \\\"zero relayer\\\");\\n        _grantRole(RELAYER_ROLE, _relayer);\\n        emit RoleGranted(RELAYER_ROLE, _relayer);\\n    }\\n\\n    function removeRelayer(address _relayer) external onlyRole(DEFAULT_ADMIN_ROLE) {\\n        _revokeRole(RELAYER_ROLE, _relayer);\\n        emit RoleRevoked(RELAYER_ROLE, _relayer);\\n    }\\n\\n    // --- ERC-165 Support ---\\n    function supportsInterface(bytes4 interfaceId) public view virtual override returns (bool) {\\n        return super.supportsInterface(interfaceId);\\n    }\\n\\n    // --- Core Logic ---\\n    function processPayment(\\n        address artistContract,\\n        address to,\\n        uint256 amount,\\n        string calldata paymentId\\n    ) external onlyRelayer nonReentrant whenNotPaused {\\n        require(!processedPayment[paymentId], \\\"Payment already processed\\\");\\n        \\n        // Cache balance to save gas\\n        uint256 contractBalance = usdc.balanceOf(address(this));\\n        require(contractBalance >= amount, \\\"Insufficient USDC\\\");\\n        \\n        require(to != ADDRESS_ZERO, \\\"invalid recipient\\\");\\n        require(artistContract != ADDRESS_ZERO, \\\"invalid artist contract\\\");\\n\\n        processedPayment[paymentId] = true;\\n\\n        // Get artist owner dynamically\\n        address artistPayee;\\n        try IMferMint(artistContract).owner() returns (address _owner) {\\n            require(_owner != ADDRESS_ZERO, \\\"Artist owner not configured\\\");\\n            artistPayee = _owner;\\n        } catch {\\n            revert(\\\"Artist contract must implement owner() function\\\");\\n        }\\n\\n        // Calculate and deduct fee (if applicable)\\n        uint256 fee = (feeBps > 0 && feeRecipient != ADDRESS_ZERO)\\n            ? (amount * feeBps) / 10000\\n            : 0;\\n\\n        if (fee > 0) {\\n            usdc.safeTransfer(feeRecipient, fee);\\n        }\\n\\n        uint256 amountAfterFee = amount - fee;\\n        usdc.safeTransfer(artistPayee, amountAfterFee);\\n\\n        // Mint NFT with error handling\\n        try IMferMint(artistContract).mintFor(to, paymentId) {\\n            // Success\\n        } catch Error(string memory reason) {\\n            revert(string(abi.encodePacked(\\\"Minting failed: \\\", reason)));\\n        } catch {\\n            revert(\\\"Minting failed: unknown error\\\");\\n        }\\n        \\n        emit Processed(artistContract, artistPayee, to, amount, paymentId);\\n    }\\n\\n    function payAndMint(\\n        address artistContract,\\n        address to,\\n        string calldata paymentId\\n    ) external payable nonReentrant whenNotPaused {\\n        // 1. Checks (require statements)\\n        require(msg.value == MINT_PRICE, \\\"Incorrect payment amount\\\");\\n        require(!processedPayment[paymentId], \\\"Payment already processed\\\");\\n        require(to != ADDRESS_ZERO, \\\"invalid recipient\\\");\\n        require(artistContract != ADDRESS_ZERO, \\\"invalid artist contract\\\");\\n        require(payee2 != ADDRESS_ZERO, \\\"Gallery payee not set\\\");\\n\\n        // 2. Effects (state changes)\\n        processedPayment[paymentId] = true;\\n\\n        // Get artist owner dynamically\\n        address artistPayee;\\n        try IMferMint(artistContract).owner() returns (address _owner) {\\n            require(_owner != ADDRESS_ZERO, \\\"Artist owner not configured\\\");\\n            artistPayee = _owner;\\n        } catch {\\n            revert(\\\"Artist contract must implement owner() function\\\");\\n        }\\n\\n        // 3. Interactions (external calls)\\n        // Split payment (fail early if transfers fail)\\n        if (PAYEE1_AMOUNT > 0) payable(artistPayee).transfer(PAYEE1_AMOUNT);\\n        if (PAYEE2_AMOUNT > 0) payable(payee2).transfer(PAYEE2_AMOUNT);\\n\\n        // Mint NFT with error handling (forward remaining ETH after payee splits)\\n        uint256 remainingValue = MINT_PRICE - PAYEE1_AMOUNT - PAYEE2_AMOUNT;\\n        try IMferMint(artistContract).mintForWithEthFromGallery{value: remainingValue}(to, paymentId) {\\n            // Success\\n        } catch Error(string memory reason) {\\n            revert(string(abi.encodePacked(\\\"Minting failed: \\\", reason)));\\n        } catch {\\n            revert(\\\"Minting failed: unknown error\\\");\\n        }\\n        \\n        emit Processed(artistContract, artistPayee, to, MINT_PRICE, paymentId);\\n    }\\n\\n    // --- Withdrawals ---\\n    function withdrawUSDC(uint256 amount) external onlyRole(DEFAULT_ADMIN_ROLE) whenNotPaused {\\n        require(amount > 0, \\\"amount must be > 0\\\");\\n        require(usdc.balanceOf(address(this)) >= amount, \\\"Insufficient USDC\\\");\\n        usdc.safeTransfer(msg.sender, amount);\\n        emit WithdrawnUSDC(msg.sender, amount);\\n    }\\n\\n    function withdrawETH(uint256 amount) external onlyRole(DEFAULT_ADMIN_ROLE) whenNotPaused {\\n        require(amount > 0, \\\"amount must be > 0\\\");\\n        require(address(this).balance >= amount, \\\"Insufficient ETH\\\");\\n        payable(msg.sender).transfer(amount);\\n        emit WithdrawnETH(msg.sender, amount);\\n    }\\n\\n    // --- Fallback for ETH (defensive) ---\\n    receive() external payable {\\n        emit ETHReceived(msg.sender, msg.value);\\n    }\\n}\\n\"},\"https://github.com/OpenZeppelin/openzeppelin-contracts/blob/v4.9.0/contracts/access/AccessControl.sol\":{\"content\":\"// SPDX-License-Identifier: MIT\\n// OpenZeppelin Contracts (last updated v4.9.0) (access/AccessControl.sol)\\n\\npragma solidity ^0.8.0;\\n\\nimport \\\"./IAccessControl.sol\\\";\\nimport \\\"../utils/Context.sol\\\";\\nimport \\\"../utils/Strings.sol\\\";\\nimport \\\"../utils/introspection/ERC165.sol\\\";\\n\\n/**\\n * @dev Contract module that allows children to implement role-based access\\n * control mechanisms. This is a lightweight version that doesn't allow enumerating role\\n * members except through off-chain means by accessing the contract event logs. Some\\n * applications may benefit from on-chain enumerability, for those cases see\\n * {AccessControlEnumerable}.\\n *\\n * Roles are referred to by their `bytes32` identifier. These should be exposed\\n * in the external API and be unique. The best way to achieve this is by\\n * using `public constant` hash digests:\\n *\\n * ```solidity\\n * bytes32 public constant MY_ROLE = keccak256(\\\"MY_ROLE\\\");\\n * ```\\n *\\n * Roles can be used to represent a set of permissions. To restrict access to a\\n * function call, use {hasRole}:\\n *\\n * ```solidity\\n * function foo() public {\\n *     require(hasRole(MY_ROLE, msg.sender));\\n *     ...\\n * }\\n * ```\\n *\\n * Roles can be granted and revoked dynamically via the {grantRole} and\\n * {revokeRole} functions. Each role has an associated admin role, and only\\n * accounts that have a role's admin role can call {grantRole} and {revokeRole}.\\n *\\n * By default, the admin role for all roles is `DEFAULT_ADMIN_ROLE`, which means\\n * that only accounts with this role will be able to grant or revoke other\\n * roles. More complex role relationships can be created by using\\n * {_setRoleAdmin}.\\n *\\n * WARNING: The `DEFAULT_ADMIN_ROLE` is also its own admin: it has permission to\\n * grant and revoke this role. Extra precautions should be taken to secure\\n * accounts that have been granted it. We recommend using {AccessControlDefaultAdminRules}\\n * to enforce additional security measures for this role.\\n */\\nabstract contract AccessControl is Context, IAccessControl, ERC165 {\\n    struct RoleData {\\n        mapping(address => bool) members;\\n        bytes32 adminRole;\\n    }\\n\\n    mapping(bytes32 => RoleData) private _roles;\\n\\n    bytes32 public constant DEFAULT_ADMIN_ROLE = 0x00;\\n\\n    /**\\n     * @dev Modifier that checks that an account has a specific role. Reverts\\n     * with a standardized message including the required role.\\n     *\\n     * The format of the revert reason is given by the following regular expression:\\n     *\\n     *  /^AccessControl: account (0x[0-9a-f]{40}) is missing role (0x[0-9a-f]{64})$/\\n     *\\n     * _Available since v4.1._\\n     */\\n    modifier onlyRole(bytes32 role) {\\n        _checkRole(role);\\n        _;\\n    }\\n\\n    /**\\n     * @dev See {IERC165-supportsInterface}.\\n     */\\n    function supportsInterface(bytes4 interfaceId) public view virtual override returns (bool) {\\n        return interfaceId == type(IAccessControl).interfaceId || super.supportsInterface(interfaceId);\\n    }\\n\\n    /**\\n     * @dev Returns `true` if `account` has been granted `role`.\\n     */\\n    function hasRole(bytes32 role, address account) public view virtual override returns (bool) {\\n        return _roles[role].members[account];\\n    }\\n\\n    /**\\n     * @dev Revert with a standard message if `_msgSender()` is missing `role`.\\n     * Overriding this function changes the behavior of the {onlyRole} modifier.\\n     *\\n     * Format of the revert message is described in {_checkRole}.\\n     *\\n     * _Available since v4.6._\\n     */\\n    function _checkRole(bytes32 role) internal view virtual {\\n        _checkRole(role, _msgSender());\\n    }\\n\\n    /**\\n     * @dev Revert with a standard message if `account` is missing `role`.\\n     *\\n     * The format of the revert reason is given by the following regular expression:\\n     *\\n     *  /^AccessControl: account (0x[0-9a-f]{40}) is missing role (0x[0-9a-f]{64})$/\\n     */\\n    function _checkRole(bytes32 role, address account) internal view virtual {\\n        if (!hasRole(role, account)) {\\n            revert(\\n                string(\\n                    abi.encodePacked(\\n                        \\\"AccessControl: account \\\",\\n                        Strings.toHexString(account),\\n                        \\\" is missing role \\\",\\n                        Strings.toHexString(uint256(role), 32)\\n                    )\\n                )\\n            );\\n        }\\n    }\\n\\n    /**\\n     * @dev Returns the admin role that controls `role`. See {grantRole} and\\n     * {revokeRole}.\\n     *\\n     * To change a role's admin, use {_setRoleAdmin}.\\n     */\\n    function getRoleAdmin(bytes32 role) public view virtual override returns (bytes32) {\\n        return _roles[role].adminRole;\\n    }\\n\\n    /**\\n     * @dev Grants `role` to `account`.\\n     *\\n     * If `account` had not been already granted `role`, emits a {RoleGranted}\\n     * event.\\n     *\\n     * Requirements:\\n     *\\n     * - the caller must have ``role``'s admin role.\\n     *\\n     * May emit a {RoleGranted} event.\\n     */\\n    function grantRole(bytes32 role, address account) public virtual override onlyRole(getRoleAdmin(role)) {\\n        _grantRole(role, account);\\n    }\\n\\n    /**\\n     * @dev Revokes `role` from `account`.\\n     *\\n     * If `account` had been granted `role`, emits a {RoleRevoked} event.\\n     *\\n     * Requirements:\\n     *\\n     * - the caller must have ``role``'s admin role.\\n     *\\n     * May emit a {RoleRevoked} event.\\n     */\\n    function revokeRole(bytes32 role, address account) public virtual override onlyRole(getRoleAdmin(role)) {\\n        _revokeRole(role, account);\\n    }\\n\\n    /**\\n     * @dev Revokes `role` from the calling account.\\n     *\\n     * Roles are often managed via {grantRole} and {revokeRole}: this function's\\n     * purpose is to provide a mechanism for accounts to lose their privileges\\n     * if they are compromised (such as when a trusted device is misplaced).\\n     *\\n     * If the calling account had been revoked `role`, emits a {RoleRevoked}\\n     * event.\\n     *\\n     * Requirements:\\n     *\\n     * - the caller must be `account`.\\n     *\\n     * May emit a {RoleRevoked} event.\\n     */\\n    function renounceRole(bytes32 role, address account) public virtual override {\\n        require(account == _msgSender(), \\\"AccessControl: can only renounce roles for self\\\");\\n\\n        _revokeRole(role, account);\\n    }\\n\\n    /**\\n     * @dev Grants `role` to `account`.\\n     *\\n     * If `account` had not been already granted `role`, emits a {RoleGranted}\\n     * event. Note that unlike {grantRole}, this function doesn't perform any\\n     * checks on the calling account.\\n     *\\n     * May emit a {RoleGranted} event.\\n     *\\n     * [WARNING]\\n     * ====\\n     * This function should only be called from the constructor when setting\\n     * up the initial roles for the system.\\n     *\\n     * Using this function in any other way is effectively circumventing the admin\\n     * system imposed by {AccessControl}.\\n     * ====\\n     *\\n     * NOTE: This function is deprecated in favor of {_grantRole}.\\n     */\\n    function _setupRole(bytes32 role, address account) internal virtual {\\n        _grantRole(role, account);\\n    }\\n\\n    /**\\n     * @dev Sets `adminRole` as ``role``'s admin role.\\n     *\\n     * Emits a {RoleAdminChanged} event.\\n     */\\n    function _setRoleAdmin(bytes32 role, bytes32 adminRole) internal virtual {\\n        bytes32 previousAdminRole = getRoleAdmin(role);\\n        _roles[role].adminRole = adminRole;\\n        emit RoleAdminChanged(role, previousAdminRole, adminRole);\\n    }\\n\\n    /**\\n     * @dev Grants `role` to `account`.\\n     *\\n     * Internal function without access restriction.\\n     *\\n     * May emit a {RoleGranted} event.\\n     */\\n    function _grantRole(bytes32 role, address account) internal virtual {\\n        if (!hasRole(role, account)) {\\n            _roles[role].members[account] = true;\\n            emit RoleGranted(role, account, _msgSender());\\n        }\\n    }\\n\\n    /**\\n     * @dev Revokes `role` from `account`.\\n     *\\n     * Internal function without access restriction.\\n     *\\n     * May emit a {RoleRevoked} event.\\n     */\\n    function _revokeRole(bytes32 role, address account) internal virtual {\\n        if (hasRole(role, account)) {\\n            _roles[role].members[account] = false;\\n            emit RoleRevoked(role, account, _msgSender());\\n        }\\n    }\\n}\\n\"},\"https://github.com/OpenZeppelin/openzeppelin-contracts/blob/v4.9.0/contracts/security/Pausable.sol\":{\"content\":\"// SPDX-License-Identifier: MIT\\n// OpenZeppelin Contracts (last updated v4.7.0) (security/Pausable.sol)\\n\\npragma solidity ^0.8.0;\\n\\nimport \\\"../utils/Context.sol\\\";\\n\\n/**\\n * @dev Contract module which allows children to implement an emergency stop\\n * mechanism that can be triggered by an authorized account.\\n *\\n * This module is used through inheritance. It will make available the\\n * modifiers `whenNotPaused` and `whenPaused`, which can be applied to\\n * the functions of your contract. Note that they will not be pausable by\\n * simply including this module, only once the modifiers are put in place.\\n */\\nabstract contract Pausable is Context {\\n    /**\\n     * @dev Emitted when the pause is triggered by `account`.\\n     */\\n    event Paused(address account);\\n\\n    /**\\n     * @dev Emitted when the pause is lifted by `account`.\\n     */\\n    event Unpaused(address account);\\n\\n    bool private _paused;\\n\\n    /**\\n     * @dev Initializes the contract in unpaused state.\\n     */\\n    constructor() {\\n        _paused = false;\\n    }\\n\\n    /**\\n     * @dev Modifier to make a function callable only when the contract is not paused.\\n     *\\n     * Requirements:\\n     *\\n     * - The contract must not be paused.\\n     */\\n    modifier whenNotPaused() {\\n        _requireNotPaused();\\n        _;\\n    }\\n\\n    /**\\n     * @dev Modifier to make a function callable only when the contract is paused.\\n     *\\n     * Requirements:\\n     *\\n     * - The contract must be paused.\\n     */\\n    modifier whenPaused() {\\n        _requirePaused();\\n        _;\\n    }\\n\\n    /**\\n     * @dev Returns true if the contract is paused, and false otherwise.\\n     */\\n    function paused() public view virtual returns (bool) {\\n        return _paused;\\n    }\\n\\n    /**\\n     * @dev Throws if the contract is paused.\\n     */\\n    function _requireNotPaused() internal view virtual {\\n        require(!paused(), \\\"Pausable: paused\\\");\\n    }\\n\\n    /**\\n     * @dev Throws if the contract is not paused.\\n     */\\n    function _requirePaused() internal view virtual {\\n        require(paused(), \\\"Pausable: not paused\\\");\\n    }\\n\\n    /**\\n     * @dev Triggers stopped state.\\n     *\\n     * Requirements:\\n     *\\n     * - The contract must not be paused.\\n     */\\n    function _pause() internal virtual whenNotPaused {\\n        _paused = true;\\n        emit Paused(_msgSender());\\n    }\\n\\n    /**\\n     * @dev Returns to normal state.\\n     *\\n     * Requirements:\\n     *\\n     * - The contract must be paused.\\n     */\\n    function _unpause() internal virtual whenPaused {\\n        _paused = false;\\n        emit Unpaused(_msgSender());\\n    }\\n}\\n\"},\"https://github.com/OpenZeppelin/openzeppelin-contracts/blob/v4.9.0/contracts/security/ReentrancyGuard.sol\":{\"content\":\"// SPDX-License-Identifier: MIT\\n// OpenZeppelin Contracts (last updated v4.9.0) (security/ReentrancyGuard.sol)\\n\\npragma solidity ^0.8.0;\\n\\n/**\\n * @dev Contract module that helps prevent reentrant calls to a function.\\n *\\n * Inheriting from `ReentrancyGuard` will make the {nonReentrant} modifier\\n * available, which can be applied to functions to make sure there are no nested\\n * (reentrant) calls to them.\\n *\\n * Note that because there is a single `nonReentrant` guard, functions marked as\\n * `nonReentrant` may not call one another. This can be worked around by making\\n * those functions `private`, and then adding `external` `nonReentrant` entry\\n * points to them.\\n *\\n * TIP: If you would like to learn more about reentrancy and alternative ways\\n * to protect against it, check out our blog post\\n * https://blog.openzeppelin.com/reentrancy-after-istanbul/[Reentrancy After Istanbul].\\n */\\nabstract contract ReentrancyGuard {\\n    // Booleans are more expensive than uint256 or any type that takes up a full\\n    // word because each write operation emits an extra SLOAD to first read the\\n    // slot's contents, replace the bits taken up by the boolean, and then write\\n    // back. This is the compiler's defense against contract upgrades and\\n    // pointer aliasing, and it cannot be disabled.\\n\\n    // The values being non-zero value makes deployment a bit more expensive,\\n    // but in exchange the refund on every call to nonReentrant will be lower in\\n    // amount. Since refunds are capped to a percentage of the total\\n    // transaction's gas, it is best to keep them low in cases like this one, to\\n    // increase the likelihood of the full refund coming into effect.\\n    uint256 private constant _NOT_ENTERED = 1;\\n    uint256 private constant _ENTERED = 2;\\n\\n    uint256 private _status;\\n\\n    constructor() {\\n        _status = _NOT_ENTERED;\\n    }\\n\\n    /**\\n     * @dev Prevents a contract from calling itself, directly or indirectly.\\n     * Calling a `nonReentrant` function from another `nonReentrant`\\n     * function is not supported. It is possible to prevent this from happening\\n     * by making the `nonReentrant` function external, and making it call a\\n     * `private` function that does the actual work.\\n     */\\n    modifier nonReentrant() {\\n        _nonReentrantBefore();\\n        _;\\n        _nonReentrantAfter();\\n    }\\n\\n    function _nonReentrantBefore() private {\\n        // On the first call to nonReentrant, _status will be _NOT_ENTERED\\n        require(_status != _ENTERED, \\\"ReentrancyGuard: reentrant call\\\");\\n\\n        // Any calls to nonReentrant after this point will fail\\n        _status = _ENTERED;\\n    }\\n\\n    function _nonReentrantAfter() private {\\n        // By storing the original value once again, a refund is triggered (see\\n        // https://eips.ethereum.org/EIPS/eip-2200)\\n        _status = _NOT_ENTERED;\\n    }\\n\\n    /**\\n     * @dev Returns true if the reentrancy guard is currently set to \\\"entered\\\", which indicates there is a\\n     * `nonReentrant` function in the call stack.\\n     */\\n    function _reentrancyGuardEntered() internal view returns (bool) {\\n        return _status == _ENTERED;\\n    }\\n}\\n\"},\"https://github.com/OpenZeppelin/openzeppelin-contracts/blob/v4.9.0/contracts/token/ERC20/utils/SafeERC20.sol\":{\"content\":\"// SPDX-License-Identifier: MIT\\n// OpenZeppelin Contracts (last updated v4.9.0) (token/ERC20/utils/SafeERC20.sol)\\n\\npragma solidity ^0.8.0;\\n\\nimport \\\"../IERC20.sol\\\";\\nimport \\\"../extensions/IERC20Permit.sol\\\";\\nimport \\\"../../../utils/Address.sol\\\";\\n\\n/**\\n * @title SafeERC20\\n * @dev Wrappers around ERC20 operations that throw on failure (when the token\\n * contract returns false). Tokens that return no value (and instead revert or\\n * throw on failure) are also supported, non-reverting calls are assumed to be\\n * successful.\\n * To use this library you can add a `using SafeERC20 for IERC20;` statement to your contract,\\n * which allows you to call the safe operations as `token.safeTransfer(...)`, etc.\\n */\\nlibrary SafeERC20 {\\n    using Address for address;\\n\\n    /**\\n     * @dev Transfer `value` amount of `token` from the calling contract to `to`. If `token` returns no value,\\n     * non-reverting calls are assumed to be successful.\\n     */\\n    function safeTransfer(IERC20 token, address to, uint256 value) internal {\\n        _callOptionalReturn(token, abi.encodeWithSelector(token.transfer.selector, to, value));\\n    }\\n\\n    /**\\n     * @dev Transfer `value` amount of `token` from `from` to `to`, spending the approval given by `from` to the\\n     * calling contract. If `token` returns no value, non-reverting calls are assumed to be successful.\\n     */\\n    function safeTransferFrom(IERC20 token, address from, address to, uint256 value) internal {\\n        _callOptionalReturn(token, abi.encodeWithSelector(token.transferFrom.selector, from, to, value));\\n    }\\n\\n    /**\\n     * @dev Deprecated. This function has issues similar to the ones found in\\n     * {IERC20-approve}, and its usage is discouraged.\\n     *\\n     * Whenever possible, use {safeIncreaseAllowance} and\\n     * {safeDecreaseAllowance} instead.\\n     */\\n    function safeApprove(IERC20 token, address spender, uint256 value) internal {\\n        // safeApprove should only be called when setting an initial allowance,\\n        // or when resetting it to zero. To increase and decrease it, use\\n        // 'safeIncreaseAllowance' and 'safeDecreaseAllowance'\\n        require(\\n            (value == 0) || (token.allowance(address(this), spender) == 0),\\n            \\\"SafeERC20: approve from non-zero to non-zero allowance\\\"\\n        );\\n        _callOptionalReturn(token, abi.encodeWithSelector(token.approve.selector, spender, value));\\n    }\\n\\n    /**\\n     * @dev Increase the calling contract's allowance toward `spender` by `value`. If `token` returns no value,\\n     * non-reverting calls are assumed to be successful.\\n     */\\n    function safeIncreaseAllowance(IERC20 token, address spender, uint256 value) internal {\\n        uint256 oldAllowance = token.allowance(address(this), spender);\\n        _callOptionalReturn(token, abi.encodeWithSelector(token.approve.selector, spender, oldAllowance + value));\\n    }\\n\\n    /**\\n     * @dev Decrease the calling contract's allowance toward `spender` by `value`. If `token` returns no value,\\n     * non-reverting calls are assumed to be successful.\\n     */\\n    function safeDecreaseAllowance(IERC20 token, address spender, uint256 value) internal {\\n        unchecked {\\n            uint256 oldAllowance = token.allowance(address(this), spender);\\n            require(oldAllowance >= value, \\\"SafeERC20: decreased allowance below zero\\\");\\n            _callOptionalReturn(token, abi.encodeWithSelector(token.approve.selector, spender, oldAllowance - value));\\n        }\\n    }\\n\\n    /**\\n     * @dev Set the calling contract's allowance toward `spender` to `value`. If `token` returns no value,\\n     * non-reverting calls are assumed to be successful. Compatible with tokens that require the approval to be set to\\n     * 0 before setting it to a non-zero value.\\n     */\\n    function forceApprove(IERC20 token, address spender, uint256 value) internal {\\n        bytes memory approvalCall = abi.encodeWithSelector(token.approve.selector, spender, value);\\n\\n        if (!_callOptionalReturnBool(token, approvalCall)) {\\n            _callOptionalReturn(token, abi.encodeWithSelector(token.approve.selector, spender, 0));\\n            _callOptionalReturn(token, approvalCall);\\n        }\\n    }\\n\\n    /**\\n     * @dev Use a ERC-2612 signature to set the `owner` approval toward `spender` on `token`.\\n     * Revert on invalid signature.\\n     */\\n    function safePermit(\\n        IERC20Permit token,\\n        address owner,\\n        address spender,\\n        uint256 value,\\n        uint256 deadline,\\n        uint8 v,\\n        bytes32 r,\\n        bytes32 s\\n    ) internal {\\n        uint256 nonceBefore = token.nonces(owner);\\n        token.permit(owner, spender, value, deadline, v, r, s);\\n        uint256 nonceAfter = token.nonces(owner);\\n        require(nonceAfter == nonceBefore + 1, \\\"SafeERC20: permit did not succeed\\\");\\n    }\\n\\n    /**\\n     * @dev Imitates a Solidity high-level call (i.e. a regular function call to a contract), relaxing the requirement\\n     * on the return value: the return value is optional (but if data is returned, it must not be false).\\n     * @param token The token targeted by the call.\\n     * @param data The call data (encoded using abi.encode or one of its variants).\\n     */\\n    function _callOptionalReturn(IERC20 token, bytes memory data) private {\\n        // We need to perform a low level call here, to bypass Solidity's return data size checking mechanism, since\\n        // we're implementing it ourselves. We use {Address-functionCall} to perform this call, which verifies that\\n        // the target address contains contract code and also asserts for success in the low-level call.\\n\\n        bytes memory returndata = address(token).functionCall(data, \\\"SafeERC20: low-level call failed\\\");\\n        require(returndata.length == 0 || abi.decode(returndata, (bool)), \\\"SafeERC20: ERC20 operation did not succeed\\\");\\n    }\\n\\n    /**\\n     * @dev Imitates a Solidity high-level call (i.e. a regular function call to a contract), relaxing the requirement\\n     * on the return value: the return value is optional (but if data is returned, it must not be false).\\n     * @param token The token targeted by the call.\\n     * @param data The call data (encoded using abi.encode or one of its variants).\\n     *\\n     * This is a variant of {_callOptionalReturn} that silents catches all reverts and returns a bool instead.\\n     */\\n    function _callOptionalReturnBool(IERC20 token, bytes memory data) private returns (bool) {\\n        // We need to perform a low level call here, to bypass Solidity's return data size checking mechanism, since\\n        // we're implementing it ourselves. We cannot use {Address-functionCall} here since this should return false\\n        // and not revert is the subcall reverts.\\n\\n        (bool success, bytes memory returndata) = address(token).call(data);\\n        return\\n            success && (returndata.length == 0 || abi.decode(returndata, (bool))) && Address.isContract(address(token));\\n    }\\n}\\n\"},\"https://github.com/OpenZeppelin/openzeppelin-contracts/blob/v4.9.0/contracts/token/ERC20/extensions/IERC20Metadata.sol\":{\"content\":\"// SPDX-License-Identifier: MIT\\n// OpenZeppelin Contracts v4.4.1 (token/ERC20/extensions/IERC20Metadata.sol)\\n\\npragma solidity ^0.8.0;\\n\\nimport \\\"../IERC20.sol\\\";\\n\\n/**\\n * @dev Interface for the optional metadata functions from the ERC20 standard.\\n *\\n * _Available since v4.1._\\n */\\ninterface IERC20Metadata is IERC20 {\\n    /**\\n     * @dev Returns the name of the token.\\n     */\\n    function name() external view returns (string memory);\\n\\n    /**\\n     * @dev Returns the symbol of the token.\\n     */\\n    function symbol() external view returns (string memory);\\n\\n    /**\\n     * @dev Returns the decimals places of the token.\\n     */\\n    function decimals() external view returns (uint8);\\n}\\n\"},\"https://github.com/OpenZeppelin/openzeppelin-contracts/blob/v4.9.0/contracts/utils/Address.sol\":{\"content\":\"// SPDX-License-Identifier: MIT\\n// OpenZeppelin Contracts (last updated v4.9.0) (utils/Address.sol)\\n\\npragma solidity ^0.8.1;\\n\\n/**\\n * @dev Collection of functions related to the address type\\n */\\nlibrary Address {\\n    /**\\n     * @dev Returns true if `account` is a contract.\\n     *\\n     * [IMPORTANT]\\n     * ====\\n     * It is unsafe to assume that an address for which this function returns\\n     * false is an externally-owned account (EOA) and not a contract.\\n     *\\n     * Among others, `isContract` will return false for the following\\n     * types of addresses:\\n     *\\n     *  - an externally-owned account\\n     *  - a contract in construction\\n     *  - an address where a contract will be created\\n     *  - an address where a contract lived, but was destroyed\\n     *\\n     * Furthermore, `isContract` will also return true if the target contract within\\n     * the same transaction is already scheduled for destruction by `SELFDESTRUCT`,\\n     * which only has an effect at the end of a transaction.\\n     * ====\\n     *\\n     * [IMPORTANT]\\n     * ====\\n     * You shouldn't rely on `isContract` to protect against flash loan attacks!\\n     *\\n     * Preventing calls from contracts is highly discouraged. It breaks composability, breaks support for smart wallets\\n     * like Gnosis Safe, and does not provide security since it can be circumvented by calling from a contract\\n     * constructor.\\n     * ====\\n     */\\n    function isContract(address account) internal view returns (bool) {\\n        // This method relies on extcodesize/address.code.length, which returns 0\\n        // for contracts in construction, since the code is only stored at the end\\n        // of the constructor execution.\\n\\n        return account.code.length > 0;\\n    }\\n\\n    /**\\n     * @dev Replacement for Solidity's `transfer`: sends `amount` wei to\\n     * `recipient`, forwarding all available gas and reverting on errors.\\n     *\\n     * https://eips.ethereum.org/EIPS/eip-1884[EIP1884] increases the gas cost\\n     * of certain opcodes, possibly making contracts go over the 2300 gas limit\\n     * imposed by `transfer`, making them unable to receive funds via\\n     * `transfer`. {sendValue} removes this limitation.\\n     *\\n     * https://consensys.net/diligence/blog/2019/09/stop-using-soliditys-transfer-now/[Learn more].\\n     *\\n     * IMPORTANT: because control is transferred to `recipient`, care must be\\n     * taken to not create reentrancy vulnerabilities. Consider using\\n     * {ReentrancyGuard} or the\\n     * https://solidity.readthedocs.io/en/v0.8.0/security-considerations.html#use-the-checks-effects-interactions-pattern[checks-effects-interactions pattern].\\n     */\\n    function sendValue(address payable recipient, uint256 amount) internal {\\n        require(address(this).balance >= amount, \\\"Address: insufficient balance\\\");\\n\\n        (bool success, ) = recipient.call{value: amount}(\\\"\\\");\\n        require(success, \\\"Address: unable to send value, recipient may have reverted\\\");\\n    }\\n\\n    /**\\n     * @dev Performs a Solidity function call using a low level `call`. A\\n     * plain `call` is an unsafe replacement for a function call: use this\\n     * function instead.\\n     *\\n     * If `target` reverts with a revert reason, it is bubbled up by this\\n     * function (like regular Solidity function calls).\\n     *\\n     * Returns the raw returned data. To convert to the expected return value,\\n     * use https://solidity.readthedocs.io/en/latest/units-and-global-variables.html?highlight=abi.decode#abi-encoding-and-decoding-functions[`abi.decode`].\\n     *\\n     * Requirements:\\n     *\\n     * - `target` must be a contract.\\n     * - calling `target` with `data` must not revert.\\n     *\\n     * _Available since v3.1._\\n     */\\n    function functionCall(address target, bytes memory data) internal returns (bytes memory) {\\n        return functionCallWithValue(target, data, 0, \\\"Address: low-level call failed\\\");\\n    }\\n\\n    /**\\n     * @dev Same as {xref-Address-functionCall-address-bytes-}[`functionCall`], but with\\n     * `errorMessage` as a fallback revert reason when `target` reverts.\\n     *\\n     * _Available since v3.1._\\n     */\\n    function functionCall(\\n        address target,\\n        bytes memory data,\\n        string memory errorMessage\\n    ) internal returns (bytes memory) {\\n        return functionCallWithValue(target, data, 0, errorMessage);\\n    }\\n\\n    /**\\n     * @dev Same as {xref-Address-functionCall-address-bytes-}[`functionCall`],\\n     * but also transferring `value` wei to `target`.\\n     *\\n     * Requirements:\\n     *\\n     * - the calling contract must have an ETH balance of at least `value`.\\n     * - the called Solidity function must be `payable`.\\n     *\\n     * _Available since v3.1._\\n     */\\n    function functionCallWithValue(address target, bytes memory data, uint256 value) internal returns (bytes memory) {\\n        return functionCallWithValue(target, data, value, \\\"Address: low-level call with value failed\\\");\\n    }\\n\\n    /**\\n     * @dev Same as {xref-Address-functionCallWithValue-address-bytes-uint256-}[`functionCallWithValue`], but\\n     * with `errorMessage` as a fallback revert reason when `target` reverts.\\n     *\\n     * _Available since v3.1._\\n     */\\n    function functionCallWithValue(\\n        address target,\\n        bytes memory data,\\n        uint256 value,\\n        string memory errorMessage\\n    ) internal returns (bytes memory) {\\n        require(address(this).balance >= value, \\\"Address: insufficient balance for call\\\");\\n        (bool success, bytes memory returndata) = target.call{value: value}(data);\\n        return verifyCallResultFromTarget(target, success, returndata, errorMessage);\\n    }\\n\\n    /**\\n     * @dev Same as {xref-Address-functionCall-address-bytes-}[`functionCall`],\\n     * but performing a static call.\\n     *\\n     * _Available since v3.3._\\n     */\\n    function functionStaticCall(address target, bytes memory data) internal view returns (bytes memory) {\\n        return functionStaticCall(target, data, \\\"Address: low-level static call failed\\\");\\n    }\\n\\n    /**\\n     * @dev Same as {xref-Address-functionCall-address-bytes-string-}[`functionCall`],\\n     * but performing a static call.\\n     *\\n     * _Available since v3.3._\\n     */\\n    function functionStaticCall(\\n        address target,\\n        bytes memory data,\\n        string memory errorMessage\\n    ) internal view returns (bytes memory) {\\n        (bool success, bytes memory returndata) = target.staticcall(data);\\n        return verifyCallResultFromTarget(target, success, returndata, errorMessage);\\n    }\\n\\n    /**\\n     * @dev Same as {xref-Address-functionCall-address-bytes-}[`functionCall`],\\n     * but performing a delegate call.\\n     *\\n     * _Available since v3.4._\\n     */\\n    function functionDelegateCall(address target, bytes memory data) internal returns (bytes memory) {\\n        return functionDelegateCall(target, data, \\\"Address: low-level delegate call failed\\\");\\n    }\\n\\n    /**\\n     * @dev Same as {xref-Address-functionCall-address-bytes-string-}[`functionCall`],\\n     * but performing a delegate call.\\n     *\\n     * _Available since v3.4._\\n     */\\n    function functionDelegateCall(\\n        address target,\\n        bytes memory data,\\n        string memory errorMessage\\n    ) internal returns (bytes memory) {\\n        (bool success, bytes memory returndata) = target.delegatecall(data);\\n        return verifyCallResultFromTarget(target, success, returndata, errorMessage);\\n    }\\n\\n    /**\\n     * @dev Tool to verify that a low level call to smart-contract was successful, and revert (either by bubbling\\n     * the revert reason or using the provided one) in case of unsuccessful call or if target was not a contract.\\n     *\\n     * _Available since v4.8._\\n     */\\n    function verifyCallResultFromTarget(\\n        address target,\\n        bool success,\\n        bytes memory returndata,\\n        string memory errorMessage\\n    ) internal view returns (bytes memory) {\\n        if (success) {\\n            if (returndata.length == 0) {\\n                // only check isContract if the call was successful and the return data is empty\\n                // otherwise we already know that it was a contract\\n                require(isContract(target), \\\"Address: call to non-contract\\\");\\n            }\\n            return returndata;\\n        } else {\\n            _revert(returndata, errorMessage);\\n        }\\n    }\\n\\n    /**\\n     * @dev Tool to verify that a low level call was successful, and revert if it wasn't, either by bubbling the\\n     * revert reason or using the provided one.\\n     *\\n     * _Available since v4.3._\\n     */\\n    function verifyCallResult(\\n        bool success,\\n        bytes memory returndata,\\n        string memory errorMessage\\n    ) internal pure returns (bytes memory) {\\n        if (success) {\\n            return returndata;\\n        } else {\\n            _revert(returndata, errorMessage);\\n        }\\n    }\\n\\n    function _revert(bytes memory returndata, string memory errorMessage) private pure {\\n        // Look for revert reason and bubble it up if present\\n        if (returndata.length > 0) {\\n            // The easiest way to bubble the revert reason is using memory via assembly\\n            /// @solidity memory-safe-assembly\\n            assembly {\\n                let returndata_size := mload(returndata)\\n                revert(add(32, returndata), returndata_size)\\n            }\\n        } else {\\n            revert(errorMessage);\\n        }\\n    }\\n}\\n\"},\"https://github.com/OpenZeppelin/openzeppelin-contracts/blob/v4.9.0/contracts/token/ERC20/extensions/IERC20Permit.sol\":{\"content\":\"// SPDX-License-Identifier: MIT\\n// OpenZeppelin Contracts (last updated v4.9.0) (token/ERC20/extensions/IERC20Permit.sol)\\n\\npragma solidity ^0.8.0;\\n\\n/**\\n * @dev Interface of the ERC20 Permit extension allowing approvals to be made via signatures, as defined in\\n * https://eips.ethereum.org/EIPS/eip-2612[EIP-2612].\\n *\\n * Adds the {permit} method, which can be used to change an account's ERC20 allowance (see {IERC20-allowance}) by\\n * presenting a message signed by the account. By not relying on {IERC20-approve}, the token holder account doesn't\\n * need to send a transaction, and thus is not required to hold Ether at all.\\n */\\ninterface IERC20Permit {\\n    /**\\n     * @dev Sets `value` as the allowance of `spender` over ``owner``'s tokens,\\n     * given ``owner``'s signed approval.\\n     *\\n     * IMPORTANT: The same issues {IERC20-approve} has related to transaction\\n     * ordering also apply here.\\n     *\\n     * Emits an {Approval} event.\\n     *\\n     * Requirements:\\n     *\\n     * - `spender` cannot be the zero address.\\n     * - `deadline` must be a timestamp in the future.\\n     * - `v`, `r` and `s` must be a valid `secp256k1` signature from `owner`\\n     * over the EIP712-formatted function arguments.\\n     * - the signature must use ``owner``'s current nonce (see {nonces}).\\n     *\\n     * For more information on the signature format, see the\\n     * https://eips.ethereum.org/EIPS/eip-2612#specification[relevant EIP\\n     * section].\\n     */\\n    function permit(\\n        address owner,\\n        address spender,\\n        uint256 value,\\n        uint256 deadline,\\n        uint8 v,\\n        bytes32 r,\\n        bytes32 s\\n    ) external;\\n\\n    /**\\n     * @dev Returns the current nonce for `owner`. This value must be\\n     * included whenever a signature is generated for {permit}.\\n     *\\n     * Every successful call to {permit} increases ``owner``'s nonce by one. This\\n     * prevents a signature from being used multiple times.\\n     */\\n    function nonces(address owner) external view returns (uint256);\\n\\n    /**\\n     * @dev Returns the domain separator used in the encoding of the signature for {permit}, as defined by {EIP712}.\\n     */\\n    // solhint-disable-next-line func-name-mixedcase\\n    function DOMAIN_SEPARATOR() external view returns (bytes32);\\n}\\n\"},\"https://github.com/OpenZeppelin/openzeppelin-contracts/blob/v4.9.0/contracts/token/ERC20/IERC20.sol\":{\"content\":\"// SPDX-License-Identifier: MIT\\n// OpenZeppelin Contracts (last updated v4.9.0) (token/ERC20/IERC20.sol)\\n\\npragma solidity ^0.8.0;\\n\\n/**\\n * @dev Interface of the ERC20 standard as defined in the EIP.\\n */\\ninterface IERC20 {\\n    /**\\n     * @dev Emitted when `value` tokens are moved from one account (`from`) to\\n     * another (`to`).\\n     *\\n     * Note that `value` may be zero.\\n     */\\n    event Transfer(address indexed from, address indexed to, uint256 value);\\n\\n    /**\\n     * @dev Emitted when the allowance of a `spender` for an `owner` is set by\\n     * a call to {approve}. `value` is the new allowance.\\n     */\\n    event Approval(address indexed owner, address indexed spender, uint256 value);\\n\\n    /**\\n     * @dev Returns the amount of tokens in existence.\\n     */\\n    function totalSupply() external view returns (uint256);\\n\\n    /**\\n     * @dev Returns the amount of tokens owned by `account`.\\n     */\\n    function balanceOf(address account) external view returns (uint256);\\n\\n    /**\\n     * @dev Moves `amount` tokens from the caller's account to `to`.\\n     *\\n     * Returns a boolean value indicating whether the operation succeeded.\\n     *\\n     * Emits a {Transfer} event.\\n     */\\n    function transfer(address to, uint256 amount) external returns (bool);\\n\\n    /**\\n     * @dev Returns the remaining number of tokens that `spender` will be\\n     * allowed to spend on behalf of `owner` through {transferFrom}. This is\\n     * zero by default.\\n     *\\n     * This value changes when {approve} or {transferFrom} are called.\\n     */\\n    function allowance(address owner, address spender) external view returns (uint256);\\n\\n    /**\\n     * @dev Sets `amount` as the allowance of `spender` over the caller's tokens.\\n     *\\n     * Returns a boolean value indicating whether the operation succeeded.\\n     *\\n     * IMPORTANT: Beware that changing an allowance with this method brings the risk\\n     * that someone may use both the old and the new allowance by unfortunate\\n     * transaction ordering. One possible solution to mitigate this race\\n     * condition is to first reduce the spender's allowance to 0 and set the\\n     * desired value afterwards:\\n     * https://github.com/ethereum/EIPs/issues/20#issuecomment-263524729\\n     *\\n     * Emits an {Approval} event.\\n     */\\n    function approve(address spender, uint256 amount) external returns (bool);\\n\\n    /**\\n     * @dev Moves `amount` tokens from `from` to `to` using the\\n     * allowance mechanism. `amount` is then deducted from the caller's\\n     * allowance.\\n     *\\n     * Returns a boolean value indicating whether the operation succeeded.\\n     *\\n     * Emits a {Transfer} event.\\n     */\\n    function transferFrom(address from, address to, uint256 amount) external returns (bool);\\n}\\n\"},\"https://github.com/OpenZeppelin/openzeppelin-contracts/blob/v4.9.0/contracts/utils/Context.sol\":{\"content\":\"// SPDX-License-Identifier: MIT\\n// OpenZeppelin Contracts v4.4.1 (utils/Context.sol)\\n\\npragma solidity ^0.8.0;\\n\\n/**\\n * @dev Provides information about the current execution context, including the\\n * sender of the transaction and its data. While these are generally available\\n * via msg.sender and msg.data, they should not be accessed in such a direct\\n * manner, since when dealing with meta-transactions the account sending and\\n * paying for execution may not be the actual sender (as far as an application\\n * is concerned).\\n *\\n * This contract is only required for intermediate, library-like contracts.\\n */\\nabstract contract Context {\\n    function _msgSender() internal view virtual returns (address) {\\n        return msg.sender;\\n    }\\n\\n    function _msgData() internal view virtual returns (bytes calldata) {\\n        return msg.data;\\n    }\\n}\\n\"},\"https://github.com/OpenZeppelin/openzeppelin-contracts/blob/v4.9.0/contracts/utils/introspection/ERC165.sol\":{\"content\":\"// SPDX-License-Identifier: MIT\\n// OpenZeppelin Contracts v4.4.1 (utils/introspection/ERC165.sol)\\n\\npragma solidity ^0.8.0;\\n\\nimport \\\"./IERC165.sol\\\";\\n\\n/**\\n * @dev Implementation of the {IERC165} interface.\\n *\\n * Contracts that want to implement ERC165 should inherit from this contract and override {supportsInterface} to check\\n * for the additional interface id that will be supported. For example:\\n *\\n * ```solidity\\n * function supportsInterface(bytes4 interfaceId) public view virtual override returns (bool) {\\n *     return interfaceId == type(MyInterface).interfaceId || super.supportsInterface(interfaceId);\\n * }\\n * ```\\n *\\n * Alternatively, {ERC165Storage} provides an easier to use but more expensive implementation.\\n */\\nabstract contract ERC165 is IERC165 {\\n    /**\\n     * @dev See {IERC165-supportsInterface}.\\n     */\\n    function supportsInterface(bytes4 interfaceId) public view virtual override returns (bool) {\\n        return interfaceId == type(IERC165).interfaceId;\\n    }\\n}\\n\"},\"https://github.com/OpenZeppelin/openzeppelin-contracts/blob/v4.9.0/contracts/utils/Strings.sol\":{\"content\":\"// SPDX-License-Identifier: MIT\\n// OpenZeppelin Contracts (last updated v4.9.0) (utils/Strings.sol)\\n\\npragma solidity ^0.8.0;\\n\\nimport \\\"./math/Math.sol\\\";\\nimport \\\"./math/SignedMath.sol\\\";\\n\\n/**\\n * @dev String operations.\\n */\\nlibrary Strings {\\n    bytes16 private constant _SYMBOLS = \\\"0123456789abcdef\\\";\\n    uint8 private constant _ADDRESS_LENGTH = 20;\\n\\n    /**\\n     * @dev Converts a `uint256` to its ASCII `string` decimal representation.\\n     */\\n    function toString(uint256 value) internal pure returns (string memory) {\\n        unchecked {\\n            uint256 length = Math.log10(value) + 1;\\n            string memory buffer = new string(length);\\n            uint256 ptr;\\n            /// @solidity memory-safe-assembly\\n            assembly {\\n                ptr := add(buffer, add(32, length))\\n            }\\n            while (true) {\\n                ptr--;\\n                /// @solidity memory-safe-assembly\\n                assembly {\\n                    mstore8(ptr, byte(mod(value, 10), _SYMBOLS))\\n                }\\n                value /= 10;\\n                if (value == 0) break;\\n            }\\n            return buffer;\\n        }\\n    }\\n\\n    /**\\n     * @dev Converts a `int256` to its ASCII `string` decimal representation.\\n     */\\n    function toString(int256 value) internal pure returns (string memory) {\\n        return string(abi.encodePacked(value < 0 ? \\\"-\\\" : \\\"\\\", toString(SignedMath.abs(value))));\\n    }\\n\\n    /**\\n     * @dev Converts a `uint256` to its ASCII `string` hexadecimal representation.\\n     */\\n    function toHexString(uint256 value) internal pure returns (string memory) {\\n        unchecked {\\n            return toHexString(value, Math.log256(value) + 1);\\n        }\\n    }\\n\\n    /**\\n     * @dev Converts a `uint256` to its ASCII `string` hexadecimal representation with fixed length.\\n     */\\n    function toHexString(uint256 value, uint256 length) internal pure returns (string memory) {\\n        bytes memory buffer = new bytes(2 * length + 2);\\n        buffer[0] = \\\"0\\\";\\n        buffer[1] = \\\"x\\\";\\n        for (uint256 i = 2 * length + 1; i > 1; --i) {\\n            buffer[i] = _SYMBOLS[value & 0xf];\\n            value >>= 4;\\n        }\\n        require(value == 0, \\\"Strings: hex length insufficient\\\");\\n        return string(buffer);\\n    }\\n\\n    /**\\n     * @dev Converts an `address` with fixed length of 20 bytes to its not checksummed ASCII `string` hexadecimal representation.\\n     */\\n    function toHexString(address addr) internal pure returns (string memory) {\\n        return toHexString(uint256(uint160(addr)), _ADDRESS_LENGTH);\\n    }\\n\\n    /**\\n     * @dev Returns true if the two strings are equal.\\n     */\\n    function equal(string memory a, string memory b) internal pure returns (bool) {\\n        return keccak256(bytes(a)) == keccak256(bytes(b));\\n    }\\n}\\n\"},\"https://github.com/OpenZeppelin/openzeppelin-contracts/blob/v4.9.0/contracts/access/IAccessControl.sol\":{\"content\":\"// SPDX-License-Identifier: MIT\\n// OpenZeppelin Contracts v4.4.1 (access/IAccessControl.sol)\\n\\npragma solidity ^0.8.0;\\n\\n/**\\n * @dev External interface of AccessControl declared to support ERC165 detection.\\n */\\ninterface IAccessControl {\\n    /**\\n     * @dev Emitted when `newAdminRole` is set as ``role``'s admin role, replacing `previousAdminRole`\\n     *\\n     * `DEFAULT_ADMIN_ROLE` is the starting admin for all roles, despite\\n     * {RoleAdminChanged} not being emitted signaling this.\\n     *\\n     * _Available since v3.1._\\n     */\\n    event RoleAdminChanged(bytes32 indexed role, bytes32 indexed previousAdminRole, bytes32 indexed newAdminRole);\\n\\n    /**\\n     * @dev Emitted when `account` is granted `role`.\\n     *\\n     * `sender` is the account that originated the contract call, an admin role\\n     * bearer except when using {AccessControl-_setupRole}.\\n     */\\n    event RoleGranted(bytes32 indexed role, address indexed account, address indexed sender);\\n\\n    /**\\n     * @dev Emitted when `account` is revoked `role`.\\n     *\\n     * `sender` is the account that originated the contract call:\\n     *   - if using `revokeRole`, it is the admin role bearer\\n     *   - if using `renounceRole`, it is the role bearer (i.e. `account`)\\n     */\\n    event RoleRevoked(bytes32 indexed role, address indexed account, address indexed sender);\\n\\n    /**\\n     * @dev Returns `true` if `account` has been granted `role`.\\n     */\\n    function hasRole(bytes32 role, address account) external view returns (bool);\\n\\n    /**\\n     * @dev Returns the admin role that controls `role`. See {grantRole} and\\n     * {revokeRole}.\\n     *\\n     * To change a role's admin, use {AccessControl-_setRoleAdmin}.\\n     */\\n    function getRoleAdmin(bytes32 role) external view returns (bytes32);\\n\\n    /**\\n     * @dev Grants `role` to `account`.\\n     *\\n     * If `account` had not been already granted `role`, emits a {RoleGranted}\\n     * event.\\n     *\\n     * Requirements:\\n     *\\n     * - the caller must have ``role``'s admin role.\\n     */\\n    function grantRole(bytes32 role, address account) external;\\n\\n    /**\\n     * @dev Revokes `role` from `account`.\\n     *\\n     * If `account` had been granted `role`, emits a {RoleRevoked} event.\\n     *\\n     * Requirements:\\n     *\\n     * - the caller must have ``role``'s admin role.\\n     */\\n    function revokeRole(bytes32 role, address account) external;\\n\\n    /**\\n     * @dev Revokes `role` from the calling account.\\n     *\\n     * Roles are often managed via {grantRole} and {revokeRole}: this function's\\n     * purpose is to provide a mechanism for accounts to lose their privileges\\n     * if they are compromised (such as when a trusted device is misplaced).\\n     *\\n     * If the calling account had been granted `role`, emits a {RoleRevoked}\\n     * event.\\n     *\\n     * Requirements:\\n     *\\n     * - the caller must be `account`.\\n     */\\n    function renounceRole(bytes32 role, address account) external;\\n}\\n\"},\"https://github.com/OpenZeppelin/openzeppelin-contracts/blob/v4.9.0/contracts/utils/introspection/IERC165.sol\":{\"content\":\"// SPDX-License-Identifier: MIT\\n// OpenZeppelin Contracts v4.4.1 (utils/introspection/IERC165.sol)\\n\\npragma solidity ^0.8.0;\\n\\n/**\\n * @dev Interface of the ERC165 standard, as defined in the\\n * https://eips.ethereum.org/EIPS/eip-165[EIP].\\n *\\n * Implementers can declare support of contract interfaces, which can then be\\n * queried by others ({ERC165Checker}).\\n *\\n * For an implementation, see {ERC165}.\\n */\\ninterface IERC165 {\\n    /**\\n     * @dev Returns true if this contract implements the interface defined by\\n     * `interfaceId`. See the corresponding\\n     * https://eips.ethereum.org/EIPS/eip-165#how-interfaces-are-identified[EIP section]\\n     * to learn more about how these ids are created.\\n     *\\n     * This function call must use less than 30 000 gas.\\n     */\\n    function supportsInterface(bytes4 interfaceId) external view returns (bool);\\n}\\n\"},\"https://github.com/OpenZeppelin/openzeppelin-contracts/blob/v4.9.0/contracts/utils/math/SignedMath.sol\":{\"content\":\"// SPDX-License-Identifier: MIT\\n// OpenZeppelin Contracts (last updated v4.8.0) (utils/math/SignedMath.sol)\\n\\npragma solidity ^0.8.0;\\n\\n/**\\n * @dev Standard signed math utilities missing in the Solidity language.\\n */\\nlibrary SignedMath {\\n    /**\\n     * @dev Returns the largest of two signed numbers.\\n     */\\n    function max(int256 a, int256 b) internal pure returns (int256) {\\n        return a > b ? a : b;\\n    }\\n\\n    /**\\n     * @dev Returns the smallest of two signed numbers.\\n     */\\n    function min(int256 a, int256 b) internal pure returns (int256) {\\n        return a < b ? a : b;\\n    }\\n\\n    /**\\n     * @dev Returns the average of two signed numbers without overflow.\\n     * The result is rounded towards zero.\\n     */\\n    function average(int256 a, int256 b) internal pure returns (int256) {\\n        // Formula from the book \\\"Hacker's Delight\\\"\\n        int256 x = (a & b) + ((a ^ b) >> 1);\\n        return x + (int256(uint256(x) >> 255) & (a ^ b));\\n    }\\n\\n    /**\\n     * @dev Returns the absolute unsigned value of a signed value.\\n     */\\n    function abs(int256 n) internal pure returns (uint256) {\\n        unchecked {\\n            // must be unchecked in order to support `n = type(int256).min`\\n            return uint256(n >= 0 ? n : -n);\\n        }\\n    }\\n}\\n\"},\"https://github.com/OpenZeppelin/openzeppelin-contracts/blob/v4.9.0/contracts/utils/math/Math.sol\":{\"content\":\"// SPDX-License-Identifier: MIT\\n// OpenZeppelin Contracts (last updated v4.9.0) (utils/math/Math.sol)\\n\\npragma solidity ^0.8.0;\\n\\n/**\\n * @dev Standard math utilities missing in the Solidity language.\\n */\\nlibrary Math {\\n    enum Rounding {\\n        Down, // Toward negative infinity\\n        Up, // Toward infinity\\n        Zero // Toward zero\\n    }\\n\\n    /**\\n     * @dev Returns the largest of two numbers.\\n     */\\n    function max(uint256 a, uint256 b) internal pure returns (uint256) {\\n        return a > b ? a : b;\\n    }\\n\\n    /**\\n     * @dev Returns the smallest of two numbers.\\n     */\\n    function min(uint256 a, uint256 b) internal pure returns (uint256) {\\n        return a < b ? a : b;\\n    }\\n\\n    /**\\n     * @dev Returns the average of two numbers. The result is rounded towards\\n     * zero.\\n     */\\n    function average(uint256 a, uint256 b) internal pure returns (uint256) {\\n        // (a + b) / 2 can overflow.\\n        return (a & b) + (a ^ b) / 2;\\n    }\\n\\n    /**\\n     * @dev Returns the ceiling of the division of two numbers.\\n     *\\n     * This differs from standard division with `/` in that it rounds up instead\\n     * of rounding down.\\n     */\\n    function ceilDiv(uint256 a, uint256 b) internal pure returns (uint256) {\\n        // (a + b - 1) / b can overflow on addition, so we distribute.\\n        return a == 0 ? 0 : (a - 1) / b + 1;\\n    }\\n\\n    /**\\n     * @notice Calculates floor(x * y / denominator) with full precision. Throws if result overflows a uint256 or denominator == 0\\n     * @dev Original credit to Remco Bloemen under MIT license (https://xn--2-umb.com/21/muldiv)\\n     * with further edits by Uniswap Labs also under MIT license.\\n     */\\n    function mulDiv(uint256 x, uint256 y, uint256 denominator) internal pure returns (uint256 result) {\\n        unchecked {\\n            // 512-bit multiply [prod1 prod0] = x * y. Compute the product mod 2^256 and mod 2^256 - 1, then use\\n            // use the Chinese Remainder Theorem to reconstruct the 512 bit result. The result is stored in two 256\\n            // variables such that product = prod1 * 2^256 + prod0.\\n            uint256 prod0; // Least significant 256 bits of the product\\n            uint256 prod1; // Most significant 256 bits of the product\\n            assembly {\\n                let mm := mulmod(x, y, not(0))\\n                prod0 := mul(x, y)\\n                prod1 := sub(sub(mm, prod0), lt(mm, prod0))\\n            }\\n\\n            // Handle non-overflow cases, 256 by 256 division.\\n            if (prod1 == 0) {\\n                // Solidity will revert if denominator == 0, unlike the div opcode on its own.\\n                // The surrounding unchecked block does not change this fact.\\n                // See https://docs.soliditylang.org/en/latest/control-structures.html#checked-or-unchecked-arithmetic.\\n                return prod0 / denominator;\\n            }\\n\\n            // Make sure the result is less than 2^256. Also prevents denominator == 0.\\n            require(denominator > prod1, \\\"Math: mulDiv overflow\\\");\\n\\n            ///////////////////////////////////////////////\\n            // 512 by 256 division.\\n            ///////////////////////////////////////////////\\n\\n            // Make division exact by subtracting the remainder from [prod1 prod0].\\n            uint256 remainder;\\n            assembly {\\n                // Compute remainder using mulmod.\\n                remainder := mulmod(x, y, denominator)\\n\\n                // Subtract 256 bit number from 512 bit number.\\n                prod1 := sub(prod1, gt(remainder, prod0))\\n                prod0 := sub(prod0, remainder)\\n            }\\n\\n            // Factor powers of two out of denominator and compute largest power of two divisor of denominator. Always >= 1.\\n            // See https://cs.stackexchange.com/q/138556/92363.\\n\\n            // Does not overflow because the denominator cannot be zero at this stage in the function.\\n            uint256 twos = denominator & (~denominator + 1);\\n            assembly {\\n                // Divide denominator by twos.\\n                denominator := div(denominator, twos)\\n\\n                // Divide [prod1 prod0] by twos.\\n                prod0 := div(prod0, twos)\\n\\n                // Flip twos such that it is 2^256 / twos. If twos is zero, then it becomes one.\\n                twos := add(div(sub(0, twos), twos), 1)\\n            }\\n\\n            // Shift in bits from prod1 into prod0.\\n            prod0 |= prod1 * twos;\\n\\n            // Invert denominator mod 2^256. Now that denominator is an odd number, it has an inverse modulo 2^256 such\\n            // that denominator * inv = 1 mod 2^256. Compute the inverse by starting with a seed that is correct for\\n            // four bits. That is, denominator * inv = 1 mod 2^4.\\n            uint256 inverse = (3 * denominator) ^ 2;\\n\\n            // Use the Newton-Raphson iteration to improve the precision. Thanks to Hensel's lifting lemma, this also works\\n            // in modular arithmetic, doubling the correct bits in each step.\\n            inverse *= 2 - denominator * inverse; // inverse mod 2^8\\n            inverse *= 2 - denominator * inverse; // inverse mod 2^16\\n            inverse *= 2 - denominator * inverse; // inverse mod 2^32\\n            inverse *= 2 - denominator * inverse; // inverse mod 2^64\\n            inverse *= 2 - denominator * inverse; // inverse mod 2^128\\n            inverse *= 2 - denominator * inverse; // inverse mod 2^256\\n\\n            // Because the division is now exact we can divide by multiplying with the modular inverse of denominator.\\n            // This will give us the correct result modulo 2^256. Since the preconditions guarantee that the outcome is\\n            // less than 2^256, this is the final result. We don't need to compute the high bits of the result and prod1\\n            // is no longer required.\\n            result = prod0 * inverse;\\n            return result;\\n        }\\n    }\\n\\n    /**\\n     * @notice Calculates x * y / denominator with full precision, following the selected rounding direction.\\n     */\\n    function mulDiv(uint256 x, uint256 y, uint256 denominator, Rounding rounding) internal pure returns (uint256) {\\n        uint256 result = mulDiv(x, y, denominator);\\n        if (rounding == Rounding.Up && mulmod(x, y, denominator) > 0) {\\n            result += 1;\\n        }\\n        return result;\\n    }\\n\\n    /**\\n     * @dev Returns the square root of a number. If the number is not a perfect square, the value is rounded down.\\n     *\\n     * Inspired by Henry S. Warren, Jr.'s \\\"Hacker's Delight\\\" (Chapter 11).\\n     */\\n    function sqrt(uint256 a) internal pure returns (uint256) {\\n        if (a == 0) {\\n            return 0;\\n        }\\n\\n        // For our first guess, we get the biggest power of 2 which is smaller than the square root of the target.\\n        //\\n        // We know that the \\\"msb\\\" (most significant bit) of our target number `a` is a power of 2 such that we have\\n        // `msb(a) <= a < 2*msb(a)`. This value can be written `msb(a)=2**k` with `k=log2(a)`.\\n        //\\n        // This can be rewritten `2**log2(a) <= a < 2**(log2(a) + 1)`\\n        //  `sqrt(2**k) <= sqrt(a) < sqrt(2**(k+1))`\\n        //  `2**(k/2) <= sqrt(a) < 2**((k+1)/2) <= 2**(k/2 + 1)`\\n        //\\n        // Consequently, `2**(log2(a) / 2)` is a good first approximation of `sqrt(a)` with at least 1 correct bit.\\n        uint256 result = 1 << (log2(a) >> 1);\\n\\n        // At this point `result` is an estimation with one bit of precision. We know the true value is a uint128,\\n        // since it is the square root of a uint256. Newton's method converges quadratically (precision doubles at\\n        // every iteration). We thus need at most 7 iteration to turn our partial result with one bit of precision\\n        // into the expected uint128 result.\\n        unchecked {\\n            result = (result + a / result) >> 1;\\n            result = (result + a / result) >> 1;\\n            result = (result + a / result) >> 1;\\n            result = (result + a / result) >> 1;\\n            result = (result + a / result) >> 1;\\n            result = (result + a / result) >> 1;\\n            result = (result + a / result) >> 1;\\n            return min(result, a / result);\\n        }\\n    }\\n\\n    /**\\n     * @notice Calculates sqrt(a), following the selected rounding direction.\\n     */\\n    function sqrt(uint256 a, Rounding rounding) internal pure returns (uint256) {\\n        unchecked {\\n            uint256 result = sqrt(a);\\n            return result + (rounding == Rounding.Up && result * result < a ? 1 : 0);\\n        }\\n    }\\n\\n    /**\\n     * @dev Return the log in base 2, rounded down, of a positive value.\\n     * Returns 0 if given 0.\\n     */\\n    function log2(uint256 value) internal pure returns (uint256) {\\n        uint256 result = 0;\\n        unchecked {\\n            if (value >> 128 > 0) {\\n                value >>= 128;\\n                result += 128;\\n            }\\n            if (value >> 64 > 0) {\\n                value >>= 64;\\n                result += 64;\\n            }\\n            if (value >> 32 > 0) {\\n                value >>= 32;\\n                result += 32;\\n            }\\n            if (value >> 16 > 0) {\\n                value >>= 16;\\n                result += 16;\\n            }\\n            if (value >> 8 > 0) {\\n                value >>= 8;\\n                result += 8;\\n            }\\n            if (value >> 4 > 0) {\\n                value >>= 4;\\n                result += 4;\\n            }\\n            if (value >> 2 > 0) {\\n                value >>= 2;\\n                result += 2;\\n            }\\n            if (value >> 1 > 0) {\\n                result += 1;\\n            }\\n        }\\n        return result;\\n    }\\n\\n    /**\\n     * @dev Return the log in base 2, following the selected rounding direction, of a positive value.\\n     * Returns 0 if given 0.\\n     */\\n    function log2(uint256 value, Rounding rounding) internal pure returns (uint256) {\\n        unchecked {\\n            uint256 result = log2(value);\\n            return result + (rounding == Rounding.Up && 1 << result < value ? 1 : 0);\\n        }\\n    }\\n\\n    /**\\n     * @dev Return the log in base 10, rounded down, of a positive value.\\n     * Returns 0 if given 0.\\n     */\\n    function log10(uint256 value) internal pure returns (uint256) {\\n        uint256 result = 0;\\n        unchecked {\\n            if (value >= 10 ** 64) {\\n                value /= 10 ** 64;\\n                result += 64;\\n            }\\n            if (value >= 10 ** 32) {\\n                value /= 10 ** 32;\\n                result += 32;\\n            }\\n            if (value >= 10 ** 16) {\\n                value /= 10 ** 16;\\n                result += 16;\\n            }\\n            if (value >= 10 ** 8) {\\n                value /= 10 ** 8;\\n                result += 8;\\n            }\\n            if (value >= 10 ** 4) {\\n                value /= 10 ** 4;\\n                result += 4;\\n            }\\n            if (value >= 10 ** 2) {\\n                value /= 10 ** 2;\\n                result += 2;\\n            }\\n            if (value >= 10 ** 1) {\\n                result += 1;\\n            }\\n        }\\n        return result;\\n    }\\n\\n    /**\\n     * @dev Return the log in base 10, following the selected rounding direction, of a positive value.\\n     * Returns 0 if given 0.\\n     */\\n    function log10(uint256 value, Rounding rounding) internal pure returns (uint256) {\\n        unchecked {\\n            uint256 result = log10(value);\\n            return result + (rounding == Rounding.Up && 10 ** result < value ? 1 : 0);\\n        }\\n    }\\n\\n    /**\\n     * @dev Return the log in base 256, rounded down, of a positive value.\\n     * Returns 0 if given 0.\\n     *\\n     * Adding one to the result gives the number of pairs of hex symbols needed to represent `value` as a hex string.\\n     */\\n    function log256(uint256 value) internal pure returns (uint256) {\\n        uint256 result = 0;\\n        unchecked {\\n            if (value >> 128 > 0) {\\n                value >>= 128;\\n                result += 16;\\n            }\\n            if (value >> 64 > 0) {\\n                value >>= 64;\\n                result += 8;\\n            }\\n            if (value >> 32 > 0) {\\n                value >>= 32;\\n                result += 4;\\n            }\\n            if (value >> 16 > 0) {\\n                value >>= 16;\\n                result += 2;\\n            }\\n            if (value >> 8 > 0) {\\n                result += 1;\\n            }\\n        }\\n        return result;\\n    }\\n\\n    /**\\n     * @dev Return the log in base 256, following the selected rounding direction, of a positive value.\\n     * Returns 0 if given 0.\\n     */\\n    function log256(uint256 value, Rounding rounding) internal pure returns (uint256) {\\n        unchecked {\\n            uint256 result = log256(value);\\n            return result + (rounding == Rounding.Up && 1 << (result << 3) < value ? 1 : 0);\\n        }\\n    }\\n}\\n\"}},\"settings\":{\"optimizer\":{\"enabled\":true,\"runs\":200},\"outputSelection\":{\"*\":{\"\":[\"ast\"],\"*\":[\"abi\",\"metadata\",\"devdoc\",\"userdoc\",\"storageLayout\",\"evm.legacyAssembly\",\"evm.bytecode\",\"evm.deployedBytecode\",\"evm.methodIdentifiers\",\"evm.gasEstimates\",\"evm.assembly\"]}},\"remappings\":[],\"evmVersion\":\"paris\"}}",
	"name": "KinGallery",
	"bytecode": {
		"linkReferences": {},
		"object": "60a06040523480156200001157600080fd5b506040516200279a3803806200279a83398101604081905262000034916200031c565b600180556002805460ff191690556001600160a01b0385166080819052620000a35760405162461bcd60e51b815260206004820152601560248201527f555344432061646472657373207265717569726564000000000000000000000060448201526064015b60405180910390fd5b60028054610100600160a81b0319166101006001600160a01b038716908102919091179091556200010a5760405162461bcd60e51b815260206004820152601060248201526f496e76616c6964206d756c746973696760801b60448201526064016200009a565b6000600355600480546001600160a01b0319166001600160a01b0385169081179091556200017b5760405162461bcd60e51b815260206004820152601660248201527f47616c6c6572792070617965652072657175697265640000000000000000000060448201526064016200009a565b6001600160a01b038216620001c55760405162461bcd60e51b815260206004820152600f60248201526e24b73b30b634b2103932b630bcb2b960891b60448201526064016200009a565b6001600160a01b0381166200020d5760405162461bcd60e51b815260206004820152600d60248201526c24b73b30b634b21030b236b4b760991b60448201526064016200009a565b6200021a6000826200025e565b620002276000856200025e565b620002537fe2b7fb3b832174769106daebcfd6d1970523240dda11281102db9363b83b0dc4836200025e565b50505050506200038c565b6000828152602081815260408083206001600160a01b038516845290915290205460ff16620002fb576000828152602081815260408083206001600160a01b03851684529091529020805460ff19166001179055620002ba3390565b6001600160a01b0316816001600160a01b0316837f2f8788117e7eff1d82e926ec794901d17c78024a50270940304540a733656f0d60405160405180910390a45b5050565b80516001600160a01b03811681146200031757600080fd5b919050565b600080600080600060a086880312156200033557600080fd5b6200034086620002ff565b94506200035060208701620002ff565b93506200036060408701620002ff565b92506200037060608701620002ff565b91506200038060808701620002ff565b90509295509295909350565b6080516123cf620003cb600039600081816102f301528181610e1e015281816110db01528181611124015281816112b3015261137501526123cf6000f3fe6080604052600436106101bb5760003560e01c8063725a8294116100ec578063bbe96b001161008a578063db81f99b11610064578063db81f99b1461050e578063e55156b51461052e578063eaa607421461054e578063f14210a61461056e57600080fd5b8063bbe96b00146104b3578063c002d23d146104d3578063d547741f146104ee57600080fd5b806391d14854116100c657806391d1485414610451578063926d7d7f14610471578063a217fddf14610427578063a93aa5031461049357600080fd5b8063725a82941461041457806375b238fc146104275780638456cb591461043c57600080fd5b80633f4ba83a116101595780635c975abb116101335780635c975abb1461038157806360f0a5ac14610399578063623e752b146103b95780636548e9bc146103f457600080fd5b80633f4ba83a1461032d57806346904840146103425780634af044aa1461036757600080fd5b806324a9d8531161019557806324a9d853146102895780632f2ff15d1461029f57806336568abe146102c15780633e413bee146102e157600080fd5b806301ffc9a7146101fc5780631ec7605c14610231578063248a9ca31461025957600080fd5b366101f75760405134815233907fbfe611b001dfcd411432f7bf0d79b82b4b2ee81511edac123a3403c357fb972a9060200160405180910390a2005b600080fd5b34801561020857600080fd5b5061021c610217366004611d1b565b61058e565b60405190151581526020015b60405180910390f35b34801561023d57600080fd5b5061024b65b5e620f4800081565b604051908152602001610228565b34801561026557600080fd5b5061024b610274366004611d45565b60009081526020819052604090206001015490565b34801561029557600080fd5b5061024b60035481565b3480156102ab57600080fd5b506102bf6102ba366004611d73565b61059f565b005b3480156102cd57600080fd5b506102bf6102dc366004611d73565b6105c9565b3480156102ed57600080fd5b506103157f000000000000000000000000000000000000000000000000000000000000000081565b6040516001600160a01b039091168152602001610228565b34801561033957600080fd5b506102bf61064c565b34801561034e57600080fd5b506002546103159061010090046001600160a01b031681565b34801561037357600080fd5b5061024b655af3107a400081565b34801561038d57600080fd5b5060025460ff1661021c565b3480156103a557600080fd5b506102bf6103b4366004611da3565b610662565b3480156103c557600080fd5b5061021c6103d4366004611e03565b805160208183018101805160058252928201919093012091525460ff1681565b34801561040057600080fd5b506102bf61040f366004611da3565b6106cd565b6102bf610422366004611ee5565b61077d565b34801561043357600080fd5b5061024b600081565b34801561044857600080fd5b506102bf610c5d565b34801561045d57600080fd5b5061021c61046c366004611d73565b610c70565b34801561047d57600080fd5b5061024b60008051602061237a83398151915281565b34801561049f57600080fd5b506102bf6104ae366004611da3565b610c99565b3480156104bf57600080fd5b506102bf6104ce366004611f4a565b610d35565b3480156104df57600080fd5b5061024b660110d9316ec00081565b3480156104fa57600080fd5b506102bf610509366004611d73565b61121f565b34801561051a57600080fd5b506102bf610529366004611d45565b611244565b34801561053a57600080fd5b506102bf610549366004611fbd565b6113d6565b34801561055a57600080fd5b50600454610315906001600160a01b031681565b34801561057a57600080fd5b506102bf610589366004611d45565b6114e0565b6000610599826115db565b92915050565b6000828152602081905260409020600101546105ba81611610565b6105c4838361161a565b505050565b6001600160a01b038116331461063e5760405162461bcd60e51b815260206004820152602f60248201527f416363657373436f6e74726f6c3a2063616e206f6e6c792072656e6f756e636560448201526e103937b632b9903337b91039b2b63360891b60648201526084015b60405180910390fd5b610648828261169e565b5050565b600061065781611610565b61065f611703565b50565b600061066d81611610565b61068560008051602061237a8339815191528361169e565b6040516001600160a01b0383169060008051602061237a833981519152907f155aaafb6329a2098580462df33ec4b7441b19729b9601c5fc17ae1cf99a8a5290600090a35050565b60006106d881611610565b6001600160a01b03821661071d5760405162461bcd60e51b815260206004820152600c60248201526b3d32b937903932b630bcb2b960a11b6044820152606401610635565b61073560008051602061237a8339815191528361161a565b6040516001600160a01b0383169060008051602061237a833981519152907f2ae6a113c0ed5b78a53413ffbb7679881f11145ccfba4fb92e863dfcd5a1d2f390600090a35050565b610785611755565b61078d6117ae565b660110d9316ec00034146107e35760405162461bcd60e51b815260206004820152601860248201527f496e636f7272656374207061796d656e7420616d6f756e7400000000000000006044820152606401610635565b600582826040516107f5929190611fe9565b9081526040519081900360200190205460ff16156108515760405162461bcd60e51b815260206004820152601960248201527814185e5b595b9d08185b1c9958591e481c1c9bd8d95cdcd959603a1b6044820152606401610635565b6001600160a01b03831661089b5760405162461bcd60e51b81526020600482015260116024820152701a5b9d985b1a59081c9958da5c1a595b9d607a1b6044820152606401610635565b6001600160a01b0384166108eb5760405162461bcd60e51b81526020600482015260176024820152761a5b9d985b1a5908185c9d1a5cdd0818dbdb9d1c9858dd604a1b6044820152606401610635565b6004546001600160a01b031661093b5760405162461bcd60e51b815260206004820152601560248201527411d85b1b195c9e481c185e5959481b9bdd081cd95d605a1b6044820152606401610635565b60016005838360405161094f929190611fe9565b908152602001604051809103902060006101000a81548160ff0219169083151502179055506000846001600160a01b0316638da5cb5b6040518163ffffffff1660e01b8152600401602060405180830381865afa9250505080156109d0575060408051601f3d908101601f191682019092526109cd91810190611ff9565b60015b6109ec5760405162461bcd60e51b815260040161063590612016565b6001600160a01b038116610a425760405162461bcd60e51b815260206004820152601b60248201527f417274697374206f776e6572206e6f7420636f6e6669677572656400000000006044820152606401610635565b90506040516001600160a01b0382169060009065b5e620f480009082818181858883f19350505050158015610a7b573d6000803e3d6000fd5b506004546040516001600160a01b0390911690600090655af3107a40009082818181858883f19350505050158015610ab7573d6000803e3d6000fd5b506000655af3107a4000610ad865b5e620f48000660110d9316ec00061207b565b610ae2919061207b565b9050856001600160a01b03166366100de2828787876040518563ffffffff1660e01b8152600401610b15939291906120b7565b6000604051808303818588803b158015610b2e57600080fd5b505af193505050508015610b40575060015b610bec57610b4c6120e5565b806308c379a003610ba25750610b60612101565b80610b6b5750610ba4565b80604051602001610b7c91906121af565b60408051601f198184030181529082905262461bcd60e51b8252610635916004016121e7565b505b60405162461bcd60e51b815260206004820152601d60248201527f4d696e74696e67206661696c65643a20756e6b6e6f776e206572726f720000006044820152606401610635565b846001600160a01b0316826001600160a01b0316876001600160a01b03167f9f5f2e026d346f31c5e7e284210968d5c32b9c42a43995fa31adf964d9cd672e660110d9316ec0008888604051610c449392919061221a565b60405180910390a45050610c5760018055565b50505050565b6000610c6881611610565b61065f6117f6565b6000918252602082815260408084206001600160a01b0393909316845291905290205460ff1690565b6000610ca481611610565b6001600160a01b038216610cea5760405162461bcd60e51b815260206004820152600d60248201526c696e76616c696420706179656560981b6044820152606401610635565b600480546001600160a01b0319166001600160a01b0384169081179091556040517f20b93562e05c6e5f99bebf52c1e2afe142d48f37032cbdd6a2583fbda41ec10090600090a25050565b610d4d60008051602061237a83398151915233610c70565b610d885760405162461bcd60e51b815260206004820152600c60248201526b27b7363c903932b630bcb2b960a11b6044820152606401610635565b610d90611755565b610d986117ae565b60058282604051610daa929190611fe9565b9081526040519081900360200190205460ff1615610e065760405162461bcd60e51b815260206004820152601960248201527814185e5b595b9d08185b1c9958591e481c1c9bd8d95cdcd959603a1b6044820152606401610635565b6040516370a0823160e01b81523060048201526000907f00000000000000000000000000000000000000000000000000000000000000006001600160a01b0316906370a0823190602401602060405180830381865afa158015610e6d573d6000803e3d6000fd5b505050506040513d601f19601f82011682018060405250810190610e919190612234565b905083811015610ed75760405162461bcd60e51b8152602060048201526011602482015270496e73756666696369656e74205553444360781b6044820152606401610635565b6001600160a01b038516610f215760405162461bcd60e51b81526020600482015260116024820152701a5b9d985b1a59081c9958da5c1a595b9d607a1b6044820152606401610635565b6001600160a01b038616610f715760405162461bcd60e51b81526020600482015260176024820152761a5b9d985b1a5908185c9d1a5cdd0818dbdb9d1c9858dd604a1b6044820152606401610635565b600160058484604051610f85929190611fe9565b908152602001604051809103902060006101000a81548160ff0219169083151502179055506000866001600160a01b0316638da5cb5b6040518163ffffffff1660e01b8152600401602060405180830381865afa925050508015611006575060408051601f3d908101601f1916820190925261100391810190611ff9565b60015b6110225760405162461bcd60e51b815260040161063590612016565b6001600160a01b0381166110785760405162461bcd60e51b815260206004820152601b60248201527f417274697374206f776e6572206e6f7420636f6e6669677572656400000000006044820152606401610635565b905060008060035411801561109c575060025461010090046001600160a01b031615155b6110a75760006110c2565b612710600354876110b8919061224d565b6110c29190612264565b9050801561110957600254611109906001600160a01b037f000000000000000000000000000000000000000000000000000000000000000081169161010090041683611833565b6000611115828861207b565b905061114b6001600160a01b037f0000000000000000000000000000000000000000000000000000000000000000168483611833565b604051634ed6a5f760e01b81526001600160a01b038a1690634ed6a5f79061117b908b908a908a906004016120b7565b600060405180830381600087803b15801561119557600080fd5b505af19250505080156111a6575060015b6111b257610b4c6120e5565b876001600160a01b0316836001600160a01b03168a6001600160a01b03167f9f5f2e026d346f31c5e7e284210968d5c32b9c42a43995fa31adf964d9cd672e8a8a8a6040516112039392919061221a565b60405180910390a45050505061121860018055565b5050505050565b60008281526020819052604090206001015461123a81611610565b6105c4838361169e565b600061124f81611610565b6112576117ae565b6000821161129c5760405162461bcd60e51b81526020600482015260126024820152710616d6f756e74206d757374206265203e20360741b6044820152606401610635565b6040516370a0823160e01b815230600482015282907f00000000000000000000000000000000000000000000000000000000000000006001600160a01b0316906370a0823190602401602060405180830381865afa158015611302573d6000803e3d6000fd5b505050506040513d601f19601f820116820180604052508101906113269190612234565b10156113685760405162461bcd60e51b8152602060048201526011602482015270496e73756666696369656e74205553444360781b6044820152606401610635565b61139c6001600160a01b037f0000000000000000000000000000000000000000000000000000000000000000163384611833565b60405182815233907f9064b460fd73b0517caa24227d99918304810044cab6170024069608dc4ca0e6906020015b60405180910390a25050565b60006113e181611610565b6127108211156114235760405162461bcd60e51b815260206004820152600d60248201526c62707320746f6f206c6172676560981b6044820152606401610635565b6001600160a01b038316151580611438575081155b61147c5760405162461bcd60e51b81526020600482015260156024820152741a5b9d985b1a5908199959481c9958da5c1a595b9d605a1b6044820152606401610635565b6003805460028054610100600160a81b0319166101006001600160a01b0388169081029190911790915591849055604051909184918391907fcf5b6c438b64611d8ee0722509d7ad5149d4f779f0b29bc845152f0d89e42e1990600090a450505050565b60006114eb81611610565b6114f36117ae565b600082116115385760405162461bcd60e51b81526020600482015260126024820152710616d6f756e74206d757374206265203e20360741b6044820152606401610635565b8147101561157b5760405162461bcd60e51b815260206004820152601060248201526f092dce6eaccccd2c6d2cadce8408aa8960831b6044820152606401610635565b604051339083156108fc029084906000818181858888f193505050501580156115a8573d6000803e3d6000fd5b5060405182815233907f5817fe91d2748c33f168d8a78037fc073adaf6ec8e3613a758d44a2cfae4563d906020016113ca565b60006001600160e01b03198216637965db0b60e01b148061059957506301ffc9a760e01b6001600160e01b0319831614610599565b61065f8133611885565b6116248282610c70565b610648576000828152602081815260408083206001600160a01b03851684529091529020805460ff1916600117905561165a3390565b6001600160a01b0316816001600160a01b0316837f2f8788117e7eff1d82e926ec794901d17c78024a50270940304540a733656f0d60405160405180910390a45050565b6116a88282610c70565b15610648576000828152602081815260408083206001600160a01b0385168085529252808320805460ff1916905551339285917ff6391f5c32d9c69d2a47ea670b442974b53935d1edc7fd64eb21e047a839171b9190a45050565b61170b6118b8565b6002805460ff191690557f5db9ee0a495bf2e6ff9c91a7834c1ba4fdd244a5e8aa4e537bd38aeae4b073aa335b6040516001600160a01b03909116815260200160405180910390a1565b6002600154036117a75760405162461bcd60e51b815260206004820152601f60248201527f5265656e7472616e637947756172643a207265656e7472616e742063616c6c006044820152606401610635565b6002600155565b60025460ff16156117f45760405162461bcd60e51b815260206004820152601060248201526f14185d5cd8589b194e881c185d5cd95960821b6044820152606401610635565b565b6117fe6117ae565b6002805460ff191660011790557f62e78cea01bee320cd4e420270b5ea74000d11b0c9f74754ebdbfc544b05a2586117383390565b604080516001600160a01b038416602482015260448082018490528251808303909101815260649091019091526020810180516001600160e01b031663a9059cbb60e01b1790526105c4908490611901565b61188f8282610c70565b6106485761189c816119d6565b6118a78360206119e8565b604051602001610b7c929190612286565b60025460ff166117f45760405162461bcd60e51b815260206004820152601460248201527314185d5cd8589b194e881b9bdd081c185d5cd95960621b6044820152606401610635565b6000611956826040518060400160405280602081526020017f5361666545524332303a206c6f772d6c6576656c2063616c6c206661696c6564815250856001600160a01b0316611b8b9092919063ffffffff16565b905080516000148061197757508080602001905181019061197791906122fb565b6105c45760405162461bcd60e51b815260206004820152602a60248201527f5361666545524332303a204552433230206f7065726174696f6e20646964206e6044820152691bdd081cdd58d8d9595960b21b6064820152608401610635565b60606105996001600160a01b03831660145b606060006119f783600261224d565b611a0290600261231d565b67ffffffffffffffff811115611a1a57611a1a611dc0565b6040519080825280601f01601f191660200182016040528015611a44576020820181803683370190505b509050600360fc1b81600081518110611a5f57611a5f612330565b60200101906001600160f81b031916908160001a905350600f60fb1b81600181518110611a8e57611a8e612330565b60200101906001600160f81b031916908160001a9053506000611ab284600261224d565b611abd90600161231d565b90505b6001811115611b35576f181899199a1a9b1b9c1cb0b131b232b360811b85600f1660108110611af157611af1612330565b1a60f81b828281518110611b0757611b07612330565b60200101906001600160f81b031916908160001a90535060049490941c93611b2e81612346565b9050611ac0565b508315611b845760405162461bcd60e51b815260206004820181905260248201527f537472696e67733a20686578206c656e67746820696e73756666696369656e746044820152606401610635565b9392505050565b6060611b9a8484600085611ba2565b949350505050565b606082471015611c035760405162461bcd60e51b815260206004820152602660248201527f416464726573733a20696e73756666696369656e742062616c616e636520666f6044820152651c8818d85b1b60d21b6064820152608401610635565b600080866001600160a01b03168587604051611c1f919061235d565b60006040518083038185875af1925050503d8060008114611c5c576040519150601f19603f3d011682016040523d82523d6000602084013e611c61565b606091505b5091509150611c7287838387611c7d565b979650505050505050565b60608315611cec578251600003611ce5576001600160a01b0385163b611ce55760405162461bcd60e51b815260206004820152601d60248201527f416464726573733a2063616c6c20746f206e6f6e2d636f6e74726163740000006044820152606401610635565b5081611b9a565b611b9a8383815115611d015781518083602001fd5b8060405162461bcd60e51b815260040161063591906121e7565b600060208284031215611d2d57600080fd5b81356001600160e01b031981168114611b8457600080fd5b600060208284031215611d5757600080fd5b5035919050565b6001600160a01b038116811461065f57600080fd5b60008060408385031215611d8657600080fd5b823591506020830135611d9881611d5e565b809150509250929050565b600060208284031215611db557600080fd5b8135611b8481611d5e565b634e487b7160e01b600052604160045260246000fd5b601f8201601f1916810167ffffffffffffffff81118282101715611dfc57611dfc611dc0565b6040525050565b60006020808385031215611e1657600080fd5b823567ffffffffffffffff80821115611e2e57600080fd5b818501915085601f830112611e4257600080fd5b813581811115611e5457611e54611dc0565b6040519150611e6c601f8201601f1916850183611dd6565b8082528684828501011115611e8057600080fd5b8084840185840137600090820190930192909252509392505050565b60008083601f840112611eae57600080fd5b50813567ffffffffffffffff811115611ec657600080fd5b602083019150836020828501011115611ede57600080fd5b9250929050565b60008060008060608587031215611efb57600080fd5b8435611f0681611d5e565b93506020850135611f1681611d5e565b9250604085013567ffffffffffffffff811115611f3257600080fd5b611f3e87828801611e9c565b95989497509550505050565b600080600080600060808688031215611f6257600080fd5b8535611f6d81611d5e565b94506020860135611f7d81611d5e565b935060408601359250606086013567ffffffffffffffff811115611fa057600080fd5b611fac88828901611e9c565b969995985093965092949392505050565b60008060408385031215611fd057600080fd5b8235611fdb81611d5e565b946020939093013593505050565b8183823760009101908152919050565b60006020828403121561200b57600080fd5b8151611b8481611d5e565b6020808252602f908201527f41727469737420636f6e7472616374206d75737420696d706c656d656e74206f60408201526e3bb732b9141490333ab731ba34b7b760891b606082015260800190565b634e487b7160e01b600052601160045260246000fd5b8181038181111561059957610599612065565b81835281816020850137506000828201602090810191909152601f909101601f19169091010190565b6001600160a01b03841681526040602082018190526000906120dc908301848661208e565b95945050505050565b600060033d11156120fe5760046000803e5060005160e01c5b90565b600060443d101561210f5790565b6040516003193d81016004833e81513d67ffffffffffffffff816024840111818411171561213f57505050505090565b82850191508151818111156121575750505050505090565b843d87010160208285010111156121715750505050505090565b61218060208286010187611dd6565b509095945050505050565b60005b838110156121a657818101518382015260200161218e565b50506000910152565b6f026b4b73a34b733903330b4b632b21d160851b8152600082516121da81601085016020870161218b565b9190910160100192915050565b602081526000825180602084015261220681604085016020870161218b565b601f01601f19169190910160400192915050565b8381526040602082015260006120dc60408301848661208e565b60006020828403121561224657600080fd5b5051919050565b808202811582820484141761059957610599612065565b60008261228157634e487b7160e01b600052601260045260246000fd5b500490565b7f416363657373436f6e74726f6c3a206163636f756e74200000000000000000008152600083516122be81601785016020880161218b565b7001034b99036b4b9b9b4b733903937b6329607d1b60179184019182015283516122ef81602884016020880161218b565b01602801949350505050565b60006020828403121561230d57600080fd5b81518015158114611b8457600080fd5b8082018082111561059957610599612065565b634e487b7160e01b600052603260045260246000fd5b60008161235557612355612065565b506000190190565b6000825161236f81846020870161218b565b919091019291505056fee2b7fb3b832174769106daebcfd6d1970523240dda11281102db9363b83b0dc4a264697066735822122039c529c9d62509fe6ffe105dd24a18d67cc9dd2c705ec816ba90301eb895ca0864736f6c63430008130033",
		"opcodes": "PUSH1 0xA0 PUSH1 0x40 MSTORE CALLVALUE DUP1 ISZERO PUSH3 0x11 JUMPI PUSH1 0x0 DUP1 REVERT JUMPDEST POP PUSH1 0x40 MLOAD PUSH3 0x279A CODESIZE SUB DUP1 PUSH3 0x279A DUP4 CODECOPY DUP2 ADD PUSH1 0x40 DUP2 SWAP1 MSTORE PUSH3 0x34 SWAP2 PUSH3 0x31C JUMP JUMPDEST PUSH1 0x1 DUP1 SSTORE PUSH1 0x2 DUP1 SLOAD PUSH1 0xFF NOT AND SWAP1 SSTORE PUSH1 0x1 PUSH1 0x1 PUSH1 0xA0 SHL SUB DUP6 AND PUSH1 0x80 DUP2 SWAP1 MSTORE PUSH3 0xA3 JUMPI PUSH1 0x40 MLOAD PUSH3 0x461BCD PUSH1 0xE5 SHL DUP2 MSTORE PUSH1 0x20 PUSH1 0x4 DUP3 ADD MSTORE PUSH1 0x15 PUSH1 0x24 DUP3 ADD MSTORE PUSH32 0x5553444320616464726573732072657175697265640000000000000000000000 PUSH1 0x44 DUP3 ADD MSTORE PUSH1 0x64 ADD JUMPDEST PUSH1 0x40 MLOAD DUP1 SWAP2 SUB SWAP1 REVERT JUMPDEST PUSH1 0x2 DUP1 SLOAD PUSH2 0x100 PUSH1 0x1 PUSH1 0xA8 SHL SUB NOT AND PUSH2 0x100 PUSH1 0x1 PUSH1 0x1 PUSH1 0xA0 SHL SUB DUP8 AND SWAP1 DUP2 MUL SWAP2 SWAP1 SWAP2 OR SWAP1 SWAP2 SSTORE PUSH3 0x10A JUMPI PUSH1 0x40 MLOAD PUSH3 0x461BCD PUSH1 0xE5 SHL DUP2 MSTORE PUSH1 0x20 PUSH1 0x4 DUP3 ADD MSTORE PUSH1 0x10 PUSH1 0x24 DUP3 ADD MSTORE PUSH16 0x496E76616C6964206D756C7469736967 PUSH1 0x80 SHL PUSH1 0x44 DUP3 ADD MSTORE PUSH1 0x64 ADD PUSH3 0x9A JUMP JUMPDEST PUSH1 0x0 PUSH1 0x3 SSTORE PUSH1 0x4 DUP1 SLOAD PUSH1 0x1 PUSH1 0x1 PUSH1 0xA0 SHL SUB NOT AND PUSH1 0x1 PUSH1 0x1 PUSH1 0xA0 SHL SUB DUP6 AND SWAP1 DUP2 OR SWAP1 SWAP2 SSTORE PUSH3 0x17B JUMPI PUSH1 0x40 MLOAD PUSH3 0x461BCD PUSH1 0xE5 SHL DUP2 MSTORE PUSH1 0x20 PUSH1 0x4 DUP3 ADD MSTORE PUSH1 0x16 PUSH1 0x24 DUP3 ADD MSTORE PUSH32 0x47616C6C65727920706179656520726571756972656400000000000000000000 PUSH1 0x44 DUP3 ADD MSTORE PUSH1 0x64 ADD PUSH3 0x9A JUMP JUMPDEST PUSH1 0x1 PUSH1 0x1 PUSH1 0xA0 SHL SUB DUP3 AND PUSH3 0x1C5 JUMPI PUSH1 0x40 MLOAD PUSH3 0x461BCD PUSH1 0xE5 SHL DUP2 MSTORE PUSH1 0x20 PUSH1 0x4 DUP3 ADD MSTORE PUSH1 0xF PUSH1 0x24 DUP3 ADD MSTORE PUSH15 0x24B73B30B634B2103932B630BCB2B9 PUSH1 0x89 SHL PUSH1 0x44 DUP3 ADD MSTORE PUSH1 0x64 ADD PUSH3 0x9A JUMP JUMPDEST PUSH1 0x1 PUSH1 0x1 PUSH1 0xA0 SHL SUB DUP2 AND PUSH3 0x20D JUMPI PUSH1 0x40 MLOAD PUSH3 0x461BCD PUSH1 0xE5 SHL DUP2 MSTORE PUSH1 0x20 PUSH1 0x4 DUP3 ADD MSTORE PUSH1 0xD PUSH1 0x24 DUP3 ADD MSTORE PUSH13 0x24B73B30B634B21030B236B4B7 PUSH1 0x99 SHL PUSH1 0x44 DUP3 ADD MSTORE PUSH1 0x64 ADD PUSH3 0x9A JUMP JUMPDEST PUSH3 0x21A PUSH1 0x0 DUP3 PUSH3 0x25E JUMP JUMPDEST PUSH3 0x227 PUSH1 0x0 DUP6 PUSH3 0x25E JUMP JUMPDEST PUSH3 0x253 PUSH32 0xE2B7FB3B832174769106DAEBCFD6D1970523240DDA11281102DB9363B83B0DC4 DUP4 PUSH3 0x25E JUMP JUMPDEST POP POP POP POP POP PUSH3 0x38C JUMP JUMPDEST PUSH1 0x0 DUP3 DUP2 MSTORE PUSH1 0x20 DUP2 DUP2 MSTORE PUSH1 0x40 DUP1 DUP4 KECCAK256 PUSH1 0x1 PUSH1 0x1 PUSH1 0xA0 SHL SUB DUP6 AND DUP5 MSTORE SWAP1 SWAP2 MSTORE SWAP1 KECCAK256 SLOAD PUSH1 0xFF AND PUSH3 0x2FB JUMPI PUSH1 0x0 DUP3 DUP2 MSTORE PUSH1 0x20 DUP2 DUP2 MSTORE PUSH1 0x40 DUP1 DUP4 KECCAK256 PUSH1 0x1 PUSH1 0x1 PUSH1 0xA0 SHL SUB DUP6 AND DUP5 MSTORE SWAP1 SWAP2 MSTORE SWAP1 KECCAK256 DUP1 SLOAD PUSH1 0xFF NOT AND PUSH1 0x1 OR SWAP1 SSTORE PUSH3 0x2BA CALLER SWAP1 JUMP JUMPDEST PUSH1 0x1 PUSH1 0x1 PUSH1 0xA0 SHL SUB AND DUP2 PUSH1 0x1 PUSH1 0x1 PUSH1 0xA0 SHL SUB AND DUP4 PUSH32 0x2F8788117E7EFF1D82E926EC794901D17C78024A50270940304540A733656F0D PUSH1 0x40 MLOAD PUSH1 0x40 MLOAD DUP1 SWAP2 SUB SWAP1 LOG4 JUMPDEST POP POP JUMP JUMPDEST DUP1 MLOAD PUSH1 0x1 PUSH1 0x1 PUSH1 0xA0 SHL SUB DUP2 AND DUP2 EQ PUSH3 0x317 JUMPI PUSH1 0x0 DUP1 REVERT JUMPDEST SWAP2 SWAP1 POP JUMP JUMPDEST PUSH1 0x0 DUP1 PUSH1 0x0 DUP1 PUSH1 0x0 PUSH1 0xA0 DUP7 DUP9 SUB SLT ISZERO PUSH3 0x335 JUMPI PUSH1 0x0 DUP1 REVERT JUMPDEST PUSH3 0x340 DUP7 PUSH3 0x2FF JUMP JUMPDEST SWAP5 POP PUSH3 0x350 PUSH1 0x20 DUP8 ADD PUSH3 0x2FF JUMP JUMPDEST SWAP4 POP PUSH3 0x360 PUSH1 0x40 DUP8 ADD PUSH3 0x2FF JUMP JUMPDEST SWAP3 POP PUSH3 0x370 PUSH1 0x60 DUP8 ADD PUSH3 0x2FF JUMP JUMPDEST SWAP2 POP PUSH3 0x380 PUSH1 0x80 DUP8 ADD PUSH3 0x2FF JUMP JUMPDEST SWAP1 POP SWAP3 SWAP6 POP SWAP3 SWAP6 SWAP1 SWAP4 POP JUMP JUMPDEST PUSH1 0x80 MLOAD PUSH2 0x23CF PUSH3 0x3CB PUSH1 0x0 CODECOPY PUSH1 0x0 DUP2 DUP2 PUSH2 0x2F3 ADD MSTORE DUP2 DUP2 PUSH2 0xE1E ADD MSTORE DUP2 DUP2 PUSH2 0x10DB ADD MSTORE DUP2 DUP2 PUSH2 0x1124 ADD MSTORE DUP2 DUP2 PUSH2 0x12B3 ADD MSTORE PUSH2 0x1375 ADD MSTORE PUSH2 0x23CF PUSH1 0x0 RETURN INVALID PUSH1 0x80 PUSH1 0x40 MSTORE PUSH1 0x4 CALLDATASIZE LT PUSH2 0x1BB JUMPI PUSH1 0x0 CALLDATALOAD PUSH1 0xE0 SHR DUP1 PUSH4 0x725A8294 GT PUSH2 0xEC JUMPI DUP1 PUSH4 0xBBE96B00 GT PUSH2 0x8A JUMPI DUP1 PUSH4 0xDB81F99B GT PUSH2 0x64 JUMPI DUP1 PUSH4 0xDB81F99B EQ PUSH2 0x50E JUMPI DUP1 PUSH4 0xE55156B5 EQ PUSH2 0x52E JUMPI DUP1 PUSH4 0xEAA60742 EQ PUSH2 0x54E JUMPI DUP1 PUSH4 0xF14210A6 EQ PUSH2 0x56E JUMPI PUSH1 0x0 DUP1 REVERT JUMPDEST DUP1 PUSH4 0xBBE96B00 EQ PUSH2 0x4B3 JUMPI DUP1 PUSH4 0xC002D23D EQ PUSH2 0x4D3 JUMPI DUP1 PUSH4 0xD547741F EQ PUSH2 0x4EE JUMPI PUSH1 0x0 DUP1 REVERT JUMPDEST DUP1 PUSH4 0x91D14854 GT PUSH2 0xC6 JUMPI DUP1 PUSH4 0x91D14854 EQ PUSH2 0x451 JUMPI DUP1 PUSH4 0x926D7D7F EQ PUSH2 0x471 JUMPI DUP1 PUSH4 0xA217FDDF EQ PUSH2 0x427 JUMPI DUP1 PUSH4 0xA93AA503 EQ PUSH2 0x493 JUMPI PUSH1 0x0 DUP1 REVERT JUMPDEST DUP1 PUSH4 0x725A8294 EQ PUSH2 0x414 JUMPI DUP1 PUSH4 0x75B238FC EQ PUSH2 0x427 JUMPI DUP1 PUSH4 0x8456CB59 EQ PUSH2 0x43C JUMPI PUSH1 0x0 DUP1 REVERT JUMPDEST DUP1 PUSH4 0x3F4BA83A GT PUSH2 0x159 JUMPI DUP1 PUSH4 0x5C975ABB GT PUSH2 0x133 JUMPI DUP1 PUSH4 0x5C975ABB EQ PUSH2 0x381 JUMPI DUP1 PUSH4 0x60F0A5AC EQ PUSH2 0x399 JUMPI DUP1 PUSH4 0x623E752B EQ PUSH2 0x3B9 JUMPI DUP1 PUSH4 0x6548E9BC EQ PUSH2 0x3F4 JUMPI PUSH1 0x0 DUP1 REVERT JUMPDEST DUP1 PUSH4 0x3F4BA83A EQ PUSH2 0x32D JUMPI DUP1 PUSH4 0x46904840 EQ PUSH2 0x342 JUMPI DUP1 PUSH4 0x4AF044AA EQ PUSH2 0x367 JUMPI PUSH1 0x0 DUP1 REVERT JUMPDEST DUP1 PUSH4 0x24A9D853 GT PUSH2 0x195 JUMPI DUP1 PUSH4 0x24A9D853 EQ PUSH2 0x289 JUMPI DUP1 PUSH4 0x2F2FF15D EQ PUSH2 0x29F JUMPI DUP1 PUSH4 0x36568ABE EQ PUSH2 0x2C1 JUMPI DUP1 PUSH4 0x3E413BEE EQ PUSH2 0x2E1 JUMPI PUSH1 0x0 DUP1 REVERT JUMPDEST DUP1 PUSH4 0x1FFC9A7 EQ PUSH2 0x1FC JUMPI DUP1 PUSH4 0x1EC7605C EQ PUSH2 0x231 JUMPI DUP1 PUSH4 0x248A9CA3 EQ PUSH2 0x259 JUMPI PUSH1 0x0 DUP1 REVERT JUMPDEST CALLDATASIZE PUSH2 0x1F7 JUMPI PUSH1 0x40 MLOAD CALLVALUE DUP2 MSTORE CALLER SWAP1 PUSH32 0xBFE611B001DFCD411432F7BF0D79B82B4B2EE81511EDAC123A3403C357FB972A SWAP1 PUSH1 0x20 ADD PUSH1 0x40 MLOAD DUP1 SWAP2 SUB SWAP1 LOG2 STOP JUMPDEST PUSH1 0x0 DUP1 REVERT JUMPDEST CALLVALUE DUP1 ISZERO PUSH2 0x208 JUMPI PUSH1 0x0 DUP1 REVERT JUMPDEST POP PUSH2 0x21C PUSH2 0x217 CALLDATASIZE PUSH1 0x4 PUSH2 0x1D1B JUMP JUMPDEST PUSH2 0x58E JUMP JUMPDEST PUSH1 0x40 MLOAD SWAP1 ISZERO ISZERO DUP2 MSTORE PUSH1 0x20 ADD JUMPDEST PUSH1 0x40 MLOAD DUP1 SWAP2 SUB SWAP1 RETURN JUMPDEST CALLVALUE DUP1 ISZERO PUSH2 0x23D JUMPI PUSH1 0x0 DUP1 REVERT JUMPDEST POP PUSH2 0x24B PUSH6 0xB5E620F48000 DUP2 JUMP JUMPDEST PUSH1 0x40 MLOAD SWAP1 DUP2 MSTORE PUSH1 0x20 ADD PUSH2 0x228 JUMP JUMPDEST CALLVALUE DUP1 ISZERO PUSH2 0x265 JUMPI PUSH1 0x0 DUP1 REVERT JUMPDEST POP PUSH2 0x24B PUSH2 0x274 CALLDATASIZE PUSH1 0x4 PUSH2 0x1D45 JUMP JUMPDEST PUSH1 0x0 SWAP1 DUP2 MSTORE PUSH1 0x20 DUP2 SWAP1 MSTORE PUSH1 0x40 SWAP1 KECCAK256 PUSH1 0x1 ADD SLOAD SWAP1 JUMP JUMPDEST CALLVALUE DUP1 ISZERO PUSH2 0x295 JUMPI PUSH1 0x0 DUP1 REVERT JUMPDEST POP PUSH2 0x24B PUSH1 0x3 SLOAD DUP2 JUMP JUMPDEST CALLVALUE DUP1 ISZERO PUSH2 0x2AB JUMPI PUSH1 0x0 DUP1 REVERT JUMPDEST POP PUSH2 0x2BF PUSH2 0x2BA CALLDATASIZE PUSH1 0x4 PUSH2 0x1D73 JUMP JUMPDEST PUSH2 0x59F JUMP JUMPDEST STOP JUMPDEST CALLVALUE DUP1 ISZERO PUSH2 0x2CD JUMPI PUSH1 0x0 DUP1 REVERT JUMPDEST POP PUSH2 0x2BF PUSH2 0x2DC CALLDATASIZE PUSH1 0x4 PUSH2 0x1D73 JUMP JUMPDEST PUSH2 0x5C9 JUMP JUMPDEST CALLVALUE DUP1 ISZERO PUSH2 0x2ED JUMPI PUSH1 0x0 DUP1 REVERT JUMPDEST POP PUSH2 0x315 PUSH32 0x0 DUP2 JUMP JUMPDEST PUSH1 0x40 MLOAD PUSH1 0x1 PUSH1 0x1 PUSH1 0xA0 SHL SUB SWAP1 SWAP2 AND DUP2 MSTORE PUSH1 0x20 ADD PUSH2 0x228 JUMP JUMPDEST CALLVALUE DUP1 ISZERO PUSH2 0x339 JUMPI PUSH1 0x0 DUP1 REVERT JUMPDEST POP PUSH2 0x2BF PUSH2 0x64C JUMP JUMPDEST CALLVALUE DUP1 ISZERO PUSH2 0x34E JUMPI PUSH1 0x0 DUP1 REVERT JUMPDEST POP PUSH1 0x2 SLOAD PUSH2 0x315 SWAP1 PUSH2 0x100 SWAP1 DIV PUSH1 0x1 PUSH1 0x1 PUSH1 0xA0 SHL SUB AND DUP2 JUMP JUMPDEST CALLVALUE DUP1 ISZERO PUSH2 0x373 JUMPI PUSH1 0x0 DUP1 REVERT JUMPDEST POP PUSH2 0x24B PUSH6 0x5AF3107A4000 DUP2 JUMP JUMPDEST CALLVALUE DUP1 ISZERO PUSH2 0x38D JUMPI PUSH1 0x0 DUP1 REVERT JUMPDEST POP PUSH1 0x2 SLOAD PUSH1 0xFF AND PUSH2 0x21C JUMP JUMPDEST CALLVALUE DUP1 ISZERO PUSH2 0x3A5 JUMPI PUSH1 0x0 DUP1 REVERT JUMPDEST POP PUSH2 0x2BF PUSH2 0x3B4 CALLDATASIZE PUSH1 0x4 PUSH2 0x1DA3 JUMP JUMPDEST PUSH2 0x662 JUMP JUMPDEST CALLVALUE DUP1 ISZERO PUSH2 0x3C5 JUMPI PUSH1 0x0 DUP1 REVERT JUMPDEST POP PUSH2 0x21C PUSH2 0x3D4 CALLDATASIZE PUSH1 0x4 PUSH2 0x1E03 JUMP JUMPDEST DUP1 MLOAD PUSH1 0x20 DUP2 DUP4 ADD DUP2 ADD DUP1 MLOAD PUSH1 0x5 DUP3 MSTORE SWAP3 DUP3 ADD SWAP2 SWAP1 SWAP4 ADD KECCAK256 SWAP2 MSTORE SLOAD PUSH1 0xFF AND DUP2 JUMP JUMPDEST CALLVALUE DUP1 ISZERO PUSH2 0x400 JUMPI PUSH1 0x0 DUP1 REVERT JUMPDEST POP PUSH2 0x2BF PUSH2 0x40F CALLDATASIZE PUSH1 0x4 PUSH2 0x1DA3 JUMP JUMPDEST PUSH2 0x6CD JUMP JUMPDEST PUSH2 0x2BF PUSH2 0x422 CALLDATASIZE PUSH1 0x4 PUSH2 0x1EE5 JUMP JUMPDEST PUSH2 0x77D JUMP JUMPDEST CALLVALUE DUP1 ISZERO PUSH2 0x433 JUMPI PUSH1 0x0 DUP1 REVERT JUMPDEST POP PUSH2 0x24B PUSH1 0x0 DUP2 JUMP JUMPDEST CALLVALUE DUP1 ISZERO PUSH2 0x448 JUMPI PUSH1 0x0 DUP1 REVERT JUMPDEST POP PUSH2 0x2BF PUSH2 0xC5D JUMP JUMPDEST CALLVALUE DUP1 ISZERO PUSH2 0x45D JUMPI PUSH1 0x0 DUP1 REVERT JUMPDEST POP PUSH2 0x21C PUSH2 0x46C CALLDATASIZE PUSH1 0x4 PUSH2 0x1D73 JUMP JUMPDEST PUSH2 0xC70 JUMP JUMPDEST CALLVALUE DUP1 ISZERO PUSH2 0x47D JUMPI PUSH1 0x0 DUP1 REVERT JUMPDEST POP PUSH2 0x24B PUSH1 0x0 DUP1 MLOAD PUSH1 0x20 PUSH2 0x237A DUP4 CODECOPY DUP2 MLOAD SWAP2 MSTORE DUP2 JUMP JUMPDEST CALLVALUE DUP1 ISZERO PUSH2 0x49F JUMPI PUSH1 0x0 DUP1 REVERT JUMPDEST POP PUSH2 0x2BF PUSH2 0x4AE CALLDATASIZE PUSH1 0x4 PUSH2 0x1DA3 JUMP JUMPDEST PUSH2 0xC99 JUMP JUMPDEST CALLVALUE DUP1 ISZERO PUSH2 0x4BF JUMPI PUSH1 0x0 DUP1 REVERT JUMPDEST POP PUSH2 0x2BF PUSH2 0x4CE CALLDATASIZE PUSH1 0x4 PUSH2 0x1F4A JUMP JUMPDEST PUSH2 0xD35 JUMP JUMPDEST CALLVALUE DUP1 ISZERO PUSH2 0x4DF JUMPI PUSH1 0x0 DUP1 REVERT JUMPDEST POP PUSH2 0x24B PUSH7 0x110D9316EC000 DUP2 JUMP JUMPDEST CALLVALUE DUP1 ISZERO PUSH2 0x4FA JUMPI PUSH1 0x0 DUP1 REVERT JUMPDEST POP PUSH2 0x2BF PUSH2 0x509 CALLDATASIZE PUSH1 0x4 PUSH2 0x1D73 JUMP JUMPDEST PUSH2 0x121F JUMP JUMPDEST CALLVALUE DUP1 ISZERO PUSH2 0x51A JUMPI PUSH1 0x0 DUP1 REVERT JUMPDEST POP PUSH2 0x2BF PUSH2 0x529 CALLDATASIZE PUSH1 0x4 PUSH2 0x1D45 JUMP JUMPDEST PUSH2 0x1244 JUMP JUMPDEST CALLVALUE DUP1 ISZERO PUSH2 0x53A JUMPI PUSH1 0x0 DUP1 REVERT JUMPDEST POP PUSH2 0x2BF PUSH2 0x549 CALLDATASIZE PUSH1 0x4 PUSH2 0x1FBD JUMP JUMPDEST PUSH2 0x13D6 JUMP JUMPDEST CALLVALUE DUP1 ISZERO PUSH2 0x55A JUMPI PUSH1 0x0 DUP1 REVERT JUMPDEST POP PUSH1 0x4 SLOAD PUSH2 0x315 SWAP1 PUSH1 0x1 PUSH1 0x1 PUSH1 0xA0 SHL SUB AND DUP2 JUMP JUMPDEST CALLVALUE DUP1 ISZERO PUSH2 0x57A JUMPI PUSH1 0x0 DUP1 REVERT JUMPDEST POP PUSH2 0x2BF PUSH2 0x589 CALLDATASIZE PUSH1 0x4 PUSH2 0x1D45 JUMP JUMPDEST PUSH2 0x14E0 JUMP JUMPDEST PUSH1 0x0 PUSH2 0x599 DUP3 PUSH2 0x15DB JUMP JUMPDEST SWAP3 SWAP2 POP POP JUMP JUMPDEST PUSH1 0x0 DUP3 DUP2 MSTORE PUSH1 0x20 DUP2 SWAP1 MSTORE PUSH1 0x40 SWAP1 KECCAK256 PUSH1 0x1 ADD SLOAD PUSH2 0x5BA DUP2 PUSH2 0x1610 JUMP JUMPDEST PUSH2 0x5C4 DUP4 DUP4 PUSH2 0x161A JUMP JUMPDEST POP POP POP JUMP JUMPDEST PUSH1 0x1 PUSH1 0x1 PUSH1 0xA0 SHL SUB DUP2 AND CALLER EQ PUSH2 0x63E JUMPI PUSH1 0x40 MLOAD PUSH3 0x461BCD PUSH1 0xE5 SHL DUP2 MSTORE PUSH1 0x20 PUSH1 0x4 DUP3 ADD MSTORE PUSH1 0x2F PUSH1 0x24 DUP3 ADD MSTORE PUSH32 0x416363657373436F6E74726F6C3A2063616E206F6E6C792072656E6F756E6365 PUSH1 0x44 DUP3 ADD MSTORE PUSH15 0x103937B632B9903337B91039B2B633 PUSH1 0x89 SHL PUSH1 0x64 DUP3 ADD MSTORE PUSH1 0x84 ADD JUMPDEST PUSH1 0x40 MLOAD DUP1 SWAP2 SUB SWAP1 REVERT JUMPDEST PUSH2 0x648 DUP3 DUP3 PUSH2 0x169E JUMP JUMPDEST POP POP JUMP JUMPDEST PUSH1 0x0 PUSH2 0x657 DUP2 PUSH2 0x1610 JUMP JUMPDEST PUSH2 0x65F PUSH2 0x1703 JUMP JUMPDEST POP JUMP JUMPDEST PUSH1 0x0 PUSH2 0x66D DUP2 PUSH2 0x1610 JUMP JUMPDEST PUSH2 0x685 PUSH1 0x0 DUP1 MLOAD PUSH1 0x20 PUSH2 0x237A DUP4 CODECOPY DUP2 MLOAD SWAP2 MSTORE DUP4 PUSH2 0x169E JUMP JUMPDEST PUSH1 0x40 MLOAD PUSH1 0x1 PUSH1 0x1 PUSH1 0xA0 SHL SUB DUP4 AND SWAP1 PUSH1 0x0 DUP1 MLOAD PUSH1 0x20 PUSH2 0x237A DUP4 CODECOPY DUP2 MLOAD SWAP2 MSTORE SWAP1 PUSH32 0x155AAAFB6329A2098580462DF33EC4B7441B19729B9601C5FC17AE1CF99A8A52 SWAP1 PUSH1 0x0 SWAP1 LOG3 POP POP JUMP JUMPDEST PUSH1 0x0 PUSH2 0x6D8 DUP2 PUSH2 0x1610 JUMP JUMPDEST PUSH1 0x1 PUSH1 0x1 PUSH1 0xA0 SHL SUB DUP3 AND PUSH2 0x71D JUMPI PUSH1 0x40 MLOAD PUSH3 0x461BCD PUSH1 0xE5 SHL DUP2 MSTORE PUSH1 0x20 PUSH1 0x4 DUP3 ADD MSTORE PUSH1 0xC PUSH1 0x24 DUP3 ADD MSTORE PUSH12 0x3D32B937903932B630BCB2B9 PUSH1 0xA1 SHL PUSH1 0x44 DUP3 ADD MSTORE PUSH1 0x64 ADD PUSH2 0x635 JUMP JUMPDEST PUSH2 0x735 PUSH1 0x0 DUP1 MLOAD PUSH1 0x20 PUSH2 0x237A DUP4 CODECOPY DUP2 MLOAD SWAP2 MSTORE DUP4 PUSH2 0x161A JUMP JUMPDEST PUSH1 0x40 MLOAD PUSH1 0x1 PUSH1 0x1 PUSH1 0xA0 SHL SUB DUP4 AND SWAP1 PUSH1 0x0 DUP1 MLOAD PUSH1 0x20 PUSH2 0x237A DUP4 CODECOPY DUP2 MLOAD SWAP2 MSTORE SWAP1 PUSH32 0x2AE6A113C0ED5B78A53413FFBB7679881F11145CCFBA4FB92E863DFCD5A1D2F3 SWAP1 PUSH1 0x0 SWAP1 LOG3 POP POP JUMP JUMPDEST PUSH2 0x785 PUSH2 0x1755 JUMP JUMPDEST PUSH2 0x78D PUSH2 0x17AE JUMP JUMPDEST PUSH7 0x110D9316EC000 CALLVALUE EQ PUSH2 0x7E3 JUMPI PUSH1 0x40 MLOAD PUSH3 0x461BCD PUSH1 0xE5 SHL DUP2 MSTORE PUSH1 0x20 PUSH1 0x4 DUP3 ADD MSTORE PUSH1 0x18 PUSH1 0x24 DUP3 ADD MSTORE PUSH32 0x496E636F7272656374207061796D656E7420616D6F756E740000000000000000 PUSH1 0x44 DUP3 ADD MSTORE PUSH1 0x64 ADD PUSH2 0x635 JUMP JUMPDEST PUSH1 0x5 DUP3 DUP3 PUSH1 0x40 MLOAD PUSH2 0x7F5 SWAP3 SWAP2 SWAP1 PUSH2 0x1FE9 JUMP JUMPDEST SWAP1 DUP2 MSTORE PUSH1 0x40 MLOAD SWAP1 DUP2 SWAP1 SUB PUSH1 0x20 ADD SWAP1 KECCAK256 SLOAD PUSH1 0xFF AND ISZERO PUSH2 0x851 JUMPI PUSH1 0x40 MLOAD PUSH3 0x461BCD PUSH1 0xE5 SHL DUP2 MSTORE PUSH1 0x20 PUSH1 0x4 DUP3 ADD MSTORE PUSH1 0x19 PUSH1 0x24 DUP3 ADD MSTORE PUSH25 0x14185E5B595B9D08185B1C9958591E481C1C9BD8D95CDCD959 PUSH1 0x3A SHL PUSH1 0x44 DUP3 ADD MSTORE PUSH1 0x64 ADD PUSH2 0x635 JUMP JUMPDEST PUSH1 0x1 PUSH1 0x1 PUSH1 0xA0 SHL SUB DUP4 AND PUSH2 0x89B JUMPI PUSH1 0x40 MLOAD PUSH3 0x461BCD PUSH1 0xE5 SHL DUP2 MSTORE PUSH1 0x20 PUSH1 0x4 DUP3 ADD MSTORE PUSH1 0x11 PUSH1 0x24 DUP3 ADD MSTORE PUSH17 0x1A5B9D985B1A59081C9958DA5C1A595B9D PUSH1 0x7A SHL PUSH1 0x44 DUP3 ADD MSTORE PUSH1 0x64 ADD PUSH2 0x635 JUMP JUMPDEST PUSH1 0x1 PUSH1 0x1 PUSH1 0xA0 SHL SUB DUP5 AND PUSH2 0x8EB JUMPI PUSH1 0x40 MLOAD PUSH3 0x461BCD PUSH1 0xE5 SHL DUP2 MSTORE PUSH1 0x20 PUSH1 0x4 DUP3 ADD MSTORE PUSH1 0x17 PUSH1 0x24 DUP3 ADD MSTORE PUSH23 0x1A5B9D985B1A5908185C9D1A5CDD0818DBDB9D1C9858DD PUSH1 0x4A SHL PUSH1 0x44 DUP3 ADD MSTORE PUSH1 0x64 ADD PUSH2 0x635 JUMP JUMPDEST PUSH1 0x4 SLOAD PUSH1 0x1 PUSH1 0x1 PUSH1 0xA0 SHL SUB AND PUSH2 0x93B JUMPI PUSH1 0x40 MLOAD PUSH3 0x461BCD PUSH1 0xE5 SHL DUP2 MSTORE PUSH1 0x20 PUSH1 0x4 DUP3 ADD MSTORE PUSH1 0x15 PUSH1 0x24 DUP3 ADD MSTORE PUSH21 0x11D85B1B195C9E481C185E5959481B9BDD081CD95D PUSH1 0x5A SHL PUSH1 0x44 DUP3 ADD MSTORE PUSH1 0x64 ADD PUSH2 0x635 JUMP JUMPDEST PUSH1 0x1 PUSH1 0x5 DUP4 DUP4 PUSH1 0x40 MLOAD PUSH2 0x94F SWAP3 SWAP2 SWAP1 PUSH2 0x1FE9 JUMP JUMPDEST SWAP1 DUP2 MSTORE PUSH1 0x20 ADD PUSH1 0x40 MLOAD DUP1 SWAP2 SUB SWAP1 KECCAK256 PUSH1 0x0 PUSH2 0x100 EXP DUP2 SLOAD DUP2 PUSH1 0xFF MUL NOT AND SWAP1 DUP4 ISZERO ISZERO MUL OR SWAP1 SSTORE POP PUSH1 0x0 DUP5 PUSH1 0x1 PUSH1 0x1 PUSH1 0xA0 SHL SUB AND PUSH4 0x8DA5CB5B PUSH1 0x40 MLOAD DUP2 PUSH4 0xFFFFFFFF AND PUSH1 0xE0 SHL DUP2 MSTORE PUSH1 0x4 ADD PUSH1 0x20 PUSH1 0x40 MLOAD DUP1 DUP4 SUB DUP2 DUP7 GAS STATICCALL SWAP3 POP POP POP DUP1 ISZERO PUSH2 0x9D0 JUMPI POP PUSH1 0x40 DUP1 MLOAD PUSH1 0x1F RETURNDATASIZE SWAP1 DUP2 ADD PUSH1 0x1F NOT AND DUP3 ADD SWAP1 SWAP3 MSTORE PUSH2 0x9CD SWAP2 DUP2 ADD SWAP1 PUSH2 0x1FF9 JUMP JUMPDEST PUSH1 0x1 JUMPDEST PUSH2 0x9EC JUMPI PUSH1 0x40 MLOAD PUSH3 0x461BCD PUSH1 0xE5 SHL DUP2 MSTORE PUSH1 0x4 ADD PUSH2 0x635 SWAP1 PUSH2 0x2016 JUMP JUMPDEST PUSH1 0x1 PUSH1 0x1 PUSH1 0xA0 SHL SUB DUP2 AND PUSH2 0xA42 JUMPI PUSH1 0x40 MLOAD PUSH3 0x461BCD PUSH1 0xE5 SHL DUP2 MSTORE PUSH1 0x20 PUSH1 0x4 DUP3 ADD MSTORE PUSH1 0x1B PUSH1 0x24 DUP3 ADD MSTORE PUSH32 0x417274697374206F776E6572206E6F7420636F6E666967757265640000000000 PUSH1 0x44 DUP3 ADD MSTORE PUSH1 0x64 ADD PUSH2 0x635 JUMP JUMPDEST SWAP1 POP PUSH1 0x40 MLOAD PUSH1 0x1 PUSH1 0x1 PUSH1 0xA0 SHL SUB DUP3 AND SWAP1 PUSH1 0x0 SWAP1 PUSH6 0xB5E620F48000 SWAP1 DUP3 DUP2 DUP2 DUP2 DUP6 DUP9 DUP4 CALL SWAP4 POP POP POP POP ISZERO DUP1 ISZERO PUSH2 0xA7B JUMPI RETURNDATASIZE PUSH1 0x0 DUP1 RETURNDATACOPY RETURNDATASIZE PUSH1 0x0 REVERT JUMPDEST POP PUSH1 0x4 SLOAD PUSH1 0x40 MLOAD PUSH1 0x1 PUSH1 0x1 PUSH1 0xA0 SHL SUB SWAP1 SWAP2 AND SWAP1 PUSH1 0x0 SWAP1 PUSH6 0x5AF3107A4000 SWAP1 DUP3 DUP2 DUP2 DUP2 DUP6 DUP9 DUP4 CALL SWAP4 POP POP POP POP ISZERO DUP1 ISZERO PUSH2 0xAB7 JUMPI RETURNDATASIZE PUSH1 0x0 DUP1 RETURNDATACOPY RETURNDATASIZE PUSH1 0x0 REVERT JUMPDEST POP PUSH1 0x0 PUSH6 0x5AF3107A4000 PUSH2 0xAD8 PUSH6 0xB5E620F48000 PUSH7 0x110D9316EC000 PUSH2 0x207B JUMP JUMPDEST PUSH2 0xAE2 SWAP2 SWAP1 PUSH2 0x207B JUMP JUMPDEST SWAP1 POP DUP6 PUSH1 0x1 PUSH1 0x1 PUSH1 0xA0 SHL SUB AND PUSH4 0x66100DE2 DUP3 DUP8 DUP8 DUP8 PUSH1 0x40 MLOAD DUP6 PUSH4 0xFFFFFFFF AND PUSH1 0xE0 SHL DUP2 MSTORE PUSH1 0x4 ADD PUSH2 0xB15 SWAP4 SWAP3 SWAP2 SWAP1 PUSH2 0x20B7 JUMP JUMPDEST PUSH1 0x0 PUSH1 0x40 MLOAD DUP1 DUP4 SUB DUP2 DUP6 DUP9 DUP1 EXTCODESIZE ISZERO DUP1 ISZERO PUSH2 0xB2E JUMPI PUSH1 0x0 DUP1 REVERT JUMPDEST POP GAS CALL SWAP4 POP POP POP POP DUP1 ISZERO PUSH2 0xB40 JUMPI POP PUSH1 0x1 JUMPDEST PUSH2 0xBEC JUMPI PUSH2 0xB4C PUSH2 0x20E5 JUMP JUMPDEST DUP1 PUSH4 0x8C379A0 SUB PUSH2 0xBA2 JUMPI POP PUSH2 0xB60 PUSH2 0x2101 JUMP JUMPDEST DUP1 PUSH2 0xB6B JUMPI POP PUSH2 0xBA4 JUMP JUMPDEST DUP1 PUSH1 0x40 MLOAD PUSH1 0x20 ADD PUSH2 0xB7C SWAP2 SWAP1 PUSH2 0x21AF JUMP JUMPDEST PUSH1 0x40 DUP1 MLOAD PUSH1 0x1F NOT DUP2 DUP5 SUB ADD DUP2 MSTORE SWAP1 DUP3 SWAP1 MSTORE PUSH3 0x461BCD PUSH1 0xE5 SHL DUP3 MSTORE PUSH2 0x635 SWAP2 PUSH1 0x4 ADD PUSH2 0x21E7 JUMP JUMPDEST POP JUMPDEST PUSH1 0x40 MLOAD PUSH3 0x461BCD PUSH1 0xE5 SHL DUP2 MSTORE PUSH1 0x20 PUSH1 0x4 DUP3 ADD MSTORE PUSH1 0x1D PUSH1 0x24 DUP3 ADD MSTORE PUSH32 0x4D696E74696E67206661696C65643A20756E6B6E6F776E206572726F72000000 PUSH1 0x44 DUP3 ADD MSTORE PUSH1 0x64 ADD PUSH2 0x635 JUMP JUMPDEST DUP5 PUSH1 0x1 PUSH1 0x1 PUSH1 0xA0 SHL SUB AND DUP3 PUSH1 0x1 PUSH1 0x1 PUSH1 0xA0 SHL SUB AND DUP8 PUSH1 0x1 PUSH1 0x1 PUSH1 0xA0 SHL SUB AND PUSH32 0x9F5F2E026D346F31C5E7E284210968D5C32B9C42A43995FA31ADF964D9CD672E PUSH7 0x110D9316EC000 DUP9 DUP9 PUSH1 0x40 MLOAD PUSH2 0xC44 SWAP4 SWAP3 SWAP2 SWAP1 PUSH2 0x221A JUMP JUMPDEST PUSH1 0x40 MLOAD DUP1 SWAP2 SUB SWAP1 LOG4 POP POP PUSH2 0xC57 PUSH1 0x1 DUP1 SSTORE JUMP JUMPDEST POP POP POP POP JUMP JUMPDEST PUSH1 0x0 PUSH2 0xC68 DUP2 PUSH2 0x1610 JUMP JUMPDEST PUSH2 0x65F PUSH2 0x17F6 JUMP JUMPDEST PUSH1 0x0 SWAP2 DUP3 MSTORE PUSH1 0x20 DUP3 DUP2 MSTORE PUSH1 0x40 DUP1 DUP5 KECCAK256 PUSH1 0x1 PUSH1 0x1 PUSH1 0xA0 SHL SUB SWAP4 SWAP1 SWAP4 AND DUP5 MSTORE SWAP2 SWAP1 MSTORE SWAP1 KECCAK256 SLOAD PUSH1 0xFF AND SWAP1 JUMP JUMPDEST PUSH1 0x0 PUSH2 0xCA4 DUP2 PUSH2 0x1610 JUMP JUMPDEST PUSH1 0x1 PUSH1 0x1 PUSH1 0xA0 SHL SUB DUP3 AND PUSH2 0xCEA JUMPI PUSH1 0x40 MLOAD PUSH3 0x461BCD PUSH1 0xE5 SHL DUP2 MSTORE PUSH1 0x20 PUSH1 0x4 DUP3 ADD MSTORE PUSH1 0xD PUSH1 0x24 DUP3 ADD MSTORE PUSH13 0x696E76616C6964207061796565 PUSH1 0x98 SHL PUSH1 0x44 DUP3 ADD MSTORE PUSH1 0x64 ADD PUSH2 0x635 JUMP JUMPDEST PUSH1 0x4 DUP1 SLOAD PUSH1 0x1 PUSH1 0x1 PUSH1 0xA0 SHL SUB NOT AND PUSH1 0x1 PUSH1 0x1 PUSH1 0xA0 SHL SUB DUP5 AND SWAP1 DUP2 OR SWAP1 SWAP2 SSTORE PUSH1 0x40 MLOAD PUSH32 0x20B93562E05C6E5F99BEBF52C1E2AFE142D48F37032CBDD6A2583FBDA41EC100 SWAP1 PUSH1 0x0 SWAP1 LOG2 POP POP JUMP JUMPDEST PUSH2 0xD4D PUSH1 0x0 DUP1 MLOAD PUSH1 0x20 PUSH2 0x237A DUP4 CODECOPY DUP2 MLOAD SWAP2 MSTORE CALLER PUSH2 0xC70 JUMP JUMPDEST PUSH2 0xD88 JUMPI PUSH1 0x40 MLOAD PUSH3 0x461BCD PUSH1 0xE5 SHL DUP2 MSTORE PUSH1 0x20 PUSH1 0x4 DUP3 ADD MSTORE PUSH1 0xC PUSH1 0x24 DUP3 ADD MSTORE PUSH12 0x27B7363C903932B630BCB2B9 PUSH1 0xA1 SHL PUSH1 0x44 DUP3 ADD MSTORE PUSH1 0x64 ADD PUSH2 0x635 JUMP JUMPDEST PUSH2 0xD90 PUSH2 0x1755 JUMP JUMPDEST PUSH2 0xD98 PUSH2 0x17AE JUMP JUMPDEST PUSH1 0x5 DUP3 DUP3 PUSH1 0x40 MLOAD PUSH2 0xDAA SWAP3 SWAP2 SWAP1 PUSH2 0x1FE9 JUMP JUMPDEST SWAP1 DUP2 MSTORE PUSH1 0x40 MLOAD SWAP1 DUP2 SWAP1 SUB PUSH1 0x20 ADD SWAP1 KECCAK256 SLOAD PUSH1 0xFF AND ISZERO PUSH2 0xE06 JUMPI PUSH1 0x40 MLOAD PUSH3 0x461BCD PUSH1 0xE5 SHL DUP2 MSTORE PUSH1 0x20 PUSH1 0x4 DUP3 ADD MSTORE PUSH1 0x19 PUSH1 0x24 DUP3 ADD MSTORE PUSH25 0x14185E5B595B9D08185B1C9958591E481C1C9BD8D95CDCD959 PUSH1 0x3A SHL PUSH1 0x44 DUP3 ADD MSTORE PUSH1 0x64 ADD PUSH2 0x635 JUMP JUMPDEST PUSH1 0x40 MLOAD PUSH4 0x70A08231 PUSH1 0xE0 SHL DUP2 MSTORE ADDRESS PUSH1 0x4 DUP3 ADD MSTORE PUSH1 0x0 SWAP1 PUSH32 0x0 PUSH1 0x1 PUSH1 0x1 PUSH1 0xA0 SHL SUB AND SWAP1 PUSH4 0x70A08231 SWAP1 PUSH1 0x24 ADD PUSH1 0x20 PUSH1 0x40 MLOAD DUP1 DUP4 SUB DUP2 DUP7 GAS STATICCALL ISZERO DUP1 ISZERO PUSH2 0xE6D JUMPI RETURNDATASIZE PUSH1 0x0 DUP1 RETURNDATACOPY RETURNDATASIZE PUSH1 0x0 REVERT JUMPDEST POP POP POP POP PUSH1 0x40 MLOAD RETURNDATASIZE PUSH1 0x1F NOT PUSH1 0x1F DUP3 ADD AND DUP3 ADD DUP1 PUSH1 0x40 MSTORE POP DUP2 ADD SWAP1 PUSH2 0xE91 SWAP2 SWAP1 PUSH2 0x2234 JUMP JUMPDEST SWAP1 POP DUP4 DUP2 LT ISZERO PUSH2 0xED7 JUMPI PUSH1 0x40 MLOAD PUSH3 0x461BCD PUSH1 0xE5 SHL DUP2 MSTORE PUSH1 0x20 PUSH1 0x4 DUP3 ADD MSTORE PUSH1 0x11 PUSH1 0x24 DUP3 ADD MSTORE PUSH17 0x496E73756666696369656E742055534443 PUSH1 0x78 SHL PUSH1 0x44 DUP3 ADD MSTORE PUSH1 0x64 ADD PUSH2 0x635 JUMP JUMPDEST PUSH1 0x1 PUSH1 0x1 PUSH1 0xA0 SHL SUB DUP6 AND PUSH2 0xF21 JUMPI PUSH1 0x40 MLOAD PUSH3 0x461BCD PUSH1 0xE5 SHL DUP2 MSTORE PUSH1 0x20 PUSH1 0x4 DUP3 ADD MSTORE PUSH1 0x11 PUSH1 0x24 DUP3 ADD MSTORE PUSH17 0x1A5B9D985B1A59081C9958DA5C1A595B9D PUSH1 0x7A SHL PUSH1 0x44 DUP3 ADD MSTORE PUSH1 0x64 ADD PUSH2 0x635 JUMP JUMPDEST PUSH1 0x1 PUSH1 0x1 PUSH1 0xA0 SHL SUB DUP7 AND PUSH2 0xF71 JUMPI PUSH1 0x40 MLOAD PUSH3 0x461BCD PUSH1 0xE5 SHL DUP2 MSTORE PUSH1 0x20 PUSH1 0x4 DUP3 ADD MSTORE PUSH1 0x17 PUSH1 0x24 DUP3 ADD MSTORE PUSH23 0x1A5B9D985B1A5908185C9D1A5CDD0818DBDB9D1C9858DD PUSH1 0x4A SHL PUSH1 0x44 DUP3 ADD MSTORE PUSH1 0x64 ADD PUSH2 0x635 JUMP JUMPDEST PUSH1 0x1 PUSH1 0x5 DUP5 DUP5 PUSH1 0x40 MLOAD PUSH2 0xF85 SWAP3 SWAP2 SWAP1 PUSH2 0x1FE9 JUMP JUMPDEST SWAP1 DUP2 MSTORE PUSH1 0x20 ADD PUSH1 0x40 MLOAD DUP1 SWAP2 SUB SWAP1 KECCAK256 PUSH1 0x0 PUSH2 0x100 EXP DUP2 SLOAD DUP2 PUSH1 0xFF MUL NOT AND SWAP1 DUP4 ISZERO ISZERO MUL OR SWAP1 SSTORE POP PUSH1 0x0 DUP7 PUSH1 0x1 PUSH1 0x1 PUSH1 0xA0 SHL SUB AND PUSH4 0x8DA5CB5B PUSH1 0x40 MLOAD DUP2 PUSH4 0xFFFFFFFF AND PUSH1 0xE0 SHL DUP2 MSTORE PUSH1 0x4 ADD PUSH1 0x20 PUSH1 0x40 MLOAD DUP1 DUP4 SUB DUP2 DUP7 GAS STATICCALL SWAP3 POP POP POP DUP1 ISZERO PUSH2 0x1006 JUMPI POP PUSH1 0x40 DUP1 MLOAD PUSH1 0x1F RETURNDATASIZE SWAP1 DUP2 ADD PUSH1 0x1F NOT AND DUP3 ADD SWAP1 SWAP3 MSTORE PUSH2 0x1003 SWAP2 DUP2 ADD SWAP1 PUSH2 0x1FF9 JUMP JUMPDEST PUSH1 0x1 JUMPDEST PUSH2 0x1022 JUMPI PUSH1 0x40 MLOAD PUSH3 0x461BCD PUSH1 0xE5 SHL DUP2 MSTORE PUSH1 0x4 ADD PUSH2 0x635 SWAP1 PUSH2 0x2016 JUMP JUMPDEST PUSH1 0x1 PUSH1 0x1 PUSH1 0xA0 SHL SUB DUP2 AND PUSH2 0x1078 JUMPI PUSH1 0x40 MLOAD PUSH3 0x461BCD PUSH1 0xE5 SHL DUP2 MSTORE PUSH1 0x20 PUSH1 0x4 DUP3 ADD MSTORE PUSH1 0x1B PUSH1 0x24 DUP3 ADD MSTORE PUSH32 0x417274697374206F776E6572206E6F7420636F6E666967757265640000000000 PUSH1 0x44 DUP3 ADD MSTORE PUSH1 0x64 ADD PUSH2 0x635 JUMP JUMPDEST SWAP1 POP PUSH1 0x0 DUP1 PUSH1 0x3 SLOAD GT DUP1 ISZERO PUSH2 0x109C JUMPI POP PUSH1 0x2 SLOAD PUSH2 0x100 SWAP1 DIV PUSH1 0x1 PUSH1 0x1 PUSH1 0xA0 SHL SUB AND ISZERO ISZERO JUMPDEST PUSH2 0x10A7 JUMPI PUSH1 0x0 PUSH2 0x10C2 JUMP JUMPDEST PUSH2 0x2710 PUSH1 0x3 SLOAD DUP8 PUSH2 0x10B8 SWAP2 SWAP1 PUSH2 0x224D JUMP JUMPDEST PUSH2 0x10C2 SWAP2 SWAP1 PUSH2 0x2264 JUMP JUMPDEST SWAP1 POP DUP1 ISZERO PUSH2 0x1109 JUMPI PUSH1 0x2 SLOAD PUSH2 0x1109 SWAP1 PUSH1 0x1 PUSH1 0x1 PUSH1 0xA0 SHL SUB PUSH32 0x0 DUP2 AND SWAP2 PUSH2 0x100 SWAP1 DIV AND DUP4 PUSH2 0x1833 JUMP JUMPDEST PUSH1 0x0 PUSH2 0x1115 DUP3 DUP9 PUSH2 0x207B JUMP JUMPDEST SWAP1 POP PUSH2 0x114B PUSH1 0x1 PUSH1 0x1 PUSH1 0xA0 SHL SUB PUSH32 0x0 AND DUP5 DUP4 PUSH2 0x1833 JUMP JUMPDEST PUSH1 0x40 MLOAD PUSH4 0x4ED6A5F7 PUSH1 0xE0 SHL DUP2 MSTORE PUSH1 0x1 PUSH1 0x1 PUSH1 0xA0 SHL SUB DUP11 AND SWAP1 PUSH4 0x4ED6A5F7 SWAP1 PUSH2 0x117B SWAP1 DUP12 SWAP1 DUP11 SWAP1 DUP11 SWAP1 PUSH1 0x4 ADD PUSH2 0x20B7 JUMP JUMPDEST PUSH1 0x0 PUSH1 0x40 MLOAD DUP1 DUP4 SUB DUP2 PUSH1 0x0 DUP8 DUP1 EXTCODESIZE ISZERO DUP1 ISZERO PUSH2 0x1195 JUMPI PUSH1 0x0 DUP1 REVERT JUMPDEST POP GAS CALL SWAP3 POP POP POP DUP1 ISZERO PUSH2 0x11A6 JUMPI POP PUSH1 0x1 JUMPDEST PUSH2 0x11B2 JUMPI PUSH2 0xB4C PUSH2 0x20E5 JUMP JUMPDEST DUP8 PUSH1 0x1 PUSH1 0x1 PUSH1 0xA0 SHL SUB AND DUP4 PUSH1 0x1 PUSH1 0x1 PUSH1 0xA0 SHL SUB AND DUP11 PUSH1 0x1 PUSH1 0x1 PUSH1 0xA0 SHL SUB AND PUSH32 0x9F5F2E026D346F31C5E7E284210968D5C32B9C42A43995FA31ADF964D9CD672E DUP11 DUP11 DUP11 PUSH1 0x40 MLOAD PUSH2 0x1203 SWAP4 SWAP3 SWAP2 SWAP1 PUSH2 0x221A JUMP JUMPDEST PUSH1 0x40 MLOAD DUP1 SWAP2 SUB SWAP1 LOG4 POP POP POP POP PUSH2 0x1218 PUSH1 0x1 DUP1 SSTORE JUMP JUMPDEST POP POP POP POP POP JUMP JUMPDEST PUSH1 0x0 DUP3 DUP2 MSTORE PUSH1 0x20 DUP2 SWAP1 MSTORE PUSH1 0x40 SWAP1 KECCAK256 PUSH1 0x1 ADD SLOAD PUSH2 0x123A DUP2 PUSH2 0x1610 JUMP JUMPDEST PUSH2 0x5C4 DUP4 DUP4 PUSH2 0x169E JUMP JUMPDEST PUSH1 0x0 PUSH2 0x124F DUP2 PUSH2 0x1610 JUMP JUMPDEST PUSH2 0x1257 PUSH2 0x17AE JUMP JUMPDEST PUSH1 0x0 DUP3 GT PUSH2 0x129C JUMPI PUSH1 0x40 MLOAD PUSH3 0x461BCD PUSH1 0xE5 SHL DUP2 MSTORE PUSH1 0x20 PUSH1 0x4 DUP3 ADD MSTORE PUSH1 0x12 PUSH1 0x24 DUP3 ADD MSTORE PUSH18 0x616D6F756E74206D757374206265203E203 PUSH1 0x74 SHL PUSH1 0x44 DUP3 ADD MSTORE PUSH1 0x64 ADD PUSH2 0x635 JUMP JUMPDEST PUSH1 0x40 MLOAD PUSH4 0x70A08231 PUSH1 0xE0 SHL DUP2 MSTORE ADDRESS PUSH1 0x4 DUP3 ADD MSTORE DUP3 SWAP1 PUSH32 0x0 PUSH1 0x1 PUSH1 0x1 PUSH1 0xA0 SHL SUB AND SWAP1 PUSH4 0x70A08231 SWAP1 PUSH1 0x24 ADD PUSH1 0x20 PUSH1 0x40 MLOAD DUP1 DUP4 SUB DUP2 DUP7 GAS STATICCALL ISZERO DUP1 ISZERO PUSH2 0x1302 JUMPI RETURNDATASIZE PUSH1 0x0 DUP1 RETURNDATACOPY RETURNDATASIZE PUSH1 0x0 REVERT JUMPDEST POP POP POP POP PUSH1 0x40 MLOAD RETURNDATASIZE PUSH1 0x1F NOT PUSH1 0x1F DUP3 ADD AND DUP3 ADD DUP1 PUSH1 0x40 MSTORE POP DUP2 ADD SWAP1 PUSH2 0x1326 SWAP2 SWAP1 PUSH2 0x2234 JUMP JUMPDEST LT ISZERO PUSH2 0x1368 JUMPI PUSH1 0x40 MLOAD PUSH3 0x461BCD PUSH1 0xE5 SHL DUP2 MSTORE PUSH1 0x20 PUSH1 0x4 DUP3 ADD MSTORE PUSH1 0x11 PUSH1 0x24 DUP3 ADD MSTORE PUSH17 0x496E73756666696369656E742055534443 PUSH1 0x78 SHL PUSH1 0x44 DUP3 ADD MSTORE PUSH1 0x64 ADD PUSH2 0x635 JUMP JUMPDEST PUSH2 0x139C PUSH1 0x1 PUSH1 0x1 PUSH1 0xA0 SHL SUB PUSH32 0x0 AND CALLER DUP5 PUSH2 0x1833 JUMP JUMPDEST PUSH1 0x40 MLOAD DUP3 DUP2 MSTORE CALLER SWAP1 PUSH32 0x9064B460FD73B0517CAA24227D99918304810044CAB6170024069608DC4CA0E6 SWAP1 PUSH1 0x20 ADD JUMPDEST PUSH1 0x40 MLOAD DUP1 SWAP2 SUB SWAP1 LOG2 POP POP JUMP JUMPDEST PUSH1 0x0 PUSH2 0x13E1 DUP2 PUSH2 0x1610 JUMP JUMPDEST PUSH2 0x2710 DUP3 GT ISZERO PUSH2 0x1423 JUMPI PUSH1 0x40 MLOAD PUSH3 0x461BCD PUSH1 0xE5 SHL DUP2 MSTORE PUSH1 0x20 PUSH1 0x4 DUP3 ADD MSTORE PUSH1 0xD PUSH1 0x24 DUP3 ADD MSTORE PUSH13 0x62707320746F6F206C61726765 PUSH1 0x98 SHL PUSH1 0x44 DUP3 ADD MSTORE PUSH1 0x64 ADD PUSH2 0x635 JUMP JUMPDEST PUSH1 0x1 PUSH1 0x1 PUSH1 0xA0 SHL SUB DUP4 AND ISZERO ISZERO DUP1 PUSH2 0x1438 JUMPI POP DUP2 ISZERO JUMPDEST PUSH2 0x147C JUMPI PUSH1 0x40 MLOAD PUSH3 0x461BCD PUSH1 0xE5 SHL DUP2 MSTORE PUSH1 0x20 PUSH1 0x4 DUP3 ADD MSTORE PUSH1 0x15 PUSH1 0x24 DUP3 ADD MSTORE PUSH21 0x1A5B9D985B1A5908199959481C9958DA5C1A595B9D PUSH1 0x5A SHL PUSH1 0x44 DUP3 ADD MSTORE PUSH1 0x64 ADD PUSH2 0x635 JUMP JUMPDEST PUSH1 0x3 DUP1 SLOAD PUSH1 0x2 DUP1 SLOAD PUSH2 0x100 PUSH1 0x1 PUSH1 0xA8 SHL SUB NOT AND PUSH2 0x100 PUSH1 0x1 PUSH1 0x1 PUSH1 0xA0 SHL SUB DUP9 AND SWAP1 DUP2 MUL SWAP2 SWAP1 SWAP2 OR SWAP1 SWAP2 SSTORE SWAP2 DUP5 SWAP1 SSTORE PUSH1 0x40 MLOAD SWAP1 SWAP2 DUP5 SWAP2 DUP4 SWAP2 SWAP1 PUSH32 0xCF5B6C438B64611D8EE0722509D7AD5149D4F779F0B29BC845152F0D89E42E19 SWAP1 PUSH1 0x0 SWAP1 LOG4 POP POP POP POP JUMP JUMPDEST PUSH1 0x0 PUSH2 0x14EB DUP2 PUSH2 0x1610 JUMP JUMPDEST PUSH2 0x14F3 PUSH2 0x17AE JUMP JUMPDEST PUSH1 0x0 DUP3 GT PUSH2 0x1538 JUMPI PUSH1 0x40 MLOAD PUSH3 0x461BCD PUSH1 0xE5 SHL DUP2 MSTORE PUSH1 0x20 PUSH1 0x4 DUP3 ADD MSTORE PUSH1 0x12 PUSH1 0x24 DUP3 ADD MSTORE PUSH18 0x616D6F756E74206D757374206265203E203 PUSH1 0x74 SHL PUSH1 0x44 DUP3 ADD MSTORE PUSH1 0x64 ADD PUSH2 0x635 JUMP JUMPDEST DUP2 SELFBALANCE LT ISZERO PUSH2 0x157B JUMPI PUSH1 0x40 MLOAD PUSH3 0x461BCD PUSH1 0xE5 SHL DUP2 MSTORE PUSH1 0x20 PUSH1 0x4 DUP3 ADD MSTORE PUSH1 0x10 PUSH1 0x24 DUP3 ADD MSTORE PUSH16 0x92DCE6EACCCCD2C6D2CADCE8408AA89 PUSH1 0x83 SHL PUSH1 0x44 DUP3 ADD MSTORE PUSH1 0x64 ADD PUSH2 0x635 JUMP JUMPDEST PUSH1 0x40 MLOAD CALLER SWAP1 DUP4 ISZERO PUSH2 0x8FC MUL SWAP1 DUP5 SWAP1 PUSH1 0x0 DUP2 DUP2 DUP2 DUP6 DUP9 DUP9 CALL SWAP4 POP POP POP POP ISZERO DUP1 ISZERO PUSH2 0x15A8 JUMPI RETURNDATASIZE PUSH1 0x0 DUP1 RETURNDATACOPY RETURNDATASIZE PUSH1 0x0 REVERT JUMPDEST POP PUSH1 0x40 MLOAD DUP3 DUP2 MSTORE CALLER SWAP1 PUSH32 0x5817FE91D2748C33F168D8A78037FC073ADAF6EC8E3613A758D44A2CFAE4563D SWAP1 PUSH1 0x20 ADD PUSH2 0x13CA JUMP JUMPDEST PUSH1 0x0 PUSH1 0x1 PUSH1 0x1 PUSH1 0xE0 SHL SUB NOT DUP3 AND PUSH4 0x7965DB0B PUSH1 0xE0 SHL EQ DUP1 PUSH2 0x599 JUMPI POP PUSH4 0x1FFC9A7 PUSH1 0xE0 SHL PUSH1 0x1 PUSH1 0x1 PUSH1 0xE0 SHL SUB NOT DUP4 AND EQ PUSH2 0x599 JUMP JUMPDEST PUSH2 0x65F DUP2 CALLER PUSH2 0x1885 JUMP JUMPDEST PUSH2 0x1624 DUP3 DUP3 PUSH2 0xC70 JUMP JUMPDEST PUSH2 0x648 JUMPI PUSH1 0x0 DUP3 DUP2 MSTORE PUSH1 0x20 DUP2 DUP2 MSTORE PUSH1 0x40 DUP1 DUP4 KECCAK256 PUSH1 0x1 PUSH1 0x1 PUSH1 0xA0 SHL SUB DUP6 AND DUP5 MSTORE SWAP1 SWAP2 MSTORE SWAP1 KECCAK256 DUP1 SLOAD PUSH1 0xFF NOT AND PUSH1 0x1 OR SWAP1 SSTORE PUSH2 0x165A CALLER SWAP1 JUMP JUMPDEST PUSH1 0x1 PUSH1 0x1 PUSH1 0xA0 SHL SUB AND DUP2 PUSH1 0x1 PUSH1 0x1 PUSH1 0xA0 SHL SUB AND DUP4 PUSH32 0x2F8788117E7EFF1D82E926EC794901D17C78024A50270940304540A733656F0D PUSH1 0x40 MLOAD PUSH1 0x40 MLOAD DUP1 SWAP2 SUB SWAP1 LOG4 POP POP JUMP JUMPDEST PUSH2 0x16A8 DUP3 DUP3 PUSH2 0xC70 JUMP JUMPDEST ISZERO PUSH2 0x648 JUMPI PUSH1 0x0 DUP3 DUP2 MSTORE PUSH1 0x20 DUP2 DUP2 MSTORE PUSH1 0x40 DUP1 DUP4 KECCAK256 PUSH1 0x1 PUSH1 0x1 PUSH1 0xA0 SHL SUB DUP6 AND DUP1 DUP6 MSTORE SWAP3 MSTORE DUP1 DUP4 KECCAK256 DUP1 SLOAD PUSH1 0xFF NOT AND SWAP1 SSTORE MLOAD CALLER SWAP3 DUP6 SWAP2 PUSH32 0xF6391F5C32D9C69D2A47EA670B442974B53935D1EDC7FD64EB21E047A839171B SWAP2 SWAP1 LOG4 POP POP JUMP JUMPDEST PUSH2 0x170B PUSH2 0x18B8 JUMP JUMPDEST PUSH1 0x2 DUP1 SLOAD PUSH1 0xFF NOT AND SWAP1 SSTORE PUSH32 0x5DB9EE0A495BF2E6FF9C91A7834C1BA4FDD244A5E8AA4E537BD38AEAE4B073AA CALLER JUMPDEST PUSH1 0x40 MLOAD PUSH1 0x1 PUSH1 0x1 PUSH1 0xA0 SHL SUB SWAP1 SWAP2 AND DUP2 MSTORE PUSH1 0x20 ADD PUSH1 0x40 MLOAD DUP1 SWAP2 SUB SWAP1 LOG1 JUMP JUMPDEST PUSH1 0x2 PUSH1 0x1 SLOAD SUB PUSH2 0x17A7 JUMPI PUSH1 0x40 MLOAD PUSH3 0x461BCD PUSH1 0xE5 SHL DUP2 MSTORE PUSH1 0x20 PUSH1 0x4 DUP3 ADD MSTORE PUSH1 0x1F PUSH1 0x24 DUP3 ADD MSTORE PUSH32 0x5265656E7472616E637947756172643A207265656E7472616E742063616C6C00 PUSH1 0x44 DUP3 ADD MSTORE PUSH1 0x64 ADD PUSH2 0x635 JUMP JUMPDEST PUSH1 0x2 PUSH1 0x1 SSTORE JUMP JUMPDEST PUSH1 0x2 SLOAD PUSH1 0xFF AND ISZERO PUSH2 0x17F4 JUMPI PUSH1 0x40 MLOAD PUSH3 0x461BCD PUSH1 0xE5 SHL DUP2 MSTORE PUSH1 0x20 PUSH1 0x4 DUP3 ADD MSTORE PUSH1 0x10 PUSH1 0x24 DUP3 ADD MSTORE PUSH16 0x14185D5CD8589B194E881C185D5CD959 PUSH1 0x82 SHL PUSH1 0x44 DUP3 ADD MSTORE PUSH1 0x64 ADD PUSH2 0x635 JUMP JUMPDEST JUMP JUMPDEST PUSH2 0x17FE PUSH2 0x17AE JUMP JUMPDEST PUSH1 0x2 DUP1 SLOAD PUSH1 0xFF NOT AND PUSH1 0x1 OR SWAP1 SSTORE PUSH32 0x62E78CEA01BEE320CD4E420270B5EA74000D11B0C9F74754EBDBFC544B05A258 PUSH2 0x1738 CALLER SWAP1 JUMP JUMPDEST PUSH1 0x40 DUP1 MLOAD PUSH1 0x1 PUSH1 0x1 PUSH1 0xA0 SHL SUB DUP5 AND PUSH1 0x24 DUP3 ADD MSTORE PUSH1 0x44 DUP1 DUP3 ADD DUP5 SWAP1 MSTORE DUP3 MLOAD DUP1 DUP4 SUB SWAP1 SWAP2 ADD DUP2 MSTORE PUSH1 0x64 SWAP1 SWAP2 ADD SWAP1 SWAP2 MSTORE PUSH1 0x20 DUP2 ADD DUP1 MLOAD PUSH1 0x1 PUSH1 0x1 PUSH1 0xE0 SHL SUB AND PUSH4 0xA9059CBB PUSH1 0xE0 SHL OR SWAP1 MSTORE PUSH2 0x5C4 SWAP1 DUP5 SWAP1 PUSH2 0x1901 JUMP JUMPDEST PUSH2 0x188F DUP3 DUP3 PUSH2 0xC70 JUMP JUMPDEST PUSH2 0x648 JUMPI PUSH2 0x189C DUP2 PUSH2 0x19D6 JUMP JUMPDEST PUSH2 0x18A7 DUP4 PUSH1 0x20 PUSH2 0x19E8 JUMP JUMPDEST PUSH1 0x40 MLOAD PUSH1 0x20 ADD PUSH2 0xB7C SWAP3 SWAP2 SWAP1 PUSH2 0x2286 JUMP JUMPDEST PUSH1 0x2 SLOAD PUSH1 0xFF AND PUSH2 0x17F4 JUMPI PUSH1 0x40 MLOAD PUSH3 0x461BCD PUSH1 0xE5 SHL DUP2 MSTORE PUSH1 0x20 PUSH1 0x4 DUP3 ADD MSTORE PUSH1 0x14 PUSH1 0x24 DUP3 ADD MSTORE PUSH20 0x14185D5CD8589B194E881B9BDD081C185D5CD959 PUSH1 0x62 SHL PUSH1 0x44 DUP3 ADD MSTORE PUSH1 0x64 ADD PUSH2 0x635 JUMP JUMPDEST PUSH1 0x0 PUSH2 0x1956 DUP3 PUSH1 0x40 MLOAD DUP1 PUSH1 0x40 ADD PUSH1 0x40 MSTORE DUP1 PUSH1 0x20 DUP2 MSTORE PUSH1 0x20 ADD PUSH32 0x5361666545524332303A206C6F772D6C6576656C2063616C6C206661696C6564 DUP2 MSTORE POP DUP6 PUSH1 0x1 PUSH1 0x1 PUSH1 0xA0 SHL SUB AND PUSH2 0x1B8B SWAP1 SWAP3 SWAP2 SWAP1 PUSH4 0xFFFFFFFF AND JUMP JUMPDEST SWAP1 POP DUP1 MLOAD PUSH1 0x0 EQ DUP1 PUSH2 0x1977 JUMPI POP DUP1 DUP1 PUSH1 0x20 ADD SWAP1 MLOAD DUP2 ADD SWAP1 PUSH2 0x1977 SWAP2 SWAP1 PUSH2 0x22FB JUMP JUMPDEST PUSH2 0x5C4 JUMPI PUSH1 0x40 MLOAD PUSH3 0x461BCD PUSH1 0xE5 SHL DUP2 MSTORE PUSH1 0x20 PUSH1 0x4 DUP3 ADD MSTORE PUSH1 0x2A PUSH1 0x24 DUP3 ADD MSTORE PUSH32 0x5361666545524332303A204552433230206F7065726174696F6E20646964206E PUSH1 0x44 DUP3 ADD MSTORE PUSH10 0x1BDD081CDD58D8D95959 PUSH1 0xB2 SHL PUSH1 0x64 DUP3 ADD MSTORE PUSH1 0x84 ADD PUSH2 0x635 JUMP JUMPDEST PUSH1 0x60 PUSH2 0x599 PUSH1 0x1 PUSH1 0x1 PUSH1 0xA0 SHL SUB DUP4 AND PUSH1 0x14 JUMPDEST PUSH1 0x60 PUSH1 0x0 PUSH2 0x19F7 DUP4 PUSH1 0x2 PUSH2 0x224D JUMP JUMPDEST PUSH2 0x1A02 SWAP1 PUSH1 0x2 PUSH2 0x231D JUMP JUMPDEST PUSH8 0xFFFFFFFFFFFFFFFF DUP2 GT ISZERO PUSH2 0x1A1A JUMPI PUSH2 0x1A1A PUSH2 0x1DC0 JUMP JUMPDEST PUSH1 0x40 MLOAD SWAP1 DUP1 DUP3 MSTORE DUP1 PUSH1 0x1F ADD PUSH1 0x1F NOT AND PUSH1 0x20 ADD DUP3 ADD PUSH1 0x40 MSTORE DUP1 ISZERO PUSH2 0x1A44 JUMPI PUSH1 0x20 DUP3 ADD DUP2 DUP1 CALLDATASIZE DUP4 CALLDATACOPY ADD SWAP1 POP JUMPDEST POP SWAP1 POP PUSH1 0x3 PUSH1 0xFC SHL DUP2 PUSH1 0x0 DUP2 MLOAD DUP2 LT PUSH2 0x1A5F JUMPI PUSH2 0x1A5F PUSH2 0x2330 JUMP JUMPDEST PUSH1 0x20 ADD ADD SWAP1 PUSH1 0x1 PUSH1 0x1 PUSH1 0xF8 SHL SUB NOT AND SWAP1 DUP2 PUSH1 0x0 BYTE SWAP1 MSTORE8 POP PUSH1 0xF PUSH1 0xFB SHL DUP2 PUSH1 0x1 DUP2 MLOAD DUP2 LT PUSH2 0x1A8E JUMPI PUSH2 0x1A8E PUSH2 0x2330 JUMP JUMPDEST PUSH1 0x20 ADD ADD SWAP1 PUSH1 0x1 PUSH1 0x1 PUSH1 0xF8 SHL SUB NOT AND SWAP1 DUP2 PUSH1 0x0 BYTE SWAP1 MSTORE8 POP PUSH1 0x0 PUSH2 0x1AB2 DUP5 PUSH1 0x2 PUSH2 0x224D JUMP JUMPDEST PUSH2 0x1ABD SWAP1 PUSH1 0x1 PUSH2 0x231D JUMP JUMPDEST SWAP1 POP JUMPDEST PUSH1 0x1 DUP2 GT ISZERO PUSH2 0x1B35 JUMPI PUSH16 0x181899199A1A9B1B9C1CB0B131B232B3 PUSH1 0x81 SHL DUP6 PUSH1 0xF AND PUSH1 0x10 DUP2 LT PUSH2 0x1AF1 JUMPI PUSH2 0x1AF1 PUSH2 0x2330 JUMP JUMPDEST BYTE PUSH1 0xF8 SHL DUP3 DUP3 DUP2 MLOAD DUP2 LT PUSH2 0x1B07 JUMPI PUSH2 0x1B07 PUSH2 0x2330 JUMP JUMPDEST PUSH1 0x20 ADD ADD SWAP1 PUSH1 0x1 PUSH1 0x1 PUSH1 0xF8 SHL SUB NOT AND SWAP1 DUP2 PUSH1 0x0 BYTE SWAP1 MSTORE8 POP PUSH1 0x4 SWAP5 SWAP1 SWAP5 SHR SWAP4 PUSH2 0x1B2E DUP2 PUSH2 0x2346 JUMP JUMPDEST SWAP1 POP PUSH2 0x1AC0 JUMP JUMPDEST POP DUP4 ISZERO PUSH2 0x1B84 JUMPI PUSH1 0x40 MLOAD PUSH3 0x461BCD PUSH1 0xE5 SHL DUP2 MSTORE PUSH1 0x20 PUSH1 0x4 DUP3 ADD DUP2 SWAP1 MSTORE PUSH1 0x24 DUP3 ADD MSTORE PUSH32 0x537472696E67733A20686578206C656E67746820696E73756666696369656E74 PUSH1 0x44 DUP3 ADD MSTORE PUSH1 0x64 ADD PUSH2 0x635 JUMP JUMPDEST SWAP4 SWAP3 POP POP POP JUMP JUMPDEST PUSH1 0x60 PUSH2 0x1B9A DUP5 DUP5 PUSH1 0x0 DUP6 PUSH2 0x1BA2 JUMP JUMPDEST SWAP5 SWAP4 POP POP POP POP JUMP JUMPDEST PUSH1 0x60 DUP3 SELFBALANCE LT ISZERO PUSH2 0x1C03 JUMPI PUSH1 0x40 MLOAD PUSH3 0x461BCD PUSH1 0xE5 SHL DUP2 MSTORE PUSH1 0x20 PUSH1 0x4 DUP3 ADD MSTORE PUSH1 0x26 PUSH1 0x24 DUP3 ADD MSTORE PUSH32 0x416464726573733A20696E73756666696369656E742062616C616E636520666F PUSH1 0x44 DUP3 ADD MSTORE PUSH6 0x1C8818D85B1B PUSH1 0xD2 SHL PUSH1 0x64 DUP3 ADD MSTORE PUSH1 0x84 ADD PUSH2 0x635 JUMP JUMPDEST PUSH1 0x0 DUP1 DUP7 PUSH1 0x1 PUSH1 0x1 PUSH1 0xA0 SHL SUB AND DUP6 DUP8 PUSH1 0x40 MLOAD PUSH2 0x1C1F SWAP2 SWAP1 PUSH2 0x235D JUMP JUMPDEST PUSH1 0x0 PUSH1 0x40 MLOAD DUP1 DUP4 SUB DUP2 DUP6 DUP8 GAS CALL SWAP3 POP POP POP RETURNDATASIZE DUP1 PUSH1 0x0 DUP2 EQ PUSH2 0x1C5C JUMPI PUSH1 0x40 MLOAD SWAP2 POP PUSH1 0x1F NOT PUSH1 0x3F RETURNDATASIZE ADD AND DUP3 ADD PUSH1 0x40 MSTORE RETURNDATASIZE DUP3 MSTORE RETURNDATASIZE PUSH1 0x0 PUSH1 0x20 DUP5 ADD RETURNDATACOPY PUSH2 0x1C61 JUMP JUMPDEST PUSH1 0x60 SWAP2 POP JUMPDEST POP SWAP2 POP SWAP2 POP PUSH2 0x1C72 DUP8 DUP4 DUP4 DUP8 PUSH2 0x1C7D JUMP JUMPDEST SWAP8 SWAP7 POP POP POP POP POP POP POP JUMP JUMPDEST PUSH1 0x60 DUP4 ISZERO PUSH2 0x1CEC JUMPI DUP3 MLOAD PUSH1 0x0 SUB PUSH2 0x1CE5 JUMPI PUSH1 0x1 PUSH1 0x1 PUSH1 0xA0 SHL SUB DUP6 AND EXTCODESIZE PUSH2 0x1CE5 JUMPI PUSH1 0x40 MLOAD PUSH3 0x461BCD PUSH1 0xE5 SHL DUP2 MSTORE PUSH1 0x20 PUSH1 0x4 DUP3 ADD MSTORE PUSH1 0x1D PUSH1 0x24 DUP3 ADD MSTORE PUSH32 0x416464726573733A2063616C6C20746F206E6F6E2D636F6E7472616374000000 PUSH1 0x44 DUP3 ADD MSTORE PUSH1 0x64 ADD PUSH2 0x635 JUMP JUMPDEST POP DUP2 PUSH2 0x1B9A JUMP JUMPDEST PUSH2 0x1B9A DUP4 DUP4 DUP2 MLOAD ISZERO PUSH2 0x1D01 JUMPI DUP2 MLOAD DUP1 DUP4 PUSH1 0x20 ADD REVERT JUMPDEST DUP1 PUSH1 0x40 MLOAD PUSH3 0x461BCD PUSH1 0xE5 SHL DUP2 MSTORE PUSH1 0x4 ADD PUSH2 0x635 SWAP2 SWAP1 PUSH2 0x21E7 JUMP JUMPDEST PUSH1 0x0 PUSH1 0x20 DUP3 DUP5 SUB SLT ISZERO PUSH2 0x1D2D JUMPI PUSH1 0x0 DUP1 REVERT JUMPDEST DUP2 CALLDATALOAD PUSH1 0x1 PUSH1 0x1 PUSH1 0xE0 SHL SUB NOT DUP2 AND DUP2 EQ PUSH2 0x1B84 JUMPI PUSH1 0x0 DUP1 REVERT JUMPDEST PUSH1 0x0 PUSH1 0x20 DUP3 DUP5 SUB SLT ISZERO PUSH2 0x1D57 JUMPI PUSH1 0x0 DUP1 REVERT JUMPDEST POP CALLDATALOAD SWAP2 SWAP1 POP JUMP JUMPDEST PUSH1 0x1 PUSH1 0x1 PUSH1 0xA0 SHL SUB DUP2 AND DUP2 EQ PUSH2 0x65F JUMPI PUSH1 0x0 DUP1 REVERT JUMPDEST PUSH1 0x0 DUP1 PUSH1 0x40 DUP4 DUP6 SUB SLT ISZERO PUSH2 0x1D86 JUMPI PUSH1 0x0 DUP1 REVERT JUMPDEST DUP3 CALLDATALOAD SWAP2 POP PUSH1 0x20 DUP4 ADD CALLDATALOAD PUSH2 0x1D98 DUP2 PUSH2 0x1D5E JUMP JUMPDEST DUP1 SWAP2 POP POP SWAP3 POP SWAP3 SWAP1 POP JUMP JUMPDEST PUSH1 0x0 PUSH1 0x20 DUP3 DUP5 SUB SLT ISZERO PUSH2 0x1DB5 JUMPI PUSH1 0x0 DUP1 REVERT JUMPDEST DUP2 CALLDATALOAD PUSH2 0x1B84 DUP2 PUSH2 0x1D5E JUMP JUMPDEST PUSH4 0x4E487B71 PUSH1 0xE0 SHL PUSH1 0x0 MSTORE PUSH1 0x41 PUSH1 0x4 MSTORE PUSH1 0x24 PUSH1 0x0 REVERT JUMPDEST PUSH1 0x1F DUP3 ADD PUSH1 0x1F NOT AND DUP2 ADD PUSH8 0xFFFFFFFFFFFFFFFF DUP2 GT DUP3 DUP3 LT OR ISZERO PUSH2 0x1DFC JUMPI PUSH2 0x1DFC PUSH2 0x1DC0 JUMP JUMPDEST PUSH1 0x40 MSTORE POP POP JUMP JUMPDEST PUSH1 0x0 PUSH1 0x20 DUP1 DUP4 DUP6 SUB SLT ISZERO PUSH2 0x1E16 JUMPI PUSH1 0x0 DUP1 REVERT JUMPDEST DUP3 CALLDATALOAD PUSH8 0xFFFFFFFFFFFFFFFF DUP1 DUP3 GT ISZERO PUSH2 0x1E2E JUMPI PUSH1 0x0 DUP1 REVERT JUMPDEST DUP2 DUP6 ADD SWAP2 POP DUP6 PUSH1 0x1F DUP4 ADD SLT PUSH2 0x1E42 JUMPI PUSH1 0x0 DUP1 REVERT JUMPDEST DUP2 CALLDATALOAD DUP2 DUP2 GT ISZERO PUSH2 0x1E54 JUMPI PUSH2 0x1E54 PUSH2 0x1DC0 JUMP JUMPDEST PUSH1 0x40 MLOAD SWAP2 POP PUSH2 0x1E6C PUSH1 0x1F DUP3 ADD PUSH1 0x1F NOT AND DUP6 ADD DUP4 PUSH2 0x1DD6 JUMP JUMPDEST DUP1 DUP3 MSTORE DUP7 DUP5 DUP3 DUP6 ADD ADD GT ISZERO PUSH2 0x1E80 JUMPI PUSH1 0x0 DUP1 REVERT JUMPDEST DUP1 DUP5 DUP5 ADD DUP6 DUP5 ADD CALLDATACOPY PUSH1 0x0 SWAP1 DUP3 ADD SWAP1 SWAP4 ADD SWAP3 SWAP1 SWAP3 MSTORE POP SWAP4 SWAP3 POP POP POP JUMP JUMPDEST PUSH1 0x0 DUP1 DUP4 PUSH1 0x1F DUP5 ADD SLT PUSH2 0x1EAE JUMPI PUSH1 0x0 DUP1 REVERT JUMPDEST POP DUP2 CALLDATALOAD PUSH8 0xFFFFFFFFFFFFFFFF DUP2 GT ISZERO PUSH2 0x1EC6 JUMPI PUSH1 0x0 DUP1 REVERT JUMPDEST PUSH1 0x20 DUP4 ADD SWAP2 POP DUP4 PUSH1 0x20 DUP3 DUP6 ADD ADD GT ISZERO PUSH2 0x1EDE JUMPI PUSH1 0x0 DUP1 REVERT JUMPDEST SWAP3 POP SWAP3 SWAP1 POP JUMP JUMPDEST PUSH1 0x0 DUP1 PUSH1 0x0 DUP1 PUSH1 0x60 DUP6 DUP8 SUB SLT ISZERO PUSH2 0x1EFB JUMPI PUSH1 0x0 DUP1 REVERT JUMPDEST DUP5 CALLDATALOAD PUSH2 0x1F06 DUP2 PUSH2 0x1D5E JUMP JUMPDEST SWAP4 POP PUSH1 0x20 DUP6 ADD CALLDATALOAD PUSH2 0x1F16 DUP2 PUSH2 0x1D5E JUMP JUMPDEST SWAP3 POP PUSH1 0x40 DUP6 ADD CALLDATALOAD PUSH8 0xFFFFFFFFFFFFFFFF DUP2 GT ISZERO PUSH2 0x1F32 JUMPI PUSH1 0x0 DUP1 REVERT JUMPDEST PUSH2 0x1F3E DUP8 DUP3 DUP9 ADD PUSH2 0x1E9C JUMP JUMPDEST SWAP6 SWAP9 SWAP5 SWAP8 POP SWAP6 POP POP POP POP JUMP JUMPDEST PUSH1 0x0 DUP1 PUSH1 0x0 DUP1 PUSH1 0x0 PUSH1 0x80 DUP7 DUP9 SUB SLT ISZERO PUSH2 0x1F62 JUMPI PUSH1 0x0 DUP1 REVERT JUMPDEST DUP6 CALLDATALOAD PUSH2 0x1F6D DUP2 PUSH2 0x1D5E JUMP JUMPDEST SWAP5 POP PUSH1 0x20 DUP7 ADD CALLDATALOAD PUSH2 0x1F7D DUP2 PUSH2 0x1D5E JUMP JUMPDEST SWAP4 POP PUSH1 0x40 DUP7 ADD CALLDATALOAD SWAP3 POP PUSH1 0x60 DUP7 ADD CALLDATALOAD PUSH8 0xFFFFFFFFFFFFFFFF DUP2 GT ISZERO PUSH2 0x1FA0 JUMPI PUSH1 0x0 DUP1 REVERT JUMPDEST PUSH2 0x1FAC DUP9 DUP3 DUP10 ADD PUSH2 0x1E9C JUMP JUMPDEST SWAP7 SWAP10 SWAP6 SWAP9 POP SWAP4 SWAP7 POP SWAP3 SWAP5 SWAP4 SWAP3 POP POP POP JUMP JUMPDEST PUSH1 0x0 DUP1 PUSH1 0x40 DUP4 DUP6 SUB SLT ISZERO PUSH2 0x1FD0 JUMPI PUSH1 0x0 DUP1 REVERT JUMPDEST DUP3 CALLDATALOAD PUSH2 0x1FDB DUP2 PUSH2 0x1D5E JUMP JUMPDEST SWAP5 PUSH1 0x20 SWAP4 SWAP1 SWAP4 ADD CALLDATALOAD SWAP4 POP POP POP JUMP JUMPDEST DUP2 DUP4 DUP3 CALLDATACOPY PUSH1 0x0 SWAP2 ADD SWAP1 DUP2 MSTORE SWAP2 SWAP1 POP JUMP JUMPDEST PUSH1 0x0 PUSH1 0x20 DUP3 DUP5 SUB SLT ISZERO PUSH2 0x200B JUMPI PUSH1 0x0 DUP1 REVERT JUMPDEST DUP2 MLOAD PUSH2 0x1B84 DUP2 PUSH2 0x1D5E JUMP JUMPDEST PUSH1 0x20 DUP1 DUP3 MSTORE PUSH1 0x2F SWAP1 DUP3 ADD MSTORE PUSH32 0x41727469737420636F6E7472616374206D75737420696D706C656D656E74206F PUSH1 0x40 DUP3 ADD MSTORE PUSH15 0x3BB732B9141490333AB731BA34B7B7 PUSH1 0x89 SHL PUSH1 0x60 DUP3 ADD MSTORE PUSH1 0x80 ADD SWAP1 JUMP JUMPDEST PUSH4 0x4E487B71 PUSH1 0xE0 SHL PUSH1 0x0 MSTORE PUSH1 0x11 PUSH1 0x4 MSTORE PUSH1 0x24 PUSH1 0x0 REVERT JUMPDEST DUP2 DUP2 SUB DUP2 DUP2 GT ISZERO PUSH2 0x599 JUMPI PUSH2 0x599 PUSH2 0x2065 JUMP JUMPDEST DUP2 DUP4 MSTORE DUP2 DUP2 PUSH1 0x20 DUP6 ADD CALLDATACOPY POP PUSH1 0x0 DUP3 DUP3 ADD PUSH1 0x20 SWAP1 DUP2 ADD SWAP2 SWAP1 SWAP2 MSTORE PUSH1 0x1F SWAP1 SWAP2 ADD PUSH1 0x1F NOT AND SWAP1 SWAP2 ADD ADD SWAP1 JUMP JUMPDEST PUSH1 0x1 PUSH1 0x1 PUSH1 0xA0 SHL SUB DUP5 AND DUP2 MSTORE PUSH1 0x40 PUSH1 0x20 DUP3 ADD DUP2 SWAP1 MSTORE PUSH1 0x0 SWAP1 PUSH2 0x20DC SWAP1 DUP4 ADD DUP5 DUP7 PUSH2 0x208E JUMP JUMPDEST SWAP6 SWAP5 POP POP POP POP POP JUMP JUMPDEST PUSH1 0x0 PUSH1 0x3 RETURNDATASIZE GT ISZERO PUSH2 0x20FE JUMPI PUSH1 0x4 PUSH1 0x0 DUP1 RETURNDATACOPY POP PUSH1 0x0 MLOAD PUSH1 0xE0 SHR JUMPDEST SWAP1 JUMP JUMPDEST PUSH1 0x0 PUSH1 0x44 RETURNDATASIZE LT ISZERO PUSH2 0x210F JUMPI SWAP1 JUMP JUMPDEST PUSH1 0x40 MLOAD PUSH1 0x3 NOT RETURNDATASIZE DUP2 ADD PUSH1 0x4 DUP4 RETURNDATACOPY DUP2 MLOAD RETURNDATASIZE PUSH8 0xFFFFFFFFFFFFFFFF DUP2 PUSH1 0x24 DUP5 ADD GT DUP2 DUP5 GT OR ISZERO PUSH2 0x213F JUMPI POP POP POP POP POP SWAP1 JUMP JUMPDEST DUP3 DUP6 ADD SWAP2 POP DUP2 MLOAD DUP2 DUP2 GT ISZERO PUSH2 0x2157 JUMPI POP POP POP POP POP POP SWAP1 JUMP JUMPDEST DUP5 RETURNDATASIZE DUP8 ADD ADD PUSH1 0x20 DUP3 DUP6 ADD ADD GT ISZERO PUSH2 0x2171 JUMPI POP POP POP POP POP POP SWAP1 JUMP JUMPDEST PUSH2 0x2180 PUSH1 0x20 DUP3 DUP7 ADD ADD DUP8 PUSH2 0x1DD6 JUMP JUMPDEST POP SWAP1 SWAP6 SWAP5 POP POP POP POP POP JUMP JUMPDEST PUSH1 0x0 JUMPDEST DUP4 DUP2 LT ISZERO PUSH2 0x21A6 JUMPI DUP2 DUP2 ADD MLOAD DUP4 DUP3 ADD MSTORE PUSH1 0x20 ADD PUSH2 0x218E JUMP JUMPDEST POP POP PUSH1 0x0 SWAP2 ADD MSTORE JUMP JUMPDEST PUSH16 0x26B4B73A34B733903330B4B632B21D1 PUSH1 0x85 SHL DUP2 MSTORE PUSH1 0x0 DUP3 MLOAD PUSH2 0x21DA DUP2 PUSH1 0x10 DUP6 ADD PUSH1 0x20 DUP8 ADD PUSH2 0x218B JUMP JUMPDEST SWAP2 SWAP1 SWAP2 ADD PUSH1 0x10 ADD SWAP3 SWAP2 POP POP JUMP JUMPDEST PUSH1 0x20 DUP2 MSTORE PUSH1 0x0 DUP3 MLOAD DUP1 PUSH1 0x20 DUP5 ADD MSTORE PUSH2 0x2206 DUP2 PUSH1 0x40 DUP6 ADD PUSH1 0x20 DUP8 ADD PUSH2 0x218B JUMP JUMPDEST PUSH1 0x1F ADD PUSH1 0x1F NOT AND SWAP2 SWAP1 SWAP2 ADD PUSH1 0x40 ADD SWAP3 SWAP2 POP POP JUMP JUMPDEST DUP4 DUP2 MSTORE PUSH1 0x40 PUSH1 0x20 DUP3 ADD MSTORE PUSH1 0x0 PUSH2 0x20DC PUSH1 0x40 DUP4 ADD DUP5 DUP7 PUSH2 0x208E JUMP JUMPDEST PUSH1 0x0 PUSH1 0x20 DUP3 DUP5 SUB SLT ISZERO PUSH2 0x2246 JUMPI PUSH1 0x0 DUP1 REVERT JUMPDEST POP MLOAD SWAP2 SWAP1 POP JUMP JUMPDEST DUP1 DUP3 MUL DUP2 ISZERO DUP3 DUP3 DIV DUP5 EQ OR PUSH2 0x599 JUMPI PUSH2 0x599 PUSH2 0x2065 JUMP JUMPDEST PUSH1 0x0 DUP3 PUSH2 0x2281 JUMPI PUSH4 0x4E487B71 PUSH1 0xE0 SHL PUSH1 0x0 MSTORE PUSH1 0x12 PUSH1 0x4 MSTORE PUSH1 0x24 PUSH1 0x0 REVERT JUMPDEST POP DIV SWAP1 JUMP JUMPDEST PUSH32 0x416363657373436F6E74726F6C3A206163636F756E7420000000000000000000 DUP2 MSTORE PUSH1 0x0 DUP4 MLOAD PUSH2 0x22BE DUP2 PUSH1 0x17 DUP6 ADD PUSH1 0x20 DUP9 ADD PUSH2 0x218B JUMP JUMPDEST PUSH17 0x1034B99036B4B9B9B4B733903937B6329 PUSH1 0x7D SHL PUSH1 0x17 SWAP2 DUP5 ADD SWAP2 DUP3 ADD MSTORE DUP4 MLOAD PUSH2 0x22EF DUP2 PUSH1 0x28 DUP5 ADD PUSH1 0x20 DUP9 ADD PUSH2 0x218B JUMP JUMPDEST ADD PUSH1 0x28 ADD SWAP5 SWAP4 POP POP POP POP JUMP JUMPDEST PUSH1 0x0 PUSH1 0x20 DUP3 DUP5 SUB SLT ISZERO PUSH2 0x230D JUMPI PUSH1 0x0 DUP1 REVERT JUMPDEST DUP2 MLOAD DUP1 ISZERO ISZERO DUP2 EQ PUSH2 0x1B84 JUMPI PUSH1 0x0 DUP1 REVERT JUMPDEST DUP1 DUP3 ADD DUP1 DUP3 GT ISZERO PUSH2 0x599 JUMPI PUSH2 0x599 PUSH2 0x2065 JUMP JUMPDEST PUSH4 0x4E487B71 PUSH1 0xE0 SHL PUSH1 0x0 MSTORE PUSH1 0x32 PUSH1 0x4 MSTORE PUSH1 0x24 PUSH1 0x0 REVERT JUMPDEST PUSH1 0x0 DUP2 PUSH2 0x2355 JUMPI PUSH2 0x2355 PUSH2 0x2065 JUMP JUMPDEST POP PUSH1 0x0 NOT ADD SWAP1 JUMP JUMPDEST PUSH1 0x0 DUP3 MLOAD PUSH2 0x236F DUP2 DUP5 PUSH1 0x20 DUP8 ADD PUSH2 0x218B JUMP JUMPDEST SWAP2 SWAP1 SWAP2 ADD SWAP3 SWAP2 POP POP JUMP INVALID 0xE2 0xB7 0xFB EXTCODESIZE DUP4 0x21 PUSH21 0x769106DAEBCFD6D1970523240DDA11281102DB9363 0xB8 EXTCODESIZE 0xD 0xC4 LOG2 PUSH5 0x6970667358 0x22 SLT KECCAK256 CODECOPY 0xC5 0x29 0xC9 0xD6 0x25 MULMOD INVALID PUSH16 0xFE105DD24A18D67CC9DD2C705EC816BA SWAP1 ADDRESS 0x1E 0xB8 SWAP6 0xCA ADDMOD PUSH5 0x736F6C6343 STOP ADDMOD SGT STOP CALLER "
	},
	"abi": [
		{
			"inputs": [
				{
					"internalType": "address",
					"name": "_usdc",
					"type": "address"
				},
				{
					"internalType": "address",
					"name": "_multisig",
					"type": "address"
				},
				{
					"internalType": "address",
					"name": "_payee2",
					"type": "address"
				},
				{
					"internalType": "address",
					"name": "_relayer",
					"type": "address"
				},
				{
					"internalType": "address",
					"name": "_admin",
					"type": "address"
				}
			],
			"stateMutability": "nonpayable",
			"type": "constructor"
		},
		{
			"anonymous": false,
			"inputs": [
				{
					"indexed": true,
					"internalType": "address",
					"name": "sender",
					"type": "address"
				},
				{
					"indexed": false,
					"internalType": "uint256",
					"name": "amount",
					"type": "uint256"
				}
			],
			"name": "ETHReceived",
			"type": "event"
		},
		{
			"anonymous": false,
			"inputs": [
				{
					"indexed": true,
					"internalType": "address",
					"name": "recipient",
					"type": "address"
				},
				{
					"indexed": true,
					"internalType": "uint256",
					"name": "oldBps",
					"type": "uint256"
				},
				{
					"indexed": true,
					"internalType": "uint256",
					"name": "newBps",
					"type": "uint256"
				}
			],
			"name": "FeeUpdated",
			"type": "event"
		},
		{
			"anonymous": false,
			"inputs": [
				{
					"indexed": true,
					"internalType": "address",
					"name": "newPayee2",
					"type": "address"
				}
			],
			"name": "GalleryPayeeUpdated",
			"type": "event"
		},
		{
			"anonymous": false,
			"inputs": [
				{
					"indexed": false,
					"internalType": "address",
					"name": "account",
					"type": "address"
				}
			],
			"name": "Paused",
			"type": "event"
		},
		{
			"anonymous": false,
			"inputs": [
				{
					"indexed": true,
					"internalType": "address",
					"name": "artistContract",
					"type": "address"
				},
				{
					"indexed": true,
					"internalType": "address",
					"name": "artistPayee",
					"type": "address"
				},
				{
					"indexed": true,
					"internalType": "address",
					"name": "to",
					"type": "address"
				},
				{
					"indexed": false,
					"internalType": "uint256",
					"name": "amount",
					"type": "uint256"
				},
				{
					"indexed": false,
					"internalType": "string",
					"name": "paymentId",
					"type": "string"
				}
			],
			"name": "Processed",
			"type": "event"
		},
		{
			"anonymous": false,
			"inputs": [
				{
					"indexed": true,
					"internalType": "bytes32",
					"name": "role",
					"type": "bytes32"
				},
				{
					"indexed": true,
					"internalType": "bytes32",
					"name": "previousAdminRole",
					"type": "bytes32"
				},
				{
					"indexed": true,
					"internalType": "bytes32",
					"name": "newAdminRole",
					"type": "bytes32"
				}
			],
			"name": "RoleAdminChanged",
			"type": "event"
		},
		{
			"anonymous": false,
			"inputs": [
				{
					"indexed": true,
					"internalType": "bytes32",
					"name": "role",
					"type": "bytes32"
				},
				{
					"indexed": true,
					"internalType": "address",
					"name": "account",
					"type": "address"
				}
			],
			"name": "RoleGranted",
			"type": "event"
		},
		{
			"anonymous": false,
			"inputs": [
				{
					"indexed": true,
					"internalType": "bytes32",
					"name": "role",
					"type": "bytes32"
				},
				{
					"indexed": true,
					"internalType": "address",
					"name": "account",
					"type": "address"
				},
				{
					"indexed": true,
					"internalType": "address",
					"name": "sender",
					"type": "address"
				}
			],
			"name": "RoleGranted",
			"type": "event"
		},
		{
			"anonymous": false,
			"inputs": [
				{
					"indexed": true,
					"internalType": "bytes32",
					"name": "role",
					"type": "bytes32"
				},
				{
					"indexed": true,
					"internalType": "address",
					"name": "account",
					"type": "address"
				}
			],
			"name": "RoleRevoked",
			"type": "event"
		},
		{
			"anonymous": false,
			"inputs": [
				{
					"indexed": true,
					"internalType": "bytes32",
					"name": "role",
					"type": "bytes32"
				},
				{
					"indexed": true,
					"internalType": "address",
					"name": "account",
					"type": "address"
				},
				{
					"indexed": true,
					"internalType": "address",
					"name": "sender",
					"type": "address"
				}
			],
			"name": "RoleRevoked",
			"type": "event"
		},
		{
			"anonymous": false,
			"inputs": [
				{
					"indexed": false,
					"internalType": "address",
					"name": "account",
					"type": "address"
				}
			],
			"name": "Unpaused",
			"type": "event"
		},
		{
			"anonymous": false,
			"inputs": [
				{
					"indexed": true,
					"internalType": "address",
					"name": "to",
					"type": "address"
				},
				{
					"indexed": false,
					"internalType": "uint256",
					"name": "amount",
					"type": "uint256"
				}
			],
			"name": "WithdrawnETH",
			"type": "event"
		},
		{
			"anonymous": false,
			"inputs": [
				{
					"indexed": true,
					"internalType": "address",
					"name": "to",
					"type": "address"
				},
				{
					"indexed": false,
					"internalType": "uint256",
					"name": "amount",
					"type": "uint256"
				}
			],
			"name": "WithdrawnUSDC",
			"type": "event"
		},
		{
			"inputs": [],
			"name": "ADMIN_ROLE",
			"outputs": [
				{
					"internalType": "bytes32",
					"name": "",
					"type": "bytes32"
				}
			],
			"stateMutability": "view",
			"type": "function"
		},
		{
			"inputs": [],
			"name": "DEFAULT_ADMIN_ROLE",
			"outputs": [
				{
					"internalType": "bytes32",
					"name": "",
					"type": "bytes32"
				}
			],
			"stateMutability": "view",
			"type": "function"
		},
		{
			"inputs": [],
			"name": "MINT_PRICE",
			"outputs": [
				{
					"internalType": "uint256",
					"name": "",
					"type": "uint256"
				}
			],
			"stateMutability": "view",
			"type": "function"
		},
		{
			"inputs": [],
			"name": "PAYEE1_AMOUNT",
			"outputs": [
				{
					"internalType": "uint256",
					"name": "",
					"type": "uint256"
				}
			],
			"stateMutability": "view",
			"type": "function"
		},
		{
			"inputs": [],
			"name": "PAYEE2_AMOUNT",
			"outputs": [
				{
					"internalType": "uint256",
					"name": "",
					"type": "uint256"
				}
			],
			"stateMutability": "view",
			"type": "function"
		},
		{
			"inputs": [],
			"name": "RELAYER_ROLE",
			"outputs": [
				{
					"internalType": "bytes32",
					"name": "",
					"type": "bytes32"
				}
			],
			"stateMutability": "view",
			"type": "function"
		},
		{
			"inputs": [],
			"name": "feeBps",
			"outputs": [
				{
					"internalType": "uint256",
					"name": "",
					"type": "uint256"
				}
			],
			"stateMutability": "view",
			"type": "function"
		},
		{
			"inputs": [],
			"name": "feeRecipient",
			"outputs": [
				{
					"internalType": "address",
					"name": "",
					"type": "address"
				}
			],
			"stateMutability": "view",
			"type": "function"
		},
		{
			"inputs": [
				{
					"internalType": "bytes32",
					"name": "role",
					"type": "bytes32"
				}
			],
			"name": "getRoleAdmin",
			"outputs": [
				{
					"internalType": "bytes32",
					"name": "",
					"type": "bytes32"
				}
			],
			"stateMutability": "view",
			"type": "function"
		},
		{
			"inputs": [
				{
					"internalType": "bytes32",
					"name": "role",
					"type": "bytes32"
				},
				{
					"internalType": "address",
					"name": "account",
					"type": "address"
				}
			],
			"name": "grantRole",
			"outputs": [],
			"stateMutability": "nonpayable",
			"type": "function"
		},
		{
			"inputs": [
				{
					"internalType": "bytes32",
					"name": "role",
					"type": "bytes32"
				},
				{
					"internalType": "address",
					"name": "account",
					"type": "address"
				}
			],
			"name": "hasRole",
			"outputs": [
				{
					"internalType": "bool",
					"name": "",
					"type": "bool"
				}
			],
			"stateMutability": "view",
			"type": "function"
		},
		{
			"inputs": [],
			"name": "pause",
			"outputs": [],
			"stateMutability": "nonpayable",
			"type": "function"
		},
		{
			"inputs": [],
			"name": "paused",
			"outputs": [
				{
					"internalType": "bool",
					"name": "",
					"type": "bool"
				}
			],
			"stateMutability": "view",
			"type": "function"
		},
		{
			"inputs": [
				{
					"internalType": "address",
					"name": "artistContract",
					"type": "address"
				},
				{
					"internalType": "address",
					"name": "to",
					"type": "address"
				},
				{
					"internalType": "string",
					"name": "paymentId",
					"type": "string"
				}
			],
			"name": "payAndMint",
			"outputs": [],
			"stateMutability": "payable",
			"type": "function"
		},
		{
			"inputs": [],
			"name": "payee2",
			"outputs": [
				{
					"internalType": "address",
					"name": "",
					"type": "address"
				}
			],
			"stateMutability": "view",
			"type": "function"
		},
		{
			"inputs": [
				{
					"internalType": "address",
					"name": "artistContract",
					"type": "address"
				},
				{
					"internalType": "address",
					"name": "to",
					"type": "address"
				},
				{
					"internalType": "uint256",
					"name": "amount",
					"type": "uint256"
				},
				{
					"internalType": "string",
					"name": "paymentId",
					"type": "string"
				}
			],
			"name": "processPayment",
			"outputs": [],
			"stateMutability": "nonpayable",
			"type": "function"
		},
		{
			"inputs": [
				{
					"internalType": "string",
					"name": "",
					"type": "string"
				}
			],
			"name": "processedPayment",
			"outputs": [
				{
					"internalType": "bool",
					"name": "",
					"type": "bool"
				}
			],
			"stateMutability": "view",
			"type": "function"
		},
		{
			"inputs": [
				{
					"internalType": "address",
					"name": "_relayer",
					"type": "address"
				}
			],
			"name": "removeRelayer",
			"outputs": [],
			"stateMutability": "nonpayable",
			"type": "function"
		},
		{
			"inputs": [
				{
					"internalType": "bytes32",
					"name": "role",
					"type": "bytes32"
				},
				{
					"internalType": "address",
					"name": "account",
					"type": "address"
				}
			],
			"name": "renounceRole",
			"outputs": [],
			"stateMutability": "nonpayable",
			"type": "function"
		},
		{
			"inputs": [
				{
					"internalType": "bytes32",
					"name": "role",
					"type": "bytes32"
				},
				{
					"internalType": "address",
					"name": "account",
					"type": "address"
				}
			],
			"name": "revokeRole",
			"outputs": [],
			"stateMutability": "nonpayable",
			"type": "function"
		},
		{
			"inputs": [
				{
					"internalType": "address",
					"name": "_recipient",
					"type": "address"
				},
				{
					"internalType": "uint256",
					"name": "_bps",
					"type": "uint256"
				}
			],
			"name": "setFee",
			"outputs": [],
			"stateMutability": "nonpayable",
			"type": "function"
		},
		{
			"inputs": [
				{
					"internalType": "address",
					"name": "_payee2",
					"type": "address"
				}
			],
			"name": "setGalleryPayee",
			"outputs": [],
			"stateMutability": "nonpayable",
			"type": "function"
		},
		{
			"inputs": [
				{
					"internalType": "address",
					"name": "_relayer",
					"type": "address"
				}
			],
			"name": "setRelayer",
			"outputs": [],
			"stateMutability": "nonpayable",
			"type": "function"
		},
		{
			"inputs": [
				{
					"internalType": "bytes4",
					"name": "interfaceId",
					"type": "bytes4"
				}
			],
			"name": "supportsInterface",
			"outputs": [
				{
					"internalType": "bool",
					"name": "",
					"type": "bool"
				}
			],
			"stateMutability": "view",
			"type": "function"
		},
		{
			"inputs": [],
			"name": "unpause",
			"outputs": [],
			"stateMutability": "nonpayable",
			"type": "function"
		},
		{
			"inputs": [],
			"name": "usdc",
			"outputs": [
				{
					"internalType": "contract IERC20Metadata",
					"name": "",
					"type": "address"
				}
			],
			"stateMutability": "view",
			"type": "function"
		},
		{
			"inputs": [
				{
					"internalType": "uint256",
					"name": "amount",
					"type": "uint256"
				}
			],
			"name": "withdrawETH",
			"outputs": [],
			"stateMutability": "nonpayable",
			"type": "function"
		},
		{
			"inputs": [
				{
					"internalType": "uint256",
					"name": "amount",
					"type": "uint256"
				}
			],
			"name": "withdrawUSDC",
			"outputs": [],
			"stateMutability": "nonpayable",
			"type": "function"
		},
		{
			"stateMutability": "payable",
			"type": "receive"
		}
	],
	"storageLayout": {
		"storage": [
			{
				"astId": 850,
				"contract": "KinGallery.sol:KinGallery",
				"label": "_roles",
				"offset": 0,
				"slot": "0",
				"type": "t_mapping(t_bytes32,t_struct(RoleData)845_storage)"
			},
			{
				"astId": 1333,
				"contract": "KinGallery.sol:KinGallery",
				"label": "_status",
				"offset": 0,
				"slot": "1",
				"type": "t_uint256"
			},
			{
				"astId": 1232,
				"contract": "KinGallery.sol:KinGallery",
				"label": "_paused",
				"offset": 0,
				"slot": "2",
				"type": "t_bool"
			},
			{
				"astId": 55,
				"contract": "KinGallery.sol:KinGallery",
				"label": "feeRecipient",
				"offset": 1,
				"slot": "2",
				"type": "t_address"
			},
			{
				"astId": 57,
				"contract": "KinGallery.sol:KinGallery",
				"label": "feeBps",
				"offset": 0,
				"slot": "3",
				"type": "t_uint256"
			},
			{
				"astId": 59,
				"contract": "KinGallery.sol:KinGallery",
				"label": "payee2",
				"offset": 0,
				"slot": "4",
				"type": "t_address"
			},
			{
				"astId": 69,
				"contract": "KinGallery.sol:KinGallery",
				"label": "processedPayment",
				"offset": 0,
				"slot": "5",
				"type": "t_mapping(t_string_memory_ptr,t_bool)"
			}
		],
		"types": {
			"t_address": {
				"encoding": "inplace",
				"label": "address",
				"numberOfBytes": "20"
			},
			"t_bool": {
				"encoding": "inplace",
				"label": "bool",
				"numberOfBytes": "1"
			},
			"t_bytes32": {
				"encoding": "inplace",
				"label": "bytes32",
				"numberOfBytes": "32"
			},
			"t_mapping(t_address,t_bool)": {
				"encoding": "mapping",
				"key": "t_address",
				"label": "mapping(address => bool)",
				"numberOfBytes": "32",
				"value": "t_bool"
			},
			"t_mapping(t_bytes32,t_struct(RoleData)845_storage)": {
				"encoding": "mapping",
				"key": "t_bytes32",
				"label": "mapping(bytes32 => struct AccessControl.RoleData)",
				"numberOfBytes": "32",
				"value": "t_struct(RoleData)845_storage"
			},
			"t_mapping(t_string_memory_ptr,t_bool)": {
				"encoding": "mapping",
				"key": "t_string_memory_ptr",
				"label": "mapping(string => bool)",
				"numberOfBytes": "32",
				"value": "t_bool"
			},
			"t_string_memory_ptr": {
				"encoding": "bytes",
				"label": "string",
				"numberOfBytes": "32"
			},
			"t_struct(RoleData)845_storage": {
				"encoding": "inplace",
				"label": "struct AccessControl.RoleData",
				"members": [
					{
						"astId": 842,
						"contract": "KinGallery.sol:KinGallery",
						"label": "members",
						"offset": 0,
						"slot": "0",
						"type": "t_mapping(t_address,t_bool)"
					},
					{
						"astId": 844,
						"contract": "KinGallery.sol:KinGallery",
						"label": "adminRole",
						"offset": 0,
						"slot": "1",
						"type": "t_bytes32"
					}
				],
				"numberOfBytes": "64"
			},
			"t_uint256": {
				"encoding": "inplace",
				"label": "uint256",
				"numberOfBytes": "32"
			}
		}
	},
	"web3Deploy": "var _usdc = /* var of type address here */ ;\nvar _multisig = /* var of type address here */ ;\nvar _payee2 = /* var of type address here */ ;\nvar _relayer = /* var of type address here */ ;\nvar _admin = /* var of type address here */ ;\nvar kingalleryContract = new web3.eth.Contract([{\"inputs\":[{\"internalType\":\"address\",\"name\":\"_usdc\",\"type\":\"address\"},{\"internalType\":\"address\",\"name\":\"_multisig\",\"type\":\"address\"},{\"internalType\":\"address\",\"name\":\"_payee2\",\"type\":\"address\"},{\"internalType\":\"address\",\"name\":\"_relayer\",\"type\":\"address\"},{\"internalType\":\"address\",\"name\":\"_admin\",\"type\":\"address\"}],\"stateMutability\":\"nonpayable\",\"type\":\"constructor\"},{\"anonymous\":false,\"inputs\":[{\"indexed\":true,\"internalType\":\"address\",\"name\":\"sender\",\"type\":\"address\"},{\"indexed\":false,\"internalType\":\"uint256\",\"name\":\"amount\",\"type\":\"uint256\"}],\"name\":\"ETHReceived\",\"type\":\"event\"},{\"anonymous\":false,\"inputs\":[{\"indexed\":true,\"internalType\":\"address\",\"name\":\"recipient\",\"type\":\"address\"},{\"indexed\":true,\"internalType\":\"uint256\",\"name\":\"oldBps\",\"type\":\"uint256\"},{\"indexed\":true,\"internalType\":\"uint256\",\"name\":\"newBps\",\"type\":\"uint256\"}],\"name\":\"FeeUpdated\",\"type\":\"event\"},{\"anonymous\":false,\"inputs\":[{\"indexed\":true,\"internalType\":\"address\",\"name\":\"newPayee2\",\"type\":\"address\"}],\"name\":\"GalleryPayeeUpdated\",\"type\":\"event\"},{\"anonymous\":false,\"inputs\":[{\"indexed\":false,\"internalType\":\"address\",\"name\":\"account\",\"type\":\"address\"}],\"name\":\"Paused\",\"type\":\"event\"},{\"anonymous\":false,\"inputs\":[{\"indexed\":true,\"internalType\":\"address\",\"name\":\"artistContract\",\"type\":\"address\"},{\"indexed\":true,\"internalType\":\"address\",\"name\":\"artistPayee\",\"type\":\"address\"},{\"indexed\":true,\"internalType\":\"address\",\"name\":\"to\",\"type\":\"address\"},{\"indexed\":false,\"internalType\":\"uint256\",\"name\":\"amount\",\"type\":\"uint256\"},{\"indexed\":false,\"internalType\":\"string\",\"name\":\"paymentId\",\"type\":\"string\"}],\"name\":\"Processed\",\"type\":\"event\"},{\"anonymous\":false,\"inputs\":[{\"indexed\":true,\"internalType\":\"bytes32\",\"name\":\"role\",\"type\":\"bytes32\"},{\"indexed\":true,\"internalType\":\"bytes32\",\"name\":\"previousAdminRole\",\"type\":\"bytes32\"},{\"indexed\":true,\"internalType\":\"bytes32\",\"name\":\"newAdminRole\",\"type\":\"bytes32\"}],\"name\":\"RoleAdminChanged\",\"type\":\"event\"},{\"anonymous\":false,\"inputs\":[{\"indexed\":true,\"internalType\":\"bytes32\",\"name\":\"role\",\"type\":\"bytes32\"},{\"indexed\":true,\"internalType\":\"address\",\"name\":\"account\",\"type\":\"address\"}],\"name\":\"RoleGranted\",\"type\":\"event\"},{\"anonymous\":false,\"inputs\":[{\"indexed\":true,\"internalType\":\"bytes32\",\"name\":\"role\",\"type\":\"bytes32\"},{\"indexed\":true,\"internalType\":\"address\",\"name\":\"account\",\"type\":\"address\"},{\"indexed\":true,\"internalType\":\"address\",\"name\":\"sender\",\"type\":\"address\"}],\"name\":\"RoleGranted\",\"type\":\"event\"},{\"anonymous\":false,\"inputs\":[{\"indexed\":true,\"internalType\":\"bytes32\",\"name\":\"role\",\"type\":\"bytes32\"},{\"indexed\":true,\"internalType\":\"address\",\"name\":\"account\",\"type\":\"address\"}],\"name\":\"RoleRevoked\",\"type\":\"event\"},{\"anonymous\":false,\"inputs\":[{\"indexed\":true,\"internalType\":\"bytes32\",\"name\":\"role\",\"type\":\"bytes32\"},{\"indexed\":true,\"internalType\":\"address\",\"name\":\"account\",\"type\":\"address\"},{\"indexed\":true,\"internalType\":\"address\",\"name\":\"sender\",\"type\":\"address\"}],\"name\":\"RoleRevoked\",\"type\":\"event\"},{\"anonymous\":false,\"inputs\":[{\"indexed\":false,\"internalType\":\"address\",\"name\":\"account\",\"type\":\"address\"}],\"name\":\"Unpaused\",\"type\":\"event\"},{\"anonymous\":false,\"inputs\":[{\"indexed\":true,\"internalType\":\"address\",\"name\":\"to\",\"type\":\"address\"},{\"indexed\":false,\"internalType\":\"uint256\",\"name\":\"amount\",\"type\":\"uint256\"}],\"name\":\"WithdrawnETH\",\"type\":\"event\"},{\"anonymous\":false,\"inputs\":[{\"indexed\":true,\"internalType\":\"address\",\"name\":\"to\",\"type\":\"address\"},{\"indexed\":false,\"internalType\":\"uint256\",\"name\":\"amount\",\"type\":\"uint256\"}],\"name\":\"WithdrawnUSDC\",\"type\":\"event\"},{\"inputs\":[],\"name\":\"ADMIN_ROLE\",\"outputs\":[{\"internalType\":\"bytes32\",\"name\":\"\",\"type\":\"bytes32\"}],\"stateMutability\":\"view\",\"type\":\"function\"},{\"inputs\":[],\"name\":\"DEFAULT_ADMIN_ROLE\",\"outputs\":[{\"internalType\":\"bytes32\",\"name\":\"\",\"type\":\"bytes32\"}],\"stateMutability\":\"view\",\"type\":\"function\"},{\"inputs\":[],\"name\":\"MINT_PRICE\",\"outputs\":[{\"internalType\":\"uint256\",\"name\":\"\",\"type\":\"uint256\"}],\"stateMutability\":\"view\",\"type\":\"function\"},{\"inputs\":[],\"name\":\"PAYEE1_AMOUNT\",\"outputs\":[{\"internalType\":\"uint256\",\"name\":\"\",\"type\":\"uint256\"}],\"stateMutability\":\"view\",\"type\":\"function\"},{\"inputs\":[],\"name\":\"PAYEE2_AMOUNT\",\"outputs\":[{\"internalType\":\"uint256\",\"name\":\"\",\"type\":\"uint256\"}],\"stateMutability\":\"view\",\"type\":\"function\"},{\"inputs\":[],\"name\":\"RELAYER_ROLE\",\"outputs\":[{\"internalType\":\"bytes32\",\"name\":\"\",\"type\":\"bytes32\"}],\"stateMutability\":\"view\",\"type\":\"function\"},{\"inputs\":[],\"name\":\"feeBps\",\"outputs\":[{\"internalType\":\"uint256\",\"name\":\"\",\"type\":\"uint256\"}],\"stateMutability\":\"view\",\"type\":\"function\"},{\"inputs\":[],\"name\":\"feeRecipient\",\"outputs\":[{\"internalType\":\"address\",\"name\":\"\",\"type\":\"address\"}],\"stateMutability\":\"view\",\"type\":\"function\"},{\"inputs\":[{\"internalType\":\"bytes32\",\"name\":\"role\",\"type\":\"bytes32\"}],\"name\":\"getRoleAdmin\",\"outputs\":[{\"internalType\":\"bytes32\",\"name\":\"\",\"type\":\"bytes32\"}],\"stateMutability\":\"view\",\"type\":\"function\"},{\"inputs\":[{\"internalType\":\"bytes32\",\"name\":\"role\",\"type\":\"bytes32\"},{\"internalType\":\"address\",\"name\":\"account\",\"type\":\"address\"}],\"name\":\"grantRole\",\"outputs\":[],\"stateMutability\":\"nonpayable\",\"type\":\"function\"},{\"inputs\":[{\"internalType\":\"bytes32\",\"name\":\"role\",\"type\":\"bytes32\"},{\"internalType\":\"address\",\"name\":\"account\",\"type\":\"address\"}],\"name\":\"hasRole\",\"outputs\":[{\"internalType\":\"bool\",\"name\":\"\",\"type\":\"bool\"}],\"stateMutability\":\"view\",\"type\":\"function\"},{\"inputs\":[],\"name\":\"pause\",\"outputs\":[],\"stateMutability\":\"nonpayable\",\"type\":\"function\"},{\"inputs\":[],\"name\":\"paused\",\"outputs\":[{\"internalType\":\"bool\",\"name\":\"\",\"type\":\"bool\"}],\"stateMutability\":\"view\",\"type\":\"function\"},{\"inputs\":[{\"internalType\":\"address\",\"name\":\"artistContract\",\"type\":\"address\"},{\"internalType\":\"address\",\"name\":\"to\",\"type\":\"address\"},{\"internalType\":\"string\",\"name\":\"paymentId\",\"type\":\"string\"}],\"name\":\"payAndMint\",\"outputs\":[],\"stateMutability\":\"payable\",\"type\":\"function\"},{\"inputs\":[],\"name\":\"payee2\",\"outputs\":[{\"internalType\":\"address\",\"name\":\"\",\"type\":\"address\"}],\"stateMutability\":\"view\",\"type\":\"function\"},{\"inputs\":[{\"internalType\":\"address\",\"name\":\"artistContract\",\"type\":\"address\"},{\"internalType\":\"address\",\"name\":\"to\",\"type\":\"address\"},{\"internalType\":\"uint256\",\"name\":\"amount\",\"type\":\"uint256\"},{\"internalType\":\"string\",\"name\":\"paymentId\",\"type\":\"string\"}],\"name\":\"processPayment\",\"outputs\":[],\"stateMutability\":\"nonpayable\",\"type\":\"function\"},{\"inputs\":[{\"internalType\":\"string\",\"name\":\"\",\"type\":\"string\"}],\"name\":\"processedPayment\",\"outputs\":[{\"internalType\":\"bool\",\"name\":\"\",\"type\":\"bool\"}],\"stateMutability\":\"view\",\"type\":\"function\"},{\"inputs\":[{\"internalType\":\"address\",\"name\":\"_relayer\",\"type\":\"address\"}],\"name\":\"removeRelayer\",\"outputs\":[],\"stateMutability\":\"nonpayable\",\"type\":\"function\"},{\"inputs\":[{\"internalType\":\"bytes32\",\"name\":\"role\",\"type\":\"bytes32\"},{\"internalType\":\"address\",\"name\":\"account\",\"type\":\"address\"}],\"name\":\"renounceRole\",\"outputs\":[],\"stateMutability\":\"nonpayable\",\"type\":\"function\"},{\"inputs\":[{\"internalType\":\"bytes32\",\"name\":\"role\",\"type\":\"bytes32\"},{\"internalType\":\"address\",\"name\":\"account\",\"type\":\"address\"}],\"name\":\"revokeRole\",\"outputs\":[],\"stateMutability\":\"nonpayable\",\"type\":\"function\"},{\"inputs\":[{\"internalType\":\"address\",\"name\":\"_recipient\",\"type\":\"address\"},{\"internalType\":\"uint256\",\"name\":\"_bps\",\"type\":\"uint256\"}],\"name\":\"setFee\",\"outputs\":[],\"stateMutability\":\"nonpayable\",\"type\":\"function\"},{\"inputs\":[{\"internalType\":\"address\",\"name\":\"_payee2\",\"type\":\"address\"}],\"name\":\"setGalleryPayee\",\"outputs\":[],\"stateMutability\":\"nonpayable\",\"type\":\"function\"},{\"inputs\":[{\"internalType\":\"address\",\"name\":\"_relayer\",\"type\":\"address\"}],\"name\":\"setRelayer\",\"outputs\":[],\"stateMutability\":\"nonpayable\",\"type\":\"function\"},{\"inputs\":[{\"internalType\":\"bytes4\",\"name\":\"interfaceId\",\"type\":\"bytes4\"}],\"name\":\"supportsInterface\",\"outputs\":[{\"internalType\":\"bool\",\"name\":\"\",\"type\":\"bool\"}],\"stateMutability\":\"view\",\"type\":\"function\"},{\"inputs\":[],\"name\":\"unpause\",\"outputs\":[],\"stateMutability\":\"nonpayable\",\"type\":\"function\"},{\"inputs\":[],\"name\":\"usdc\",\"outputs\":[{\"internalType\":\"contract IERC20Metadata\",\"name\":\"\",\"type\":\"address\"}],\"stateMutability\":\"view\",\"type\":\"function\"},{\"inputs\":[{\"internalType\":\"uint256\",\"name\":\"amount\",\"type\":\"uint256\"}],\"name\":\"withdrawETH\",\"outputs\":[],\"stateMutability\":\"nonpayable\",\"type\":\"function\"},{\"inputs\":[{\"internalType\":\"uint256\",\"name\":\"amount\",\"type\":\"uint256\"}],\"name\":\"withdrawUSDC\",\"outputs\":[],\"stateMutability\":\"nonpayable\",\"type\":\"function\"},{\"stateMutability\":\"payable\",\"type\":\"receive\"}]);\nvar kingallery = kingalleryContract.deploy({\n     data: '0x60a06040523480156200001157600080fd5b506040516200279a3803806200279a83398101604081905262000034916200031c565b600180556002805460ff191690556001600160a01b0385166080819052620000a35760405162461bcd60e51b815260206004820152601560248201527f555344432061646472657373207265717569726564000000000000000000000060448201526064015b60405180910390fd5b60028054610100600160a81b0319166101006001600160a01b038716908102919091179091556200010a5760405162461bcd60e51b815260206004820152601060248201526f496e76616c6964206d756c746973696760801b60448201526064016200009a565b6000600355600480546001600160a01b0319166001600160a01b0385169081179091556200017b5760405162461bcd60e51b815260206004820152601660248201527f47616c6c6572792070617965652072657175697265640000000000000000000060448201526064016200009a565b6001600160a01b038216620001c55760405162461bcd60e51b815260206004820152600f60248201526e24b73b30b634b2103932b630bcb2b960891b60448201526064016200009a565b6001600160a01b0381166200020d5760405162461bcd60e51b815260206004820152600d60248201526c24b73b30b634b21030b236b4b760991b60448201526064016200009a565b6200021a6000826200025e565b620002276000856200025e565b620002537fe2b7fb3b832174769106daebcfd6d1970523240dda11281102db9363b83b0dc4836200025e565b50505050506200038c565b6000828152602081815260408083206001600160a01b038516845290915290205460ff16620002fb576000828152602081815260408083206001600160a01b03851684529091529020805460ff19166001179055620002ba3390565b6001600160a01b0316816001600160a01b0316837f2f8788117e7eff1d82e926ec794901d17c78024a50270940304540a733656f0d60405160405180910390a45b5050565b80516001600160a01b03811681146200031757600080fd5b919050565b600080600080600060a086880312156200033557600080fd5b6200034086620002ff565b94506200035060208701620002ff565b93506200036060408701620002ff565b92506200037060608701620002ff565b91506200038060808701620002ff565b90509295509295909350565b6080516123cf620003cb600039600081816102f301528181610e1e015281816110db01528181611124015281816112b3015261137501526123cf6000f3fe6080604052600436106101bb5760003560e01c8063725a8294116100ec578063bbe96b001161008a578063db81f99b11610064578063db81f99b1461050e578063e55156b51461052e578063eaa607421461054e578063f14210a61461056e57600080fd5b8063bbe96b00146104b3578063c002d23d146104d3578063d547741f146104ee57600080fd5b806391d14854116100c657806391d1485414610451578063926d7d7f14610471578063a217fddf14610427578063a93aa5031461049357600080fd5b8063725a82941461041457806375b238fc146104275780638456cb591461043c57600080fd5b80633f4ba83a116101595780635c975abb116101335780635c975abb1461038157806360f0a5ac14610399578063623e752b146103b95780636548e9bc146103f457600080fd5b80633f4ba83a1461032d57806346904840146103425780634af044aa1461036757600080fd5b806324a9d8531161019557806324a9d853146102895780632f2ff15d1461029f57806336568abe146102c15780633e413bee146102e157600080fd5b806301ffc9a7146101fc5780631ec7605c14610231578063248a9ca31461025957600080fd5b366101f75760405134815233907fbfe611b001dfcd411432f7bf0d79b82b4b2ee81511edac123a3403c357fb972a9060200160405180910390a2005b600080fd5b34801561020857600080fd5b5061021c610217366004611d1b565b61058e565b60405190151581526020015b60405180910390f35b34801561023d57600080fd5b5061024b65b5e620f4800081565b604051908152602001610228565b34801561026557600080fd5b5061024b610274366004611d45565b60009081526020819052604090206001015490565b34801561029557600080fd5b5061024b60035481565b3480156102ab57600080fd5b506102bf6102ba366004611d73565b61059f565b005b3480156102cd57600080fd5b506102bf6102dc366004611d73565b6105c9565b3480156102ed57600080fd5b506103157f000000000000000000000000000000000000000000000000000000000000000081565b6040516001600160a01b039091168152602001610228565b34801561033957600080fd5b506102bf61064c565b34801561034e57600080fd5b506002546103159061010090046001600160a01b031681565b34801561037357600080fd5b5061024b655af3107a400081565b34801561038d57600080fd5b5060025460ff1661021c565b3480156103a557600080fd5b506102bf6103b4366004611da3565b610662565b3480156103c557600080fd5b5061021c6103d4366004611e03565b805160208183018101805160058252928201919093012091525460ff1681565b34801561040057600080fd5b506102bf61040f366004611da3565b6106cd565b6102bf610422366004611ee5565b61077d565b34801561043357600080fd5b5061024b600081565b34801561044857600080fd5b506102bf610c5d565b34801561045d57600080fd5b5061021c61046c366004611d73565b610c70565b34801561047d57600080fd5b5061024b60008051602061237a83398151915281565b34801561049f57600080fd5b506102bf6104ae366004611da3565b610c99565b3480156104bf57600080fd5b506102bf6104ce366004611f4a565b610d35565b3480156104df57600080fd5b5061024b660110d9316ec00081565b3480156104fa57600080fd5b506102bf610509366004611d73565b61121f565b34801561051a57600080fd5b506102bf610529366004611d45565b611244565b34801561053a57600080fd5b506102bf610549366004611fbd565b6113d6565b34801561055a57600080fd5b50600454610315906001600160a01b031681565b34801561057a57600080fd5b506102bf610589366004611d45565b6114e0565b6000610599826115db565b92915050565b6000828152602081905260409020600101546105ba81611610565b6105c4838361161a565b505050565b6001600160a01b038116331461063e5760405162461bcd60e51b815260206004820152602f60248201527f416363657373436f6e74726f6c3a2063616e206f6e6c792072656e6f756e636560448201526e103937b632b9903337b91039b2b63360891b60648201526084015b60405180910390fd5b610648828261169e565b5050565b600061065781611610565b61065f611703565b50565b600061066d81611610565b61068560008051602061237a8339815191528361169e565b6040516001600160a01b0383169060008051602061237a833981519152907f155aaafb6329a2098580462df33ec4b7441b19729b9601c5fc17ae1cf99a8a5290600090a35050565b60006106d881611610565b6001600160a01b03821661071d5760405162461bcd60e51b815260206004820152600c60248201526b3d32b937903932b630bcb2b960a11b6044820152606401610635565b61073560008051602061237a8339815191528361161a565b6040516001600160a01b0383169060008051602061237a833981519152907f2ae6a113c0ed5b78a53413ffbb7679881f11145ccfba4fb92e863dfcd5a1d2f390600090a35050565b610785611755565b61078d6117ae565b660110d9316ec00034146107e35760405162461bcd60e51b815260206004820152601860248201527f496e636f7272656374207061796d656e7420616d6f756e7400000000000000006044820152606401610635565b600582826040516107f5929190611fe9565b9081526040519081900360200190205460ff16156108515760405162461bcd60e51b815260206004820152601960248201527814185e5b595b9d08185b1c9958591e481c1c9bd8d95cdcd959603a1b6044820152606401610635565b6001600160a01b03831661089b5760405162461bcd60e51b81526020600482015260116024820152701a5b9d985b1a59081c9958da5c1a595b9d607a1b6044820152606401610635565b6001600160a01b0384166108eb5760405162461bcd60e51b81526020600482015260176024820152761a5b9d985b1a5908185c9d1a5cdd0818dbdb9d1c9858dd604a1b6044820152606401610635565b6004546001600160a01b031661093b5760405162461bcd60e51b815260206004820152601560248201527411d85b1b195c9e481c185e5959481b9bdd081cd95d605a1b6044820152606401610635565b60016005838360405161094f929190611fe9565b908152602001604051809103902060006101000a81548160ff0219169083151502179055506000846001600160a01b0316638da5cb5b6040518163ffffffff1660e01b8152600401602060405180830381865afa9250505080156109d0575060408051601f3d908101601f191682019092526109cd91810190611ff9565b60015b6109ec5760405162461bcd60e51b815260040161063590612016565b6001600160a01b038116610a425760405162461bcd60e51b815260206004820152601b60248201527f417274697374206f776e6572206e6f7420636f6e6669677572656400000000006044820152606401610635565b90506040516001600160a01b0382169060009065b5e620f480009082818181858883f19350505050158015610a7b573d6000803e3d6000fd5b506004546040516001600160a01b0390911690600090655af3107a40009082818181858883f19350505050158015610ab7573d6000803e3d6000fd5b506000655af3107a4000610ad865b5e620f48000660110d9316ec00061207b565b610ae2919061207b565b9050856001600160a01b03166366100de2828787876040518563ffffffff1660e01b8152600401610b15939291906120b7565b6000604051808303818588803b158015610b2e57600080fd5b505af193505050508015610b40575060015b610bec57610b4c6120e5565b806308c379a003610ba25750610b60612101565b80610b6b5750610ba4565b80604051602001610b7c91906121af565b60408051601f198184030181529082905262461bcd60e51b8252610635916004016121e7565b505b60405162461bcd60e51b815260206004820152601d60248201527f4d696e74696e67206661696c65643a20756e6b6e6f776e206572726f720000006044820152606401610635565b846001600160a01b0316826001600160a01b0316876001600160a01b03167f9f5f2e026d346f31c5e7e284210968d5c32b9c42a43995fa31adf964d9cd672e660110d9316ec0008888604051610c449392919061221a565b60405180910390a45050610c5760018055565b50505050565b6000610c6881611610565b61065f6117f6565b6000918252602082815260408084206001600160a01b0393909316845291905290205460ff1690565b6000610ca481611610565b6001600160a01b038216610cea5760405162461bcd60e51b815260206004820152600d60248201526c696e76616c696420706179656560981b6044820152606401610635565b600480546001600160a01b0319166001600160a01b0384169081179091556040517f20b93562e05c6e5f99bebf52c1e2afe142d48f37032cbdd6a2583fbda41ec10090600090a25050565b610d4d60008051602061237a83398151915233610c70565b610d885760405162461bcd60e51b815260206004820152600c60248201526b27b7363c903932b630bcb2b960a11b6044820152606401610635565b610d90611755565b610d986117ae565b60058282604051610daa929190611fe9565b9081526040519081900360200190205460ff1615610e065760405162461bcd60e51b815260206004820152601960248201527814185e5b595b9d08185b1c9958591e481c1c9bd8d95cdcd959603a1b6044820152606401610635565b6040516370a0823160e01b81523060048201526000907f00000000000000000000000000000000000000000000000000000000000000006001600160a01b0316906370a0823190602401602060405180830381865afa158015610e6d573d6000803e3d6000fd5b505050506040513d601f19601f82011682018060405250810190610e919190612234565b905083811015610ed75760405162461bcd60e51b8152602060048201526011602482015270496e73756666696369656e74205553444360781b6044820152606401610635565b6001600160a01b038516610f215760405162461bcd60e51b81526020600482015260116024820152701a5b9d985b1a59081c9958da5c1a595b9d607a1b6044820152606401610635565b6001600160a01b038616610f715760405162461bcd60e51b81526020600482015260176024820152761a5b9d985b1a5908185c9d1a5cdd0818dbdb9d1c9858dd604a1b6044820152606401610635565b600160058484604051610f85929190611fe9565b908152602001604051809103902060006101000a81548160ff0219169083151502179055506000866001600160a01b0316638da5cb5b6040518163ffffffff1660e01b8152600401602060405180830381865afa925050508015611006575060408051601f3d908101601f1916820190925261100391810190611ff9565b60015b6110225760405162461bcd60e51b815260040161063590612016565b6001600160a01b0381166110785760405162461bcd60e51b815260206004820152601b60248201527f417274697374206f776e6572206e6f7420636f6e6669677572656400000000006044820152606401610635565b905060008060035411801561109c575060025461010090046001600160a01b031615155b6110a75760006110c2565b612710600354876110b8919061224d565b6110c29190612264565b9050801561110957600254611109906001600160a01b037f000000000000000000000000000000000000000000000000000000000000000081169161010090041683611833565b6000611115828861207b565b905061114b6001600160a01b037f0000000000000000000000000000000000000000000000000000000000000000168483611833565b604051634ed6a5f760e01b81526001600160a01b038a1690634ed6a5f79061117b908b908a908a906004016120b7565b600060405180830381600087803b15801561119557600080fd5b505af19250505080156111a6575060015b6111b257610b4c6120e5565b876001600160a01b0316836001600160a01b03168a6001600160a01b03167f9f5f2e026d346f31c5e7e284210968d5c32b9c42a43995fa31adf964d9cd672e8a8a8a6040516112039392919061221a565b60405180910390a45050505061121860018055565b5050505050565b60008281526020819052604090206001015461123a81611610565b6105c4838361169e565b600061124f81611610565b6112576117ae565b6000821161129c5760405162461bcd60e51b81526020600482015260126024820152710616d6f756e74206d757374206265203e20360741b6044820152606401610635565b6040516370a0823160e01b815230600482015282907f00000000000000000000000000000000000000000000000000000000000000006001600160a01b0316906370a0823190602401602060405180830381865afa158015611302573d6000803e3d6000fd5b505050506040513d601f19601f820116820180604052508101906113269190612234565b10156113685760405162461bcd60e51b8152602060048201526011602482015270496e73756666696369656e74205553444360781b6044820152606401610635565b61139c6001600160a01b037f0000000000000000000000000000000000000000000000000000000000000000163384611833565b60405182815233907f9064b460fd73b0517caa24227d99918304810044cab6170024069608dc4ca0e6906020015b60405180910390a25050565b60006113e181611610565b6127108211156114235760405162461bcd60e51b815260206004820152600d60248201526c62707320746f6f206c6172676560981b6044820152606401610635565b6001600160a01b038316151580611438575081155b61147c5760405162461bcd60e51b81526020600482015260156024820152741a5b9d985b1a5908199959481c9958da5c1a595b9d605a1b6044820152606401610635565b6003805460028054610100600160a81b0319166101006001600160a01b0388169081029190911790915591849055604051909184918391907fcf5b6c438b64611d8ee0722509d7ad5149d4f779f0b29bc845152f0d89e42e1990600090a450505050565b60006114eb81611610565b6114f36117ae565b600082116115385760405162461bcd60e51b81526020600482015260126024820152710616d6f756e74206d757374206265203e20360741b6044820152606401610635565b8147101561157b5760405162461bcd60e51b815260206004820152601060248201526f092dce6eaccccd2c6d2cadce8408aa8960831b6044820152606401610635565b604051339083156108fc029084906000818181858888f193505050501580156115a8573d6000803e3d6000fd5b5060405182815233907f5817fe91d2748c33f168d8a78037fc073adaf6ec8e3613a758d44a2cfae4563d906020016113ca565b60006001600160e01b03198216637965db0b60e01b148061059957506301ffc9a760e01b6001600160e01b0319831614610599565b61065f8133611885565b6116248282610c70565b610648576000828152602081815260408083206001600160a01b03851684529091529020805460ff1916600117905561165a3390565b6001600160a01b0316816001600160a01b0316837f2f8788117e7eff1d82e926ec794901d17c78024a50270940304540a733656f0d60405160405180910390a45050565b6116a88282610c70565b15610648576000828152602081815260408083206001600160a01b0385168085529252808320805460ff1916905551339285917ff6391f5c32d9c69d2a47ea670b442974b53935d1edc7fd64eb21e047a839171b9190a45050565b61170b6118b8565b6002805460ff191690557f5db9ee0a495bf2e6ff9c91a7834c1ba4fdd244a5e8aa4e537bd38aeae4b073aa335b6040516001600160a01b03909116815260200160405180910390a1565b6002600154036117a75760405162461bcd60e51b815260206004820152601f60248201527f5265656e7472616e637947756172643a207265656e7472616e742063616c6c006044820152606401610635565b6002600155565b60025460ff16156117f45760405162461bcd60e51b815260206004820152601060248201526f14185d5cd8589b194e881c185d5cd95960821b6044820152606401610635565b565b6117fe6117ae565b6002805460ff191660011790557f62e78cea01bee320cd4e420270b5ea74000d11b0c9f74754ebdbfc544b05a2586117383390565b604080516001600160a01b038416602482015260448082018490528251808303909101815260649091019091526020810180516001600160e01b031663a9059cbb60e01b1790526105c4908490611901565b61188f8282610c70565b6106485761189c816119d6565b6118a78360206119e8565b604051602001610b7c929190612286565b60025460ff166117f45760405162461bcd60e51b815260206004820152601460248201527314185d5cd8589b194e881b9bdd081c185d5cd95960621b6044820152606401610635565b6000611956826040518060400160405280602081526020017f5361666545524332303a206c6f772d6c6576656c2063616c6c206661696c6564815250856001600160a01b0316611b8b9092919063ffffffff16565b905080516000148061197757508080602001905181019061197791906122fb565b6105c45760405162461bcd60e51b815260206004820152602a60248201527f5361666545524332303a204552433230206f7065726174696f6e20646964206e6044820152691bdd081cdd58d8d9595960b21b6064820152608401610635565b60606105996001600160a01b03831660145b606060006119f783600261224d565b611a0290600261231d565b67ffffffffffffffff811115611a1a57611a1a611dc0565b6040519080825280601f01601f191660200182016040528015611a44576020820181803683370190505b509050600360fc1b81600081518110611a5f57611a5f612330565b60200101906001600160f81b031916908160001a905350600f60fb1b81600181518110611a8e57611a8e612330565b60200101906001600160f81b031916908160001a9053506000611ab284600261224d565b611abd90600161231d565b90505b6001811115611b35576f181899199a1a9b1b9c1cb0b131b232b360811b85600f1660108110611af157611af1612330565b1a60f81b828281518110611b0757611b07612330565b60200101906001600160f81b031916908160001a90535060049490941c93611b2e81612346565b9050611ac0565b508315611b845760405162461bcd60e51b815260206004820181905260248201527f537472696e67733a20686578206c656e67746820696e73756666696369656e746044820152606401610635565b9392505050565b6060611b9a8484600085611ba2565b949350505050565b606082471015611c035760405162461bcd60e51b815260206004820152602660248201527f416464726573733a20696e73756666696369656e742062616c616e636520666f6044820152651c8818d85b1b60d21b6064820152608401610635565b600080866001600160a01b03168587604051611c1f919061235d565b60006040518083038185875af1925050503d8060008114611c5c576040519150601f19603f3d011682016040523d82523d6000602084013e611c61565b606091505b5091509150611c7287838387611c7d565b979650505050505050565b60608315611cec578251600003611ce5576001600160a01b0385163b611ce55760405162461bcd60e51b815260206004820152601d60248201527f416464726573733a2063616c6c20746f206e6f6e2d636f6e74726163740000006044820152606401610635565b5081611b9a565b611b9a8383815115611d015781518083602001fd5b8060405162461bcd60e51b815260040161063591906121e7565b600060208284031215611d2d57600080fd5b81356001600160e01b031981168114611b8457600080fd5b600060208284031215611d5757600080fd5b5035919050565b6001600160a01b038116811461065f57600080fd5b60008060408385031215611d8657600080fd5b823591506020830135611d9881611d5e565b809150509250929050565b600060208284031215611db557600080fd5b8135611b8481611d5e565b634e487b7160e01b600052604160045260246000fd5b601f8201601f1916810167ffffffffffffffff81118282101715611dfc57611dfc611dc0565b6040525050565b60006020808385031215611e1657600080fd5b823567ffffffffffffffff80821115611e2e57600080fd5b818501915085601f830112611e4257600080fd5b813581811115611e5457611e54611dc0565b6040519150611e6c601f8201601f1916850183611dd6565b8082528684828501011115611e8057600080fd5b8084840185840137600090820190930192909252509392505050565b60008083601f840112611eae57600080fd5b50813567ffffffffffffffff811115611ec657600080fd5b602083019150836020828501011115611ede57600080fd5b9250929050565b60008060008060608587031215611efb57600080fd5b8435611f0681611d5e565b93506020850135611f1681611d5e565b9250604085013567ffffffffffffffff811115611f3257600080fd5b611f3e87828801611e9c565b95989497509550505050565b600080600080600060808688031215611f6257600080fd5b8535611f6d81611d5e565b94506020860135611f7d81611d5e565b935060408601359250606086013567ffffffffffffffff811115611fa057600080fd5b611fac88828901611e9c565b969995985093965092949392505050565b60008060408385031215611fd057600080fd5b8235611fdb81611d5e565b946020939093013593505050565b8183823760009101908152919050565b60006020828403121561200b57600080fd5b8151611b8481611d5e565b6020808252602f908201527f41727469737420636f6e7472616374206d75737420696d706c656d656e74206f60408201526e3bb732b9141490333ab731ba34b7b760891b606082015260800190565b634e487b7160e01b600052601160045260246000fd5b8181038181111561059957610599612065565b81835281816020850137506000828201602090810191909152601f909101601f19169091010190565b6001600160a01b03841681526040602082018190526000906120dc908301848661208e565b95945050505050565b600060033d11156120fe5760046000803e5060005160e01c5b90565b600060443d101561210f5790565b6040516003193d81016004833e81513d67ffffffffffffffff816024840111818411171561213f57505050505090565b82850191508151818111156121575750505050505090565b843d87010160208285010111156121715750505050505090565b61218060208286010187611dd6565b509095945050505050565b60005b838110156121a657818101518382015260200161218e565b50506000910152565b6f026b4b73a34b733903330b4b632b21d160851b8152600082516121da81601085016020870161218b565b9190910160100192915050565b602081526000825180602084015261220681604085016020870161218b565b601f01601f19169190910160400192915050565b8381526040602082015260006120dc60408301848661208e565b60006020828403121561224657600080fd5b5051919050565b808202811582820484141761059957610599612065565b60008261228157634e487b7160e01b600052601260045260246000fd5b500490565b7f416363657373436f6e74726f6c3a206163636f756e74200000000000000000008152600083516122be81601785016020880161218b565b7001034b99036b4b9b9b4b733903937b6329607d1b60179184019182015283516122ef81602884016020880161218b565b01602801949350505050565b60006020828403121561230d57600080fd5b81518015158114611b8457600080fd5b8082018082111561059957610599612065565b634e487b7160e01b600052603260045260246000fd5b60008161235557612355612065565b506000190190565b6000825161236f81846020870161218b565b919091019291505056fee2b7fb3b832174769106daebcfd6d1970523240dda11281102db9363b83b0dc4a264697066735822122039c529c9d62509fe6ffe105dd24a18d67cc9dd2c705ec816ba90301eb895ca0864736f6c63430008130033', \n     arguments: [\n          _usdc,\n          _multisig,\n          _payee2,\n          _relayer,\n          _admin,\n     ]\n}).send({\n     from: web3.eth.accounts[0], \n     gas: '4700000'\n   }, function (e, contract){\n    console.log(e, contract);\n    if (typeof contract.address !== 'undefined') {\n         console.log('Contract mined! address: ' + contract.address + ' transactionHash: ' + contract.transactionHash);\n    }\n })",
	"functionHashes": {
		"46904840": "feeRecipient()",
		"75b238fc": "ADMIN_ROLE()",
		"a217fddf": "DEFAULT_ADMIN_ROLE()",
		"c002d23d": "MINT_PRICE()",
		"1ec7605c": "PAYEE1_AMOUNT()",
		"4af044aa": "PAYEE2_AMOUNT()",
		"926d7d7f": "RELAYER_ROLE()",
		"24a9d853": "feeBps()",
		"248a9ca3": "getRoleAdmin(bytes32)",
		"2f2ff15d": "grantRole(bytes32,address)",
		"91d14854": "hasRole(bytes32,address)",
		"8456cb59": "pause()",
		"5c975abb": "paused()",
		"725a8294": "payAndMint(address,address,string)",
		"eaa60742": "payee2()",
		"bbe96b00": "processPayment(address,address,uint256,string)",
		"623e752b": "processedPayment(string)",
		"60f0a5ac": "removeRelayer(address)",
		"36568abe": "renounceRole(bytes32,address)",
		"d547741f": "revokeRole(bytes32,address)",
		"e55156b5": "setFee(address,uint256)",
		"a93aa503": "setGalleryPayee(address)",
		"6548e9bc": "setRelayer(address)",
		"01ffc9a7": "supportsInterface(bytes4)",
		"3f4ba83a": "unpause()",
		"3e413bee": "usdc()",
		"f14210a6": "withdrawETH(uint256)",
		"db81f99b": "withdrawUSDC(uint256)"
	},
	"gasEstimates": {
		"Creation": {
			"codeDepositCost": "1833400",
			"executionCost": "infinite",
			"totalCost": "infinite"
		},
		"External": {
			"ADMIN_ROLE()": "263",
			"DEFAULT_ADMIN_ROLE()": "284",
			"MINT_PRICE()": "262",
			"PAYEE1_AMOUNT()": "264",
			"PAYEE2_AMOUNT()": "285",
			"RELAYER_ROLE()": "infinite",
			"feeBps()": "2341",
			"feeRecipient()": "2416",
			"getRoleAdmin(bytes32)": "2538",
			"grantRole(bytes32,address)": "infinite",
			"hasRole(bytes32,address)": "2695",
			"pause()": "infinite",
			"paused()": "2338",
			"payAndMint(address,address,string)": "infinite",
			"payee2()": "2425",
			"processPayment(address,address,uint256,string)": "infinite",
			"processedPayment(string)": "infinite",
			"removeRelayer(address)": "infinite",
			"renounceRole(bytes32,address)": "29084",
			"revokeRole(bytes32,address)": "infinite",
			"setFee(address,uint256)": "infinite",
			"setGalleryPayee(address)": "infinite",
			"setRelayer(address)": "infinite",
			"supportsInterface(bytes4)": "infinite",
			"unpause()": "infinite",
			"usdc()": "infinite",
			"withdrawETH(uint256)": "infinite",
			"withdrawUSDC(uint256)": "infinite"
		}
	},
	"devdoc": {
		"events": {
			"Paused(address)": {
				"details": "Emitted when the pause is triggered by `account`."
			},
			"RoleAdminChanged(bytes32,bytes32,bytes32)": {
				"details": "Emitted when `newAdminRole` is set as ``role``'s admin role, replacing `previousAdminRole` `DEFAULT_ADMIN_ROLE` is the starting admin for all roles, despite {RoleAdminChanged} not being emitted signaling this. _Available since v3.1._"
			},
			"RoleGranted(bytes32,address,address)": {
				"details": "Emitted when `account` is granted `role`. `sender` is the account that originated the contract call, an admin role bearer except when using {AccessControl-_setupRole}."
			},
			"RoleRevoked(bytes32,address,address)": {
				"details": "Emitted when `account` is revoked `role`. `sender` is the account that originated the contract call:   - if using `revokeRole`, it is the admin role bearer   - if using `renounceRole`, it is the role bearer (i.e. `account`)"
			},
			"Unpaused(address)": {
				"details": "Emitted when the pause is lifted by `account`."
			}
		},
		"kind": "dev",
		"methods": {
			"getRoleAdmin(bytes32)": {
				"details": "Returns the admin role that controls `role`. See {grantRole} and {revokeRole}. To change a role's admin, use {_setRoleAdmin}."
			},
			"grantRole(bytes32,address)": {
				"details": "Grants `role` to `account`. If `account` had not been already granted `role`, emits a {RoleGranted} event. Requirements: - the caller must have ``role``'s admin role. May emit a {RoleGranted} event."
			},
			"hasRole(bytes32,address)": {
				"details": "Returns `true` if `account` has been granted `role`."
			},
			"paused()": {
				"details": "Returns true if the contract is paused, and false otherwise."
			},
			"renounceRole(bytes32,address)": {
				"details": "Revokes `role` from the calling account. Roles are often managed via {grantRole} and {revokeRole}: this function's purpose is to provide a mechanism for accounts to lose their privileges if they are compromised (such as when a trusted device is misplaced). If the calling account had been revoked `role`, emits a {RoleRevoked} event. Requirements: - the caller must be `account`. May emit a {RoleRevoked} event."
			},
			"revokeRole(bytes32,address)": {
				"details": "Revokes `role` from `account`. If `account` had been granted `role`, emits a {RoleRevoked} event. Requirements: - the caller must have ``role``'s admin role. May emit a {RoleRevoked} event."
			},
			"supportsInterface(bytes4)": {
				"details": "See {IERC165-supportsInterface}."
			}
		},
		"version": 1
	},
	"userdoc": {
		"kind": "user",
		"methods": {},
		"version": 1
	},
	"Runtime Bytecode": {
		"immutableReferences": {
			"53": [
				{
					"length": 32,
					"start": 755
				},
				{
					"length": 32,
					"start": 3614
				},
				{
					"length": 32,
					"start": 4315
				},
				{
					"length": 32,
					"start": 4388
				},
				{
					"length": 32,
					"start": 4787
				},
				{
					"length": 32,
					"start": 4981
				}
			]
		},
		"linkReferences": {},
		"object": "6080604052600436106101bb5760003560e01c8063725a8294116100ec578063bbe96b001161008a578063db81f99b11610064578063db81f99b1461050e578063e55156b51461052e578063eaa607421461054e578063f14210a61461056e57600080fd5b8063bbe96b00146104b3578063c002d23d146104d3578063d547741f146104ee57600080fd5b806391d14854116100c657806391d1485414610451578063926d7d7f14610471578063a217fddf14610427578063a93aa5031461049357600080fd5b8063725a82941461041457806375b238fc146104275780638456cb591461043c57600080fd5b80633f4ba83a116101595780635c975abb116101335780635c975abb1461038157806360f0a5ac14610399578063623e752b146103b95780636548e9bc146103f457600080fd5b80633f4ba83a1461032d57806346904840146103425780634af044aa1461036757600080fd5b806324a9d8531161019557806324a9d853146102895780632f2ff15d1461029f57806336568abe146102c15780633e413bee146102e157600080fd5b806301ffc9a7146101fc5780631ec7605c14610231578063248a9ca31461025957600080fd5b366101f75760405134815233907fbfe611b001dfcd411432f7bf0d79b82b4b2ee81511edac123a3403c357fb972a9060200160405180910390a2005b600080fd5b34801561020857600080fd5b5061021c610217366004611d1b565b61058e565b60405190151581526020015b60405180910390f35b34801561023d57600080fd5b5061024b65b5e620f4800081565b604051908152602001610228565b34801561026557600080fd5b5061024b610274366004611d45565b60009081526020819052604090206001015490565b34801561029557600080fd5b5061024b60035481565b3480156102ab57600080fd5b506102bf6102ba366004611d73565b61059f565b005b3480156102cd57600080fd5b506102bf6102dc366004611d73565b6105c9565b3480156102ed57600080fd5b506103157f000000000000000000000000000000000000000000000000000000000000000081565b6040516001600160a01b039091168152602001610228565b34801561033957600080fd5b506102bf61064c565b34801561034e57600080fd5b506002546103159061010090046001600160a01b031681565b34801561037357600080fd5b5061024b655af3107a400081565b34801561038d57600080fd5b5060025460ff1661021c565b3480156103a557600080fd5b506102bf6103b4366004611da3565b610662565b3480156103c557600080fd5b5061021c6103d4366004611e03565b805160208183018101805160058252928201919093012091525460ff1681565b34801561040057600080fd5b506102bf61040f366004611da3565b6106cd565b6102bf610422366004611ee5565b61077d565b34801561043357600080fd5b5061024b600081565b34801561044857600080fd5b506102bf610c5d565b34801561045d57600080fd5b5061021c61046c366004611d73565b610c70565b34801561047d57600080fd5b5061024b60008051602061237a83398151915281565b34801561049f57600080fd5b506102bf6104ae366004611da3565b610c99565b3480156104bf57600080fd5b506102bf6104ce366004611f4a565b610d35565b3480156104df57600080fd5b5061024b660110d9316ec00081565b3480156104fa57600080fd5b506102bf610509366004611d73565b61121f565b34801561051a57600080fd5b506102bf610529366004611d45565b611244565b34801561053a57600080fd5b506102bf610549366004611fbd565b6113d6565b34801561055a57600080fd5b50600454610315906001600160a01b031681565b34801561057a57600080fd5b506102bf610589366004611d45565b6114e0565b6000610599826115db565b92915050565b6000828152602081905260409020600101546105ba81611610565b6105c4838361161a565b505050565b6001600160a01b038116331461063e5760405162461bcd60e51b815260206004820152602f60248201527f416363657373436f6e74726f6c3a2063616e206f6e6c792072656e6f756e636560448201526e103937b632b9903337b91039b2b63360891b60648201526084015b60405180910390fd5b610648828261169e565b5050565b600061065781611610565b61065f611703565b50565b600061066d81611610565b61068560008051602061237a8339815191528361169e565b6040516001600160a01b0383169060008051602061237a833981519152907f155aaafb6329a2098580462df33ec4b7441b19729b9601c5fc17ae1cf99a8a5290600090a35050565b60006106d881611610565b6001600160a01b03821661071d5760405162461bcd60e51b815260206004820152600c60248201526b3d32b937903932b630bcb2b960a11b6044820152606401610635565b61073560008051602061237a8339815191528361161a565b6040516001600160a01b0383169060008051602061237a833981519152907f2ae6a113c0ed5b78a53413ffbb7679881f11145ccfba4fb92e863dfcd5a1d2f390600090a35050565b610785611755565b61078d6117ae565b660110d9316ec00034146107e35760405162461bcd60e51b815260206004820152601860248201527f496e636f7272656374207061796d656e7420616d6f756e7400000000000000006044820152606401610635565b600582826040516107f5929190611fe9565b9081526040519081900360200190205460ff16156108515760405162461bcd60e51b815260206004820152601960248201527814185e5b595b9d08185b1c9958591e481c1c9bd8d95cdcd959603a1b6044820152606401610635565b6001600160a01b03831661089b5760405162461bcd60e51b81526020600482015260116024820152701a5b9d985b1a59081c9958da5c1a595b9d607a1b6044820152606401610635565b6001600160a01b0384166108eb5760405162461bcd60e51b81526020600482015260176024820152761a5b9d985b1a5908185c9d1a5cdd0818dbdb9d1c9858dd604a1b6044820152606401610635565b6004546001600160a01b031661093b5760405162461bcd60e51b815260206004820152601560248201527411d85b1b195c9e481c185e5959481b9bdd081cd95d605a1b6044820152606401610635565b60016005838360405161094f929190611fe9565b908152602001604051809103902060006101000a81548160ff0219169083151502179055506000846001600160a01b0316638da5cb5b6040518163ffffffff1660e01b8152600401602060405180830381865afa9250505080156109d0575060408051601f3d908101601f191682019092526109cd91810190611ff9565b60015b6109ec5760405162461bcd60e51b815260040161063590612016565b6001600160a01b038116610a425760405162461bcd60e51b815260206004820152601b60248201527f417274697374206f776e6572206e6f7420636f6e6669677572656400000000006044820152606401610635565b90506040516001600160a01b0382169060009065b5e620f480009082818181858883f19350505050158015610a7b573d6000803e3d6000fd5b506004546040516001600160a01b0390911690600090655af3107a40009082818181858883f19350505050158015610ab7573d6000803e3d6000fd5b506000655af3107a4000610ad865b5e620f48000660110d9316ec00061207b565b610ae2919061207b565b9050856001600160a01b03166366100de2828787876040518563ffffffff1660e01b8152600401610b15939291906120b7565b6000604051808303818588803b158015610b2e57600080fd5b505af193505050508015610b40575060015b610bec57610b4c6120e5565b806308c379a003610ba25750610b60612101565b80610b6b5750610ba4565b80604051602001610b7c91906121af565b60408051601f198184030181529082905262461bcd60e51b8252610635916004016121e7565b505b60405162461bcd60e51b815260206004820152601d60248201527f4d696e74696e67206661696c65643a20756e6b6e6f776e206572726f720000006044820152606401610635565b846001600160a01b0316826001600160a01b0316876001600160a01b03167f9f5f2e026d346f31c5e7e284210968d5c32b9c42a43995fa31adf964d9cd672e660110d9316ec0008888604051610c449392919061221a565b60405180910390a45050610c5760018055565b50505050565b6000610c6881611610565b61065f6117f6565b6000918252602082815260408084206001600160a01b0393909316845291905290205460ff1690565b6000610ca481611610565b6001600160a01b038216610cea5760405162461bcd60e51b815260206004820152600d60248201526c696e76616c696420706179656560981b6044820152606401610635565b600480546001600160a01b0319166001600160a01b0384169081179091556040517f20b93562e05c6e5f99bebf52c1e2afe142d48f37032cbdd6a2583fbda41ec10090600090a25050565b610d4d60008051602061237a83398151915233610c70565b610d885760405162461bcd60e51b815260206004820152600c60248201526b27b7363c903932b630bcb2b960a11b6044820152606401610635565b610d90611755565b610d986117ae565b60058282604051610daa929190611fe9565b9081526040519081900360200190205460ff1615610e065760405162461bcd60e51b815260206004820152601960248201527814185e5b595b9d08185b1c9958591e481c1c9bd8d95cdcd959603a1b6044820152606401610635565b6040516370a0823160e01b81523060048201526000907f00000000000000000000000000000000000000000000000000000000000000006001600160a01b0316906370a0823190602401602060405180830381865afa158015610e6d573d6000803e3d6000fd5b505050506040513d601f19601f82011682018060405250810190610e919190612234565b905083811015610ed75760405162461bcd60e51b8152602060048201526011602482015270496e73756666696369656e74205553444360781b6044820152606401610635565b6001600160a01b038516610f215760405162461bcd60e51b81526020600482015260116024820152701a5b9d985b1a59081c9958da5c1a595b9d607a1b6044820152606401610635565b6001600160a01b038616610f715760405162461bcd60e51b81526020600482015260176024820152761a5b9d985b1a5908185c9d1a5cdd0818dbdb9d1c9858dd604a1b6044820152606401610635565b600160058484604051610f85929190611fe9565b908152602001604051809103902060006101000a81548160ff0219169083151502179055506000866001600160a01b0316638da5cb5b6040518163ffffffff1660e01b8152600401602060405180830381865afa925050508015611006575060408051601f3d908101601f1916820190925261100391810190611ff9565b60015b6110225760405162461bcd60e51b815260040161063590612016565b6001600160a01b0381166110785760405162461bcd60e51b815260206004820152601b60248201527f417274697374206f776e6572206e6f7420636f6e6669677572656400000000006044820152606401610635565b905060008060035411801561109c575060025461010090046001600160a01b031615155b6110a75760006110c2565b612710600354876110b8919061224d565b6110c29190612264565b9050801561110957600254611109906001600160a01b037f000000000000000000000000000000000000000000000000000000000000000081169161010090041683611833565b6000611115828861207b565b905061114b6001600160a01b037f0000000000000000000000000000000000000000000000000000000000000000168483611833565b604051634ed6a5f760e01b81526001600160a01b038a1690634ed6a5f79061117b908b908a908a906004016120b7565b600060405180830381600087803b15801561119557600080fd5b505af19250505080156111a6575060015b6111b257610b4c6120e5565b876001600160a01b0316836001600160a01b03168a6001600160a01b03167f9f5f2e026d346f31c5e7e284210968d5c32b9c42a43995fa31adf964d9cd672e8a8a8a6040516112039392919061221a565b60405180910390a45050505061121860018055565b5050505050565b60008281526020819052604090206001015461123a81611610565b6105c4838361169e565b600061124f81611610565b6112576117ae565b6000821161129c5760405162461bcd60e51b81526020600482015260126024820152710616d6f756e74206d757374206265203e20360741b6044820152606401610635565b6040516370a0823160e01b815230600482015282907f00000000000000000000000000000000000000000000000000000000000000006001600160a01b0316906370a0823190602401602060405180830381865afa158015611302573d6000803e3d6000fd5b505050506040513d601f19601f820116820180604052508101906113269190612234565b10156113685760405162461bcd60e51b8152602060048201526011602482015270496e73756666696369656e74205553444360781b6044820152606401610635565b61139c6001600160a01b037f0000000000000000000000000000000000000000000000000000000000000000163384611833565b60405182815233907f9064b460fd73b0517caa24227d99918304810044cab6170024069608dc4ca0e6906020015b60405180910390a25050565b60006113e181611610565b6127108211156114235760405162461bcd60e51b815260206004820152600d60248201526c62707320746f6f206c6172676560981b6044820152606401610635565b6001600160a01b038316151580611438575081155b61147c5760405162461bcd60e51b81526020600482015260156024820152741a5b9d985b1a5908199959481c9958da5c1a595b9d605a1b6044820152606401610635565b6003805460028054610100600160a81b0319166101006001600160a01b0388169081029190911790915591849055604051909184918391907fcf5b6c438b64611d8ee0722509d7ad5149d4f779f0b29bc845152f0d89e42e1990600090a450505050565b60006114eb81611610565b6114f36117ae565b600082116115385760405162461bcd60e51b81526020600482015260126024820152710616d6f756e74206d757374206265203e20360741b6044820152606401610635565b8147101561157b5760405162461bcd60e51b815260206004820152601060248201526f092dce6eaccccd2c6d2cadce8408aa8960831b6044820152606401610635565b604051339083156108fc029084906000818181858888f193505050501580156115a8573d6000803e3d6000fd5b5060405182815233907f5817fe91d2748c33f168d8a78037fc073adaf6ec8e3613a758d44a2cfae4563d906020016113ca565b60006001600160e01b03198216637965db0b60e01b148061059957506301ffc9a760e01b6001600160e01b0319831614610599565b61065f8133611885565b6116248282610c70565b610648576000828152602081815260408083206001600160a01b03851684529091529020805460ff1916600117905561165a3390565b6001600160a01b0316816001600160a01b0316837f2f8788117e7eff1d82e926ec794901d17c78024a50270940304540a733656f0d60405160405180910390a45050565b6116a88282610c70565b15610648576000828152602081815260408083206001600160a01b0385168085529252808320805460ff1916905551339285917ff6391f5c32d9c69d2a47ea670b442974b53935d1edc7fd64eb21e047a839171b9190a45050565b61170b6118b8565b6002805460ff191690557f5db9ee0a495bf2e6ff9c91a7834c1ba4fdd244a5e8aa4e537bd38aeae4b073aa335b6040516001600160a01b03909116815260200160405180910390a1565b6002600154036117a75760405162461bcd60e51b815260206004820152601f60248201527f5265656e7472616e637947756172643a207265656e7472616e742063616c6c006044820152606401610635565b6002600155565b60025460ff16156117f45760405162461bcd60e51b815260206004820152601060248201526f14185d5cd8589b194e881c185d5cd95960821b6044820152606401610635565b565b6117fe6117ae565b6002805460ff191660011790557f62e78cea01bee320cd4e420270b5ea74000d11b0c9f74754ebdbfc544b05a2586117383390565b604080516001600160a01b038416602482015260448082018490528251808303909101815260649091019091526020810180516001600160e01b031663a9059cbb60e01b1790526105c4908490611901565b61188f8282610c70565b6106485761189c816119d6565b6118a78360206119e8565b604051602001610b7c929190612286565b60025460ff166117f45760405162461bcd60e51b815260206004820152601460248201527314185d5cd8589b194e881b9bdd081c185d5cd95960621b6044820152606401610635565b6000611956826040518060400160405280602081526020017f5361666545524332303a206c6f772d6c6576656c2063616c6c206661696c6564815250856001600160a01b0316611b8b9092919063ffffffff16565b905080516000148061197757508080602001905181019061197791906122fb565b6105c45760405162461bcd60e51b815260206004820152602a60248201527f5361666545524332303a204552433230206f7065726174696f6e20646964206e6044820152691bdd081cdd58d8d9595960b21b6064820152608401610635565b60606105996001600160a01b03831660145b606060006119f783600261224d565b611a0290600261231d565b67ffffffffffffffff811115611a1a57611a1a611dc0565b6040519080825280601f01601f191660200182016040528015611a44576020820181803683370190505b509050600360fc1b81600081518110611a5f57611a5f612330565b60200101906001600160f81b031916908160001a905350600f60fb1b81600181518110611a8e57611a8e612330565b60200101906001600160f81b031916908160001a9053506000611ab284600261224d565b611abd90600161231d565b90505b6001811115611b35576f181899199a1a9b1b9c1cb0b131b232b360811b85600f1660108110611af157611af1612330565b1a60f81b828281518110611b0757611b07612330565b60200101906001600160f81b031916908160001a90535060049490941c93611b2e81612346565b9050611ac0565b508315611b845760405162461bcd60e51b815260206004820181905260248201527f537472696e67733a20686578206c656e67746820696e73756666696369656e746044820152606401610635565b9392505050565b6060611b9a8484600085611ba2565b949350505050565b606082471015611c035760405162461bcd60e51b815260206004820152602660248201527f416464726573733a20696e73756666696369656e742062616c616e636520666f6044820152651c8818d85b1b60d21b6064820152608401610635565b600080866001600160a01b03168587604051611c1f919061235d565b60006040518083038185875af1925050503d8060008114611c5c576040519150601f19603f3d011682016040523d82523d6000602084013e611c61565b606091505b5091509150611c7287838387611c7d565b979650505050505050565b60608315611cec578251600003611ce5576001600160a01b0385163b611ce55760405162461bcd60e51b815260206004820152601d60248201527f416464726573733a2063616c6c20746f206e6f6e2d636f6e74726163740000006044820152606401610635565b5081611b9a565b611b9a8383815115611d015781518083602001fd5b8060405162461bcd60e51b815260040161063591906121e7565b600060208284031215611d2d57600080fd5b81356001600160e01b031981168114611b8457600080fd5b600060208284031215611d5757600080fd5b5035919050565b6001600160a01b038116811461065f57600080fd5b60008060408385031215611d8657600080fd5b823591506020830135611d9881611d5e565b809150509250929050565b600060208284031215611db557600080fd5b8135611b8481611d5e565b634e487b7160e01b600052604160045260246000fd5b601f8201601f1916810167ffffffffffffffff81118282101715611dfc57611dfc611dc0565b6040525050565b60006020808385031215611e1657600080fd5b823567ffffffffffffffff80821115611e2e57600080fd5b818501915085601f830112611e4257600080fd5b813581811115611e5457611e54611dc0565b6040519150611e6c601f8201601f1916850183611dd6565b8082528684828501011115611e8057600080fd5b8084840185840137600090820190930192909252509392505050565b60008083601f840112611eae57600080fd5b50813567ffffffffffffffff811115611ec657600080fd5b602083019150836020828501011115611ede57600080fd5b9250929050565b60008060008060608587031215611efb57600080fd5b8435611f0681611d5e565b93506020850135611f1681611d5e565b9250604085013567ffffffffffffffff811115611f3257600080fd5b611f3e87828801611e9c565b95989497509550505050565b600080600080600060808688031215611f6257600080fd5b8535611f6d81611d5e565b94506020860135611f7d81611d5e565b935060408601359250606086013567ffffffffffffffff811115611fa057600080fd5b611fac88828901611e9c565b969995985093965092949392505050565b60008060408385031215611fd057600080fd5b8235611fdb81611d5e565b946020939093013593505050565b8183823760009101908152919050565b60006020828403121561200b57600080fd5b8151611b8481611d5e565b6020808252602f908201527f41727469737420636f6e7472616374206d75737420696d706c656d656e74206f60408201526e3bb732b9141490333ab731ba34b7b760891b606082015260800190565b634e487b7160e01b600052601160045260246000fd5b8181038181111561059957610599612065565b81835281816020850137506000828201602090810191909152601f909101601f19169091010190565b6001600160a01b03841681526040602082018190526000906120dc908301848661208e565b95945050505050565b600060033d11156120fe5760046000803e5060005160e01c5b90565b600060443d101561210f5790565b6040516003193d81016004833e81513d67ffffffffffffffff816024840111818411171561213f57505050505090565b82850191508151818111156121575750505050505090565b843d87010160208285010111156121715750505050505090565b61218060208286010187611dd6565b509095945050505050565b60005b838110156121a657818101518382015260200161218e565b50506000910152565b6f026b4b73a34b733903330b4b632b21d160851b8152600082516121da81601085016020870161218b565b9190910160100192915050565b602081526000825180602084015261220681604085016020870161218b565b601f01601f19169190910160400192915050565b8381526040602082015260006120dc60408301848661208e565b60006020828403121561224657600080fd5b5051919050565b808202811582820484141761059957610599612065565b60008261228157634e487b7160e01b600052601260045260246000fd5b500490565b7f416363657373436f6e74726f6c3a206163636f756e74200000000000000000008152600083516122be81601785016020880161218b565b7001034b99036b4b9b9b4b733903937b6329607d1b60179184019182015283516122ef81602884016020880161218b565b01602801949350505050565b60006020828403121561230d57600080fd5b81518015158114611b8457600080fd5b8082018082111561059957610599612065565b634e487b7160e01b600052603260045260246000fd5b60008161235557612355612065565b506000190190565b6000825161236f81846020870161218b565b919091019291505056fee2b7fb3b832174769106daebcfd6d1970523240dda11281102db9363b83b0dc4a264697066735822122039c529c9d62509fe6ffe105dd24a18d67cc9dd2c705ec816ba90301eb895ca0864736f6c63430008130033",
		"opcodes": "PUSH1 0x80 PUSH1 0x40 MSTORE PUSH1 0x4 CALLDATASIZE LT PUSH2 0x1BB JUMPI PUSH1 0x0 CALLDATALOAD PUSH1 0xE0 SHR DUP1 PUSH4 0x725A8294 GT PUSH2 0xEC JUMPI DUP1 PUSH4 0xBBE96B00 GT PUSH2 0x8A JUMPI DUP1 PUSH4 0xDB81F99B GT PUSH2 0x64 JUMPI DUP1 PUSH4 0xDB81F99B EQ PUSH2 0x50E JUMPI DUP1 PUSH4 0xE55156B5 EQ PUSH2 0x52E JUMPI DUP1 PUSH4 0xEAA60742 EQ PUSH2 0x54E JUMPI DUP1 PUSH4 0xF14210A6 EQ PUSH2 0x56E JUMPI PUSH1 0x0 DUP1 REVERT JUMPDEST DUP1 PUSH4 0xBBE96B00 EQ PUSH2 0x4B3 JUMPI DUP1 PUSH4 0xC002D23D EQ PUSH2 0x4D3 JUMPI DUP1 PUSH4 0xD547741F EQ PUSH2 0x4EE JUMPI PUSH1 0x0 DUP1 REVERT JUMPDEST DUP1 PUSH4 0x91D14854 GT PUSH2 0xC6 JUMPI DUP1 PUSH4 0x91D14854 EQ PUSH2 0x451 JUMPI DUP1 PUSH4 0x926D7D7F EQ PUSH2 0x471 JUMPI DUP1 PUSH4 0xA217FDDF EQ PUSH2 0x427 JUMPI DUP1 PUSH4 0xA93AA503 EQ PUSH2 0x493 JUMPI PUSH1 0x0 DUP1 REVERT JUMPDEST DUP1 PUSH4 0x725A8294 EQ PUSH2 0x414 JUMPI DUP1 PUSH4 0x75B238FC EQ PUSH2 0x427 JUMPI DUP1 PUSH4 0x8456CB59 EQ PUSH2 0x43C JUMPI PUSH1 0x0 DUP1 REVERT JUMPDEST DUP1 PUSH4 0x3F4BA83A GT PUSH2 0x159 JUMPI DUP1 PUSH4 0x5C975ABB GT PUSH2 0x133 JUMPI DUP1 PUSH4 0x5C975ABB EQ PUSH2 0x381 JUMPI DUP1 PUSH4 0x60F0A5AC EQ PUSH2 0x399 JUMPI DUP1 PUSH4 0x623E752B EQ PUSH2 0x3B9 JUMPI DUP1 PUSH4 0x6548E9BC EQ PUSH2 0x3F4 JUMPI PUSH1 0x0 DUP1 REVERT JUMPDEST DUP1 PUSH4 0x3F4BA83A EQ PUSH2 0x32D JUMPI DUP1 PUSH4 0x46904840 EQ PUSH2 0x342 JUMPI DUP1 PUSH4 0x4AF044AA EQ PUSH2 0x367 JUMPI PUSH1 0x0 DUP1 REVERT JUMPDEST DUP1 PUSH4 0x24A9D853 GT PUSH2 0x195 JUMPI DUP1 PUSH4 0x24A9D853 EQ PUSH2 0x289 JUMPI DUP1 PUSH4 0x2F2FF15D EQ PUSH2 0x29F JUMPI DUP1 PUSH4 0x36568ABE EQ PUSH2 0x2C1 JUMPI DUP1 PUSH4 0x3E413BEE EQ PUSH2 0x2E1 JUMPI PUSH1 0x0 DUP1 REVERT JUMPDEST DUP1 PUSH4 0x1FFC9A7 EQ PUSH2 0x1FC JUMPI DUP1 PUSH4 0x1EC7605C EQ PUSH2 0x231 JUMPI DUP1 PUSH4 0x248A9CA3 EQ PUSH2 0x259 JUMPI PUSH1 0x0 DUP1 REVERT JUMPDEST CALLDATASIZE PUSH2 0x1F7 JUMPI PUSH1 0x40 MLOAD CALLVALUE DUP2 MSTORE CALLER SWAP1 PUSH32 0xBFE611B001DFCD411432F7BF0D79B82B4B2EE81511EDAC123A3403C357FB972A SWAP1 PUSH1 0x20 ADD PUSH1 0x40 MLOAD DUP1 SWAP2 SUB SWAP1 LOG2 STOP JUMPDEST PUSH1 0x0 DUP1 REVERT JUMPDEST CALLVALUE DUP1 ISZERO PUSH2 0x208 JUMPI PUSH1 0x0 DUP1 REVERT JUMPDEST POP PUSH2 0x21C PUSH2 0x217 CALLDATASIZE PUSH1 0x4 PUSH2 0x1D1B JUMP JUMPDEST PUSH2 0x58E JUMP JUMPDEST PUSH1 0x40 MLOAD SWAP1 ISZERO ISZERO DUP2 MSTORE PUSH1 0x20 ADD JUMPDEST PUSH1 0x40 MLOAD DUP1 SWAP2 SUB SWAP1 RETURN JUMPDEST CALLVALUE DUP1 ISZERO PUSH2 0x23D JUMPI PUSH1 0x0 DUP1 REVERT JUMPDEST POP PUSH2 0x24B PUSH6 0xB5E620F48000 DUP2 JUMP JUMPDEST PUSH1 0x40 MLOAD SWAP1 DUP2 MSTORE PUSH1 0x20 ADD PUSH2 0x228 JUMP JUMPDEST CALLVALUE DUP1 ISZERO PUSH2 0x265 JUMPI PUSH1 0x0 DUP1 REVERT JUMPDEST POP PUSH2 0x24B PUSH2 0x274 CALLDATASIZE PUSH1 0x4 PUSH2 0x1D45 JUMP JUMPDEST PUSH1 0x0 SWAP1 DUP2 MSTORE PUSH1 0x20 DUP2 SWAP1 MSTORE PUSH1 0x40 SWAP1 KECCAK256 PUSH1 0x1 ADD SLOAD SWAP1 JUMP JUMPDEST CALLVALUE DUP1 ISZERO PUSH2 0x295 JUMPI PUSH1 0x0 DUP1 REVERT JUMPDEST POP PUSH2 0x24B PUSH1 0x3 SLOAD DUP2 JUMP JUMPDEST CALLVALUE DUP1 ISZERO PUSH2 0x2AB JUMPI PUSH1 0x0 DUP1 REVERT JUMPDEST POP PUSH2 0x2BF PUSH2 0x2BA CALLDATASIZE PUSH1 0x4 PUSH2 0x1D73 JUMP JUMPDEST PUSH2 0x59F JUMP JUMPDEST STOP JUMPDEST CALLVALUE DUP1 ISZERO PUSH2 0x2CD JUMPI PUSH1 0x0 DUP1 REVERT JUMPDEST POP PUSH2 0x2BF PUSH2 0x2DC CALLDATASIZE PUSH1 0x4 PUSH2 0x1D73 JUMP JUMPDEST PUSH2 0x5C9 JUMP JUMPDEST CALLVALUE DUP1 ISZERO PUSH2 0x2ED JUMPI PUSH1 0x0 DUP1 REVERT JUMPDEST POP PUSH2 0x315 PUSH32 0x0 DUP2 JUMP JUMPDEST PUSH1 0x40 MLOAD PUSH1 0x1 PUSH1 0x1 PUSH1 0xA0 SHL SUB SWAP1 SWAP2 AND DUP2 MSTORE PUSH1 0x20 ADD PUSH2 0x228 JUMP JUMPDEST CALLVALUE DUP1 ISZERO PUSH2 0x339 JUMPI PUSH1 0x0 DUP1 REVERT JUMPDEST POP PUSH2 0x2BF PUSH2 0x64C JUMP JUMPDEST CALLVALUE DUP1 ISZERO PUSH2 0x34E JUMPI PUSH1 0x0 DUP1 REVERT JUMPDEST POP PUSH1 0x2 SLOAD PUSH2 0x315 SWAP1 PUSH2 0x100 SWAP1 DIV PUSH1 0x1 PUSH1 0x1 PUSH1 0xA0 SHL SUB AND DUP2 JUMP JUMPDEST CALLVALUE DUP1 ISZERO PUSH2 0x373 JUMPI PUSH1 0x0 DUP1 REVERT JUMPDEST POP PUSH2 0x24B PUSH6 0x5AF3107A4000 DUP2 JUMP JUMPDEST CALLVALUE DUP1 ISZERO PUSH2 0x38D JUMPI PUSH1 0x0 DUP1 REVERT JUMPDEST POP PUSH1 0x2 SLOAD PUSH1 0xFF AND PUSH2 0x21C JUMP JUMPDEST CALLVALUE DUP1 ISZERO PUSH2 0x3A5 JUMPI PUSH1 0x0 DUP1 REVERT JUMPDEST POP PUSH2 0x2BF PUSH2 0x3B4 CALLDATASIZE PUSH1 0x4 PUSH2 0x1DA3 JUMP JUMPDEST PUSH2 0x662 JUMP JUMPDEST CALLVALUE DUP1 ISZERO PUSH2 0x3C5 JUMPI PUSH1 0x0 DUP1 REVERT JUMPDEST POP PUSH2 0x21C PUSH2 0x3D4 CALLDATASIZE PUSH1 0x4 PUSH2 0x1E03 JUMP JUMPDEST DUP1 MLOAD PUSH1 0x20 DUP2 DUP4 ADD DUP2 ADD DUP1 MLOAD PUSH1 0x5 DUP3 MSTORE SWAP3 DUP3 ADD SWAP2 SWAP1 SWAP4 ADD KECCAK256 SWAP2 MSTORE SLOAD PUSH1 0xFF AND DUP2 JUMP JUMPDEST CALLVALUE DUP1 ISZERO PUSH2 0x400 JUMPI PUSH1 0x0 DUP1 REVERT JUMPDEST POP PUSH2 0x2BF PUSH2 0x40F CALLDATASIZE PUSH1 0x4 PUSH2 0x1DA3 JUMP JUMPDEST PUSH2 0x6CD JUMP JUMPDEST PUSH2 0x2BF PUSH2 0x422 CALLDATASIZE PUSH1 0x4 PUSH2 0x1EE5 JUMP JUMPDEST PUSH2 0x77D JUMP JUMPDEST CALLVALUE DUP1 ISZERO PUSH2 0x433 JUMPI PUSH1 0x0 DUP1 REVERT JUMPDEST POP PUSH2 0x24B PUSH1 0x0 DUP2 JUMP JUMPDEST CALLVALUE DUP1 ISZERO PUSH2 0x448 JUMPI PUSH1 0x0 DUP1 REVERT JUMPDEST POP PUSH2 0x2BF PUSH2 0xC5D JUMP JUMPDEST CALLVALUE DUP1 ISZERO PUSH2 0x45D JUMPI PUSH1 0x0 DUP1 REVERT JUMPDEST POP PUSH2 0x21C PUSH2 0x46C CALLDATASIZE PUSH1 0x4 PUSH2 0x1D73 JUMP JUMPDEST PUSH2 0xC70 JUMP JUMPDEST CALLVALUE DUP1 ISZERO PUSH2 0x47D JUMPI PUSH1 0x0 DUP1 REVERT JUMPDEST POP PUSH2 0x24B PUSH1 0x0 DUP1 MLOAD PUSH1 0x20 PUSH2 0x237A DUP4 CODECOPY DUP2 MLOAD SWAP2 MSTORE DUP2 JUMP JUMPDEST CALLVALUE DUP1 ISZERO PUSH2 0x49F JUMPI PUSH1 0x0 DUP1 REVERT JUMPDEST POP PUSH2 0x2BF PUSH2 0x4AE CALLDATASIZE PUSH1 0x4 PUSH2 0x1DA3 JUMP JUMPDEST PUSH2 0xC99 JUMP JUMPDEST CALLVALUE DUP1 ISZERO PUSH2 0x4BF JUMPI PUSH1 0x0 DUP1 REVERT JUMPDEST POP PUSH2 0x2BF PUSH2 0x4CE CALLDATASIZE PUSH1 0x4 PUSH2 0x1F4A JUMP JUMPDEST PUSH2 0xD35 JUMP JUMPDEST CALLVALUE DUP1 ISZERO PUSH2 0x4DF JUMPI PUSH1 0x0 DUP1 REVERT JUMPDEST POP PUSH2 0x24B PUSH7 0x110D9316EC000 DUP2 JUMP JUMPDEST CALLVALUE DUP1 ISZERO PUSH2 0x4FA JUMPI PUSH1 0x0 DUP1 REVERT JUMPDEST POP PUSH2 0x2BF PUSH2 0x509 CALLDATASIZE PUSH1 0x4 PUSH2 0x1D73 JUMP JUMPDEST PUSH2 0x121F JUMP JUMPDEST CALLVALUE DUP1 ISZERO PUSH2 0x51A JUMPI PUSH1 0x0 DUP1 REVERT JUMPDEST POP PUSH2 0x2BF PUSH2 0x529 CALLDATASIZE PUSH1 0x4 PUSH2 0x1D45 JUMP JUMPDEST PUSH2 0x1244 JUMP JUMPDEST CALLVALUE DUP1 ISZERO PUSH2 0x53A JUMPI PUSH1 0x0 DUP1 REVERT JUMPDEST POP PUSH2 0x2BF PUSH2 0x549 CALLDATASIZE PUSH1 0x4 PUSH2 0x1FBD JUMP JUMPDEST PUSH2 0x13D6 JUMP JUMPDEST CALLVALUE DUP1 ISZERO PUSH2 0x55A JUMPI PUSH1 0x0 DUP1 REVERT JUMPDEST POP PUSH1 0x4 SLOAD PUSH2 0x315 SWAP1 PUSH1 0x1 PUSH1 0x1 PUSH1 0xA0 SHL SUB AND DUP2 JUMP JUMPDEST CALLVALUE DUP1 ISZERO PUSH2 0x57A JUMPI PUSH1 0x0 DUP1 REVERT JUMPDEST POP PUSH2 0x2BF PUSH2 0x589 CALLDATASIZE PUSH1 0x4 PUSH2 0x1D45 JUMP JUMPDEST PUSH2 0x14E0 JUMP JUMPDEST PUSH1 0x0 PUSH2 0x599 DUP3 PUSH2 0x15DB JUMP JUMPDEST SWAP3 SWAP2 POP POP JUMP JUMPDEST PUSH1 0x0 DUP3 DUP2 MSTORE PUSH1 0x20 DUP2 SWAP1 MSTORE PUSH1 0x40 SWAP1 KECCAK256 PUSH1 0x1 ADD SLOAD PUSH2 0x5BA DUP2 PUSH2 0x1610 JUMP JUMPDEST PUSH2 0x5C4 DUP4 DUP4 PUSH2 0x161A JUMP JUMPDEST POP POP POP JUMP JUMPDEST PUSH1 0x1 PUSH1 0x1 PUSH1 0xA0 SHL SUB DUP2 AND CALLER EQ PUSH2 0x63E JUMPI PUSH1 0x40 MLOAD PUSH3 0x461BCD PUSH1 0xE5 SHL DUP2 MSTORE PUSH1 0x20 PUSH1 0x4 DUP3 ADD MSTORE PUSH1 0x2F PUSH1 0x24 DUP3 ADD MSTORE PUSH32 0x416363657373436F6E74726F6C3A2063616E206F6E6C792072656E6F756E6365 PUSH1 0x44 DUP3 ADD MSTORE PUSH15 0x103937B632B9903337B91039B2B633 PUSH1 0x89 SHL PUSH1 0x64 DUP3 ADD MSTORE PUSH1 0x84 ADD JUMPDEST PUSH1 0x40 MLOAD DUP1 SWAP2 SUB SWAP1 REVERT JUMPDEST PUSH2 0x648 DUP3 DUP3 PUSH2 0x169E JUMP JUMPDEST POP POP JUMP JUMPDEST PUSH1 0x0 PUSH2 0x657 DUP2 PUSH2 0x1610 JUMP JUMPDEST PUSH2 0x65F PUSH2 0x1703 JUMP JUMPDEST POP JUMP JUMPDEST PUSH1 0x0 PUSH2 0x66D DUP2 PUSH2 0x1610 JUMP JUMPDEST PUSH2 0x685 PUSH1 0x0 DUP1 MLOAD PUSH1 0x20 PUSH2 0x237A DUP4 CODECOPY DUP2 MLOAD SWAP2 MSTORE DUP4 PUSH2 0x169E JUMP JUMPDEST PUSH1 0x40 MLOAD PUSH1 0x1 PUSH1 0x1 PUSH1 0xA0 SHL SUB DUP4 AND SWAP1 PUSH1 0x0 DUP1 MLOAD PUSH1 0x20 PUSH2 0x237A DUP4 CODECOPY DUP2 MLOAD SWAP2 MSTORE SWAP1 PUSH32 0x155AAAFB6329A2098580462DF33EC4B7441B19729B9601C5FC17AE1CF99A8A52 SWAP1 PUSH1 0x0 SWAP1 LOG3 POP POP JUMP JUMPDEST PUSH1 0x0 PUSH2 0x6D8 DUP2 PUSH2 0x1610 JUMP JUMPDEST PUSH1 0x1 PUSH1 0x1 PUSH1 0xA0 SHL SUB DUP3 AND PUSH2 0x71D JUMPI PUSH1 0x40 MLOAD PUSH3 0x461BCD PUSH1 0xE5 SHL DUP2 MSTORE PUSH1 0x20 PUSH1 0x4 DUP3 ADD MSTORE PUSH1 0xC PUSH1 0x24 DUP3 ADD MSTORE PUSH12 0x3D32B937903932B630BCB2B9 PUSH1 0xA1 SHL PUSH1 0x44 DUP3 ADD MSTORE PUSH1 0x64 ADD PUSH2 0x635 JUMP JUMPDEST PUSH2 0x735 PUSH1 0x0 DUP1 MLOAD PUSH1 0x20 PUSH2 0x237A DUP4 CODECOPY DUP2 MLOAD SWAP2 MSTORE DUP4 PUSH2 0x161A JUMP JUMPDEST PUSH1 0x40 MLOAD PUSH1 0x1 PUSH1 0x1 PUSH1 0xA0 SHL SUB DUP4 AND SWAP1 PUSH1 0x0 DUP1 MLOAD PUSH1 0x20 PUSH2 0x237A DUP4 CODECOPY DUP2 MLOAD SWAP2 MSTORE SWAP1 PUSH32 0x2AE6A113C0ED5B78A53413FFBB7679881F11145CCFBA4FB92E863DFCD5A1D2F3 SWAP1 PUSH1 0x0 SWAP1 LOG3 POP POP JUMP JUMPDEST PUSH2 0x785 PUSH2 0x1755 JUMP JUMPDEST PUSH2 0x78D PUSH2 0x17AE JUMP JUMPDEST PUSH7 0x110D9316EC000 CALLVALUE EQ PUSH2 0x7E3 JUMPI PUSH1 0x40 MLOAD PUSH3 0x461BCD PUSH1 0xE5 SHL DUP2 MSTORE PUSH1 0x20 PUSH1 0x4 DUP3 ADD MSTORE PUSH1 0x18 PUSH1 0x24 DUP3 ADD MSTORE PUSH32 0x496E636F7272656374207061796D656E7420616D6F756E740000000000000000 PUSH1 0x44 DUP3 ADD MSTORE PUSH1 0x64 ADD PUSH2 0x635 JUMP JUMPDEST PUSH1 0x5 DUP3 DUP3 PUSH1 0x40 MLOAD PUSH2 0x7F5 SWAP3 SWAP2 SWAP1 PUSH2 0x1FE9 JUMP JUMPDEST SWAP1 DUP2 MSTORE PUSH1 0x40 MLOAD SWAP1 DUP2 SWAP1 SUB PUSH1 0x20 ADD SWAP1 KECCAK256 SLOAD PUSH1 0xFF AND ISZERO PUSH2 0x851 JUMPI PUSH1 0x40 MLOAD PUSH3 0x461BCD PUSH1 0xE5 SHL DUP2 MSTORE PUSH1 0x20 PUSH1 0x4 DUP3 ADD MSTORE PUSH1 0x19 PUSH1 0x24 DUP3 ADD MSTORE PUSH25 0x14185E5B595B9D08185B1C9958591E481C1C9BD8D95CDCD959 PUSH1 0x3A SHL PUSH1 0x44 DUP3 ADD MSTORE PUSH1 0x64 ADD PUSH2 0x635 JUMP JUMPDEST PUSH1 0x1 PUSH1 0x1 PUSH1 0xA0 SHL SUB DUP4 AND PUSH2 0x89B JUMPI PUSH1 0x40 MLOAD PUSH3 0x461BCD PUSH1 0xE5 SHL DUP2 MSTORE PUSH1 0x20 PUSH1 0x4 DUP3 ADD MSTORE PUSH1 0x11 PUSH1 0x24 DUP3 ADD MSTORE PUSH17 0x1A5B9D985B1A59081C9958DA5C1A595B9D PUSH1 0x7A SHL PUSH1 0x44 DUP3 ADD MSTORE PUSH1 0x64 ADD PUSH2 0x635 JUMP JUMPDEST PUSH1 0x1 PUSH1 0x1 PUSH1 0xA0 SHL SUB DUP5 AND PUSH2 0x8EB JUMPI PUSH1 0x40 MLOAD PUSH3 0x461BCD PUSH1 0xE5 SHL DUP2 MSTORE PUSH1 0x20 PUSH1 0x4 DUP3 ADD MSTORE PUSH1 0x17 PUSH1 0x24 DUP3 ADD MSTORE PUSH23 0x1A5B9D985B1A5908185C9D1A5CDD0818DBDB9D1C9858DD PUSH1 0x4A SHL PUSH1 0x44 DUP3 ADD MSTORE PUSH1 0x64 ADD PUSH2 0x635 JUMP JUMPDEST PUSH1 0x4 SLOAD PUSH1 0x1 PUSH1 0x1 PUSH1 0xA0 SHL SUB AND PUSH2 0x93B JUMPI PUSH1 0x40 MLOAD PUSH3 0x461BCD PUSH1 0xE5 SHL DUP2 MSTORE PUSH1 0x20 PUSH1 0x4 DUP3 ADD MSTORE PUSH1 0x15 PUSH1 0x24 DUP3 ADD MSTORE PUSH21 0x11D85B1B195C9E481C185E5959481B9BDD081CD95D PUSH1 0x5A SHL PUSH1 0x44 DUP3 ADD MSTORE PUSH1 0x64 ADD PUSH2 0x635 JUMP JUMPDEST PUSH1 0x1 PUSH1 0x5 DUP4 DUP4 PUSH1 0x40 MLOAD PUSH2 0x94F SWAP3 SWAP2 SWAP1 PUSH2 0x1FE9 JUMP JUMPDEST SWAP1 DUP2 MSTORE PUSH1 0x20 ADD PUSH1 0x40 MLOAD DUP1 SWAP2 SUB SWAP1 KECCAK256 PUSH1 0x0 PUSH2 0x100 EXP DUP2 SLOAD DUP2 PUSH1 0xFF MUL NOT AND SWAP1 DUP4 ISZERO ISZERO MUL OR SWAP1 SSTORE POP PUSH1 0x0 DUP5 PUSH1 0x1 PUSH1 0x1 PUSH1 0xA0 SHL SUB AND PUSH4 0x8DA5CB5B PUSH1 0x40 MLOAD DUP2 PUSH4 0xFFFFFFFF AND PUSH1 0xE0 SHL DUP2 MSTORE PUSH1 0x4 ADD PUSH1 0x20 PUSH1 0x40 MLOAD DUP1 DUP4 SUB DUP2 DUP7 GAS STATICCALL SWAP3 POP POP POP DUP1 ISZERO PUSH2 0x9D0 JUMPI POP PUSH1 0x40 DUP1 MLOAD PUSH1 0x1F RETURNDATASIZE SWAP1 DUP2 ADD PUSH1 0x1F NOT AND DUP3 ADD SWAP1 SWAP3 MSTORE PUSH2 0x9CD SWAP2 DUP2 ADD SWAP1 PUSH2 0x1FF9 JUMP JUMPDEST PUSH1 0x1 JUMPDEST PUSH2 0x9EC JUMPI PUSH1 0x40 MLOAD PUSH3 0x461BCD PUSH1 0xE5 SHL DUP2 MSTORE PUSH1 0x4 ADD PUSH2 0x635 SWAP1 PUSH2 0x2016 JUMP JUMPDEST PUSH1 0x1 PUSH1 0x1 PUSH1 0xA0 SHL SUB DUP2 AND PUSH2 0xA42 JUMPI PUSH1 0x40 MLOAD PUSH3 0x461BCD PUSH1 0xE5 SHL DUP2 MSTORE PUSH1 0x20 PUSH1 0x4 DUP3 ADD MSTORE PUSH1 0x1B PUSH1 0x24 DUP3 ADD MSTORE PUSH32 0x417274697374206F776E6572206E6F7420636F6E666967757265640000000000 PUSH1 0x44 DUP3 ADD MSTORE PUSH1 0x64 ADD PUSH2 0x635 JUMP JUMPDEST SWAP1 POP PUSH1 0x40 MLOAD PUSH1 0x1 PUSH1 0x1 PUSH1 0xA0 SHL SUB DUP3 AND SWAP1 PUSH1 0x0 SWAP1 PUSH6 0xB5E620F48000 SWAP1 DUP3 DUP2 DUP2 DUP2 DUP6 DUP9 DUP4 CALL SWAP4 POP POP POP POP ISZERO DUP1 ISZERO PUSH2 0xA7B JUMPI RETURNDATASIZE PUSH1 0x0 DUP1 RETURNDATACOPY RETURNDATASIZE PUSH1 0x0 REVERT JUMPDEST POP PUSH1 0x4 SLOAD PUSH1 0x40 MLOAD PUSH1 0x1 PUSH1 0x1 PUSH1 0xA0 SHL SUB SWAP1 SWAP2 AND SWAP1 PUSH1 0x0 SWAP1 PUSH6 0x5AF3107A4000 SWAP1 DUP3 DUP2 DUP2 DUP2 DUP6 DUP9 DUP4 CALL SWAP4 POP POP POP POP ISZERO DUP1 ISZERO PUSH2 0xAB7 JUMPI RETURNDATASIZE PUSH1 0x0 DUP1 RETURNDATACOPY RETURNDATASIZE PUSH1 0x0 REVERT JUMPDEST POP PUSH1 0x0 PUSH6 0x5AF3107A4000 PUSH2 0xAD8 PUSH6 0xB5E620F48000 PUSH7 0x110D9316EC000 PUSH2 0x207B JUMP JUMPDEST PUSH2 0xAE2 SWAP2 SWAP1 PUSH2 0x207B JUMP JUMPDEST SWAP1 POP DUP6 PUSH1 0x1 PUSH1 0x1 PUSH1 0xA0 SHL SUB AND PUSH4 0x66100DE2 DUP3 DUP8 DUP8 DUP8 PUSH1 0x40 MLOAD DUP6 PUSH4 0xFFFFFFFF AND PUSH1 0xE0 SHL DUP2 MSTORE PUSH1 0x4 ADD PUSH2 0xB15 SWAP4 SWAP3 SWAP2 SWAP1 PUSH2 0x20B7 JUMP JUMPDEST PUSH1 0x0 PUSH1 0x40 MLOAD DUP1 DUP4 SUB DUP2 DUP6 DUP9 DUP1 EXTCODESIZE ISZERO DUP1 ISZERO PUSH2 0xB2E JUMPI PUSH1 0x0 DUP1 REVERT JUMPDEST POP GAS CALL SWAP4 POP POP POP POP DUP1 ISZERO PUSH2 0xB40 JUMPI POP PUSH1 0x1 JUMPDEST PUSH2 0xBEC JUMPI PUSH2 0xB4C PUSH2 0x20E5 JUMP JUMPDEST DUP1 PUSH4 0x8C379A0 SUB PUSH2 0xBA2 JUMPI POP PUSH2 0xB60 PUSH2 0x2101 JUMP JUMPDEST DUP1 PUSH2 0xB6B JUMPI POP PUSH2 0xBA4 JUMP JUMPDEST DUP1 PUSH1 0x40 MLOAD PUSH1 0x20 ADD PUSH2 0xB7C SWAP2 SWAP1 PUSH2 0x21AF JUMP JUMPDEST PUSH1 0x40 DUP1 MLOAD PUSH1 0x1F NOT DUP2 DUP5 SUB ADD DUP2 MSTORE SWAP1 DUP3 SWAP1 MSTORE PUSH3 0x461BCD PUSH1 0xE5 SHL DUP3 MSTORE PUSH2 0x635 SWAP2 PUSH1 0x4 ADD PUSH2 0x21E7 JUMP JUMPDEST POP JUMPDEST PUSH1 0x40 MLOAD PUSH3 0x461BCD PUSH1 0xE5 SHL DUP2 MSTORE PUSH1 0x20 PUSH1 0x4 DUP3 ADD MSTORE PUSH1 0x1D PUSH1 0x24 DUP3 ADD MSTORE PUSH32 0x4D696E74696E67206661696C65643A20756E6B6E6F776E206572726F72000000 PUSH1 0x44 DUP3 ADD MSTORE PUSH1 0x64 ADD PUSH2 0x635 JUMP JUMPDEST DUP5 PUSH1 0x1 PUSH1 0x1 PUSH1 0xA0 SHL SUB AND DUP3 PUSH1 0x1 PUSH1 0x1 PUSH1 0xA0 SHL SUB AND DUP8 PUSH1 0x1 PUSH1 0x1 PUSH1 0xA0 SHL SUB AND PUSH32 0x9F5F2E026D346F31C5E7E284210968D5C32B9C42A43995FA31ADF964D9CD672E PUSH7 0x110D9316EC000 DUP9 DUP9 PUSH1 0x40 MLOAD PUSH2 0xC44 SWAP4 SWAP3 SWAP2 SWAP1 PUSH2 0x221A JUMP JUMPDEST PUSH1 0x40 MLOAD DUP1 SWAP2 SUB SWAP1 LOG4 POP POP PUSH2 0xC57 PUSH1 0x1 DUP1 SSTORE JUMP JUMPDEST POP POP POP POP JUMP JUMPDEST PUSH1 0x0 PUSH2 0xC68 DUP2 PUSH2 0x1610 JUMP JUMPDEST PUSH2 0x65F PUSH2 0x17F6 JUMP JUMPDEST PUSH1 0x0 SWAP2 DUP3 MSTORE PUSH1 0x20 DUP3 DUP2 MSTORE PUSH1 0x40 DUP1 DUP5 KECCAK256 PUSH1 0x1 PUSH1 0x1 PUSH1 0xA0 SHL SUB SWAP4 SWAP1 SWAP4 AND DUP5 MSTORE SWAP2 SWAP1 MSTORE SWAP1 KECCAK256 SLOAD PUSH1 0xFF AND SWAP1 JUMP JUMPDEST PUSH1 0x0 PUSH2 0xCA4 DUP2 PUSH2 0x1610 JUMP JUMPDEST PUSH1 0x1 PUSH1 0x1 PUSH1 0xA0 SHL SUB DUP3 AND PUSH2 0xCEA JUMPI PUSH1 0x40 MLOAD PUSH3 0x461BCD PUSH1 0xE5 SHL DUP2 MSTORE PUSH1 0x20 PUSH1 0x4 DUP3 ADD MSTORE PUSH1 0xD PUSH1 0x24 DUP3 ADD MSTORE PUSH13 0x696E76616C6964207061796565 PUSH1 0x98 SHL PUSH1 0x44 DUP3 ADD MSTORE PUSH1 0x64 ADD PUSH2 0x635 JUMP JUMPDEST PUSH1 0x4 DUP1 SLOAD PUSH1 0x1 PUSH1 0x1 PUSH1 0xA0 SHL SUB NOT AND PUSH1 0x1 PUSH1 0x1 PUSH1 0xA0 SHL SUB DUP5 AND SWAP1 DUP2 OR SWAP1 SWAP2 SSTORE PUSH1 0x40 MLOAD PUSH32 0x20B93562E05C6E5F99BEBF52C1E2AFE142D48F37032CBDD6A2583FBDA41EC100 SWAP1 PUSH1 0x0 SWAP1 LOG2 POP POP JUMP JUMPDEST PUSH2 0xD4D PUSH1 0x0 DUP1 MLOAD PUSH1 0x20 PUSH2 0x237A DUP4 CODECOPY DUP2 MLOAD SWAP2 MSTORE CALLER PUSH2 0xC70 JUMP JUMPDEST PUSH2 0xD88 JUMPI PUSH1 0x40 MLOAD PUSH3 0x461BCD PUSH1 0xE5 SHL DUP2 MSTORE PUSH1 0x20 PUSH1 0x4 DUP3 ADD MSTORE PUSH1 0xC PUSH1 0x24 DUP3 ADD MSTORE PUSH12 0x27B7363C903932B630BCB2B9 PUSH1 0xA1 SHL PUSH1 0x44 DUP3 ADD MSTORE PUSH1 0x64 ADD PUSH2 0x635 JUMP JUMPDEST PUSH2 0xD90 PUSH2 0x1755 JUMP JUMPDEST PUSH2 0xD98 PUSH2 0x17AE JUMP JUMPDEST PUSH1 0x5 DUP3 DUP3 PUSH1 0x40 MLOAD PUSH2 0xDAA SWAP3 SWAP2 SWAP1 PUSH2 0x1FE9 JUMP JUMPDEST SWAP1 DUP2 MSTORE PUSH1 0x40 MLOAD SWAP1 DUP2 SWAP1 SUB PUSH1 0x20 ADD SWAP1 KECCAK256 SLOAD PUSH1 0xFF AND ISZERO PUSH2 0xE06 JUMPI PUSH1 0x40 MLOAD PUSH3 0x461BCD PUSH1 0xE5 SHL DUP2 MSTORE PUSH1 0x20 PUSH1 0x4 DUP3 ADD MSTORE PUSH1 0x19 PUSH1 0x24 DUP3 ADD MSTORE PUSH25 0x14185E5B595B9D08185B1C9958591E481C1C9BD8D95CDCD959 PUSH1 0x3A SHL PUSH1 0x44 DUP3 ADD MSTORE PUSH1 0x64 ADD PUSH2 0x635 JUMP JUMPDEST PUSH1 0x40 MLOAD PUSH4 0x70A08231 PUSH1 0xE0 SHL DUP2 MSTORE ADDRESS PUSH1 0x4 DUP3 ADD MSTORE PUSH1 0x0 SWAP1 PUSH32 0x0 PUSH1 0x1 PUSH1 0x1 PUSH1 0xA0 SHL SUB AND SWAP1 PUSH4 0x70A08231 SWAP1 PUSH1 0x24 ADD PUSH1 0x20 PUSH1 0x40 MLOAD DUP1 DUP4 SUB DUP2 DUP7 GAS STATICCALL ISZERO DUP1 ISZERO PUSH2 0xE6D JUMPI RETURNDATASIZE PUSH1 0x0 DUP1 RETURNDATACOPY RETURNDATASIZE PUSH1 0x0 REVERT JUMPDEST POP POP POP POP PUSH1 0x40 MLOAD RETURNDATASIZE PUSH1 0x1F NOT PUSH1 0x1F DUP3 ADD AND DUP3 ADD DUP1 PUSH1 0x40 MSTORE POP DUP2 ADD SWAP1 PUSH2 0xE91 SWAP2 SWAP1 PUSH2 0x2234 JUMP JUMPDEST SWAP1 POP DUP4 DUP2 LT ISZERO PUSH2 0xED7 JUMPI PUSH1 0x40 MLOAD PUSH3 0x461BCD PUSH1 0xE5 SHL DUP2 MSTORE PUSH1 0x20 PUSH1 0x4 DUP3 ADD MSTORE PUSH1 0x11 PUSH1 0x24 DUP3 ADD MSTORE PUSH17 0x496E73756666696369656E742055534443 PUSH1 0x78 SHL PUSH1 0x44 DUP3 ADD MSTORE PUSH1 0x64 ADD PUSH2 0x635 JUMP JUMPDEST PUSH1 0x1 PUSH1 0x1 PUSH1 0xA0 SHL SUB DUP6 AND PUSH2 0xF21 JUMPI PUSH1 0x40 MLOAD PUSH3 0x461BCD PUSH1 0xE5 SHL DUP2 MSTORE PUSH1 0x20 PUSH1 0x4 DUP3 ADD MSTORE PUSH1 0x11 PUSH1 0x24 DUP3 ADD MSTORE PUSH17 0x1A5B9D985B1A59081C9958DA5C1A595B9D PUSH1 0x7A SHL PUSH1 0x44 DUP3 ADD MSTORE PUSH1 0x64 ADD PUSH2 0x635 JUMP JUMPDEST PUSH1 0x1 PUSH1 0x1 PUSH1 0xA0 SHL SUB DUP7 AND PUSH2 0xF71 JUMPI PUSH1 0x40 MLOAD PUSH3 0x461BCD PUSH1 0xE5 SHL DUP2 MSTORE PUSH1 0x20 PUSH1 0x4 DUP3 ADD MSTORE PUSH1 0x17 PUSH1 0x24 DUP3 ADD MSTORE PUSH23 0x1A5B9D985B1A5908185C9D1A5CDD0818DBDB9D1C9858DD PUSH1 0x4A SHL PUSH1 0x44 DUP3 ADD MSTORE PUSH1 0x64 ADD PUSH2 0x635 JUMP JUMPDEST PUSH1 0x1 PUSH1 0x5 DUP5 DUP5 PUSH1 0x40 MLOAD PUSH2 0xF85 SWAP3 SWAP2 SWAP1 PUSH2 0x1FE9 JUMP JUMPDEST SWAP1 DUP2 MSTORE PUSH1 0x20 ADD PUSH1 0x40 MLOAD DUP1 SWAP2 SUB SWAP1 KECCAK256 PUSH1 0x0 PUSH2 0x100 EXP DUP2 SLOAD DUP2 PUSH1 0xFF MUL NOT AND SWAP1 DUP4 ISZERO ISZERO MUL OR SWAP1 SSTORE POP PUSH1 0x0 DUP7 PUSH1 0x1 PUSH1 0x1 PUSH1 0xA0 SHL SUB AND PUSH4 0x8DA5CB5B PUSH1 0x40 MLOAD DUP2 PUSH4 0xFFFFFFFF AND PUSH1 0xE0 SHL DUP2 MSTORE PUSH1 0x4 ADD PUSH1 0x20 PUSH1 0x40 MLOAD DUP1 DUP4 SUB DUP2 DUP7 GAS STATICCALL SWAP3 POP POP POP DUP1 ISZERO PUSH2 0x1006 JUMPI POP PUSH1 0x40 DUP1 MLOAD PUSH1 0x1F RETURNDATASIZE SWAP1 DUP2 ADD PUSH1 0x1F NOT AND DUP3 ADD SWAP1 SWAP3 MSTORE PUSH2 0x1003 SWAP2 DUP2 ADD SWAP1 PUSH2 0x1FF9 JUMP JUMPDEST PUSH1 0x1 JUMPDEST PUSH2 0x1022 JUMPI PUSH1 0x40 MLOAD PUSH3 0x461BCD PUSH1 0xE5 SHL DUP2 MSTORE PUSH1 0x4 ADD PUSH2 0x635 SWAP1 PUSH2 0x2016 JUMP JUMPDEST PUSH1 0x1 PUSH1 0x1 PUSH1 0xA0 SHL SUB DUP2 AND PUSH2 0x1078 JUMPI PUSH1 0x40 MLOAD PUSH3 0x461BCD PUSH1 0xE5 SHL DUP2 MSTORE PUSH1 0x20 PUSH1 0x4 DUP3 ADD MSTORE PUSH1 0x1B PUSH1 0x24 DUP3 ADD MSTORE PUSH32 0x417274697374206F776E6572206E6F7420636F6E666967757265640000000000 PUSH1 0x44 DUP3 ADD MSTORE PUSH1 0x64 ADD PUSH2 0x635 JUMP JUMPDEST SWAP1 POP PUSH1 0x0 DUP1 PUSH1 0x3 SLOAD GT DUP1 ISZERO PUSH2 0x109C JUMPI POP PUSH1 0x2 SLOAD PUSH2 0x100 SWAP1 DIV PUSH1 0x1 PUSH1 0x1 PUSH1 0xA0 SHL SUB AND ISZERO ISZERO JUMPDEST PUSH2 0x10A7 JUMPI PUSH1 0x0 PUSH2 0x10C2 JUMP JUMPDEST PUSH2 0x2710 PUSH1 0x3 SLOAD DUP8 PUSH2 0x10B8 SWAP2 SWAP1 PUSH2 0x224D JUMP JUMPDEST PUSH2 0x10C2 SWAP2 SWAP1 PUSH2 0x2264 JUMP JUMPDEST SWAP1 POP DUP1 ISZERO PUSH2 0x1109 JUMPI PUSH1 0x2 SLOAD PUSH2 0x1109 SWAP1 PUSH1 0x1 PUSH1 0x1 PUSH1 0xA0 SHL SUB PUSH32 0x0 DUP2 AND SWAP2 PUSH2 0x100 SWAP1 DIV AND DUP4 PUSH2 0x1833 JUMP JUMPDEST PUSH1 0x0 PUSH2 0x1115 DUP3 DUP9 PUSH2 0x207B JUMP JUMPDEST SWAP1 POP PUSH2 0x114B PUSH1 0x1 PUSH1 0x1 PUSH1 0xA0 SHL SUB PUSH32 0x0 AND DUP5 DUP4 PUSH2 0x1833 JUMP JUMPDEST PUSH1 0x40 MLOAD PUSH4 0x4ED6A5F7 PUSH1 0xE0 SHL DUP2 MSTORE PUSH1 0x1 PUSH1 0x1 PUSH1 0xA0 SHL SUB DUP11 AND SWAP1 PUSH4 0x4ED6A5F7 SWAP1 PUSH2 0x117B SWAP1 DUP12 SWAP1 DUP11 SWAP1 DUP11 SWAP1 PUSH1 0x4 ADD PUSH2 0x20B7 JUMP JUMPDEST PUSH1 0x0 PUSH1 0x40 MLOAD DUP1 DUP4 SUB DUP2 PUSH1 0x0 DUP8 DUP1 EXTCODESIZE ISZERO DUP1 ISZERO PUSH2 0x1195 JUMPI PUSH1 0x0 DUP1 REVERT JUMPDEST POP GAS CALL SWAP3 POP POP POP DUP1 ISZERO PUSH2 0x11A6 JUMPI POP PUSH1 0x1 JUMPDEST PUSH2 0x11B2 JUMPI PUSH2 0xB4C PUSH2 0x20E5 JUMP JUMPDEST DUP8 PUSH1 0x1 PUSH1 0x1 PUSH1 0xA0 SHL SUB AND DUP4 PUSH1 0x1 PUSH1 0x1 PUSH1 0xA0 SHL SUB AND DUP11 PUSH1 0x1 PUSH1 0x1 PUSH1 0xA0 SHL SUB AND PUSH32 0x9F5F2E026D346F31C5E7E284210968D5C32B9C42A43995FA31ADF964D9CD672E DUP11 DUP11 DUP11 PUSH1 0x40 MLOAD PUSH2 0x1203 SWAP4 SWAP3 SWAP2 SWAP1 PUSH2 0x221A JUMP JUMPDEST PUSH1 0x40 MLOAD DUP1 SWAP2 SUB SWAP1 LOG4 POP POP POP POP PUSH2 0x1218 PUSH1 0x1 DUP1 SSTORE JUMP JUMPDEST POP POP POP POP POP JUMP JUMPDEST PUSH1 0x0 DUP3 DUP2 MSTORE PUSH1 0x20 DUP2 SWAP1 MSTORE PUSH1 0x40 SWAP1 KECCAK256 PUSH1 0x1 ADD SLOAD PUSH2 0x123A DUP2 PUSH2 0x1610 JUMP JUMPDEST PUSH2 0x5C4 DUP4 DUP4 PUSH2 0x169E JUMP JUMPDEST PUSH1 0x0 PUSH2 0x124F DUP2 PUSH2 0x1610 JUMP JUMPDEST PUSH2 0x1257 PUSH2 0x17AE JUMP JUMPDEST PUSH1 0x0 DUP3 GT PUSH2 0x129C JUMPI PUSH1 0x40 MLOAD PUSH3 0x461BCD PUSH1 0xE5 SHL DUP2 MSTORE PUSH1 0x20 PUSH1 0x4 DUP3 ADD MSTORE PUSH1 0x12 PUSH1 0x24 DUP3 ADD MSTORE PUSH18 0x616D6F756E74206D757374206265203E203 PUSH1 0x74 SHL PUSH1 0x44 DUP3 ADD MSTORE PUSH1 0x64 ADD PUSH2 0x635 JUMP JUMPDEST PUSH1 0x40 MLOAD PUSH4 0x70A08231 PUSH1 0xE0 SHL DUP2 MSTORE ADDRESS PUSH1 0x4 DUP3 ADD MSTORE DUP3 SWAP1 PUSH32 0x0 PUSH1 0x1 PUSH1 0x1 PUSH1 0xA0 SHL SUB AND SWAP1 PUSH4 0x70A08231 SWAP1 PUSH1 0x24 ADD PUSH1 0x20 PUSH1 0x40 MLOAD DUP1 DUP4 SUB DUP2 DUP7 GAS STATICCALL ISZERO DUP1 ISZERO PUSH2 0x1302 JUMPI RETURNDATASIZE PUSH1 0x0 DUP1 RETURNDATACOPY RETURNDATASIZE PUSH1 0x0 REVERT JUMPDEST POP POP POP POP PUSH1 0x40 MLOAD RETURNDATASIZE PUSH1 0x1F NOT PUSH1 0x1F DUP3 ADD AND DUP3 ADD DUP1 PUSH1 0x40 MSTORE POP DUP2 ADD SWAP1 PUSH2 0x1326 SWAP2 SWAP1 PUSH2 0x2234 JUMP JUMPDEST LT ISZERO PUSH2 0x1368 JUMPI PUSH1 0x40 MLOAD PUSH3 0x461BCD PUSH1 0xE5 SHL DUP2 MSTORE PUSH1 0x20 PUSH1 0x4 DUP3 ADD MSTORE PUSH1 0x11 PUSH1 0x24 DUP3 ADD MSTORE PUSH17 0x496E73756666696369656E742055534443 PUSH1 0x78 SHL PUSH1 0x44 DUP3 ADD MSTORE PUSH1 0x64 ADD PUSH2 0x635 JUMP JUMPDEST PUSH2 0x139C PUSH1 0x1 PUSH1 0x1 PUSH1 0xA0 SHL SUB PUSH32 0x0 AND CALLER DUP5 PUSH2 0x1833 JUMP JUMPDEST PUSH1 0x40 MLOAD DUP3 DUP2 MSTORE CALLER SWAP1 PUSH32 0x9064B460FD73B0517CAA24227D99918304810044CAB6170024069608DC4CA0E6 SWAP1 PUSH1 0x20 ADD JUMPDEST PUSH1 0x40 MLOAD DUP1 SWAP2 SUB SWAP1 LOG2 POP POP JUMP JUMPDEST PUSH1 0x0 PUSH2 0x13E1 DUP2 PUSH2 0x1610 JUMP JUMPDEST PUSH2 0x2710 DUP3 GT ISZERO PUSH2 0x1423 JUMPI PUSH1 0x40 MLOAD PUSH3 0x461BCD PUSH1 0xE5 SHL DUP2 MSTORE PUSH1 0x20 PUSH1 0x4 DUP3 ADD MSTORE PUSH1 0xD PUSH1 0x24 DUP3 ADD MSTORE PUSH13 0x62707320746F6F206C61726765 PUSH1 0x98 SHL PUSH1 0x44 DUP3 ADD MSTORE PUSH1 0x64 ADD PUSH2 0x635 JUMP JUMPDEST PUSH1 0x1 PUSH1 0x1 PUSH1 0xA0 SHL SUB DUP4 AND ISZERO ISZERO DUP1 PUSH2 0x1438 JUMPI POP DUP2 ISZERO JUMPDEST PUSH2 0x147C JUMPI PUSH1 0x40 MLOAD PUSH3 0x461BCD PUSH1 0xE5 SHL DUP2 MSTORE PUSH1 0x20 PUSH1 0x4 DUP3 ADD MSTORE PUSH1 0x15 PUSH1 0x24 DUP3 ADD MSTORE PUSH21 0x1A5B9D985B1A5908199959481C9958DA5C1A595B9D PUSH1 0x5A SHL PUSH1 0x44 DUP3 ADD MSTORE PUSH1 0x64 ADD PUSH2 0x635 JUMP JUMPDEST PUSH1 0x3 DUP1 SLOAD PUSH1 0x2 DUP1 SLOAD PUSH2 0x100 PUSH1 0x1 PUSH1 0xA8 SHL SUB NOT AND PUSH2 0x100 PUSH1 0x1 PUSH1 0x1 PUSH1 0xA0 SHL SUB DUP9 AND SWAP1 DUP2 MUL SWAP2 SWAP1 SWAP2 OR SWAP1 SWAP2 SSTORE SWAP2 DUP5 SWAP1 SSTORE PUSH1 0x40 MLOAD SWAP1 SWAP2 DUP5 SWAP2 DUP4 SWAP2 SWAP1 PUSH32 0xCF5B6C438B64611D8EE0722509D7AD5149D4F779F0B29BC845152F0D89E42E19 SWAP1 PUSH1 0x0 SWAP1 LOG4 POP POP POP POP JUMP JUMPDEST PUSH1 0x0 PUSH2 0x14EB DUP2 PUSH2 0x1610 JUMP JUMPDEST PUSH2 0x14F3 PUSH2 0x17AE JUMP JUMPDEST PUSH1 0x0 DUP3 GT PUSH2 0x1538 JUMPI PUSH1 0x40 MLOAD PUSH3 0x461BCD PUSH1 0xE5 SHL DUP2 MSTORE PUSH1 0x20 PUSH1 0x4 DUP3 ADD MSTORE PUSH1 0x12 PUSH1 0x24 DUP3 ADD MSTORE PUSH18 0x616D6F756E74206D757374206265203E203 PUSH1 0x74 SHL PUSH1 0x44 DUP3 ADD MSTORE PUSH1 0x64 ADD PUSH2 0x635 JUMP JUMPDEST DUP2 SELFBALANCE LT ISZERO PUSH2 0x157B JUMPI PUSH1 0x40 MLOAD PUSH3 0x461BCD PUSH1 0xE5 SHL DUP2 MSTORE PUSH1 0x20 PUSH1 0x4 DUP3 ADD MSTORE PUSH1 0x10 PUSH1 0x24 DUP3 ADD MSTORE PUSH16 0x92DCE6EACCCCD2C6D2CADCE8408AA89 PUSH1 0x83 SHL PUSH1 0x44 DUP3 ADD MSTORE PUSH1 0x64 ADD PUSH2 0x635 JUMP JUMPDEST PUSH1 0x40 MLOAD CALLER SWAP1 DUP4 ISZERO PUSH2 0x8FC MUL SWAP1 DUP5 SWAP1 PUSH1 0x0 DUP2 DUP2 DUP2 DUP6 DUP9 DUP9 CALL SWAP4 POP POP POP POP ISZERO DUP1 ISZERO PUSH2 0x15A8 JUMPI RETURNDATASIZE PUSH1 0x0 DUP1 RETURNDATACOPY RETURNDATASIZE PUSH1 0x0 REVERT JUMPDEST POP PUSH1 0x40 MLOAD DUP3 DUP2 MSTORE CALLER SWAP1 PUSH32 0x5817FE91D2748C33F168D8A78037FC073ADAF6EC8E3613A758D44A2CFAE4563D SWAP1 PUSH1 0x20 ADD PUSH2 0x13CA JUMP JUMPDEST PUSH1 0x0 PUSH1 0x1 PUSH1 0x1 PUSH1 0xE0 SHL SUB NOT DUP3 AND PUSH4 0x7965DB0B PUSH1 0xE0 SHL EQ DUP1 PUSH2 0x599 JUMPI POP PUSH4 0x1FFC9A7 PUSH1 0xE0 SHL PUSH1 0x1 PUSH1 0x1 PUSH1 0xE0 SHL SUB NOT DUP4 AND EQ PUSH2 0x599 JUMP JUMPDEST PUSH2 0x65F DUP2 CALLER PUSH2 0x1885 JUMP JUMPDEST PUSH2 0x1624 DUP3 DUP3 PUSH2 0xC70 JUMP JUMPDEST PUSH2 0x648 JUMPI PUSH1 0x0 DUP3 DUP2 MSTORE PUSH1 0x20 DUP2 DUP2 MSTORE PUSH1 0x40 DUP1 DUP4 KECCAK256 PUSH1 0x1 PUSH1 0x1 PUSH1 0xA0 SHL SUB DUP6 AND DUP5 MSTORE SWAP1 SWAP2 MSTORE SWAP1 KECCAK256 DUP1 SLOAD PUSH1 0xFF NOT AND PUSH1 0x1 OR SWAP1 SSTORE PUSH2 0x165A CALLER SWAP1 JUMP JUMPDEST PUSH1 0x1 PUSH1 0x1 PUSH1 0xA0 SHL SUB AND DUP2 PUSH1 0x1 PUSH1 0x1 PUSH1 0xA0 SHL SUB AND DUP4 PUSH32 0x2F8788117E7EFF1D82E926EC794901D17C78024A50270940304540A733656F0D PUSH1 0x40 MLOAD PUSH1 0x40 MLOAD DUP1 SWAP2 SUB SWAP1 LOG4 POP POP JUMP JUMPDEST PUSH2 0x16A8 DUP3 DUP3 PUSH2 0xC70 JUMP JUMPDEST ISZERO PUSH2 0x648 JUMPI PUSH1 0x0 DUP3 DUP2 MSTORE PUSH1 0x20 DUP2 DUP2 MSTORE PUSH1 0x40 DUP1 DUP4 KECCAK256 PUSH1 0x1 PUSH1 0x1 PUSH1 0xA0 SHL SUB DUP6 AND DUP1 DUP6 MSTORE SWAP3 MSTORE DUP1 DUP4 KECCAK256 DUP1 SLOAD PUSH1 0xFF NOT AND SWAP1 SSTORE MLOAD CALLER SWAP3 DUP6 SWAP2 PUSH32 0xF6391F5C32D9C69D2A47EA670B442974B53935D1EDC7FD64EB21E047A839171B SWAP2 SWAP1 LOG4 POP POP JUMP JUMPDEST PUSH2 0x170B PUSH2 0x18B8 JUMP JUMPDEST PUSH1 0x2 DUP1 SLOAD PUSH1 0xFF NOT AND SWAP1 SSTORE PUSH32 0x5DB9EE0A495BF2E6FF9C91A7834C1BA4FDD244A5E8AA4E537BD38AEAE4B073AA CALLER JUMPDEST PUSH1 0x40 MLOAD PUSH1 0x1 PUSH1 0x1 PUSH1 0xA0 SHL SUB SWAP1 SWAP2 AND DUP2 MSTORE PUSH1 0x20 ADD PUSH1 0x40 MLOAD DUP1 SWAP2 SUB SWAP1 LOG1 JUMP JUMPDEST PUSH1 0x2 PUSH1 0x1 SLOAD SUB PUSH2 0x17A7 JUMPI PUSH1 0x40 MLOAD PUSH3 0x461BCD PUSH1 0xE5 SHL DUP2 MSTORE PUSH1 0x20 PUSH1 0x4 DUP3 ADD MSTORE PUSH1 0x1F PUSH1 0x24 DUP3 ADD MSTORE PUSH32 0x5265656E7472616E637947756172643A207265656E7472616E742063616C6C00 PUSH1 0x44 DUP3 ADD MSTORE PUSH1 0x64 ADD PUSH2 0x635 JUMP JUMPDEST PUSH1 0x2 PUSH1 0x1 SSTORE JUMP JUMPDEST PUSH1 0x2 SLOAD PUSH1 0xFF AND ISZERO PUSH2 0x17F4 JUMPI PUSH1 0x40 MLOAD PUSH3 0x461BCD PUSH1 0xE5 SHL DUP2 MSTORE PUSH1 0x20 PUSH1 0x4 DUP3 ADD MSTORE PUSH1 0x10 PUSH1 0x24 DUP3 ADD MSTORE PUSH16 0x14185D5CD8589B194E881C185D5CD959 PUSH1 0x82 SHL PUSH1 0x44 DUP3 ADD MSTORE PUSH1 0x64 ADD PUSH2 0x635 JUMP JUMPDEST JUMP JUMPDEST PUSH2 0x17FE PUSH2 0x17AE JUMP JUMPDEST PUSH1 0x2 DUP1 SLOAD PUSH1 0xFF NOT AND PUSH1 0x1 OR SWAP1 SSTORE PUSH32 0x62E78CEA01BEE320CD4E420270B5EA74000D11B0C9F74754EBDBFC544B05A258 PUSH2 0x1738 CALLER SWAP1 JUMP JUMPDEST PUSH1 0x40 DUP1 MLOAD PUSH1 0x1 PUSH1 0x1 PUSH1 0xA0 SHL SUB DUP5 AND PUSH1 0x24 DUP3 ADD MSTORE PUSH1 0x44 DUP1 DUP3 ADD DUP5 SWAP1 MSTORE DUP3 MLOAD DUP1 DUP4 SUB SWAP1 SWAP2 ADD DUP2 MSTORE PUSH1 0x64 SWAP1 SWAP2 ADD SWAP1 SWAP2 MSTORE PUSH1 0x20 DUP2 ADD DUP1 MLOAD PUSH1 0x1 PUSH1 0x1 PUSH1 0xE0 SHL SUB AND PUSH4 0xA9059CBB PUSH1 0xE0 SHL OR SWAP1 MSTORE PUSH2 0x5C4 SWAP1 DUP5 SWAP1 PUSH2 0x1901 JUMP JUMPDEST PUSH2 0x188F DUP3 DUP3 PUSH2 0xC70 JUMP JUMPDEST PUSH2 0x648 JUMPI PUSH2 0x189C DUP2 PUSH2 0x19D6 JUMP JUMPDEST PUSH2 0x18A7 DUP4 PUSH1 0x20 PUSH2 0x19E8 JUMP JUMPDEST PUSH1 0x40 MLOAD PUSH1 0x20 ADD PUSH2 0xB7C SWAP3 SWAP2 SWAP1 PUSH2 0x2286 JUMP JUMPDEST PUSH1 0x2 SLOAD PUSH1 0xFF AND PUSH2 0x17F4 JUMPI PUSH1 0x40 MLOAD PUSH3 0x461BCD PUSH1 0xE5 SHL DUP2 MSTORE PUSH1 0x20 PUSH1 0x4 DUP3 ADD MSTORE PUSH1 0x14 PUSH1 0x24 DUP3 ADD MSTORE PUSH20 0x14185D5CD8589B194E881B9BDD081C185D5CD959 PUSH1 0x62 SHL PUSH1 0x44 DUP3 ADD MSTORE PUSH1 0x64 ADD PUSH2 0x635 JUMP JUMPDEST PUSH1 0x0 PUSH2 0x1956 DUP3 PUSH1 0x40 MLOAD DUP1 PUSH1 0x40 ADD PUSH1 0x40 MSTORE DUP1 PUSH1 0x20 DUP2 MSTORE PUSH1 0x20 ADD PUSH32 0x5361666545524332303A206C6F772D6C6576656C2063616C6C206661696C6564 DUP2 MSTORE POP DUP6 PUSH1 0x1 PUSH1 0x1 PUSH1 0xA0 SHL SUB AND PUSH2 0x1B8B SWAP1 SWAP3 SWAP2 SWAP1 PUSH4 0xFFFFFFFF AND JUMP JUMPDEST SWAP1 POP DUP1 MLOAD PUSH1 0x0 EQ DUP1 PUSH2 0x1977 JUMPI POP DUP1 DUP1 PUSH1 0x20 ADD SWAP1 MLOAD DUP2 ADD SWAP1 PUSH2 0x1977 SWAP2 SWAP1 PUSH2 0x22FB JUMP JUMPDEST PUSH2 0x5C4 JUMPI PUSH1 0x40 MLOAD PUSH3 0x461BCD PUSH1 0xE5 SHL DUP2 MSTORE PUSH1 0x20 PUSH1 0x4 DUP3 ADD MSTORE PUSH1 0x2A PUSH1 0x24 DUP3 ADD MSTORE PUSH32 0x5361666545524332303A204552433230206F7065726174696F6E20646964206E PUSH1 0x44 DUP3 ADD MSTORE PUSH10 0x1BDD081CDD58D8D95959 PUSH1 0xB2 SHL PUSH1 0x64 DUP3 ADD MSTORE PUSH1 0x84 ADD PUSH2 0x635 JUMP JUMPDEST PUSH1 0x60 PUSH2 0x599 PUSH1 0x1 PUSH1 0x1 PUSH1 0xA0 SHL SUB DUP4 AND PUSH1 0x14 JUMPDEST PUSH1 0x60 PUSH1 0x0 PUSH2 0x19F7 DUP4 PUSH1 0x2 PUSH2 0x224D JUMP JUMPDEST PUSH2 0x1A02 SWAP1 PUSH1 0x2 PUSH2 0x231D JUMP JUMPDEST PUSH8 0xFFFFFFFFFFFFFFFF DUP2 GT ISZERO PUSH2 0x1A1A JUMPI PUSH2 0x1A1A PUSH2 0x1DC0 JUMP JUMPDEST PUSH1 0x40 MLOAD SWAP1 DUP1 DUP3 MSTORE DUP1 PUSH1 0x1F ADD PUSH1 0x1F NOT AND PUSH1 0x20 ADD DUP3 ADD PUSH1 0x40 MSTORE DUP1 ISZERO PUSH2 0x1A44 JUMPI PUSH1 0x20 DUP3 ADD DUP2 DUP1 CALLDATASIZE DUP4 CALLDATACOPY ADD SWAP1 POP JUMPDEST POP SWAP1 POP PUSH1 0x3 PUSH1 0xFC SHL DUP2 PUSH1 0x0 DUP2 MLOAD DUP2 LT PUSH2 0x1A5F JUMPI PUSH2 0x1A5F PUSH2 0x2330 JUMP JUMPDEST PUSH1 0x20 ADD ADD SWAP1 PUSH1 0x1 PUSH1 0x1 PUSH1 0xF8 SHL SUB NOT AND SWAP1 DUP2 PUSH1 0x0 BYTE SWAP1 MSTORE8 POP PUSH1 0xF PUSH1 0xFB SHL DUP2 PUSH1 0x1 DUP2 MLOAD DUP2 LT PUSH2 0x1A8E JUMPI PUSH2 0x1A8E PUSH2 0x2330 JUMP JUMPDEST PUSH1 0x20 ADD ADD SWAP1 PUSH1 0x1 PUSH1 0x1 PUSH1 0xF8 SHL SUB NOT AND SWAP1 DUP2 PUSH1 0x0 BYTE SWAP1 MSTORE8 POP PUSH1 0x0 PUSH2 0x1AB2 DUP5 PUSH1 0x2 PUSH2 0x224D JUMP JUMPDEST PUSH2 0x1ABD SWAP1 PUSH1 0x1 PUSH2 0x231D JUMP JUMPDEST SWAP1 POP JUMPDEST PUSH1 0x1 DUP2 GT ISZERO PUSH2 0x1B35 JUMPI PUSH16 0x181899199A1A9B1B9C1CB0B131B232B3 PUSH1 0x81 SHL DUP6 PUSH1 0xF AND PUSH1 0x10 DUP2 LT PUSH2 0x1AF1 JUMPI PUSH2 0x1AF1 PUSH2 0x2330 JUMP JUMPDEST BYTE PUSH1 0xF8 SHL DUP3 DUP3 DUP2 MLOAD DUP2 LT PUSH2 0x1B07 JUMPI PUSH2 0x1B07 PUSH2 0x2330 JUMP JUMPDEST PUSH1 0x20 ADD ADD SWAP1 PUSH1 0x1 PUSH1 0x1 PUSH1 0xF8 SHL SUB NOT AND SWAP1 DUP2 PUSH1 0x0 BYTE SWAP1 MSTORE8 POP PUSH1 0x4 SWAP5 SWAP1 SWAP5 SHR SWAP4 PUSH2 0x1B2E DUP2 PUSH2 0x2346 JUMP JUMPDEST SWAP1 POP PUSH2 0x1AC0 JUMP JUMPDEST POP DUP4 ISZERO PUSH2 0x1B84 JUMPI PUSH1 0x40 MLOAD PUSH3 0x461BCD PUSH1 0xE5 SHL DUP2 MSTORE PUSH1 0x20 PUSH1 0x4 DUP3 ADD DUP2 SWAP1 MSTORE PUSH1 0x24 DUP3 ADD MSTORE PUSH32 0x537472696E67733A20686578206C656E67746820696E73756666696369656E74 PUSH1 0x44 DUP3 ADD MSTORE PUSH1 0x64 ADD PUSH2 0x635 JUMP JUMPDEST SWAP4 SWAP3 POP POP POP JUMP JUMPDEST PUSH1 0x60 PUSH2 0x1B9A DUP5 DUP5 PUSH1 0x0 DUP6 PUSH2 0x1BA2 JUMP JUMPDEST SWAP5 SWAP4 POP POP POP POP JUMP JUMPDEST PUSH1 0x60 DUP3 SELFBALANCE LT ISZERO PUSH2 0x1C03 JUMPI PUSH1 0x40 MLOAD PUSH3 0x461BCD PUSH1 0xE5 SHL DUP2 MSTORE PUSH1 0x20 PUSH1 0x4 DUP3 ADD MSTORE PUSH1 0x26 PUSH1 0x24 DUP3 ADD MSTORE PUSH32 0x416464726573733A20696E73756666696369656E742062616C616E636520666F PUSH1 0x44 DUP3 ADD MSTORE PUSH6 0x1C8818D85B1B PUSH1 0xD2 SHL PUSH1 0x64 DUP3 ADD MSTORE PUSH1 0x84 ADD PUSH2 0x635 JUMP JUMPDEST PUSH1 0x0 DUP1 DUP7 PUSH1 0x1 PUSH1 0x1 PUSH1 0xA0 SHL SUB AND DUP6 DUP8 PUSH1 0x40 MLOAD PUSH2 0x1C1F SWAP2 SWAP1 PUSH2 0x235D JUMP JUMPDEST PUSH1 0x0 PUSH1 0x40 MLOAD DUP1 DUP4 SUB DUP2 DUP6 DUP8 GAS CALL SWAP3 POP POP POP RETURNDATASIZE DUP1 PUSH1 0x0 DUP2 EQ PUSH2 0x1C5C JUMPI PUSH1 0x40 MLOAD SWAP2 POP PUSH1 0x1F NOT PUSH1 0x3F RETURNDATASIZE ADD AND DUP3 ADD PUSH1 0x40 MSTORE RETURNDATASIZE DUP3 MSTORE RETURNDATASIZE PUSH1 0x0 PUSH1 0x20 DUP5 ADD RETURNDATACOPY PUSH2 0x1C61 JUMP JUMPDEST PUSH1 0x60 SWAP2 POP JUMPDEST POP SWAP2 POP SWAP2 POP PUSH2 0x1C72 DUP8 DUP4 DUP4 DUP8 PUSH2 0x1C7D JUMP JUMPDEST SWAP8 SWAP7 POP POP POP POP POP POP POP JUMP JUMPDEST PUSH1 0x60 DUP4 ISZERO PUSH2 0x1CEC JUMPI DUP3 MLOAD PUSH1 0x0 SUB PUSH2 0x1CE5 JUMPI PUSH1 0x1 PUSH1 0x1 PUSH1 0xA0 SHL SUB DUP6 AND EXTCODESIZE PUSH2 0x1CE5 JUMPI PUSH1 0x40 MLOAD PUSH3 0x461BCD PUSH1 0xE5 SHL DUP2 MSTORE PUSH1 0x20 PUSH1 0x4 DUP3 ADD MSTORE PUSH1 0x1D PUSH1 0x24 DUP3 ADD MSTORE PUSH32 0x416464726573733A2063616C6C20746F206E6F6E2D636F6E7472616374000000 PUSH1 0x44 DUP3 ADD MSTORE PUSH1 0x64 ADD PUSH2 0x635 JUMP JUMPDEST POP DUP2 PUSH2 0x1B9A JUMP JUMPDEST PUSH2 0x1B9A DUP4 DUP4 DUP2 MLOAD ISZERO PUSH2 0x1D01 JUMPI DUP2 MLOAD DUP1 DUP4 PUSH1 0x20 ADD REVERT JUMPDEST DUP1 PUSH1 0x40 MLOAD PUSH3 0x461BCD PUSH1 0xE5 SHL DUP2 MSTORE PUSH1 0x4 ADD PUSH2 0x635 SWAP2 SWAP1 PUSH2 0x21E7 JUMP JUMPDEST PUSH1 0x0 PUSH1 0x20 DUP3 DUP5 SUB SLT ISZERO PUSH2 0x1D2D JUMPI PUSH1 0x0 DUP1 REVERT JUMPDEST DUP2 CALLDATALOAD PUSH1 0x1 PUSH1 0x1 PUSH1 0xE0 SHL SUB NOT DUP2 AND DUP2 EQ PUSH2 0x1B84 JUMPI PUSH1 0x0 DUP1 REVERT JUMPDEST PUSH1 0x0 PUSH1 0x20 DUP3 DUP5 SUB SLT ISZERO PUSH2 0x1D57 JUMPI PUSH1 0x0 DUP1 REVERT JUMPDEST POP CALLDATALOAD SWAP2 SWAP1 POP JUMP JUMPDEST PUSH1 0x1 PUSH1 0x1 PUSH1 0xA0 SHL SUB DUP2 AND DUP2 EQ PUSH2 0x65F JUMPI PUSH1 0x0 DUP1 REVERT JUMPDEST PUSH1 0x0 DUP1 PUSH1 0x40 DUP4 DUP6 SUB SLT ISZERO PUSH2 0x1D86 JUMPI PUSH1 0x0 DUP1 REVERT JUMPDEST DUP3 CALLDATALOAD SWAP2 POP PUSH1 0x20 DUP4 ADD CALLDATALOAD PUSH2 0x1D98 DUP2 PUSH2 0x1D5E JUMP JUMPDEST DUP1 SWAP2 POP POP SWAP3 POP SWAP3 SWAP1 POP JUMP JUMPDEST PUSH1 0x0 PUSH1 0x20 DUP3 DUP5 SUB SLT ISZERO PUSH2 0x1DB5 JUMPI PUSH1 0x0 DUP1 REVERT JUMPDEST DUP2 CALLDATALOAD PUSH2 0x1B84 DUP2 PUSH2 0x1D5E JUMP JUMPDEST PUSH4 0x4E487B71 PUSH1 0xE0 SHL PUSH1 0x0 MSTORE PUSH1 0x41 PUSH1 0x4 MSTORE PUSH1 0x24 PUSH1 0x0 REVERT JUMPDEST PUSH1 0x1F DUP3 ADD PUSH1 0x1F NOT AND DUP2 ADD PUSH8 0xFFFFFFFFFFFFFFFF DUP2 GT DUP3 DUP3 LT OR ISZERO PUSH2 0x1DFC JUMPI PUSH2 0x1DFC PUSH2 0x1DC0 JUMP JUMPDEST PUSH1 0x40 MSTORE POP POP JUMP JUMPDEST PUSH1 0x0 PUSH1 0x20 DUP1 DUP4 DUP6 SUB SLT ISZERO PUSH2 0x1E16 JUMPI PUSH1 0x0 DUP1 REVERT JUMPDEST DUP3 CALLDATALOAD PUSH8 0xFFFFFFFFFFFFFFFF DUP1 DUP3 GT ISZERO PUSH2 0x1E2E JUMPI PUSH1 0x0 DUP1 REVERT JUMPDEST DUP2 DUP6 ADD SWAP2 POP DUP6 PUSH1 0x1F DUP4 ADD SLT PUSH2 0x1E42 JUMPI PUSH1 0x0 DUP1 REVERT JUMPDEST DUP2 CALLDATALOAD DUP2 DUP2 GT ISZERO PUSH2 0x1E54 JUMPI PUSH2 0x1E54 PUSH2 0x1DC0 JUMP JUMPDEST PUSH1 0x40 MLOAD SWAP2 POP PUSH2 0x1E6C PUSH1 0x1F DUP3 ADD PUSH1 0x1F NOT AND DUP6 ADD DUP4 PUSH2 0x1DD6 JUMP JUMPDEST DUP1 DUP3 MSTORE DUP7 DUP5 DUP3 DUP6 ADD ADD GT ISZERO PUSH2 0x1E80 JUMPI PUSH1 0x0 DUP1 REVERT JUMPDEST DUP1 DUP5 DUP5 ADD DUP6 DUP5 ADD CALLDATACOPY PUSH1 0x0 SWAP1 DUP3 ADD SWAP1 SWAP4 ADD SWAP3 SWAP1 SWAP3 MSTORE POP SWAP4 SWAP3 POP POP POP JUMP JUMPDEST PUSH1 0x0 DUP1 DUP4 PUSH1 0x1F DUP5 ADD SLT PUSH2 0x1EAE JUMPI PUSH1 0x0 DUP1 REVERT JUMPDEST POP DUP2 CALLDATALOAD PUSH8 0xFFFFFFFFFFFFFFFF DUP2 GT ISZERO PUSH2 0x1EC6 JUMPI PUSH1 0x0 DUP1 REVERT JUMPDEST PUSH1 0x20 DUP4 ADD SWAP2 POP DUP4 PUSH1 0x20 DUP3 DUP6 ADD ADD GT ISZERO PUSH2 0x1EDE JUMPI PUSH1 0x0 DUP1 REVERT JUMPDEST SWAP3 POP SWAP3 SWAP1 POP JUMP JUMPDEST PUSH1 0x0 DUP1 PUSH1 0x0 DUP1 PUSH1 0x60 DUP6 DUP8 SUB SLT ISZERO PUSH2 0x1EFB JUMPI PUSH1 0x0 DUP1 REVERT JUMPDEST DUP5 CALLDATALOAD PUSH2 0x1F06 DUP2 PUSH2 0x1D5E JUMP JUMPDEST SWAP4 POP PUSH1 0x20 DUP6 ADD CALLDATALOAD PUSH2 0x1F16 DUP2 PUSH2 0x1D5E JUMP JUMPDEST SWAP3 POP PUSH1 0x40 DUP6 ADD CALLDATALOAD PUSH8 0xFFFFFFFFFFFFFFFF DUP2 GT ISZERO PUSH2 0x1F32 JUMPI PUSH1 0x0 DUP1 REVERT JUMPDEST PUSH2 0x1F3E DUP8 DUP3 DUP9 ADD PUSH2 0x1E9C JUMP JUMPDEST SWAP6 SWAP9 SWAP5 SWAP8 POP SWAP6 POP POP POP POP JUMP JUMPDEST PUSH1 0x0 DUP1 PUSH1 0x0 DUP1 PUSH1 0x0 PUSH1 0x80 DUP7 DUP9 SUB SLT ISZERO PUSH2 0x1F62 JUMPI PUSH1 0x0 DUP1 REVERT JUMPDEST DUP6 CALLDATALOAD PUSH2 0x1F6D DUP2 PUSH2 0x1D5E JUMP JUMPDEST SWAP5 POP PUSH1 0x20 DUP7 ADD CALLDATALOAD PUSH2 0x1F7D DUP2 PUSH2 0x1D5E JUMP JUMPDEST SWAP4 POP PUSH1 0x40 DUP7 ADD CALLDATALOAD SWAP3 POP PUSH1 0x60 DUP7 ADD CALLDATALOAD PUSH8 0xFFFFFFFFFFFFFFFF DUP2 GT ISZERO PUSH2 0x1FA0 JUMPI PUSH1 0x0 DUP1 REVERT JUMPDEST PUSH2 0x1FAC DUP9 DUP3 DUP10 ADD PUSH2 0x1E9C JUMP JUMPDEST SWAP7 SWAP10 SWAP6 SWAP9 POP SWAP4 SWAP7 POP SWAP3 SWAP5 SWAP4 SWAP3 POP POP POP JUMP JUMPDEST PUSH1 0x0 DUP1 PUSH1 0x40 DUP4 DUP6 SUB SLT ISZERO PUSH2 0x1FD0 JUMPI PUSH1 0x0 DUP1 REVERT JUMPDEST DUP3 CALLDATALOAD PUSH2 0x1FDB DUP2 PUSH2 0x1D5E JUMP JUMPDEST SWAP5 PUSH1 0x20 SWAP4 SWAP1 SWAP4 ADD CALLDATALOAD SWAP4 POP POP POP JUMP JUMPDEST DUP2 DUP4 DUP3 CALLDATACOPY PUSH1 0x0 SWAP2 ADD SWAP1 DUP2 MSTORE SWAP2 SWAP1 POP JUMP JUMPDEST PUSH1 0x0 PUSH1 0x20 DUP3 DUP5 SUB SLT ISZERO PUSH2 0x200B JUMPI PUSH1 0x0 DUP1 REVERT JUMPDEST DUP2 MLOAD PUSH2 0x1B84 DUP2 PUSH2 0x1D5E JUMP JUMPDEST PUSH1 0x20 DUP1 DUP3 MSTORE PUSH1 0x2F SWAP1 DUP3 ADD MSTORE PUSH32 0x41727469737420636F6E7472616374206D75737420696D706C656D656E74206F PUSH1 0x40 DUP3 ADD MSTORE PUSH15 0x3BB732B9141490333AB731BA34B7B7 PUSH1 0x89 SHL PUSH1 0x60 DUP3 ADD MSTORE PUSH1 0x80 ADD SWAP1 JUMP JUMPDEST PUSH4 0x4E487B71 PUSH1 0xE0 SHL PUSH1 0x0 MSTORE PUSH1 0x11 PUSH1 0x4 MSTORE PUSH1 0x24 PUSH1 0x0 REVERT JUMPDEST DUP2 DUP2 SUB DUP2 DUP2 GT ISZERO PUSH2 0x599 JUMPI PUSH2 0x599 PUSH2 0x2065 JUMP JUMPDEST DUP2 DUP4 MSTORE DUP2 DUP2 PUSH1 0x20 DUP6 ADD CALLDATACOPY POP PUSH1 0x0 DUP3 DUP3 ADD PUSH1 0x20 SWAP1 DUP2 ADD SWAP2 SWAP1 SWAP2 MSTORE PUSH1 0x1F SWAP1 SWAP2 ADD PUSH1 0x1F NOT AND SWAP1 SWAP2 ADD ADD SWAP1 JUMP JUMPDEST PUSH1 0x1 PUSH1 0x1 PUSH1 0xA0 SHL SUB DUP5 AND DUP2 MSTORE PUSH1 0x40 PUSH1 0x20 DUP3 ADD DUP2 SWAP1 MSTORE PUSH1 0x0 SWAP1 PUSH2 0x20DC SWAP1 DUP4 ADD DUP5 DUP7 PUSH2 0x208E JUMP JUMPDEST SWAP6 SWAP5 POP POP POP POP POP JUMP JUMPDEST PUSH1 0x0 PUSH1 0x3 RETURNDATASIZE GT ISZERO PUSH2 0x20FE JUMPI PUSH1 0x4 PUSH1 0x0 DUP1 RETURNDATACOPY POP PUSH1 0x0 MLOAD PUSH1 0xE0 SHR JUMPDEST SWAP1 JUMP JUMPDEST PUSH1 0x0 PUSH1 0x44 RETURNDATASIZE LT ISZERO PUSH2 0x210F JUMPI SWAP1 JUMP JUMPDEST PUSH1 0x40 MLOAD PUSH1 0x3 NOT RETURNDATASIZE DUP2 ADD PUSH1 0x4 DUP4 RETURNDATACOPY DUP2 MLOAD RETURNDATASIZE PUSH8 0xFFFFFFFFFFFFFFFF DUP2 PUSH1 0x24 DUP5 ADD GT DUP2 DUP5 GT OR ISZERO PUSH2 0x213F JUMPI POP POP POP POP POP SWAP1 JUMP JUMPDEST DUP3 DUP6 ADD SWAP2 POP DUP2 MLOAD DUP2 DUP2 GT ISZERO PUSH2 0x2157 JUMPI POP POP POP POP POP POP SWAP1 JUMP JUMPDEST DUP5 RETURNDATASIZE DUP8 ADD ADD PUSH1 0x20 DUP3 DUP6 ADD ADD GT ISZERO PUSH2 0x2171 JUMPI POP POP POP POP POP POP SWAP1 JUMP JUMPDEST PUSH2 0x2180 PUSH1 0x20 DUP3 DUP7 ADD ADD DUP8 PUSH2 0x1DD6 JUMP JUMPDEST POP SWAP1 SWAP6 SWAP5 POP POP POP POP POP JUMP JUMPDEST PUSH1 0x0 JUMPDEST DUP4 DUP2 LT ISZERO PUSH2 0x21A6 JUMPI DUP2 DUP2 ADD MLOAD DUP4 DUP3 ADD MSTORE PUSH1 0x20 ADD PUSH2 0x218E JUMP JUMPDEST POP POP PUSH1 0x0 SWAP2 ADD MSTORE JUMP JUMPDEST PUSH16 0x26B4B73A34B733903330B4B632B21D1 PUSH1 0x85 SHL DUP2 MSTORE PUSH1 0x0 DUP3 MLOAD PUSH2 0x21DA DUP2 PUSH1 0x10 DUP6 ADD PUSH1 0x20 DUP8 ADD PUSH2 0x218B JUMP JUMPDEST SWAP2 SWAP1 SWAP2 ADD PUSH1 0x10 ADD SWAP3 SWAP2 POP POP JUMP JUMPDEST PUSH1 0x20 DUP2 MSTORE PUSH1 0x0 DUP3 MLOAD DUP1 PUSH1 0x20 DUP5 ADD MSTORE PUSH2 0x2206 DUP2 PUSH1 0x40 DUP6 ADD PUSH1 0x20 DUP8 ADD PUSH2 0x218B JUMP JUMPDEST PUSH1 0x1F ADD PUSH1 0x1F NOT AND SWAP2 SWAP1 SWAP2 ADD PUSH1 0x40 ADD SWAP3 SWAP2 POP POP JUMP JUMPDEST DUP4 DUP2 MSTORE PUSH1 0x40 PUSH1 0x20 DUP3 ADD MSTORE PUSH1 0x0 PUSH2 0x20DC PUSH1 0x40 DUP4 ADD DUP5 DUP7 PUSH2 0x208E JUMP JUMPDEST PUSH1 0x0 PUSH1 0x20 DUP3 DUP5 SUB SLT ISZERO PUSH2 0x2246 JUMPI PUSH1 0x0 DUP1 REVERT JUMPDEST POP MLOAD SWAP2 SWAP1 POP JUMP JUMPDEST DUP1 DUP3 MUL DUP2 ISZERO DUP3 DUP3 DIV DUP5 EQ OR PUSH2 0x599 JUMPI PUSH2 0x599 PUSH2 0x2065 JUMP JUMPDEST PUSH1 0x0 DUP3 PUSH2 0x2281 JUMPI PUSH4 0x4E487B71 PUSH1 0xE0 SHL PUSH1 0x0 MSTORE PUSH1 0x12 PUSH1 0x4 MSTORE PUSH1 0x24 PUSH1 0x0 REVERT JUMPDEST POP DIV SWAP1 JUMP JUMPDEST PUSH32 0x416363657373436F6E74726F6C3A206163636F756E7420000000000000000000 DUP2 MSTORE PUSH1 0x0 DUP4 MLOAD PUSH2 0x22BE DUP2 PUSH1 0x17 DUP6 ADD PUSH1 0x20 DUP9 ADD PUSH2 0x218B JUMP JUMPDEST PUSH17 0x1034B99036B4B9B9B4B733903937B6329 PUSH1 0x7D SHL PUSH1 0x17 SWAP2 DUP5 ADD SWAP2 DUP3 ADD MSTORE DUP4 MLOAD PUSH2 0x22EF DUP2 PUSH1 0x28 DUP5 ADD PUSH1 0x20 DUP9 ADD PUSH2 0x218B JUMP JUMPDEST ADD PUSH1 0x28 ADD SWAP5 SWAP4 POP POP POP POP JUMP JUMPDEST PUSH1 0x0 PUSH1 0x20 DUP3 DUP5 SUB SLT ISZERO PUSH2 0x230D JUMPI PUSH1 0x0 DUP1 REVERT JUMPDEST DUP2 MLOAD DUP1 ISZERO ISZERO DUP2 EQ PUSH2 0x1B84 JUMPI PUSH1 0x0 DUP1 REVERT JUMPDEST DUP1 DUP3 ADD DUP1 DUP3 GT ISZERO PUSH2 0x599 JUMPI PUSH2 0x599 PUSH2 0x2065 JUMP JUMPDEST PUSH4 0x4E487B71 PUSH1 0xE0 SHL PUSH1 0x0 MSTORE PUSH1 0x32 PUSH1 0x4 MSTORE PUSH1 0x24 PUSH1 0x0 REVERT JUMPDEST PUSH1 0x0 DUP2 PUSH2 0x2355 JUMPI PUSH2 0x2355 PUSH2 0x2065 JUMP JUMPDEST POP PUSH1 0x0 NOT ADD SWAP1 JUMP JUMPDEST PUSH1 0x0 DUP3 MLOAD PUSH2 0x236F DUP2 DUP5 PUSH1 0x20 DUP8 ADD PUSH2 0x218B JUMP JUMPDEST SWAP2 SWAP1 SWAP2 ADD SWAP3 SWAP2 POP POP JUMP INVALID 0xE2 0xB7 0xFB EXTCODESIZE DUP4 0x21 PUSH21 0x769106DAEBCFD6D1970523240DDA11281102DB9363 0xB8 EXTCODESIZE 0xD 0xC4 LOG2 PUSH5 0x6970667358 0x22 SLT KECCAK256 CODECOPY 0xC5 0x29 0xC9 0xD6 0x25 MULMOD INVALID PUSH16 0xFE105DD24A18D67CC9DD2C705EC816BA SWAP1 ADDRESS 0x1E 0xB8 SWAP6 0xCA ADDMOD PUSH5 0x736F6C6343 STOP ADDMOD SGT STOP CALLER "
	},
	"Assembly": ".code\n  PUSH A0\t\t\tcontract KinGallery is AccessC...\n  PUSH 40\t\t\tcontract KinGallery is AccessC...\n  MSTORE \t\t\tcontract KinGallery is AccessC...\n  CALLVALUE \t\t\tconstructor(\\n        address ...\n  DUP1 \t\t\tconstructor(\\n        address ...\n  ISZERO \t\t\tconstructor(\\n        address ...\n  PUSH [tag] 1\t\t\tconstructor(\\n        address ...\n  JUMPI \t\t\tconstructor(\\n        address ...\n  PUSH 0\t\t\tconstructor(\\n        address ...\n  DUP1 \t\t\tconstructor(\\n        address ...\n  REVERT \t\t\tconstructor(\\n        address ...\ntag 1\t\t\tconstructor(\\n        address ...\n  JUMPDEST \t\t\tconstructor(\\n        address ...\n  POP \t\t\tconstructor(\\n        address ...\n  PUSH 40\t\t\tconstructor(\\n        address ...\n  MLOAD \t\t\tconstructor(\\n        address ...\n  PUSHSIZE \t\t\tconstructor(\\n        address ...\n  CODESIZE \t\t\tconstructor(\\n        address ...\n  SUB \t\t\tconstructor(\\n        address ...\n  DUP1 \t\t\tconstructor(\\n        address ...\n  PUSHSIZE \t\t\tconstructor(\\n        address ...\n  DUP4 \t\t\tconstructor(\\n        address ...\n  CODECOPY \t\t\tconstructor(\\n        address ...\n  DUP2 \t\t\tconstructor(\\n        address ...\n  ADD \t\t\tconstructor(\\n        address ...\n  PUSH 40\t\t\tconstructor(\\n        address ...\n  DUP2 \t\t\tconstructor(\\n        address ...\n  SWAP1 \t\t\tconstructor(\\n        address ...\n  MSTORE \t\t\tconstructor(\\n        address ...\n  PUSH [tag] 2\t\t\tconstructor(\\n        address ...\n  SWAP2 \t\t\tconstructor(\\n        address ...\n  PUSH [tag] 3\t\t\tconstructor(\\n        address ...\n  JUMP \t\t\tconstructor(\\n        address ...\ntag 2\t\t\tconstructor(\\n        address ...\n  JUMPDEST \t\t\tconstructor(\\n        address ...\n  PUSH 1\t\t\tl\n  DUP1 \t\t\tessedPayment;\\n\\n    // \n  SSTORE \t\t\tessedPayment;\\n\\n    // \n  PUSH 2\t\t\t    byt\n  DUP1 \t\t\t    bytes32 pub\n  SLOAD \t\t\t    bytes32 pub\n  PUSH FF\t\t\t\n  NOT \t\t\t\n  AND \t\t\t    bytes32 pub\n  SWAP1 \t\t\t    bytes32 pub\n  SSTORE \t\t\t    bytes32 pub\n  PUSH 1\t\t\t\n  PUSH 1\t\t\t\n  PUSH A0\t\t\t\n  SHL \t\t\t\n  SUB \t\t\t\n  DUP6 \t\t\tusdc = IERC20Metadata(_usdc)\n  AND \t\t\tusdc = IERC20Metadata(_usdc)\n  PUSH 80\t\t\tusdc = IERC20Metadata(_usdc)\n  DUP2 \t\t\tusdc = IERC20Metadata(_usdc)\n  SWAP1 \t\t\tusdc = IERC20Metadata(_usdc)\n  MSTORE \t\t\tusdc = IERC20Metadata(_usdc)\n  PUSH [tag] 10\t\t\trequire(_usdc != ADDRESS_ZERO,...\n  JUMPI \t\t\trequire(_usdc != ADDRESS_ZERO,...\n  PUSH 40\t\t\trequire(_usdc != ADDRESS_ZERO,...\n  MLOAD \t\t\trequire(_usdc != ADDRESS_ZERO,...\n  PUSH 461BCD\t\t\t\n  PUSH E5\t\t\t\n  SHL \t\t\t\n  DUP2 \t\t\trequire(_usdc != ADDRESS_ZERO,...\n  MSTORE \t\t\trequire(_usdc != ADDRESS_ZERO,...\n  PUSH 20\t\t\t{\\n\n  PUSH 4\t\t\trequire(_usdc != ADDRESS_ZERO,...\n  DUP3 \t\t\trequire(_usdc != ADDRESS_ZERO,...\n  ADD \t\t\trequire(_usdc != ADDRESS_ZERO,...\n  MSTORE \t\t\tcyGuard, Pausable {\\n \n  PUSH 15\t\t\ta;\n  PUSH 24\t\t\t20 for IERC20Metad\n  DUP3 \t\t\t20 for IERC20Metad\n  ADD \t\t\t20 for IERC20Metad\n  MSTORE \t\t\tSafeERC20 for IERC20Metadata;\\...\n  PUSH 5553444320616464726573732072657175697265640000000000000000000000\t\t\tOLE = DEFAULT_ADMIN_ROL\n  PUSH 44\t\t\tlic constant ADMIN\n  DUP3 \t\t\tlic constant ADMIN\n  ADD \t\t\tlic constant ADMIN\n  MSTORE \t\t\ts32 public constant ADMIN_ROLE...\n  PUSH 64\t\t\tlic constant RELAY\n  ADD \t\t\tlic constant RELAY\ntag 11\t\t\trequire(_usdc != ADDRESS_ZERO,...\n  JUMPDEST \t\t\trequire(_usdc != ADDRESS_ZERO,...\n  PUSH 40\t\t\trequire(_usdc != ADDRESS_ZERO,...\n  MLOAD \t\t\trequire(_usdc != ADDRESS_ZERO,...\n  DUP1 \t\t\trequire(_usdc != ADDRESS_ZERO,...\n  SWAP2 \t\t\trequire(_usdc != ADDRESS_ZERO,...\n  SUB \t\t\trequire(_usdc != ADDRESS_ZERO,...\n  SWAP1 \t\t\trequire(_usdc != ADDRESS_ZERO,...\n  REVERT \t\t\trequire(_usdc != ADDRESS_ZERO,...\ntag 10\t\t\trequire(_usdc != ADDRESS_ZERO,...\n  JUMPDEST \t\t\trequire(_usdc != ADDRESS_ZERO,...\n  PUSH 2\t\t\tfeeRecipient\n  DUP1 \t\t\tfeeRecipient = _multisig\n  SLOAD \t\t\tfeeRecipient = _multisig\n  PUSH 100\t\t\t\n  PUSH 1\t\t\t\n  PUSH A8\t\t\t\n  SHL \t\t\t\n  SUB \t\t\t\n  NOT \t\t\t\n  AND \t\t\tfeeRecipient = _multisig\n  PUSH 100\t\t\tfeeRecipient = _multisig\n  PUSH 1\t\t\t\n  PUSH 1\t\t\t\n  PUSH A0\t\t\t\n  SHL \t\t\t\n  SUB \t\t\t\n  DUP8 \t\t\tfeeRecipient = _multisig\n  AND \t\t\tfeeRecipient = _multisig\n  SWAP1 \t\t\tfeeRecipient = _multisig\n  DUP2 \t\t\tfeeRecipient = _multisig\n  MUL \t\t\tfeeRecipient = _multisig\n  SWAP2 \t\t\tfeeRecipient = _multisig\n  SWAP1 \t\t\tfeeRecipient = _multisig\n  SWAP2 \t\t\tfeeRecipient = _multisig\n  OR \t\t\tfeeRecipient = _multisig\n  SWAP1 \t\t\tfeeRecipient = _multisig\n  SWAP2 \t\t\tfeeRecipient = _multisig\n  SSTORE \t\t\tfeeRecipient = _multisig\n  PUSH [tag] 13\t\t\trequire(_multisig != ADDRESS_Z...\n  JUMPI \t\t\trequire(_multisig != ADDRESS_Z...\n  PUSH 40\t\t\trequire(_multisig != ADDRESS_Z...\n  MLOAD \t\t\trequire(_multisig != ADDRESS_Z...\n  PUSH 461BCD\t\t\t\n  PUSH E5\t\t\t\n  SHL \t\t\t\n  DUP2 \t\t\trequire(_multisig != ADDRESS_Z...\n  MSTORE \t\t\trequire(_multisig != ADDRESS_Z...\n  PUSH 20\t\t\teB\n  PUSH 4\t\t\trequire(_multisig != ADDRESS_Z...\n  DUP3 \t\t\trequire(_multisig != ADDRESS_Z...\n  ADD \t\t\trequire(_multisig != ADDRESS_Z...\n  MSTORE \t\t\t uint256 public feeBp\n  PUSH 10\t\t\t\\n\\n\n  PUSH 24\t\t\t10k (e.g., 500 = 5\n  DUP3 \t\t\t10k (e.g., 500 = 5\n  ADD \t\t\t10k (e.g., 500 = 5\n  MSTORE \t\t\tts per 10k (e.g., 500 = 5%)\\n\\...\n  PUSH 496E76616C6964206D756C7469736967\t\t\t\n  PUSH 80\t\t\t\n  SHL \t\t\t\n  PUSH 44\t\t\tesses (configurabl\n  DUP3 \t\t\tesses (configurabl\n  ADD \t\t\tesses (configurabl\n  MSTORE \t\t\tee addresses (configurable by ...\n  PUSH 64\t\t\tIssuer owner (REMO\n  ADD \t\t\tIssuer owner (REMO\n  PUSH [tag] 11\t\t\trequire(_multisig != ADDRESS_Z...\n  JUMP \t\t\teccak256(\"RELAYER_ROLE\");\\n   ...\ntag 13\t\t\trequire(_multisig != ADDRESS_Z...\n  JUMPDEST \t\t\trequire(_multisig != ADDRESS_Z...\n  PUSH 0\t\t\t0\n  PUSH 3\t\t\tfeeBps\n  SSTORE \t\t\tfeeBps = 0\n  PUSH 4\t\t\tpayee2\n  DUP1 \t\t\tpayee2 = _payee2\n  SLOAD \t\t\tpayee2 = _payee2\n  PUSH 1\t\t\t\n  PUSH 1\t\t\t\n  PUSH A0\t\t\t\n  SHL \t\t\t\n  SUB \t\t\t\n  NOT \t\t\t\n  AND \t\t\tpayee2 = _payee2\n  PUSH 1\t\t\t\n  PUSH 1\t\t\t\n  PUSH A0\t\t\t\n  SHL \t\t\t\n  SUB \t\t\t\n  DUP6 \t\t\tpayee2 = _payee2\n  AND \t\t\tpayee2 = _payee2\n  SWAP1 \t\t\tpayee2 = _payee2\n  DUP2 \t\t\tpayee2 = _payee2\n  OR \t\t\tpayee2 = _payee2\n  SWAP1 \t\t\tpayee2 = _payee2\n  SWAP2 \t\t\tpayee2 = _payee2\n  SSTORE \t\t\tpayee2 = _payee2\n  PUSH [tag] 16\t\t\trequire(_payee2 != ADDRESS_ZER...\n  JUMPI \t\t\trequire(_payee2 != ADDRESS_ZER...\n  PUSH 40\t\t\trequire(_payee2 != ADDRESS_ZER...\n  MLOAD \t\t\trequire(_payee2 != ADDRESS_ZER...\n  PUSH 461BCD\t\t\t\n  PUSH E5\t\t\t\n  SHL \t\t\t\n  DUP2 \t\t\trequire(_payee2 != ADDRESS_ZER...\n  MSTORE \t\t\trequire(_payee2 != ADDRESS_ZER...\n  PUSH 20\t\t\tbl\n  PUSH 4\t\t\trequire(_payee2 != ADDRESS_ZER...\n  DUP3 \t\t\trequire(_payee2 != ADDRESS_ZER...\n  ADD \t\t\trequire(_payee2 != ADDRESS_ZER...\n  MSTORE \t\t\tst)\\n    uint256 publi\n  PUSH 16\t\t\t00\n  PUSH 24\t\t\t2_AMOUNT = 100_000\n  DUP3 \t\t\t2_AMOUNT = 100_000\n  ADD \t\t\t2_AMOUNT = 100_000\n  MSTORE \t\t\tt PAYEE2_AMOUNT = 100_000_000_\n  PUSH 47616C6C65727920706179656520726571756972656400000000000000000000\t\t\t  // Track processed pay\n  PUSH 44\t\t\t01 ETH (Gallery)\\n\\n\n  DUP3 \t\t\t01 ETH (Gallery)\\n\\n\n  ADD \t\t\t01 ETH (Gallery)\\n\\n\n  MSTORE \t\t\t// 0.0001 ETH (Gallery)\\n\\n   ...\n  PUSH 64\t\t\teplay attacks\\n    \n  ADD \t\t\teplay attacks\\n    \n  PUSH [tag] 11\t\t\trequire(_payee2 != ADDRESS_ZER...\n  JUMP \t\t\tynamic via owner())\\n    // pa...\ntag 16\t\t\trequire(_payee2 != ADDRESS_ZER...\n  JUMPDEST \t\t\trequire(_payee2 != ADDRESS_ZER...\n  PUSH 1\t\t\t\n  PUSH 1\t\t\t\n  PUSH A0\t\t\t\n  SHL \t\t\t\n  SUB \t\t\t\n  DUP3 \t\t\t_relayer != ADDRESS_ZERO\n  AND \t\t\t_relayer != ADDRESS_ZERO\n  PUSH [tag] 19\t\t\trequire(_relayer != ADDRESS_ZE...\n  JUMPI \t\t\trequire(_relayer != ADDRESS_ZE...\n  PUSH 40\t\t\trequire(_relayer != ADDRESS_ZE...\n  MLOAD \t\t\trequire(_relayer != ADDRESS_ZE...\n  PUSH 461BCD\t\t\t\n  PUSH E5\t\t\t\n  SHL \t\t\t\n  DUP2 \t\t\trequire(_relayer != ADDRESS_ZE...\n  MSTORE \t\t\trequire(_relayer != ADDRESS_ZE...\n  PUSH 20\t\t\tad\n  PUSH 4\t\t\trequire(_relayer != ADDRESS_ZE...\n  DUP3 \t\t\trequire(_relayer != ADDRESS_ZE...\n  ADD \t\t\trequire(_relayer != ADDRESS_ZE...\n  MSTORE \t\t\td artistContract, add\n  PUSH F\t\t\tde\n  PUSH 24\t\t\tistPayee, address \n  DUP3 \t\t\tistPayee, address \n  ADD \t\t\tistPayee, address \n  MSTORE \t\t\txed artistPayee, address index\n  PUSH 24B73B30B634B2103932B630BCB2B9\t\t\t\n  PUSH 89\t\t\t\n  SHL \t\t\t\n  PUSH 44\t\t\tmount, string paym\n  DUP3 \t\t\tmount, string paym\n  ADD \t\t\tmount, string paym\n  MSTORE \t\t\tnt256 amount, string paymentId...\n  PUSH 64\t\t\tss indexed to, uin\n  ADD \t\t\tss indexed to, uin\n  PUSH [tag] 11\t\t\trequire(_relayer != ADDRESS_ZE...\n  JUMP \t\t\ting => bool) public processedP...\ntag 19\t\t\trequire(_relayer != ADDRESS_ZE...\n  JUMPDEST \t\t\trequire(_relayer != ADDRESS_ZE...\n  PUSH 1\t\t\t\n  PUSH 1\t\t\t\n  PUSH A0\t\t\t\n  SHL \t\t\t\n  SUB \t\t\t\n  DUP2 \t\t\t_admin != ADDRESS_ZERO\n  AND \t\t\t_admin != ADDRESS_ZERO\n  PUSH [tag] 22\t\t\trequire(_admin != ADDRESS_ZERO...\n  JUMPI \t\t\trequire(_admin != ADDRESS_ZERO...\n  PUSH 40\t\t\trequire(_admin != ADDRESS_ZERO...\n  MLOAD \t\t\trequire(_admin != ADDRESS_ZERO...\n  PUSH 461BCD\t\t\t\n  PUSH E5\t\t\t\n  SHL \t\t\t\n  DUP2 \t\t\trequire(_admin != ADDRESS_ZERO...\n  MSTORE \t\t\trequire(_admin != ADDRESS_ZERO...\n  PUSH 20\t\t\t\\n \n  PUSH 4\t\t\trequire(_admin != ADDRESS_ZERO...\n  DUP3 \t\t\trequire(_admin != ADDRESS_ZERO...\n  ADD \t\t\trequire(_admin != ADDRESS_ZERO...\n  MSTORE \t\t\t indexed account);\\n  \n  PUSH D\t\t\tin\n  PUSH 24\t\t\tayeeUpdated(addres\n  DUP3 \t\t\tayeeUpdated(addres\n  ADD \t\t\tayeeUpdated(addres\n  MSTORE \t\t\talleryPayeeUpdated(address ind\n  PUSH 24B73B30B634B21030B236B4B7\t\t\t\n  PUSH 99\t\t\t\n  SHL \t\t\t\n  PUSH 44\t\t\t\\n    event ETHRece\n  DUP3 \t\t\t\\n    event ETHRece\n  ADD \t\t\t\\n    event ETHRece\n  MSTORE \t\t\tayee2);\\n    event ETHReceived...\n  PUSH 64\t\t\t6 amount);\\n\\n    //\n  ADD \t\t\t6 amount);\\n\\n    //\n  PUSH [tag] 11\t\t\trequire(_admin != ADDRESS_ZERO...\n  JUMP \t\t\t);\\n    event WithdrawnETH(add...\ntag 22\t\t\trequire(_admin != ADDRESS_ZERO...\n  JUMPDEST \t\t\trequire(_admin != ADDRESS_ZERO...\n  PUSH [tag] 25\t\t\t_grantRole(DEFAULT_ADMIN_ROLE,...\n  PUSH 0\t\t\tunt)\n  DUP3 \t\t\t_admin\n  PUSH [tag] 26\t\t\t_grantRole\n  JUMP \t\t\t_grantRole(DEFAULT_ADMIN_ROLE,...\ntag 25\t\t\t_grantRole(DEFAULT_ADMIN_ROLE,...\n  JUMPDEST \t\t\t_grantRole(DEFAULT_ADMIN_ROLE,...\n  PUSH [tag] 27\t\t\t_grantRole(DEFAULT_ADMIN_ROLE,...\n  PUSH 0\t\t\tunt)\n  DUP6 \t\t\t_multisig\n  PUSH [tag] 26\t\t\t_grantRole\n  JUMP \t\t\t_grantRole(DEFAULT_ADMIN_ROLE,...\ntag 27\t\t\t_grantRole(DEFAULT_ADMIN_ROLE,...\n  JUMPDEST \t\t\t_grantRole(DEFAULT_ADMIN_ROLE,...\n  PUSH [tag] 28\t\t\t_grantRole(RELAYER_ROLE, _rela...\n  PUSH E2B7FB3B832174769106DAEBCFD6D1970523240DDA11281102DB9363B83B0DC4\t\t\tkeccak256(\"RELAYER_ROLE\")\n  DUP4 \t\t\t_relayer\n  PUSH [tag] 26\t\t\t_grantRole\n  JUMP \t\t\t_grantRole(RELAYER_ROLE, _rela...\ntag 28\t\t\t_grantRole(RELAYER_ROLE, _rela...\n  JUMPDEST \t\t\t_grantRole(RELAYER_ROLE, _rela...\n  POP \t\t\tconstructor(\\n        address ...\n  POP \t\t\tconstructor(\\n        address ...\n  POP \t\t\tconstructor(\\n        address ...\n  POP \t\t\tconstructor(\\n        address ...\n  POP \t\t\tconstructor(\\n        address ...\n  PUSH [tag] 39\t\t\tcontract KinGallery is AccessC...\n  JUMP \t\t\tcontract KinGallery is AccessC...\ntag 26\t\t\t    require(_owner != ADDRESS_...\n  JUMPDEST \t\t\t    require(_owner != ADDRESS_...\n  PUSH 0\t\t\t    \n  DUP3 \t\t\t != ADDRESS_\n  DUP2 \t\t\t != ADDRESS_\n  MSTORE \t\t\t != ADDRESS_\n  PUSH 20\t\t\t != ADDRESS_\n  DUP2 \t\t\t != ADDRESS_\n  DUP2 \t\t\t != ADDRESS_\n  MSTORE \t\t\t != ADDRESS_\n  PUSH 40\t\t\t != ADDRESS_\n  DUP1 \t\t\t != ADDRESS_\n  DUP4 \t\t\t != ADDRESS_\n  KECCAK256 \t\t\t != ADDRESS_\n  PUSH 1\t\t\t\n  PUSH 1\t\t\t\n  PUSH A0\t\t\t\n  SHL \t\t\t\n  SUB \t\t\t\n  DUP6 \t\t\t != ADDRESS_ZERO, \"Invalid mu\n  AND \t\t\t != ADDRESS_ZERO, \"Invalid mu\n  DUP5 \t\t\t != ADDRESS_ZERO, \"Invalid mu\n  MSTORE \t\t\t != ADDRESS_ZERO, \"Invalid mu\n  SWAP1 \t\t\t != ADDRESS_ZERO, \"Invalid mu\n  SWAP2 \t\t\t != ADDRESS_ZERO, \"Invalid mu\n  MSTORE \t\t\t != ADDRESS_ZERO, \"Invalid mu\n  SWAP1 \t\t\t != ADDRESS_ZERO, \"Invalid mu\n  KECCAK256 \t\t\t != ADDRESS_ZERO, \"Invalid mu\n  SLOAD \t\t\t != ADDRESS_ZERO, \"Invalid mu\n  PUSH FF\t\t\t != ADDRESS_ZERO, \"Invalid mu\n  AND \t\t\t != ADDRESS_ZERO, \"Invalid mu\n  PUSH [tag] 33\t\t\t  artistPayee = _owner;\\n     ...\n  JUMPI \t\t\t  artistPayee = _owner;\\n     ...\n  PUSH 0\t\t\t      \n  DUP3 \t\t\t           r\n  DUP2 \t\t\t           r\n  MSTORE \t\t\t           r\n  PUSH 20\t\t\t           r\n  DUP2 \t\t\t           r\n  DUP2 \t\t\t           r\n  MSTORE \t\t\t           r\n  PUSH 40\t\t\t           r\n  DUP1 \t\t\t           r\n  DUP4 \t\t\t           r\n  KECCAK256 \t\t\t           r\n  PUSH 1\t\t\t\n  PUSH 1\t\t\t\n  PUSH A0\t\t\t\n  SHL \t\t\t\n  SUB \t\t\t\n  DUP6 \t\t\t           revert(\"Artist con\n  AND \t\t\t           revert(\"Artist con\n  DUP5 \t\t\t           revert(\"Artist con\n  MSTORE \t\t\t           revert(\"Artist con\n  SWAP1 \t\t\t           revert(\"Artist con\n  SWAP2 \t\t\t           revert(\"Artist con\n  MSTORE \t\t\t           revert(\"Artist con\n  SWAP1 \t\t\t           revert(\"Artist con\n  KECCAK256 \t\t\t           revert(\"Artist con\n  DUP1 \t\t\t           revert(\"Artist cont...\n  SLOAD \t\t\t           revert(\"Artist cont...\n  PUSH FF\t\t\t\n  NOT \t\t\t\n  AND \t\t\t           revert(\"Artist cont...\n  PUSH 1\t\t\tct m\n  OR \t\t\t           revert(\"Artist cont...\n  SWAP1 \t\t\t           revert(\"Artist cont...\n  SSTORE \t\t\t           revert(\"Artist cont...\n  PUSH [tag] 34\t\t\t       // 3.\n  CALLER \t\t\tentId) ext\n  SWAP1 \t\t\tentId) ext\n  JUMP \t\t\t\";\\n\\ninterface IMferMint {\\n ...\ntag 34\t\t\t       // 3.\n  JUMPDEST \t\t\t       // 3.\n  PUSH 1\t\t\t\n  PUSH 1\t\t\t\n  PUSH A0\t\t\t\n  SHL \t\t\t\n  SUB \t\t\t\n  AND \t\t\t() function\");\\n        }\\n\\n ...\n  DUP2 \t\t\t     }\\n\n  PUSH 1\t\t\t\n  PUSH 1\t\t\t\n  PUSH A0\t\t\t\n  SHL \t\t\t\n  SUB \t\t\t\n  AND \t\t\t() function\");\\n        }\\n\\n ...\n  DUP4 \t\t\t);\\n \n  PUSH 2F8788117E7EFF1D82E926EC794901D17C78024A50270940304540A733656F0D\t\t\t() function\");\\n        }\\n\\n ...\n  PUSH 40\t\t\t() function\");\\n        }\\n\\n ...\n  MLOAD \t\t\t() function\");\\n        }\\n\\n ...\n  PUSH 40\t\t\t() function\");\\n        }\\n\\n ...\n  MLOAD \t\t\t() function\");\\n        }\\n\\n ...\n  DUP1 \t\t\t() function\");\\n        }\\n\\n ...\n  SWAP2 \t\t\t() function\");\\n        }\\n\\n ...\n  SUB \t\t\t() function\");\\n        }\\n\\n ...\n  SWAP1 \t\t\t() function\");\\n        }\\n\\n ...\n  LOG4 \t\t\t() function\");\\n        }\\n\\n ...\ntag 33\t\t\t  artistPayee = _owner;\\n     ...\n  JUMPDEST \t\t\t  artistPayee = _owner;\\n     ...\n  POP \t\t\t    require(_owner != ADDRESS_...\n  POP \t\t\t    require(_owner != ADDRESS_...\n  JUMP \t\t\t    require(_owner != ADDRESS_...\ntag 38\t\t\te-Identifier: MIT\\npragma soli...\n  JUMPDEST \t\t\te-Identifier: MIT\\npragma soli...\n  DUP1 \t\t\telin/openzepp\n  MLOAD \t\t\telin/openzepp\n  PUSH 1\t\t\t\n  PUSH 1\t\t\t\n  PUSH A0\t\t\t\n  SHL \t\t\t\n  SUB \t\t\t\n  DUP2 \t\t\tntracts/token/ERC20/extensions...\n  AND \t\t\tntracts/token/ERC20/extensions...\n  DUP2 \t\t\t/v4.9.0/contracts/token/ERC20/...\n  EQ \t\t\t/v4.9.0/contracts/token/ERC20/...\n  PUSH [tag] 41\t\t\tracts/blob/v4.9.0/contracts/to...\n  JUMPI \t\t\tracts/blob/v4.9.0/contracts/to...\n  PUSH 0\t\t\ts\n  DUP1 \t\t\tt\n  REVERT \t\t\t0Metadata.so\ntag 41\t\t\tracts/blob/v4.9.0/contracts/to...\n  JUMPDEST \t\t\tracts/blob/v4.9.0/contracts/to...\n  SWAP2 \t\t\te-Identifier: MIT\\npragma soli...\n  SWAP1 \t\t\te-Identifier: MIT\\npragma soli...\n  POP \t\t\te-Identifier: MIT\\npragma soli...\n  JUMP \t\t\te-Identifier: MIT\\npragma soli...\ntag 3\t\t\tttps://github.com/OpenZeppelin...\n  JUMPDEST \t\t\tttps://github.com/OpenZeppelin...\n  PUSH 0\t\t\tl\";\\nim\n  DUP1 \t\t\trt \"ht\n  PUSH 0\t\t\ts://gi\n  DUP1 \t\t\tub.com\n  PUSH 0\t\t\tpenZep\n  PUSH A0\t\t\tcts\n  DUP7 \t\t\t4.9.0/con\n  DUP9 \t\t\tts/blob\n  SUB \t\t\ttracts/blob/v4.9.0/cont\n  SLT \t\t\t-contracts/blob/v4.9.0/contrac...\n  ISZERO \t\t\tlin-contracts/blob/v4.9.0/cont...\n  PUSH [tag] 43\t\t\tlin-contracts/blob/v4.9.0/cont...\n  JUMPI \t\t\tlin-contracts/blob/v4.9.0/cont...\n  PUSH 0\t\t\tt\n  DUP1 \t\t\te\n  REVERT \t\t\turity/Reentr\ntag 43\t\t\tlin-contracts/blob/v4.9.0/cont...\n  JUMPDEST \t\t\tlin-contracts/blob/v4.9.0/cont...\n  PUSH [tag] 44\t\t\tt \"https://github.com/OpenZepp...\n  DUP7 \t\t\telin/open\n  PUSH [tag] 38\t\t\tt \"https://github.com/OpenZepp...\n  JUMP \t\t\tt \"https://github.com/OpenZepp...\ntag 44\t\t\tt \"https://github.com/OpenZepp...\n  JUMPDEST \t\t\tt \"https://github.com/OpenZepp...\n  SWAP5 \t\t\tol\";\\nimport \"https://github.c...\n  POP \t\t\tol\";\\nimport \"https://github.c...\n  PUSH [tag] 45\t\t\tlob/v4.9.0/contracts/security/...\n  PUSH 20\t\t\tim\n  DUP8 \t\t\table.sol\"\n  ADD \t\t\tPausable.sol\";\\nimp\n  PUSH [tag] 38\t\t\tlob/v4.9.0/contracts/security/...\n  JUMP \t\t\tlob/v4.9.0/contracts/security/...\ntag 45\t\t\tlob/v4.9.0/contracts/security/...\n  JUMPDEST \t\t\tlob/v4.9.0/contracts/security/...\n  SWAP4 \t\t\tontracts/blob/v4.9.0/contracts...\n  POP \t\t\tontracts/blob/v4.9.0/contracts...\n  PUSH [tag] 46\t\t\tcom/OpenZeppelin/openzeppelin-...\n  PUSH 40\t\t\tv4\n  DUP8 \t\t\tracts/blo\n  ADD \t\t\tcontracts/blob/v4.\n  PUSH [tag] 38\t\t\tcom/OpenZeppelin/openzeppelin-...\n  JUMP \t\t\tcom/OpenZeppelin/openzeppelin-...\ntag 46\t\t\tcom/OpenZeppelin/openzeppelin-...\n  JUMPDEST \t\t\tcom/OpenZeppelin/openzeppelin-...\n  SWAP3 \t\t\t://github.com/OpenZeppelin/ope...\n  POP \t\t\t://github.com/OpenZeppelin/ope...\n  PUSH [tag] 47\t\t\t/AccessControl.sol\";\\n\\ninterf...\n  PUSH 60\t\t\t  \n  DUP8 \t\t\tferMint {\n  ADD \t\t\te IMferMint {\\n    \n  PUSH [tag] 38\t\t\t/AccessControl.sol\";\\n\\ninterf...\n  JUMP \t\t\t/AccessControl.sol\";\\n\\ninterf...\ntag 47\t\t\t/AccessControl.sol\";\\n\\ninterf...\n  JUMPDEST \t\t\t/AccessControl.sol\";\\n\\ninterf...\n  SWAP2 \t\t\tcts/access/AccessControl.sol\";...\n  POP \t\t\tcts/access/AccessControl.sol\";...\n  PUSH [tag] 48\t\t\tress to, string calldata payme...\n  PUSH 80\t\t\t\\n  \n  DUP8 \t\t\t) externa\n  ADD \t\t\tntId) external;\\n   \n  PUSH [tag] 38\t\t\tress to, string calldata payme...\n  JUMP \t\t\tress to, string calldata payme...\ntag 48\t\t\tress to, string calldata payme...\n  JUMPDEST \t\t\tress to, string calldata payme...\n  SWAP1 \t\t\tintFor(address to, string call...\n  POP \t\t\tintFor(address to, string call...\n  SWAP3 \t\t\tttps://github.com/OpenZeppelin...\n  SWAP6 \t\t\tttps://github.com/OpenZeppelin...\n  POP \t\t\tttps://github.com/OpenZeppelin...\n  SWAP3 \t\t\tttps://github.com/OpenZeppelin...\n  SWAP6 \t\t\tttps://github.com/OpenZeppelin...\n  SWAP1 \t\t\tttps://github.com/OpenZeppelin...\n  SWAP4 \t\t\tttps://github.com/OpenZeppelin...\n  POP \t\t\tttps://github.com/OpenZeppelin...\n  JUMP \t\t\tttps://github.com/OpenZeppelin...\ntag 39\t\t\t);\\n    event WithdrawnETH(add...\n  JUMPDEST \t\t\t);\\n    event WithdrawnETH(add...\n  PUSH 80\t\t\tcontract KinGallery is AccessC...\n  MLOAD \t\t\tcontract KinGallery is AccessC...\n  PUSH #[$] 0000000000000000000000000000000000000000000000000000000000000000\t\t\tcontract KinGallery is AccessC...\n  PUSH [$] 0000000000000000000000000000000000000000000000000000000000000000\t\t\tcontract KinGallery is AccessC...\n  PUSH 0\t\t\tcontract KinGallery is AccessC...\n  CODECOPY \t\t\tcontract KinGallery is AccessC...\n  PUSH 0\t\t\tcontract KinGallery is AccessC...\n  ASSIGNIMMUTABLE 53\t\t\tcontract KinGallery is AccessC...\n  PUSH #[$] 0000000000000000000000000000000000000000000000000000000000000000\t\t\tcontract KinGallery is AccessC...\n  PUSH 0\t\t\tcontract KinGallery is AccessC...\n  RETURN \t\t\tcontract KinGallery is AccessC...\n.data\n  0:\n    .code\n      PUSH 80\t\t\tcontract KinGallery is AccessC...\n      PUSH 40\t\t\tcontract KinGallery is AccessC...\n      MSTORE \t\t\tcontract KinGallery is AccessC...\n      PUSH 4\t\t\tcontract KinGallery is AccessC...\n      CALLDATASIZE \t\t\tcontract KinGallery is AccessC...\n      LT \t\t\tcontract KinGallery is AccessC...\n      PUSH [tag] 1\t\t\tcontract KinGallery is AccessC...\n      JUMPI \t\t\tcontract KinGallery is AccessC...\n      PUSH 0\t\t\tcontract KinGallery is AccessC...\n      CALLDATALOAD \t\t\tcontract KinGallery is AccessC...\n      PUSH E0\t\t\tcontract KinGallery is AccessC...\n      SHR \t\t\tcontract KinGallery is AccessC...\n      DUP1 \t\t\tcontract KinGallery is AccessC...\n      PUSH 725A8294\t\t\tcontract KinGallery is AccessC...\n      GT \t\t\tcontract KinGallery is AccessC...\n      PUSH [tag] 31\t\t\tcontract KinGallery is AccessC...\n      JUMPI \t\t\tcontract KinGallery is AccessC...\n      DUP1 \t\t\tcontract KinGallery is AccessC...\n      PUSH BBE96B00\t\t\tcontract KinGallery is AccessC...\n      GT \t\t\tcontract KinGallery is AccessC...\n      PUSH [tag] 32\t\t\tcontract KinGallery is AccessC...\n      JUMPI \t\t\tcontract KinGallery is AccessC...\n      DUP1 \t\t\tcontract KinGallery is AccessC...\n      PUSH DB81F99B\t\t\tcontract KinGallery is AccessC...\n      GT \t\t\tcontract KinGallery is AccessC...\n      PUSH [tag] 33\t\t\tcontract KinGallery is AccessC...\n      JUMPI \t\t\tcontract KinGallery is AccessC...\n      DUP1 \t\t\tcontract KinGallery is AccessC...\n      PUSH DB81F99B\t\t\tcontract KinGallery is AccessC...\n      EQ \t\t\tcontract KinGallery is AccessC...\n      PUSH [tag] 27\t\t\tcontract KinGallery is AccessC...\n      JUMPI \t\t\tcontract KinGallery is AccessC...\n      DUP1 \t\t\tcontract KinGallery is AccessC...\n      PUSH E55156B5\t\t\tcontract KinGallery is AccessC...\n      EQ \t\t\tcontract KinGallery is AccessC...\n      PUSH [tag] 28\t\t\tcontract KinGallery is AccessC...\n      JUMPI \t\t\tcontract KinGallery is AccessC...\n      DUP1 \t\t\tcontract KinGallery is AccessC...\n      PUSH EAA60742\t\t\tcontract KinGallery is AccessC...\n      EQ \t\t\tcontract KinGallery is AccessC...\n      PUSH [tag] 29\t\t\tcontract KinGallery is AccessC...\n      JUMPI \t\t\tcontract KinGallery is AccessC...\n      DUP1 \t\t\tcontract KinGallery is AccessC...\n      PUSH F14210A6\t\t\tcontract KinGallery is AccessC...\n      EQ \t\t\tcontract KinGallery is AccessC...\n      PUSH [tag] 30\t\t\tcontract KinGallery is AccessC...\n      JUMPI \t\t\tcontract KinGallery is AccessC...\n      PUSH 0\t\t\tcontract KinGallery is AccessC...\n      DUP1 \t\t\tcontract KinGallery is AccessC...\n      REVERT \t\t\tcontract KinGallery is AccessC...\n    tag 33\t\t\tcontract KinGallery is AccessC...\n      JUMPDEST \t\t\tcontract KinGallery is AccessC...\n      DUP1 \t\t\tcontract KinGallery is AccessC...\n      PUSH BBE96B00\t\t\tcontract KinGallery is AccessC...\n      EQ \t\t\tcontract KinGallery is AccessC...\n      PUSH [tag] 24\t\t\tcontract KinGallery is AccessC...\n      JUMPI \t\t\tcontract KinGallery is AccessC...\n      DUP1 \t\t\tcontract KinGallery is AccessC...\n      PUSH C002D23D\t\t\tcontract KinGallery is AccessC...\n      EQ \t\t\tcontract KinGallery is AccessC...\n      PUSH [tag] 25\t\t\tcontract KinGallery is AccessC...\n      JUMPI \t\t\tcontract KinGallery is AccessC...\n      DUP1 \t\t\tcontract KinGallery is AccessC...\n      PUSH D547741F\t\t\tcontract KinGallery is AccessC...\n      EQ \t\t\tcontract KinGallery is AccessC...\n      PUSH [tag] 26\t\t\tcontract KinGallery is AccessC...\n      JUMPI \t\t\tcontract KinGallery is AccessC...\n      PUSH 0\t\t\tcontract KinGallery is AccessC...\n      DUP1 \t\t\tcontract KinGallery is AccessC...\n      REVERT \t\t\tcontract KinGallery is AccessC...\n    tag 32\t\t\tcontract KinGallery is AccessC...\n      JUMPDEST \t\t\tcontract KinGallery is AccessC...\n      DUP1 \t\t\tcontract KinGallery is AccessC...\n      PUSH 91D14854\t\t\tcontract KinGallery is AccessC...\n      GT \t\t\tcontract KinGallery is AccessC...\n      PUSH [tag] 34\t\t\tcontract KinGallery is AccessC...\n      JUMPI \t\t\tcontract KinGallery is AccessC...\n      DUP1 \t\t\tcontract KinGallery is AccessC...\n      PUSH 91D14854\t\t\tcontract KinGallery is AccessC...\n      EQ \t\t\tcontract KinGallery is AccessC...\n      PUSH [tag] 20\t\t\tcontract KinGallery is AccessC...\n      JUMPI \t\t\tcontract KinGallery is AccessC...\n      DUP1 \t\t\tcontract KinGallery is AccessC...\n      PUSH 926D7D7F\t\t\tcontract KinGallery is AccessC...\n      EQ \t\t\tcontract KinGallery is AccessC...\n      PUSH [tag] 21\t\t\tcontract KinGallery is AccessC...\n      JUMPI \t\t\tcontract KinGallery is AccessC...\n      DUP1 \t\t\tcontract KinGallery is AccessC...\n      PUSH A217FDDF\t\t\tcontract KinGallery is AccessC...\n      EQ \t\t\tcontract KinGallery is AccessC...\n      PUSH [tag] 18\t\t\tcontract KinGallery is AccessC...\n      JUMPI \t\t\tcontract KinGallery is AccessC...\n      DUP1 \t\t\tcontract KinGallery is AccessC...\n      PUSH A93AA503\t\t\tcontract KinGallery is AccessC...\n      EQ \t\t\tcontract KinGallery is AccessC...\n      PUSH [tag] 23\t\t\tcontract KinGallery is AccessC...\n      JUMPI \t\t\tcontract KinGallery is AccessC...\n      PUSH 0\t\t\tcontract KinGallery is AccessC...\n      DUP1 \t\t\tcontract KinGallery is AccessC...\n      REVERT \t\t\tcontract KinGallery is AccessC...\n    tag 34\t\t\tcontract KinGallery is AccessC...\n      JUMPDEST \t\t\tcontract KinGallery is AccessC...\n      DUP1 \t\t\tcontract KinGallery is AccessC...\n      PUSH 725A8294\t\t\tcontract KinGallery is AccessC...\n      EQ \t\t\tcontract KinGallery is AccessC...\n      PUSH [tag] 17\t\t\tcontract KinGallery is AccessC...\n      JUMPI \t\t\tcontract KinGallery is AccessC...\n      DUP1 \t\t\tcontract KinGallery is AccessC...\n      PUSH 75B238FC\t\t\tcontract KinGallery is AccessC...\n      EQ \t\t\tcontract KinGallery is AccessC...\n      PUSH [tag] 18\t\t\tcontract KinGallery is AccessC...\n      JUMPI \t\t\tcontract KinGallery is AccessC...\n      DUP1 \t\t\tcontract KinGallery is AccessC...\n      PUSH 8456CB59\t\t\tcontract KinGallery is AccessC...\n      EQ \t\t\tcontract KinGallery is AccessC...\n      PUSH [tag] 19\t\t\tcontract KinGallery is AccessC...\n      JUMPI \t\t\tcontract KinGallery is AccessC...\n      PUSH 0\t\t\tcontract KinGallery is AccessC...\n      DUP1 \t\t\tcontract KinGallery is AccessC...\n      REVERT \t\t\tcontract KinGallery is AccessC...\n    tag 31\t\t\tcontract KinGallery is AccessC...\n      JUMPDEST \t\t\tcontract KinGallery is AccessC...\n      DUP1 \t\t\tcontract KinGallery is AccessC...\n      PUSH 3F4BA83A\t\t\tcontract KinGallery is AccessC...\n      GT \t\t\tcontract KinGallery is AccessC...\n      PUSH [tag] 35\t\t\tcontract KinGallery is AccessC...\n      JUMPI \t\t\tcontract KinGallery is AccessC...\n      DUP1 \t\t\tcontract KinGallery is AccessC...\n      PUSH 5C975ABB\t\t\tcontract KinGallery is AccessC...\n      GT \t\t\tcontract KinGallery is AccessC...\n      PUSH [tag] 36\t\t\tcontract KinGallery is AccessC...\n      JUMPI \t\t\tcontract KinGallery is AccessC...\n      DUP1 \t\t\tcontract KinGallery is AccessC...\n      PUSH 5C975ABB\t\t\tcontract KinGallery is AccessC...\n      EQ \t\t\tcontract KinGallery is AccessC...\n      PUSH [tag] 13\t\t\tcontract KinGallery is AccessC...\n      JUMPI \t\t\tcontract KinGallery is AccessC...\n      DUP1 \t\t\tcontract KinGallery is AccessC...\n      PUSH 60F0A5AC\t\t\tcontract KinGallery is AccessC...\n      EQ \t\t\tcontract KinGallery is AccessC...\n      PUSH [tag] 14\t\t\tcontract KinGallery is AccessC...\n      JUMPI \t\t\tcontract KinGallery is AccessC...\n      DUP1 \t\t\tcontract KinGallery is AccessC...\n      PUSH 623E752B\t\t\tcontract KinGallery is AccessC...\n      EQ \t\t\tcontract KinGallery is AccessC...\n      PUSH [tag] 15\t\t\tcontract KinGallery is AccessC...\n      JUMPI \t\t\tcontract KinGallery is AccessC...\n      DUP1 \t\t\tcontract KinGallery is AccessC...\n      PUSH 6548E9BC\t\t\tcontract KinGallery is AccessC...\n      EQ \t\t\tcontract KinGallery is AccessC...\n      PUSH [tag] 16\t\t\tcontract KinGallery is AccessC...\n      JUMPI \t\t\tcontract KinGallery is AccessC...\n      PUSH 0\t\t\tcontract KinGallery is AccessC...\n      DUP1 \t\t\tcontract KinGallery is AccessC...\n      REVERT \t\t\tcontract KinGallery is AccessC...\n    tag 36\t\t\tcontract KinGallery is AccessC...\n      JUMPDEST \t\t\tcontract KinGallery is AccessC...\n      DUP1 \t\t\tcontract KinGallery is AccessC...\n      PUSH 3F4BA83A\t\t\tcontract KinGallery is AccessC...\n      EQ \t\t\tcontract KinGallery is AccessC...\n      PUSH [tag] 10\t\t\tcontract KinGallery is AccessC...\n      JUMPI \t\t\tcontract KinGallery is AccessC...\n      DUP1 \t\t\tcontract KinGallery is AccessC...\n      PUSH 46904840\t\t\tcontract KinGallery is AccessC...\n      EQ \t\t\tcontract KinGallery is AccessC...\n      PUSH [tag] 11\t\t\tcontract KinGallery is AccessC...\n      JUMPI \t\t\tcontract KinGallery is AccessC...\n      DUP1 \t\t\tcontract KinGallery is AccessC...\n      PUSH 4AF044AA\t\t\tcontract KinGallery is AccessC...\n      EQ \t\t\tcontract KinGallery is AccessC...\n      PUSH [tag] 12\t\t\tcontract KinGallery is AccessC...\n      JUMPI \t\t\tcontract KinGallery is AccessC...\n      PUSH 0\t\t\tcontract KinGallery is AccessC...\n      DUP1 \t\t\tcontract KinGallery is AccessC...\n      REVERT \t\t\tcontract KinGallery is AccessC...\n    tag 35\t\t\tcontract KinGallery is AccessC...\n      JUMPDEST \t\t\tcontract KinGallery is AccessC...\n      DUP1 \t\t\tcontract KinGallery is AccessC...\n      PUSH 24A9D853\t\t\tcontract KinGallery is AccessC...\n      GT \t\t\tcontract KinGallery is AccessC...\n      PUSH [tag] 37\t\t\tcontract KinGallery is AccessC...\n      JUMPI \t\t\tcontract KinGallery is AccessC...\n      DUP1 \t\t\tcontract KinGallery is AccessC...\n      PUSH 24A9D853\t\t\tcontract KinGallery is AccessC...\n      EQ \t\t\tcontract KinGallery is AccessC...\n      PUSH [tag] 6\t\t\tcontract KinGallery is AccessC...\n      JUMPI \t\t\tcontract KinGallery is AccessC...\n      DUP1 \t\t\tcontract KinGallery is AccessC...\n      PUSH 2F2FF15D\t\t\tcontract KinGallery is AccessC...\n      EQ \t\t\tcontract KinGallery is AccessC...\n      PUSH [tag] 7\t\t\tcontract KinGallery is AccessC...\n      JUMPI \t\t\tcontract KinGallery is AccessC...\n      DUP1 \t\t\tcontract KinGallery is AccessC...\n      PUSH 36568ABE\t\t\tcontract KinGallery is AccessC...\n      EQ \t\t\tcontract KinGallery is AccessC...\n      PUSH [tag] 8\t\t\tcontract KinGallery is AccessC...\n      JUMPI \t\t\tcontract KinGallery is AccessC...\n      DUP1 \t\t\tcontract KinGallery is AccessC...\n      PUSH 3E413BEE\t\t\tcontract KinGallery is AccessC...\n      EQ \t\t\tcontract KinGallery is AccessC...\n      PUSH [tag] 9\t\t\tcontract KinGallery is AccessC...\n      JUMPI \t\t\tcontract KinGallery is AccessC...\n      PUSH 0\t\t\tcontract KinGallery is AccessC...\n      DUP1 \t\t\tcontract KinGallery is AccessC...\n      REVERT \t\t\tcontract KinGallery is AccessC...\n    tag 37\t\t\tcontract KinGallery is AccessC...\n      JUMPDEST \t\t\tcontract KinGallery is AccessC...\n      DUP1 \t\t\tcontract KinGallery is AccessC...\n      PUSH 1FFC9A7\t\t\tcontract KinGallery is AccessC...\n      EQ \t\t\tcontract KinGallery is AccessC...\n      PUSH [tag] 3\t\t\tcontract KinGallery is AccessC...\n      JUMPI \t\t\tcontract KinGallery is AccessC...\n      DUP1 \t\t\tcontract KinGallery is AccessC...\n      PUSH 1EC7605C\t\t\tcontract KinGallery is AccessC...\n      EQ \t\t\tcontract KinGallery is AccessC...\n      PUSH [tag] 4\t\t\tcontract KinGallery is AccessC...\n      JUMPI \t\t\tcontract KinGallery is AccessC...\n      DUP1 \t\t\tcontract KinGallery is AccessC...\n      PUSH 248A9CA3\t\t\tcontract KinGallery is AccessC...\n      EQ \t\t\tcontract KinGallery is AccessC...\n      PUSH [tag] 5\t\t\tcontract KinGallery is AccessC...\n      JUMPI \t\t\tcontract KinGallery is AccessC...\n      PUSH 0\t\t\tcontract KinGallery is AccessC...\n      DUP1 \t\t\tcontract KinGallery is AccessC...\n      REVERT \t\t\tcontract KinGallery is AccessC...\n    tag 1\t\t\tcontract KinGallery is AccessC...\n      JUMPDEST \t\t\tcontract KinGallery is AccessC...\n      CALLDATASIZE \t\t\tcontract KinGallery is AccessC...\n      PUSH [tag] 2\t\t\tcontract KinGallery is AccessC...\n      JUMPI \t\t\tcontract KinGallery is AccessC...\n      PUSH 40\t\t\tETHReceived(msg.sender, msg.va...\n      MLOAD \t\t\tETHReceived(msg.sender, msg.va...\n      CALLVALUE \t\t\tmsg.value\n      DUP2 \t\t\tsions/IERC20Metadata.sol\"\n      MSTORE \t\t\tsions/IERC20Metadata.sol\"\n      CALLER \t\t\tmsg.sender\n      SWAP1 \t\t\tmsg.sender\n      PUSH BFE611B001DFCD411432F7BF0D79B82B4B2EE81511EDAC123A3403C357FB972A\t\t\tETHReceived(msg.sender, msg.va...\n      SWAP1 \t\t\tETHReceived(msg.sender, msg.va...\n      PUSH 20\t\t\t/E\n      ADD \t\t\tcontracts/token/ER\n      PUSH 40\t\t\tETHReceived(msg.sender, msg.va...\n      MLOAD \t\t\tETHReceived(msg.sender, msg.va...\n      DUP1 \t\t\tETHReceived(msg.sender, msg.va...\n      SWAP2 \t\t\tETHReceived(msg.sender, msg.va...\n      SUB \t\t\tETHReceived(msg.sender, msg.va...\n      SWAP1 \t\t\tETHReceived(msg.sender, msg.va...\n      LOG2 \t\t\tETHReceived(msg.sender, msg.va...\n      STOP \t\t\tcontract KinGallery is AccessC...\n    tag 2\t\t\tcontract KinGallery is AccessC...\n      JUMPDEST \t\t\tcontract KinGallery is AccessC...\n      PUSH 0\t\t\tcontract KinGallery is AccessC...\n      DUP1 \t\t\tcontract KinGallery is AccessC...\n      REVERT \t\t\tcontract KinGallery is AccessC...\n    tag 3\t\t\tfunction supportsInterface(byt...\n      JUMPDEST \t\t\tfunction supportsInterface(byt...\n      CALLVALUE \t\t\tfunction supportsInterface(byt...\n      DUP1 \t\t\tfunction supportsInterface(byt...\n      ISZERO \t\t\tfunction supportsInterface(byt...\n      PUSH [tag] 42\t\t\tfunction supportsInterface(byt...\n      JUMPI \t\t\tfunction supportsInterface(byt...\n      PUSH 0\t\t\tfunction supportsInterface(byt...\n      DUP1 \t\t\tfunction supportsInterface(byt...\n      REVERT \t\t\tfunction supportsInterface(byt...\n    tag 42\t\t\tfunction supportsInterface(byt...\n      JUMPDEST \t\t\tfunction supportsInterface(byt...\n      POP \t\t\t\n      PUSH [tag] 43\t\t\tfunction supportsInterface(byt...\n      PUSH [tag] 44\t\t\tfunction supportsInterface(byt...\n      CALLDATASIZE \t\t\tfunction supportsInterface(byt...\n      PUSH 4\t\t\tfunction supportsInterface(byt...\n      PUSH [tag] 45\t\t\tfunction supportsInterface(byt...\n      JUMP \t\t\tfunction supportsInterface(byt...\n    tag 44\t\t\tfunction supportsInterface(byt...\n      JUMPDEST \t\t\tfunction supportsInterface(byt...\n      PUSH [tag] 46\t\t\tfunction supportsInterface(byt...\n      JUMP \t\t\tfunction supportsInterface(byt...\n    tag 43\t\t\tfunction supportsInterface(byt...\n      JUMPDEST \t\t\tfunction supportsInterface(byt...\n      PUSH 40\t\t\tfunction supportsInterface(byt...\n      MLOAD \t\t\tfunction supportsInterface(byt...\n      SWAP1 \t\t\te IMferMint {\\n\n      ISZERO \t\t\te IMferMint {\\n\n      ISZERO \t\t\tnterface IMferMint {\\n \n      DUP2 \t\t\tssControl.sol\";\\n\\ninterface I...\n      MSTORE \t\t\tssControl.sol\";\\n\\ninterface I...\n      PUSH 20\t\t\t/a\n      ADD \t\t\t4.9.0/contracts/ac\n    tag 47\t\t\tfunction supportsInterface(byt...\n      JUMPDEST \t\t\tfunction supportsInterface(byt...\n      PUSH 40\t\t\tfunction supportsInterface(byt...\n      MLOAD \t\t\tfunction supportsInterface(byt...\n      DUP1 \t\t\tfunction supportsInterface(byt...\n      SWAP2 \t\t\tfunction supportsInterface(byt...\n      SUB \t\t\tfunction supportsInterface(byt...\n      SWAP1 \t\t\tfunction supportsInterface(byt...\n      RETURN \t\t\tfunction supportsInterface(byt...\n    tag 4\t\t\tuint256 public constant PAYEE1...\n      JUMPDEST \t\t\tuint256 public constant PAYEE1...\n      CALLVALUE \t\t\tuint256 public constant PAYEE1...\n      DUP1 \t\t\tuint256 public constant PAYEE1...\n      ISZERO \t\t\tuint256 public constant PAYEE1...\n      PUSH [tag] 49\t\t\tuint256 public constant PAYEE1...\n      JUMPI \t\t\tuint256 public constant PAYEE1...\n      PUSH 0\t\t\tuint256 public constant PAYEE1...\n      DUP1 \t\t\tuint256 public constant PAYEE1...\n      REVERT \t\t\tuint256 public constant PAYEE1...\n    tag 49\t\t\tuint256 public constant PAYEE1...\n      JUMPDEST \t\t\tuint256 public constant PAYEE1...\n      POP \t\t\tuint256 public constant PAYEE1...\n      PUSH [tag] 50\t\t\tuint256 public constant PAYEE1...\n      PUSH B5E620F48000\t\t\t200_000_000_000_000\n      DUP2 \t\t\tuint256 public constant PAYEE1...\n      JUMP \t\t\tuint256 public constant PAYEE1...\n    tag 50\t\t\tuint256 public constant PAYEE1...\n      JUMPDEST \t\t\tuint256 public constant PAYEE1...\n      PUSH 40\t\t\tuint256 public constant PAYEE1...\n      MLOAD \t\t\tuint256 public constant PAYEE1...\n      SWAP1 \t\t\tsions/IERC20Metadata.sol\"\n      DUP2 \t\t\tsions/IERC20Metadata.sol\"\n      MSTORE \t\t\tsions/IERC20Metadata.sol\"\n      PUSH 20\t\t\t/E\n      ADD \t\t\tcontracts/token/ER\n      PUSH [tag] 47\t\t\tuint256 public constant PAYEE1...\n      JUMP \t\t\te-Identifier: MIT\\npragma soli...\n    tag 5\t\t\t_ZERO, \"zero relayer\");\\n     ...\n      JUMPDEST \t\t\t_ZERO, \"zero relayer\");\\n     ...\n      CALLVALUE \t\t\t_ZERO, \"zero relayer\");\\n     ...\n      DUP1 \t\t\t_ZERO, \"zero relayer\");\\n     ...\n      ISZERO \t\t\t_ZERO, \"zero relayer\");\\n     ...\n      PUSH [tag] 53\t\t\t_ZERO, \"zero relayer\");\\n     ...\n      JUMPI \t\t\t_ZERO, \"zero relayer\");\\n     ...\n      PUSH 0\t\t\t_ZERO, \"zero relayer\");\\n     ...\n      DUP1 \t\t\t_ZERO, \"zero relayer\");\\n     ...\n      REVERT \t\t\t_ZERO, \"zero relayer\");\\n     ...\n    tag 53\t\t\t_ZERO, \"zero relayer\");\\n     ...\n      JUMPDEST \t\t\t_ZERO, \"zero relayer\");\\n     ...\n      POP \t\t\t\n      PUSH [tag] 50\t\t\t_ZERO, \"zero relayer\");\\n     ...\n      PUSH [tag] 55\t\t\t_ZERO, \"zero relayer\");\\n     ...\n      CALLDATASIZE \t\t\t_ZERO, \"zero relayer\");\\n     ...\n      PUSH 4\t\t\t_ZERO, \"zero relayer\");\\n     ...\n      PUSH [tag] 56\t\t\t_ZERO, \"zero relayer\");\\n     ...\n      JUMP \t\t\t_ZERO, \"zero relayer\");\\n     ...\n    tag 55\t\t\t_ZERO, \"zero relayer\");\\n     ...\n      JUMPDEST \t\t\t_ZERO, \"zero relayer\");\\n     ...\n      PUSH 0\t\t\t  emit \n      SWAP1 \t\t\t_ROLE, _rela\n      DUP2 \t\t\t_ROLE, _rela\n      MSTORE \t\t\t_ROLE, _rela\n      PUSH 20\t\t\t_ROLE, _rela\n      DUP2 \t\t\t_ROLE, _rela\n      SWAP1 \t\t\t_ROLE, _rela\n      MSTORE \t\t\t_ROLE, _rela\n      PUSH 40\t\t\t_ROLE, _rela\n      SWAP1 \t\t\t_ROLE, _rela\n      KECCAK256 \t\t\t_ROLE, _rela\n      PUSH 1\t\t\t_ROLE, _relayer);\\n    \n      ADD \t\t\t_ROLE, _relayer);\\n    \n      SLOAD \t\t\t_ROLE, _relayer);\\n    \n      SWAP1 \t\t\t_ROLE, _relayer);\\n    \n      JUMP \t\t\t_ZERO, \"zero relayer\");\\n     ...\n    tag 6\t\t\tuint256 public feeBps\n      JUMPDEST \t\t\tuint256 public feeBps\n      CALLVALUE \t\t\tuint256 public feeBps\n      DUP1 \t\t\tuint256 public feeBps\n      ISZERO \t\t\tuint256 public feeBps\n      PUSH [tag] 60\t\t\tuint256 public feeBps\n      JUMPI \t\t\tuint256 public feeBps\n      PUSH 0\t\t\tuint256 public feeBps\n      DUP1 \t\t\tuint256 public feeBps\n      REVERT \t\t\tuint256 public feeBps\n    tag 60\t\t\tuint256 public feeBps\n      JUMPDEST \t\t\tuint256 public feeBps\n      POP \t\t\tuint256 public feeBps\n      PUSH [tag] 50\t\t\tuint256 public feeBps\n      PUSH 3\t\t\tuint256 public feeBps\n      SLOAD \t\t\tuint256 public feeBps\n      DUP2 \t\t\tuint256 public feeBps\n      JUMP \t\t\tuint256 public feeBps\n    tag 7\t\t\tturns (bool) {\\n        return...\n      JUMPDEST \t\t\tturns (bool) {\\n        return...\n      CALLVALUE \t\t\tturns (bool) {\\n        return...\n      DUP1 \t\t\tturns (bool) {\\n        return...\n      ISZERO \t\t\tturns (bool) {\\n        return...\n      PUSH [tag] 64\t\t\tturns (bool) {\\n        return...\n      JUMPI \t\t\tturns (bool) {\\n        return...\n      PUSH 0\t\t\tturns (bool) {\\n        return...\n      DUP1 \t\t\tturns (bool) {\\n        return...\n      REVERT \t\t\tturns (bool) {\\n        return...\n    tag 64\t\t\tturns (bool) {\\n        return...\n      JUMPDEST \t\t\tturns (bool) {\\n        return...\n      POP \t\t\t\n      PUSH [tag] 65\t\t\tturns (bool) {\\n        return...\n      PUSH [tag] 66\t\t\tturns (bool) {\\n        return...\n      CALLDATASIZE \t\t\tturns (bool) {\\n        return...\n      PUSH 4\t\t\tturns (bool) {\\n        return...\n      PUSH [tag] 67\t\t\tturns (bool) {\\n        return...\n      JUMP \t\t\tturns (bool) {\\n        return...\n    tag 66\t\t\tturns (bool) {\\n        return...\n      JUMPDEST \t\t\tturns (bool) {\\n        return...\n      PUSH [tag] 68\t\t\tturns (bool) {\\n        return...\n      JUMP \t\t\tturns (bool) {\\n        return...\n    tag 65\t\t\tturns (bool) {\\n        return...\n      JUMPDEST \t\t\tturns (bool) {\\n        return...\n      STOP \t\t\tturns (bool) {\\n        return...\n    tag 8\t\t\t and deduct fee (if applicable...\n      JUMPDEST \t\t\t and deduct fee (if applicable...\n      CALLVALUE \t\t\t and deduct fee (if applicable...\n      DUP1 \t\t\t and deduct fee (if applicable...\n      ISZERO \t\t\t and deduct fee (if applicable...\n      PUSH [tag] 69\t\t\t and deduct fee (if applicable...\n      JUMPI \t\t\t and deduct fee (if applicable...\n      PUSH 0\t\t\t and deduct fee (if applicable...\n      DUP1 \t\t\t and deduct fee (if applicable...\n      REVERT \t\t\t and deduct fee (if applicable...\n    tag 69\t\t\t and deduct fee (if applicable...\n      JUMPDEST \t\t\t and deduct fee (if applicable...\n      POP \t\t\t\n      PUSH [tag] 65\t\t\t and deduct fee (if applicable...\n      PUSH [tag] 71\t\t\t and deduct fee (if applicable...\n      CALLDATASIZE \t\t\t and deduct fee (if applicable...\n      PUSH 4\t\t\t and deduct fee (if applicable...\n      PUSH [tag] 67\t\t\t and deduct fee (if applicable...\n      JUMP \t\t\t and deduct fee (if applicable...\n    tag 71\t\t\t and deduct fee (if applicable...\n      JUMPDEST \t\t\t and deduct fee (if applicable...\n      PUSH [tag] 72\t\t\t and deduct fee (if applicable...\n      JUMP \t\t\t and deduct fee (if applicable...\n    tag 9\t\t\tIERC20Metadata public immutabl...\n      JUMPDEST \t\t\tIERC20Metadata public immutabl...\n      CALLVALUE \t\t\tIERC20Metadata public immutabl...\n      DUP1 \t\t\tIERC20Metadata public immutabl...\n      ISZERO \t\t\tIERC20Metadata public immutabl...\n      PUSH [tag] 73\t\t\tIERC20Metadata public immutabl...\n      JUMPI \t\t\tIERC20Metadata public immutabl...\n      PUSH 0\t\t\tIERC20Metadata public immutabl...\n      DUP1 \t\t\tIERC20Metadata public immutabl...\n      REVERT \t\t\tIERC20Metadata public immutabl...\n    tag 73\t\t\tIERC20Metadata public immutabl...\n      JUMPDEST \t\t\tIERC20Metadata public immutabl...\n      POP \t\t\tIERC20Metadata public immutabl...\n      PUSH [tag] 74\t\t\tIERC20Metadata public immutabl...\n      PUSHIMMUTABLE 53\t\t\tIERC20Metadata public immutabl...\n      DUP2 \t\t\tIERC20Metadata public immutabl...\n      JUMP \t\t\tIERC20Metadata public immutabl...\n    tag 74\t\t\tIERC20Metadata public immutabl...\n      JUMPDEST \t\t\tIERC20Metadata public immutabl...\n      PUSH 40\t\t\tIERC20Metadata public immutabl...\n      MLOAD \t\t\tIERC20Metadata public immutabl...\n      PUSH 1\t\t\t\n      PUSH 1\t\t\t\n      PUSH A0\t\t\t\n      SHL \t\t\t\n      SUB \t\t\t\n      SWAP1 \t\t\t_000_000; // 0.0001 ETH (Galle...\n      SWAP2 \t\t\t_000_000; // 0.0001 ETH (Galle...\n      AND \t\t\t_000_000; // 0.0001 ETH (Galle...\n      DUP2 \t\t\tOUNT = 100_000_000_000_000; //...\n      MSTORE \t\t\tOUNT = 100_000_000_000_000; //...\n      PUSH 20\t\t\tnt\n      ADD \t\t\t6 public constant \n      PUSH [tag] 47\t\t\tIERC20Metadata public immutabl...\n      JUMP \t\t\td at deployment)\\n    address ...\n    tag 10\t\t\tfunction unpause() external on...\n      JUMPDEST \t\t\tfunction unpause() external on...\n      CALLVALUE \t\t\tfunction unpause() external on...\n      DUP1 \t\t\tfunction unpause() external on...\n      ISZERO \t\t\tfunction unpause() external on...\n      PUSH [tag] 78\t\t\tfunction unpause() external on...\n      JUMPI \t\t\tfunction unpause() external on...\n      PUSH 0\t\t\tfunction unpause() external on...\n      DUP1 \t\t\tfunction unpause() external on...\n      REVERT \t\t\tfunction unpause() external on...\n    tag 78\t\t\tfunction unpause() external on...\n      JUMPDEST \t\t\tfunction unpause() external on...\n      POP \t\t\tfunction unpause() external on...\n      PUSH [tag] 65\t\t\tfunction unpause() external on...\n      PUSH [tag] 80\t\t\tfunction unpause() external on...\n      JUMP \t\t\tfunction unpause() external on...\n    tag 11\t\t\taddress public feeRecipient\n      JUMPDEST \t\t\taddress public feeRecipient\n      CALLVALUE \t\t\taddress public feeRecipient\n      DUP1 \t\t\taddress public feeRecipient\n      ISZERO \t\t\taddress public feeRecipient\n      PUSH [tag] 81\t\t\taddress public feeRecipient\n      JUMPI \t\t\taddress public feeRecipient\n      PUSH 0\t\t\taddress public feeRecipient\n      DUP1 \t\t\taddress public feeRecipient\n      REVERT \t\t\taddress public feeRecipient\n    tag 81\t\t\taddress public feeRecipient\n      JUMPDEST \t\t\taddress public feeRecipient\n      POP \t\t\t\n      PUSH 2\t\t\taddress public feeRecipient\n      SLOAD \t\t\taddress public feeRecipient\n      PUSH [tag] 74\t\t\taddress public feeRecipient\n      SWAP1 \t\t\taddress public feeRecipient\n      PUSH 100\t\t\taddress public feeRecipient\n      SWAP1 \t\t\taddress public feeRecipient\n      DIV \t\t\taddress public feeRecipient\n      PUSH 1\t\t\t\n      PUSH 1\t\t\t\n      PUSH A0\t\t\t\n      SHL \t\t\t\n      SUB \t\t\t\n      AND \t\t\taddress public feeRecipient\n      DUP2 \t\t\taddress public feeRecipient\n      JUMP \t\t\taddress public feeRecipient\n    tag 12\t\t\tuint256 public constant PAYEE2...\n      JUMPDEST \t\t\tuint256 public constant PAYEE2...\n      CALLVALUE \t\t\tuint256 public constant PAYEE2...\n      DUP1 \t\t\tuint256 public constant PAYEE2...\n      ISZERO \t\t\tuint256 public constant PAYEE2...\n      PUSH [tag] 86\t\t\tuint256 public constant PAYEE2...\n      JUMPI \t\t\tuint256 public constant PAYEE2...\n      PUSH 0\t\t\tuint256 public constant PAYEE2...\n      DUP1 \t\t\tuint256 public constant PAYEE2...\n      REVERT \t\t\tuint256 public constant PAYEE2...\n    tag 86\t\t\tuint256 public constant PAYEE2...\n      JUMPDEST \t\t\tuint256 public constant PAYEE2...\n      POP \t\t\tuint256 public constant PAYEE2...\n      PUSH [tag] 50\t\t\tuint256 public constant PAYEE2...\n      PUSH 5AF3107A4000\t\t\t100_000_000_000_000\n      DUP2 \t\t\tuint256 public constant PAYEE2...\n      JUMP \t\t\tuint256 public constant PAYEE2...\n    tag 13\t\t\t.0002 ETH (Artist)\\n    uint25...\n      JUMPDEST \t\t\t.0002 ETH (Artist)\\n    uint25...\n      CALLVALUE \t\t\t.0002 ETH (Artist)\\n    uint25...\n      DUP1 \t\t\t.0002 ETH (Artist)\\n    uint25...\n      ISZERO \t\t\t.0002 ETH (Artist)\\n    uint25...\n      PUSH [tag] 90\t\t\t.0002 ETH (Artist)\\n    uint25...\n      JUMPI \t\t\t.0002 ETH (Artist)\\n    uint25...\n      PUSH 0\t\t\t.0002 ETH (Artist)\\n    uint25...\n      DUP1 \t\t\t.0002 ETH (Artist)\\n    uint25...\n      REVERT \t\t\t.0002 ETH (Artist)\\n    uint25...\n    tag 90\t\t\t.0002 ETH (Artist)\\n    uint25...\n      JUMPDEST \t\t\t.0002 ETH (Artist)\\n    uint25...\n      POP \t\t\t\n      PUSH 2\t\t\t_000_00\n      SLOAD \t\t\t_000_00\n      PUSH FF\t\t\t_000_00\n      AND \t\t\t_000_00\n      PUSH [tag] 43\t\t\t.0002 ETH (Artist)\\n    uint25...\n      JUMP \t\t\t.0002 ETH (Artist)\\n    uint25...\n    tag 14\t\t\tfunction removeRelayer(address...\n      JUMPDEST \t\t\tfunction removeRelayer(address...\n      CALLVALUE \t\t\tfunction removeRelayer(address...\n      DUP1 \t\t\tfunction removeRelayer(address...\n      ISZERO \t\t\tfunction removeRelayer(address...\n      PUSH [tag] 94\t\t\tfunction removeRelayer(address...\n      JUMPI \t\t\tfunction removeRelayer(address...\n      PUSH 0\t\t\tfunction removeRelayer(address...\n      DUP1 \t\t\tfunction removeRelayer(address...\n      REVERT \t\t\tfunction removeRelayer(address...\n    tag 94\t\t\tfunction removeRelayer(address...\n      JUMPDEST \t\t\tfunction removeRelayer(address...\n      POP \t\t\t\n      PUSH [tag] 65\t\t\tfunction removeRelayer(address...\n      PUSH [tag] 96\t\t\tfunction removeRelayer(address...\n      CALLDATASIZE \t\t\tfunction removeRelayer(address...\n      PUSH 4\t\t\tfunction removeRelayer(address...\n      PUSH [tag] 97\t\t\tfunction removeRelayer(address...\n      JUMP \t\t\tfunction removeRelayer(address...\n    tag 96\t\t\tfunction removeRelayer(address...\n      JUMPDEST \t\t\tfunction removeRelayer(address...\n      PUSH [tag] 98\t\t\tfunction removeRelayer(address...\n      JUMP \t\t\tfunction removeRelayer(address...\n    tag 15\t\t\tmapping(string => bool) public...\n      JUMPDEST \t\t\tmapping(string => bool) public...\n      CALLVALUE \t\t\tmapping(string => bool) public...\n      DUP1 \t\t\tmapping(string => bool) public...\n      ISZERO \t\t\tmapping(string => bool) public...\n      PUSH [tag] 99\t\t\tmapping(string => bool) public...\n      JUMPI \t\t\tmapping(string => bool) public...\n      PUSH 0\t\t\tmapping(string => bool) public...\n      DUP1 \t\t\tmapping(string => bool) public...\n      REVERT \t\t\tmapping(string => bool) public...\n    tag 99\t\t\tmapping(string => bool) public...\n      JUMPDEST \t\t\tmapping(string => bool) public...\n      POP \t\t\t\n      PUSH [tag] 43\t\t\tmapping(string => bool) public...\n      PUSH [tag] 101\t\t\tmapping(string => bool) public...\n      CALLDATASIZE \t\t\tmapping(string => bool) public...\n      PUSH 4\t\t\tmapping(string => bool) public...\n      PUSH [tag] 102\t\t\tmapping(string => bool) public...\n      JUMP \t\t\tmapping(string => bool) public...\n    tag 101\t\t\tmapping(string => bool) public...\n      JUMPDEST \t\t\tmapping(string => bool) public...\n      DUP1 \t\t\tmapping(string => bool) public...\n      MLOAD \t\t\tmapping(string => bool) public...\n      PUSH 20\t\t\tmapping(string => bool) public...\n      DUP2 \t\t\tmapping(string => bool) public...\n      DUP4 \t\t\tmapping(string => bool) public...\n      ADD \t\t\tmapping(string => bool) public...\n      DUP2 \t\t\tmapping(string => bool) public...\n      ADD \t\t\tmapping(string => bool) public...\n      DUP1 \t\t\tmapping(string => bool) public...\n      MLOAD \t\t\tmapping(string => bool) public...\n      PUSH 5\t\t\tmapping(string => bool) public...\n      DUP3 \t\t\tmapping(string => bool) public...\n      MSTORE \t\t\tmapping(string => bool) public...\n      SWAP3 \t\t\tmapping(string => bool) public...\n      DUP3 \t\t\tmapping(string => bool) public...\n      ADD \t\t\tmapping(string => bool) public...\n      SWAP2 \t\t\tmapping(string => bool) public...\n      SWAP1 \t\t\tmapping(string => bool) public...\n      SWAP4 \t\t\tmapping(string => bool) public...\n      ADD \t\t\tmapping(string => bool) public...\n      KECCAK256 \t\t\tmapping(string => bool) public...\n      SWAP2 \t\t\tmapping(string => bool) public...\n      MSTORE \t\t\tmapping(string => bool) public...\n      SLOAD \t\t\tmapping(string => bool) public...\n      PUSH FF\t\t\tmapping(string => bool) public...\n      AND \t\t\tmapping(string => bool) public...\n      DUP2 \t\t\tmapping(string => bool) public...\n      JUMP \t\t\tmapping(string => bool) public...\n    tag 16\t\t\tfunction setRelayer(address _r...\n      JUMPDEST \t\t\tfunction setRelayer(address _r...\n      CALLVALUE \t\t\tfunction setRelayer(address _r...\n      DUP1 \t\t\tfunction setRelayer(address _r...\n      ISZERO \t\t\tfunction setRelayer(address _r...\n      PUSH [tag] 105\t\t\tfunction setRelayer(address _r...\n      JUMPI \t\t\tfunction setRelayer(address _r...\n      PUSH 0\t\t\tfunction setRelayer(address _r...\n      DUP1 \t\t\tfunction setRelayer(address _r...\n      REVERT \t\t\tfunction setRelayer(address _r...\n    tag 105\t\t\tfunction setRelayer(address _r...\n      JUMPDEST \t\t\tfunction setRelayer(address _r...\n      POP \t\t\t\n      PUSH [tag] 65\t\t\tfunction setRelayer(address _r...\n      PUSH [tag] 107\t\t\tfunction setRelayer(address _r...\n      CALLDATASIZE \t\t\tfunction setRelayer(address _r...\n      PUSH 4\t\t\tfunction setRelayer(address _r...\n      PUSH [tag] 97\t\t\tfunction setRelayer(address _r...\n      JUMP \t\t\tfunction setRelayer(address _r...\n    tag 107\t\t\tfunction setRelayer(address _r...\n      JUMPDEST \t\t\tfunction setRelayer(address _r...\n      PUSH [tag] 108\t\t\tfunction setRelayer(address _r...\n      JUMP \t\t\tfunction setRelayer(address _r...\n    tag 17\t\t\tfunction payAndMint(\\n        ...\n      JUMPDEST \t\t\tfunction payAndMint(\\n        ...\n      PUSH [tag] 65\t\t\tfunction payAndMint(\\n        ...\n      PUSH [tag] 110\t\t\tfunction payAndMint(\\n        ...\n      CALLDATASIZE \t\t\tfunction payAndMint(\\n        ...\n      PUSH 4\t\t\tfunction payAndMint(\\n        ...\n      PUSH [tag] 111\t\t\tfunction payAndMint(\\n        ...\n      JUMP \t\t\tfunction payAndMint(\\n        ...\n    tag 110\t\t\tfunction payAndMint(\\n        ...\n      JUMPDEST \t\t\tfunction payAndMint(\\n        ...\n      PUSH [tag] 112\t\t\tfunction payAndMint(\\n        ...\n      JUMP \t\t\tfunction payAndMint(\\n        ...\n    tag 18\t\t\tbytes32 public constant ADMIN_...\n      JUMPDEST \t\t\tbytes32 public constant ADMIN_...\n      CALLVALUE \t\t\tbytes32 public constant ADMIN_...\n      DUP1 \t\t\tbytes32 public constant ADMIN_...\n      ISZERO \t\t\tbytes32 public constant ADMIN_...\n      PUSH [tag] 113\t\t\tbytes32 public constant ADMIN_...\n      JUMPI \t\t\tbytes32 public constant ADMIN_...\n      PUSH 0\t\t\tbytes32 public constant ADMIN_...\n      DUP1 \t\t\tbytes32 public constant ADMIN_...\n      REVERT \t\t\tbytes32 public constant ADMIN_...\n    tag 113\t\t\tbytes32 public constant ADMIN_...\n      JUMPDEST \t\t\tbytes32 public constant ADMIN_...\n      POP \t\t\t\n      PUSH [tag] 50\t\t\tbytes32 public constant ADMIN_...\n      PUSH 0\t\t\tunt)\n      DUP2 \t\t\tbytes32 public constant ADMIN_...\n      JUMP \t\t\tbytes32 public constant ADMIN_...\n    tag 19\t\t\tfunction pause() external only...\n      JUMPDEST \t\t\tfunction pause() external only...\n      CALLVALUE \t\t\tfunction pause() external only...\n      DUP1 \t\t\tfunction pause() external only...\n      ISZERO \t\t\tfunction pause() external only...\n      PUSH [tag] 117\t\t\tfunction pause() external only...\n      JUMPI \t\t\tfunction pause() external only...\n      PUSH 0\t\t\tfunction pause() external only...\n      DUP1 \t\t\tfunction pause() external only...\n      REVERT \t\t\tfunction pause() external only...\n    tag 117\t\t\tfunction pause() external only...\n      JUMPDEST \t\t\tfunction pause() external only...\n      POP \t\t\tfunction pause() external only...\n      PUSH [tag] 65\t\t\tfunction pause() external only...\n      PUSH [tag] 119\t\t\tfunction pause() external only...\n      JUMP \t\t\tfunction pause() external only...\n    tag 20\t\t\t_usdc != ADDRESS_ZERO, \"USDC a...\n      JUMPDEST \t\t\t_usdc != ADDRESS_ZERO, \"USDC a...\n      CALLVALUE \t\t\t_usdc != ADDRESS_ZERO, \"USDC a...\n      DUP1 \t\t\t_usdc != ADDRESS_ZERO, \"USDC a...\n      ISZERO \t\t\t_usdc != ADDRESS_ZERO, \"USDC a...\n      PUSH [tag] 120\t\t\t_usdc != ADDRESS_ZERO, \"USDC a...\n      JUMPI \t\t\t_usdc != ADDRESS_ZERO, \"USDC a...\n      PUSH 0\t\t\t_usdc != ADDRESS_ZERO, \"USDC a...\n      DUP1 \t\t\t_usdc != ADDRESS_ZERO, \"USDC a...\n      REVERT \t\t\t_usdc != ADDRESS_ZERO, \"USDC a...\n    tag 120\t\t\t_usdc != ADDRESS_ZERO, \"USDC a...\n      JUMPDEST \t\t\t_usdc != ADDRESS_ZERO, \"USDC a...\n      POP \t\t\t\n      PUSH [tag] 43\t\t\t_usdc != ADDRESS_ZERO, \"USDC a...\n      PUSH [tag] 122\t\t\t_usdc != ADDRESS_ZERO, \"USDC a...\n      CALLDATASIZE \t\t\t_usdc != ADDRESS_ZERO, \"USDC a...\n      PUSH 4\t\t\t_usdc != ADDRESS_ZERO, \"USDC a...\n      PUSH [tag] 67\t\t\t_usdc != ADDRESS_ZERO, \"USDC a...\n      JUMP \t\t\t_usdc != ADDRESS_ZERO, \"USDC a...\n    tag 122\t\t\t_usdc != ADDRESS_ZERO, \"USDC a...\n      JUMPDEST \t\t\t_usdc != ADDRESS_ZERO, \"USDC a...\n      PUSH [tag] 123\t\t\t_usdc != ADDRESS_ZERO, \"USDC a...\n      JUMP \t\t\t_usdc != ADDRESS_ZERO, \"USDC a...\n    tag 21\t\t\tbytes32 public constant RELAYE...\n      JUMPDEST \t\t\tbytes32 public constant RELAYE...\n      CALLVALUE \t\t\tbytes32 public constant RELAYE...\n      DUP1 \t\t\tbytes32 public constant RELAYE...\n      ISZERO \t\t\tbytes32 public constant RELAYE...\n      PUSH [tag] 125\t\t\tbytes32 public constant RELAYE...\n      JUMPI \t\t\tbytes32 public constant RELAYE...\n      PUSH 0\t\t\tbytes32 public constant RELAYE...\n      DUP1 \t\t\tbytes32 public constant RELAYE...\n      REVERT \t\t\tbytes32 public constant RELAYE...\n    tag 125\t\t\tbytes32 public constant RELAYE...\n      JUMPDEST \t\t\tbytes32 public constant RELAYE...\n      POP \t\t\tbytes32 public constant RELAYE...\n      PUSH [tag] 50\t\t\tbytes32 public constant RELAYE...\n      PUSH 0\t\t\t\n      DUP1 \t\t\t\n      MLOAD \t\t\t\n      PUSH 20\t\t\t\n      PUSH data 403133B1402CFE4D9C8C47E614CC41ED4051237B14DE112F0B24C8D3D6AA6CAD\t\t\t\n      DUP4 \t\t\t\n      CODECOPY \t\t\t\n      DUP2 \t\t\t\n      MLOAD \t\t\t\n      SWAP2 \t\t\t\n      MSTORE \t\t\t\n      DUP2 \t\t\tbytes32 public constant RELAYE...\n      JUMP \t\t\tbytes32 public constant RELAYE...\n    tag 23\t\t\tfunction setGalleryPayee(addre...\n      JUMPDEST \t\t\tfunction setGalleryPayee(addre...\n      CALLVALUE \t\t\tfunction setGalleryPayee(addre...\n      DUP1 \t\t\tfunction setGalleryPayee(addre...\n      ISZERO \t\t\tfunction setGalleryPayee(addre...\n      PUSH [tag] 133\t\t\tfunction setGalleryPayee(addre...\n      JUMPI \t\t\tfunction setGalleryPayee(addre...\n      PUSH 0\t\t\tfunction setGalleryPayee(addre...\n      DUP1 \t\t\tfunction setGalleryPayee(addre...\n      REVERT \t\t\tfunction setGalleryPayee(addre...\n    tag 133\t\t\tfunction setGalleryPayee(addre...\n      JUMPDEST \t\t\tfunction setGalleryPayee(addre...\n      POP \t\t\t\n      PUSH [tag] 65\t\t\tfunction setGalleryPayee(addre...\n      PUSH [tag] 135\t\t\tfunction setGalleryPayee(addre...\n      CALLDATASIZE \t\t\tfunction setGalleryPayee(addre...\n      PUSH 4\t\t\tfunction setGalleryPayee(addre...\n      PUSH [tag] 97\t\t\tfunction setGalleryPayee(addre...\n      JUMP \t\t\tfunction setGalleryPayee(addre...\n    tag 135\t\t\tfunction setGalleryPayee(addre...\n      JUMPDEST \t\t\tfunction setGalleryPayee(addre...\n      PUSH [tag] 136\t\t\tfunction setGalleryPayee(addre...\n      JUMP \t\t\tfunction setGalleryPayee(addre...\n    tag 24\t\t\tfunction processPayment(\\n    ...\n      JUMPDEST \t\t\tfunction processPayment(\\n    ...\n      CALLVALUE \t\t\tfunction processPayment(\\n    ...\n      DUP1 \t\t\tfunction processPayment(\\n    ...\n      ISZERO \t\t\tfunction processPayment(\\n    ...\n      PUSH [tag] 137\t\t\tfunction processPayment(\\n    ...\n      JUMPI \t\t\tfunction processPayment(\\n    ...\n      PUSH 0\t\t\tfunction processPayment(\\n    ...\n      DUP1 \t\t\tfunction processPayment(\\n    ...\n      REVERT \t\t\tfunction processPayment(\\n    ...\n    tag 137\t\t\tfunction processPayment(\\n    ...\n      JUMPDEST \t\t\tfunction processPayment(\\n    ...\n      POP \t\t\t\n      PUSH [tag] 65\t\t\tfunction processPayment(\\n    ...\n      PUSH [tag] 139\t\t\tfunction processPayment(\\n    ...\n      CALLDATASIZE \t\t\tfunction processPayment(\\n    ...\n      PUSH 4\t\t\tfunction processPayment(\\n    ...\n      PUSH [tag] 140\t\t\tfunction processPayment(\\n    ...\n      JUMP \t\t\tfunction processPayment(\\n    ...\n    tag 139\t\t\tfunction processPayment(\\n    ...\n      JUMPDEST \t\t\tfunction processPayment(\\n    ...\n      PUSH [tag] 141\t\t\tfunction processPayment(\\n    ...\n      JUMP \t\t\tfunction processPayment(\\n    ...\n    tag 25\t\t\tuint256 public constant MINT_P...\n      JUMPDEST \t\t\tuint256 public constant MINT_P...\n      CALLVALUE \t\t\tuint256 public constant MINT_P...\n      DUP1 \t\t\tuint256 public constant MINT_P...\n      ISZERO \t\t\tuint256 public constant MINT_P...\n      PUSH [tag] 142\t\t\tuint256 public constant MINT_P...\n      JUMPI \t\t\tuint256 public constant MINT_P...\n      PUSH 0\t\t\tuint256 public constant MINT_P...\n      DUP1 \t\t\tuint256 public constant MINT_P...\n      REVERT \t\t\tuint256 public constant MINT_P...\n    tag 142\t\t\tuint256 public constant MINT_P...\n      JUMPDEST \t\t\tuint256 public constant MINT_P...\n      POP \t\t\tuint256 public constant MINT_P...\n      PUSH [tag] 50\t\t\tuint256 public constant MINT_P...\n      PUSH 110D9316EC000\t\t\t300_000_000_000_000\n      DUP2 \t\t\tuint256 public constant MINT_P...\n      JUMP \t\t\tuint256 public constant MINT_P...\n    tag 26\t\t\t uint256 contractBalance = usd...\n      JUMPDEST \t\t\t uint256 contractBalance = usd...\n      CALLVALUE \t\t\t uint256 contractBalance = usd...\n      DUP1 \t\t\t uint256 contractBalance = usd...\n      ISZERO \t\t\t uint256 contractBalance = usd...\n      PUSH [tag] 146\t\t\t uint256 contractBalance = usd...\n      JUMPI \t\t\t uint256 contractBalance = usd...\n      PUSH 0\t\t\t uint256 contractBalance = usd...\n      DUP1 \t\t\t uint256 contractBalance = usd...\n      REVERT \t\t\t uint256 contractBalance = usd...\n    tag 146\t\t\t uint256 contractBalance = usd...\n      JUMPDEST \t\t\t uint256 contractBalance = usd...\n      POP \t\t\t\n      PUSH [tag] 65\t\t\t uint256 contractBalance = usd...\n      PUSH [tag] 148\t\t\t uint256 contractBalance = usd...\n      CALLDATASIZE \t\t\t uint256 contractBalance = usd...\n      PUSH 4\t\t\t uint256 contractBalance = usd...\n      PUSH [tag] 67\t\t\t uint256 contractBalance = usd...\n      JUMP \t\t\t uint256 contractBalance = usd...\n    tag 148\t\t\t uint256 contractBalance = usd...\n      JUMPDEST \t\t\t uint256 contractBalance = usd...\n      PUSH [tag] 149\t\t\t uint256 contractBalance = usd...\n      JUMP \t\t\t uint256 contractBalance = usd...\n    tag 27\t\t\tfunction withdrawUSDC(uint256 ...\n      JUMPDEST \t\t\tfunction withdrawUSDC(uint256 ...\n      CALLVALUE \t\t\tfunction withdrawUSDC(uint256 ...\n      DUP1 \t\t\tfunction withdrawUSDC(uint256 ...\n      ISZERO \t\t\tfunction withdrawUSDC(uint256 ...\n      PUSH [tag] 150\t\t\tfunction withdrawUSDC(uint256 ...\n      JUMPI \t\t\tfunction withdrawUSDC(uint256 ...\n      PUSH 0\t\t\tfunction withdrawUSDC(uint256 ...\n      DUP1 \t\t\tfunction withdrawUSDC(uint256 ...\n      REVERT \t\t\tfunction withdrawUSDC(uint256 ...\n    tag 150\t\t\tfunction withdrawUSDC(uint256 ...\n      JUMPDEST \t\t\tfunction withdrawUSDC(uint256 ...\n      POP \t\t\t\n      PUSH [tag] 65\t\t\tfunction withdrawUSDC(uint256 ...\n      PUSH [tag] 152\t\t\tfunction withdrawUSDC(uint256 ...\n      CALLDATASIZE \t\t\tfunction withdrawUSDC(uint256 ...\n      PUSH 4\t\t\tfunction withdrawUSDC(uint256 ...\n      PUSH [tag] 56\t\t\tfunction withdrawUSDC(uint256 ...\n      JUMP \t\t\tfunction withdrawUSDC(uint256 ...\n    tag 152\t\t\tfunction withdrawUSDC(uint256 ...\n      JUMPDEST \t\t\tfunction withdrawUSDC(uint256 ...\n      PUSH [tag] 154\t\t\tfunction withdrawUSDC(uint256 ...\n      JUMP \t\t\tfunction withdrawUSDC(uint256 ...\n    tag 28\t\t\tfunction setFee(address _recip...\n      JUMPDEST \t\t\tfunction setFee(address _recip...\n      CALLVALUE \t\t\tfunction setFee(address _recip...\n      DUP1 \t\t\tfunction setFee(address _recip...\n      ISZERO \t\t\tfunction setFee(address _recip...\n      PUSH [tag] 155\t\t\tfunction setFee(address _recip...\n      JUMPI \t\t\tfunction setFee(address _recip...\n      PUSH 0\t\t\tfunction setFee(address _recip...\n      DUP1 \t\t\tfunction setFee(address _recip...\n      REVERT \t\t\tfunction setFee(address _recip...\n    tag 155\t\t\tfunction setFee(address _recip...\n      JUMPDEST \t\t\tfunction setFee(address _recip...\n      POP \t\t\t\n      PUSH [tag] 65\t\t\tfunction setFee(address _recip...\n      PUSH [tag] 157\t\t\tfunction setFee(address _recip...\n      CALLDATASIZE \t\t\tfunction setFee(address _recip...\n      PUSH 4\t\t\tfunction setFee(address _recip...\n      PUSH [tag] 158\t\t\tfunction setFee(address _recip...\n      JUMP \t\t\tfunction setFee(address _recip...\n    tag 157\t\t\tfunction setFee(address _recip...\n      JUMPDEST \t\t\tfunction setFee(address _recip...\n      PUSH [tag] 159\t\t\tfunction setFee(address _recip...\n      JUMP \t\t\tfunction setFee(address _recip...\n    tag 29\t\t\taddress public payee2\n      JUMPDEST \t\t\taddress public payee2\n      CALLVALUE \t\t\taddress public payee2\n      DUP1 \t\t\taddress public payee2\n      ISZERO \t\t\taddress public payee2\n      PUSH [tag] 160\t\t\taddress public payee2\n      JUMPI \t\t\taddress public payee2\n      PUSH 0\t\t\taddress public payee2\n      DUP1 \t\t\taddress public payee2\n      REVERT \t\t\taddress public payee2\n    tag 160\t\t\taddress public payee2\n      JUMPDEST \t\t\taddress public payee2\n      POP \t\t\t\n      PUSH 4\t\t\taddress public payee2\n      SLOAD \t\t\taddress public payee2\n      PUSH [tag] 74\t\t\taddress public payee2\n      SWAP1 \t\t\taddress public payee2\n      PUSH 1\t\t\t\n      PUSH 1\t\t\t\n      PUSH A0\t\t\t\n      SHL \t\t\t\n      SUB \t\t\t\n      AND \t\t\taddress public payee2\n      DUP2 \t\t\taddress public payee2\n      JUMP \t\t\taddress public payee2\n    tag 30\t\t\tfunction withdrawETH(uint256 a...\n      JUMPDEST \t\t\tfunction withdrawETH(uint256 a...\n      CALLVALUE \t\t\tfunction withdrawETH(uint256 a...\n      DUP1 \t\t\tfunction withdrawETH(uint256 a...\n      ISZERO \t\t\tfunction withdrawETH(uint256 a...\n      PUSH [tag] 164\t\t\tfunction withdrawETH(uint256 a...\n      JUMPI \t\t\tfunction withdrawETH(uint256 a...\n      PUSH 0\t\t\tfunction withdrawETH(uint256 a...\n      DUP1 \t\t\tfunction withdrawETH(uint256 a...\n      REVERT \t\t\tfunction withdrawETH(uint256 a...\n    tag 164\t\t\tfunction withdrawETH(uint256 a...\n      JUMPDEST \t\t\tfunction withdrawETH(uint256 a...\n      POP \t\t\t\n      PUSH [tag] 65\t\t\tfunction withdrawETH(uint256 a...\n      PUSH [tag] 166\t\t\tfunction withdrawETH(uint256 a...\n      CALLDATASIZE \t\t\tfunction withdrawETH(uint256 a...\n      PUSH 4\t\t\tfunction withdrawETH(uint256 a...\n      PUSH [tag] 56\t\t\tfunction withdrawETH(uint256 a...\n      JUMP \t\t\tfunction withdrawETH(uint256 a...\n    tag 166\t\t\tfunction withdrawETH(uint256 a...\n      JUMPDEST \t\t\tfunction withdrawETH(uint256 a...\n      PUSH [tag] 167\t\t\tfunction withdrawETH(uint256 a...\n      JUMP \t\t\tfunction withdrawETH(uint256 a...\n    tag 46\t\t\tfunction supportsInterface(byt...\n      JUMPDEST \t\t\tfunction supportsInterface(byt...\n      PUSH 0\t\t\tbool\n      PUSH [tag] 169\t\t\tsuper.supportsInterface(interf...\n      DUP3 \t\t\tinterfaceId\n      PUSH [tag] 170\t\t\tsuper.supportsInterface\n      JUMP \t\t\tsuper.supportsInterface(interf...\n    tag 169\t\t\tsuper.supportsInterface(interf...\n      JUMPDEST \t\t\tsuper.supportsInterface(interf...\n      SWAP3 \t\t\treturn super.supportsInterface...\n      SWAP2 \t\t\tfunction supportsInterface(byt...\n      POP \t\t\t\n      POP \t\t\t\n      JUMP \t\t\tfunction supportsInterface(byt...\n    tag 68\t\t\tturns (bool) {\\n        return...\n      JUMPDEST \t\t\tturns (bool) {\\n        return...\n      PUSH 0\t\t\t  emit \n      DUP3 \t\t\t_ROLE, _rela\n      DUP2 \t\t\t_ROLE, _rela\n      MSTORE \t\t\t_ROLE, _rela\n      PUSH 20\t\t\t_ROLE, _rela\n      DUP2 \t\t\t_ROLE, _rela\n      SWAP1 \t\t\t_ROLE, _rela\n      MSTORE \t\t\t_ROLE, _rela\n      PUSH 40\t\t\t_ROLE, _rela\n      SWAP1 \t\t\t_ROLE, _rela\n      KECCAK256 \t\t\t_ROLE, _rela\n      PUSH 1\t\t\t_ROLE, _relayer);\\n    \n      ADD \t\t\t_ROLE, _relayer);\\n    \n      SLOAD \t\t\t_ROLE, _relayer);\\n    \n      PUSH [tag] 174\t\t\tER_ROLE, msg.sen\n      DUP2 \t\t\tg.se\n      PUSH [tag] 175\t\t\tER_ROLE, m\n      JUMP \t\t\tER_ROLE, msg.sen\n    tag 174\t\t\tER_ROLE, msg.sen\n      JUMPDEST \t\t\tER_ROLE, msg.sen\n      PUSH [tag] 177\t\t\t processPayment(\\n        \n      DUP4 \t\t\tment\n      DUP4 \t\t\t       \n      PUSH [tag] 178\t\t\t processPa\n      JUMP \t\t\t processPayment(\\n        \n    tag 177\t\t\t processPayment(\\n        \n      JUMPDEST \t\t\t processPayment(\\n        \n      POP \t\t\tturns (bool) {\\n        return...\n      POP \t\t\tturns (bool) {\\n        return...\n      POP \t\t\tturns (bool) {\\n        return...\n      JUMP \t\t\tturns (bool) {\\n        return...\n    tag 72\t\t\t and deduct fee (if applicable...\n      JUMPDEST \t\t\t and deduct fee (if applicable...\n      PUSH 1\t\t\t\n      PUSH 1\t\t\t\n      PUSH A0\t\t\t\n      SHL \t\t\t\n      SUB \t\t\t\n      DUP2 \t\t\tRO)\\n            ? (amou\n      AND \t\t\tRO)\\n            ? (amou\n      CALLER \t\t\tentId) ext\n      EQ \t\t\tRO)\\n            ? (amou\n      PUSH [tag] 182\t\t\tDRESS_ZERO)\\n            ? (am...\n      JUMPI \t\t\tDRESS_ZERO)\\n            ? (am...\n      PUSH 40\t\t\tDRESS_ZERO)\\n            ? (am...\n      MLOAD \t\t\tDRESS_ZERO)\\n            ? (am...\n      PUSH 461BCD\t\t\t\n      PUSH E5\t\t\t\n      SHL \t\t\t\n      DUP2 \t\t\tDRESS_ZERO)\\n            ? (am...\n      MSTORE \t\t\tDRESS_ZERO)\\n            ? (am...\n      PUSH 20\t\t\tar\n      PUSH 4\t\t\tDRESS_ZERO)\\n            ? (am...\n      DUP3 \t\t\tDRESS_ZERO)\\n            ? (am...\n      ADD \t\t\tDRESS_ZERO)\\n            ? (am...\n      MSTORE \t\t\ted\");\\n            art\n      PUSH 2F\t\t\t\\n \n      PUSH 24\t\t\tr;\\n        } catch\n      DUP3 \t\t\tr;\\n        } catch\n      ADD \t\t\tr;\\n        } catch\n      MSTORE \t\t\t= _owner;\\n        } catch {\\n...\n      PUSH 416363657373436F6E74726F6C3A2063616E206F6E6C792072656E6F756E6365\t\t\tst implement owner() function\"...\n      PUSH 44\t\t\t(\"Artist contract \n      DUP3 \t\t\t(\"Artist contract \n      ADD \t\t\t(\"Artist contract \n      MSTORE \t\t\t revert(\"Artist contract must ...\n      PUSH 103937B632B9903337B91039B2B633\t\t\t\n      PUSH 89\t\t\t\n      SHL \t\t\t\n      PUSH 64\t\t\t // Calculate and \n      DUP3 \t\t\t // Calculate and \n      ADD \t\t\t // Calculate and \n      MSTORE \t\t\t        // Calculate and deduc...\n      PUSH 84\t\t\tnt256 fee = (feeBps\n      ADD \t\t\tnt256 fee = (feeBps\n    tag 183\t\t\tDRESS_ZERO)\\n            ? (am...\n      JUMPDEST \t\t\tDRESS_ZERO)\\n            ? (am...\n      PUSH 40\t\t\tDRESS_ZERO)\\n            ? (am...\n      MLOAD \t\t\tDRESS_ZERO)\\n            ? (am...\n      DUP1 \t\t\tDRESS_ZERO)\\n            ? (am...\n      SWAP2 \t\t\tDRESS_ZERO)\\n            ? (am...\n      SUB \t\t\tDRESS_ZERO)\\n            ? (am...\n      SWAP1 \t\t\tDRESS_ZERO)\\n            ? (am...\n      REVERT \t\t\tDRESS_ZERO)\\n            ? (am...\n    tag 182\t\t\tDRESS_ZERO)\\n            ? (am...\n      JUMPDEST \t\t\tDRESS_ZERO)\\n            ? (am...\n      PUSH [tag] 185\t\t\t           usdc.safeTransf\n      DUP3 \t\t\tsdc.\n      DUP3 \t\t\tfeTrans\n      PUSH [tag] 186\t\t\t           \n      JUMP \t\t\t           usdc.safeTransf\n    tag 185\t\t\t           usdc.safeTransf\n      JUMPDEST \t\t\t           usdc.safeTransf\n      POP \t\t\t and deduct fee (if applicable...\n      POP \t\t\t and deduct fee (if applicable...\n      JUMP \t\t\t and deduct fee (if applicable...\n    tag 80\t\t\tfunction unpause() external on...\n      JUMPDEST \t\t\tfunction unpause() external on...\n      PUSH 0\t\t\tunt)\n      PUSH [tag] 188\t\t\tER_ROLE, msg.sen\n      DUP2 \t\t\tunt)\n      PUSH [tag] 175\t\t\tER_ROLE, m\n      JUMP \t\t\tER_ROLE, msg.sen\n    tag 188\t\t\tER_ROLE, msg.sen\n      JUMPDEST \t\t\tER_ROLE, msg.sen\n      PUSH [tag] 190\t\t\t_unpause()\n      PUSH [tag] 191\t\t\t_unpause\n      JUMP \t\t\t_unpause()\n    tag 190\t\t\t_unpause()\n      JUMPDEST \t\t\t_unpause()\n      POP \t\t\tfunction unpause() external on...\n      JUMP \t\t\tfunction unpause() external on...\n    tag 98\t\t\tfunction removeRelayer(address...\n      JUMPDEST \t\t\tfunction removeRelayer(address...\n      PUSH 0\t\t\tunt)\n      PUSH [tag] 194\t\t\tER_ROLE, msg.sen\n      DUP2 \t\t\tunt)\n      PUSH [tag] 175\t\t\tER_ROLE, m\n      JUMP \t\t\tER_ROLE, msg.sen\n    tag 194\t\t\tER_ROLE, msg.sen\n      JUMPDEST \t\t\tER_ROLE, msg.sen\n      PUSH [tag] 196\t\t\t_revokeRole(RELAYER_ROLE, _rel...\n      PUSH 0\t\t\t\n      DUP1 \t\t\t\n      MLOAD \t\t\t\n      PUSH 20\t\t\t\n      PUSH data 403133B1402CFE4D9C8C47E614CC41ED4051237B14DE112F0B24C8D3D6AA6CAD\t\t\t\n      DUP4 \t\t\t\n      CODECOPY \t\t\t\n      DUP2 \t\t\t\n      MLOAD \t\t\t\n      SWAP2 \t\t\t\n      MSTORE \t\t\t\n      DUP4 \t\t\t_relayer\n      PUSH [tag] 186\t\t\t_revokeRole\n      JUMP \t\t\t_revokeRole(RELAYER_ROLE, _rel...\n    tag 196\t\t\t_revokeRole(RELAYER_ROLE, _rel...\n      JUMPDEST \t\t\t_revokeRole(RELAYER_ROLE, _rel...\n      PUSH 40\t\t\tRoleRevoked(RELAYER_ROLE, _rel...\n      MLOAD \t\t\tRoleRevoked(RELAYER_ROLE, _rel...\n      PUSH 1\t\t\t\n      PUSH 1\t\t\t\n      PUSH A0\t\t\t\n      SHL \t\t\t\n      SUB \t\t\t\n      DUP4 \t\t\tRoleRevoked(RELAYER_ROLE, _rel...\n      AND \t\t\tRoleRevoked(RELAYER_ROLE, _rel...\n      SWAP1 \t\t\tRoleRevoked(RELAYER_ROLE, _rel...\n      PUSH 0\t\t\t\n      DUP1 \t\t\t\n      MLOAD \t\t\t\n      PUSH 20\t\t\t\n      PUSH data 403133B1402CFE4D9C8C47E614CC41ED4051237B14DE112F0B24C8D3D6AA6CAD\t\t\t\n      DUP4 \t\t\t\n      CODECOPY \t\t\t\n      DUP2 \t\t\t\n      MLOAD \t\t\t\n      SWAP2 \t\t\t\n      MSTORE \t\t\t\n      SWAP1 \t\t\tkeccak256(\"RELAYER_ROLE\")\n      PUSH 155AAAFB6329A2098580462DF33EC4B7441B19729B9601C5FC17AE1CF99A8A52\t\t\tRoleRevoked(RELAYER_ROLE, _rel...\n      SWAP1 \t\t\tRoleRevoked(RELAYER_ROLE, _rel...\n      PUSH 0\t\t\tRoleRevoked(RELAYER_ROLE, _rel...\n      SWAP1 \t\t\tRoleRevoked(RELAYER_ROLE, _rel...\n      LOG3 \t\t\tRoleRevoked(RELAYER_ROLE, _rel...\n      POP \t\t\tfunction removeRelayer(address...\n      POP \t\t\tfunction removeRelayer(address...\n      JUMP \t\t\tfunction removeRelayer(address...\n    tag 108\t\t\tfunction setRelayer(address _r...\n      JUMPDEST \t\t\tfunction setRelayer(address _r...\n      PUSH 0\t\t\tunt)\n      PUSH [tag] 198\t\t\tER_ROLE, msg.sen\n      DUP2 \t\t\tunt)\n      PUSH [tag] 175\t\t\tER_ROLE, m\n      JUMP \t\t\tER_ROLE, msg.sen\n    tag 198\t\t\tER_ROLE, msg.sen\n      JUMPDEST \t\t\tER_ROLE, msg.sen\n      PUSH 1\t\t\t\n      PUSH 1\t\t\t\n      PUSH A0\t\t\t\n      SHL \t\t\t\n      SUB \t\t\t\n      DUP3 \t\t\t_relayer != ADDRESS_ZERO\n      AND \t\t\t_relayer != ADDRESS_ZERO\n      PUSH [tag] 200\t\t\trequire(_relayer != ADDRESS_ZE...\n      JUMPI \t\t\trequire(_relayer != ADDRESS_ZE...\n      PUSH 40\t\t\trequire(_relayer != ADDRESS_ZE...\n      MLOAD \t\t\trequire(_relayer != ADDRESS_ZE...\n      PUSH 461BCD\t\t\t\n      PUSH E5\t\t\t\n      SHL \t\t\t\n      DUP2 \t\t\trequire(_relayer != ADDRESS_ZE...\n      MSTORE \t\t\trequire(_relayer != ADDRESS_ZE...\n      PUSH 20\t\t\tam\n      PUSH 4\t\t\trequire(_relayer != ADDRESS_ZE...\n      DUP3 \t\t\trequire(_relayer != ADDRESS_ZE...\n      ADD \t\t\trequire(_relayer != ADDRESS_ZE...\n      MSTORE \t\t\t amountAfterFee = amo\n      PUSH C\t\t\t(a\n      PUSH 24\t\t\t   usdc.safeTransf\n      DUP3 \t\t\t   usdc.safeTransf\n      ADD \t\t\t   usdc.safeTransf\n      MSTORE \t\t\t;\\n        usdc.safeTransfer(a...\n      PUSH 3D32B937903932B630BCB2B9\t\t\t\n      PUSH A1\t\t\t\n      SHL \t\t\t\n      PUSH 44\t\t\ttAfterFee);\\n\\n     \n      DUP3 \t\t\ttAfterFee);\\n\\n     \n      ADD \t\t\ttAfterFee);\\n\\n     \n      MSTORE \t\t\t, amountAfterFee);\\n\\n        ...\n      PUSH 64\t\t\t\\n        try IMfer\n      ADD \t\t\t\\n        try IMfer\n      PUSH [tag] 183\t\t\trequire(_relayer != ADDRESS_ZE...\n      JUMP \t\t\tRecipient != ADDRESS_ZERO)\\n  ...\n    tag 200\t\t\trequire(_relayer != ADDRESS_ZE...\n      JUMPDEST \t\t\trequire(_relayer != ADDRESS_ZE...\n      PUSH [tag] 203\t\t\t_grantRole(RELAYER_ROLE, _rela...\n      PUSH 0\t\t\t\n      DUP1 \t\t\t\n      MLOAD \t\t\t\n      PUSH 20\t\t\t\n      PUSH data 403133B1402CFE4D9C8C47E614CC41ED4051237B14DE112F0B24C8D3D6AA6CAD\t\t\t\n      DUP4 \t\t\t\n      CODECOPY \t\t\t\n      DUP2 \t\t\t\n      MLOAD \t\t\t\n      SWAP2 \t\t\t\n      MSTORE \t\t\t\n      DUP4 \t\t\t_relayer\n      PUSH [tag] 178\t\t\t_grantRole\n      JUMP \t\t\t_grantRole(RELAYER_ROLE, _rela...\n    tag 203\t\t\t_grantRole(RELAYER_ROLE, _rela...\n      JUMPDEST \t\t\t_grantRole(RELAYER_ROLE, _rela...\n      PUSH 40\t\t\tRoleGranted(RELAYER_ROLE, _rel...\n      MLOAD \t\t\tRoleGranted(RELAYER_ROLE, _rel...\n      PUSH 1\t\t\t\n      PUSH 1\t\t\t\n      PUSH A0\t\t\t\n      SHL \t\t\t\n      SUB \t\t\t\n      DUP4 \t\t\tRoleGranted(RELAYER_ROLE, _rel...\n      AND \t\t\tRoleGranted(RELAYER_ROLE, _rel...\n      SWAP1 \t\t\tRoleGranted(RELAYER_ROLE, _rel...\n      PUSH 0\t\t\t\n      DUP1 \t\t\t\n      MLOAD \t\t\t\n      PUSH 20\t\t\t\n      PUSH data 403133B1402CFE4D9C8C47E614CC41ED4051237B14DE112F0B24C8D3D6AA6CAD\t\t\t\n      DUP4 \t\t\t\n      CODECOPY \t\t\t\n      DUP2 \t\t\t\n      MLOAD \t\t\t\n      SWAP2 \t\t\t\n      MSTORE \t\t\t\n      SWAP1 \t\t\tkeccak256(\"RELAYER_ROLE\")\n      PUSH 2AE6A113C0ED5B78A53413FFBB7679881F11145CCFBA4FB92E863DFCD5A1D2F3\t\t\tRoleGranted(RELAYER_ROLE, _rel...\n      SWAP1 \t\t\tRoleGranted(RELAYER_ROLE, _rel...\n      PUSH 0\t\t\tRoleGranted(RELAYER_ROLE, _rel...\n      SWAP1 \t\t\tRoleGranted(RELAYER_ROLE, _rel...\n      LOG3 \t\t\tRoleGranted(RELAYER_ROLE, _rel...\n      POP \t\t\tfunction setRelayer(address _r...\n      POP \t\t\tfunction setRelayer(address _r...\n      JUMP \t\t\tfunction setRelayer(address _r...\n    tag 112\t\t\tfunction payAndMint(\\n        ...\n      JUMPDEST \t\t\tfunction payAndMint(\\n        ...\n      PUSH [tag] 205\t\t\ted account);\\n    even\n      PUSH [tag] 206\t\t\ted account);\\n    ev\n      JUMP \t\t\ted account);\\n    even\n    tag 205\t\t\ted account);\\n    even\n      JUMPDEST \t\t\ted account);\\n    even\n      PUSH [tag] 208\t\t\tble usdc;\\n    addre\n      PUSH [tag] 209\t\t\tble usdc;\\n    add\n      JUMP \t\t\tble usdc;\\n    addre\n    tag 208\t\t\tble usdc;\\n    addre\n      JUMPDEST \t\t\tble usdc;\\n    addre\n      PUSH 110D9316EC000\t\t\t300_000_000_000_000\n      CALLVALUE \t\t\tmsg.value\n      EQ \t\t\tmsg.value == MINT_PRICE\n      PUSH [tag] 211\t\t\trequire(msg.value == MINT_PRIC...\n      JUMPI \t\t\trequire(msg.value == MINT_PRIC...\n      PUSH 40\t\t\trequire(msg.value == MINT_PRIC...\n      MLOAD \t\t\trequire(msg.value == MINT_PRIC...\n      PUSH 461BCD\t\t\t\n      PUSH E5\t\t\t\n      SHL \t\t\t\n      DUP2 \t\t\trequire(msg.value == MINT_PRIC...\n      MSTORE \t\t\trequire(msg.value == MINT_PRIC...\n      PUSH 20\t\t\t  \n      PUSH 4\t\t\trequire(msg.value == MINT_PRIC...\n      DUP3 \t\t\trequire(msg.value == MINT_PRIC...\n      ADD \t\t\trequire(msg.value == MINT_PRIC...\n      MSTORE \t\t\t  } catch {\\n         \n      PUSH 18\t\t\trr\n      PUSH 24\t\t\tng failed: unknown\n      DUP3 \t\t\tng failed: unknown\n      ADD \t\t\tng failed: unknown\n      MSTORE \t\t\t(\"Minting failed: unknown erro\n      PUSH 496E636F7272656374207061796D656E7420616D6F756E740000000000000000\t\t\t Processed(artistContract,\n      PUSH 44\t\t\t       \\n        em\n      DUP3 \t\t\t       \\n        em\n      ADD \t\t\t       \\n        em\n      MSTORE \t\t\t    }\\n        \\n        emit ...\n      PUSH 64\t\t\tamount, paymentId)\n      ADD \t\t\tamount, paymentId)\n      PUSH [tag] 183\t\t\trequire(msg.value == MINT_PRIC...\n      JUMP \t\t\tContract).mintFor(to, paymentI...\n    tag 211\t\t\trequire(msg.value == MINT_PRIC...\n      JUMPDEST \t\t\trequire(msg.value == MINT_PRIC...\n      PUSH 5\t\t\tprocessedPayment\n      DUP3 \t\t\tpaymentId\n      DUP3 \t\t\tpaymentId\n      PUSH 40\t\t\tprocessedPayment[paymentId]\n      MLOAD \t\t\tprocessedPayment[paymentId]\n      PUSH [tag] 214\t\t\tprocessedPayment[paymentId]\n      SWAP3 \t\t\tprocessedPayment[paymentId]\n      SWAP2 \t\t\tprocessedPayment[paymentId]\n      SWAP1 \t\t\tprocessedPayment[paymentId]\n      PUSH [tag] 215\t\t\tprocessedPayment[paymentId]\n      JUMP \t\t\tprocessedPayment[paymentId]\n    tag 214\t\t\tprocessedPayment[paymentId]\n      JUMPDEST \t\t\tprocessedPayment[paymentId]\n      SWAP1 \t\t\tprocessedPayment[paymentId]\n      DUP2 \t\t\tprocessedPayment[paymentId]\n      MSTORE \t\t\tprocessedPayment[paymentId]\n      PUSH 40\t\t\tprocessedPayment[paymentId]\n      MLOAD \t\t\tprocessedPayment[paymentId]\n      SWAP1 \t\t\tprocessedPayment[paymentId]\n      DUP2 \t\t\tprocessedPayment[paymentId]\n      SWAP1 \t\t\tprocessedPayment[paymentId]\n      SUB \t\t\tprocessedPayment[paymentId]\n      PUSH 20\t\t\tprocessedPayment[paymentId]\n      ADD \t\t\tprocessedPayment[paymentId]\n      SWAP1 \t\t\tprocessedPayment[paymentId]\n      KECCAK256 \t\t\tprocessedPayment[paymentId]\n      SLOAD \t\t\tprocessedPayment[paymentId]\n      PUSH FF\t\t\tprocessedPayment[paymentId]\n      AND \t\t\tprocessedPayment[paymentId]\n      ISZERO \t\t\t!processedPayment[paymentId]\n      PUSH [tag] 216\t\t\trequire(!processedPayment[paym...\n      JUMPI \t\t\trequire(!processedPayment[paym...\n      PUSH 40\t\t\trequire(!processedPayment[paym...\n      MLOAD \t\t\trequire(!processedPayment[paym...\n      PUSH 461BCD\t\t\t\n      PUSH E5\t\t\t\n      SHL \t\t\t\n      DUP2 \t\t\trequire(!processedPayment[paym...\n      MSTORE \t\t\trequire(!processedPayment[paym...\n      PUSH 20\t\t\t);\n      PUSH 4\t\t\trequire(!processedPayment[paym...\n      DUP3 \t\t\trequire(!processedPayment[paym...\n      ADD \t\t\trequire(!processedPayment[paym...\n      MSTORE \t\t\td artist contract\");\\n\n      PUSH 19\t\t\tRO\n      PUSH 24\t\t\tpayee2 != ADDRESS_\n      DUP3 \t\t\tpayee2 != ADDRESS_\n      ADD \t\t\tpayee2 != ADDRESS_\n      MSTORE \t\t\tequire(payee2 != ADDRESS_ZERO,\n      PUSH 14185E5B595B9D08185B1C9958591E481C1C9BD8D95CDCD959\t\t\t\n      PUSH 3A\t\t\t\n      SHL \t\t\t\n      PUSH 44\t\t\tnot set\");\\n\\n      \n      DUP3 \t\t\tnot set\");\\n\\n      \n      ADD \t\t\tnot set\");\\n\\n      \n      MSTORE \t\t\t payee not set\");\\n\\n        /...\n      PUSH 64\t\t\tedPayment[paymentI\n      ADD \t\t\tedPayment[paymentI\n      PUSH [tag] 183\t\t\trequire(!processedPayment[paym...\n      JUMP \t\t\t   require(!processedPayment[p...\n    tag 216\t\t\trequire(!processedPayment[paym...\n      JUMPDEST \t\t\trequire(!processedPayment[paym...\n      PUSH 1\t\t\t\n      PUSH 1\t\t\t\n      PUSH A0\t\t\t\n      SHL \t\t\t\n      SUB \t\t\t\n      DUP4 \t\t\tto != ADDRESS_ZERO\n      AND \t\t\tto != ADDRESS_ZERO\n      PUSH [tag] 219\t\t\trequire(to != ADDRESS_ZERO, \"i...\n      JUMPI \t\t\trequire(to != ADDRESS_ZERO, \"i...\n      PUSH 40\t\t\trequire(to != ADDRESS_ZERO, \"i...\n      MLOAD \t\t\trequire(to != ADDRESS_ZERO, \"i...\n      PUSH 461BCD\t\t\t\n      PUSH E5\t\t\t\n      SHL \t\t\t\n      DUP2 \t\t\trequire(to != ADDRESS_ZERO, \"i...\n      MSTORE \t\t\trequire(to != ADDRESS_ZERO, \"i...\n      PUSH 20\t\t\tot\n      PUSH 4\t\t\trequire(to != ADDRESS_ZERO, \"i...\n      DUP3 \t\t\trequire(to != ADDRESS_ZERO, \"i...\n      ADD \t\t\trequire(to != ADDRESS_ZERO, \"i...\n      MSTORE \t\t\tO, \"Artist owner not \n      PUSH 11\t\t\te \n      PUSH 24\t\t\t          artistPa\n      DUP3 \t\t\t          artistPa\n      ADD \t\t\t          artistPa\n      MSTORE \t\t\td\");\\n            artistPayee ...\n      PUSH 1A5B9D985B1A59081C9958DA5C1A595B9D\t\t\t\n      PUSH 7A\t\t\t\n      SHL \t\t\t\n      PUSH 44\t\t\t } catch {\\n       \n      DUP3 \t\t\t } catch {\\n       \n      ADD \t\t\t } catch {\\n       \n      MSTORE \t\t\t        } catch {\\n           ...\n      PUSH 64\t\t\tment owner() funct\n      ADD \t\t\tment owner() funct\n      PUSH [tag] 183\t\t\trequire(to != ADDRESS_ZERO, \"i...\n      JUMP \t\t\t\\n        // Get artist owner ...\n    tag 219\t\t\trequire(to != ADDRESS_ZERO, \"i...\n      JUMPDEST \t\t\trequire(to != ADDRESS_ZERO, \"i...\n      PUSH 1\t\t\t\n      PUSH 1\t\t\t\n      PUSH A0\t\t\t\n      SHL \t\t\t\n      SUB \t\t\t\n      DUP5 \t\t\tartistContract != ADDRESS_ZERO\n      AND \t\t\tartistContract != ADDRESS_ZERO\n      PUSH [tag] 222\t\t\trequire(artistContract != ADDR...\n      JUMPI \t\t\trequire(artistContract != ADDR...\n      PUSH 40\t\t\trequire(artistContract != ADDR...\n      MLOAD \t\t\trequire(artistContract != ADDR...\n      PUSH 461BCD\t\t\t\n      PUSH E5\t\t\t\n      SHL \t\t\t\n      DUP2 \t\t\trequire(artistContract != ADDR...\n      MSTORE \t\t\trequire(artistContract != ADDR...\n      PUSH 20\t\t\t_A\n      PUSH 4\t\t\trequire(artistContract != ADDR...\n      DUP3 \t\t\trequire(artistContract != ADDR...\n      ADD \t\t\trequire(artistContract != ADDR...\n      MSTORE \t\t\t        if (PAYEE2_AM\n      PUSH 17\t\t\tAY\n      PUSH 24\t\t\te(payee2).transfer\n      DUP3 \t\t\te(payee2).transfer\n      ADD \t\t\te(payee2).transfer\n      MSTORE \t\t\t payable(payee2).transfer(PAYE\n      PUSH 1A5B9D985B1A5908185C9D1A5CDD0818DBDB9D1C9858DD\t\t\t\n      PUSH 4A\t\t\t\n      SHL \t\t\t\n      PUSH 44\t\t\t     // Mint NFT w\n      DUP3 \t\t\t     // Mint NFT w\n      ADD \t\t\t     // Mint NFT w\n      MSTORE \t\t\t);\\n\\n        // Mint NFT with...\n      PUSH 64\t\t\ter payee splits)\\n \n      ADD \t\t\ter payee splits)\\n \n      PUSH [tag] 183\t\t\trequire(artistContract != ADDR...\n      JUMP \t\t\t    }\\n\\n        // 3. Interac...\n    tag 222\t\t\trequire(artistContract != ADDR...\n      JUMPDEST \t\t\trequire(artistContract != ADDR...\n      PUSH 4\t\t\tpayee2\n      SLOAD \t\t\tpayee2\n      PUSH 1\t\t\t\n      PUSH 1\t\t\t\n      PUSH A0\t\t\t\n      SHL \t\t\t\n      SUB \t\t\t\n      AND \t\t\tpayee2\n      PUSH [tag] 225\t\t\trequire(payee2 != ADDRESS_ZERO...\n      JUMPI \t\t\trequire(payee2 != ADDRESS_ZERO...\n      PUSH 40\t\t\trequire(payee2 != ADDRESS_ZERO...\n      MLOAD \t\t\trequire(payee2 != ADDRESS_ZERO...\n      PUSH 461BCD\t\t\t\n      PUSH E5\t\t\t\n      SHL \t\t\t\n      DUP2 \t\t\trequire(payee2 != ADDRESS_ZERO...\n      MSTORE \t\t\trequire(payee2 != ADDRESS_ZERO...\n      PUSH 20\t\t\tca\n      PUSH 4\t\t\trequire(payee2 != ADDRESS_ZERO...\n      DUP3 \t\t\trequire(payee2 != ADDRESS_ZERO...\n      ADD \t\t\trequire(payee2 != ADDRESS_ZERO...\n      MSTORE \t\t\tSuccess\\n        } cat\n      PUSH 15\t\t\t  \n      PUSH 24\t\t\tmemory reason) {\\n \n      DUP3 \t\t\tmemory reason) {\\n \n      ADD \t\t\tmemory reason) {\\n \n      MSTORE \t\t\tstring memory reason) {\\n     ...\n      PUSH 11D85B1B195C9E481C185E5959481B9BDD081CD95D\t\t\t\n      PUSH 5A\t\t\t\n      SHL \t\t\t\n      PUSH 44\t\t\ting(abi.encodePack\n      DUP3 \t\t\ting(abi.encodePack\n      ADD \t\t\ting(abi.encodePack\n      MSTORE \t\t\tert(string(abi.encodePacked(\"M...\n      PUSH 64\t\t\t catch {\\n         \n      ADD \t\t\t catch {\\n         \n      PUSH [tag] 183\t\t\trequire(payee2 != ADDRESS_ZERO...\n      JUMP \t\t\t256 remainingValue = MINT_PRIC...\n    tag 225\t\t\trequire(payee2 != ADDRESS_ZERO...\n      JUMPDEST \t\t\trequire(payee2 != ADDRESS_ZERO...\n      PUSH 1\t\t\ttrue\n      PUSH 5\t\t\tprocessedPayment\n      DUP4 \t\t\tpaymentId\n      DUP4 \t\t\tpaymentId\n      PUSH 40\t\t\tprocessedPayment[paymentId]\n      MLOAD \t\t\tprocessedPayment[paymentId]\n      PUSH [tag] 228\t\t\tprocessedPayment[paymentId]\n      SWAP3 \t\t\tprocessedPayment[paymentId]\n      SWAP2 \t\t\tprocessedPayment[paymentId]\n      SWAP1 \t\t\tprocessedPayment[paymentId]\n      PUSH [tag] 215\t\t\tprocessedPayment[paymentId]\n      JUMP \t\t\tprocessedPayment[paymentId]\n    tag 228\t\t\tprocessedPayment[paymentId]\n      JUMPDEST \t\t\tprocessedPayment[paymentId]\n      SWAP1 \t\t\tprocessedPayment[paymentId]\n      DUP2 \t\t\tprocessedPayment[paymentId]\n      MSTORE \t\t\tprocessedPayment[paymentId]\n      PUSH 20\t\t\tprocessedPayment[paymentId]\n      ADD \t\t\tprocessedPayment[paymentId]\n      PUSH 40\t\t\tprocessedPayment[paymentId]\n      MLOAD \t\t\tprocessedPayment[paymentId]\n      DUP1 \t\t\tprocessedPayment[paymentId]\n      SWAP2 \t\t\tprocessedPayment[paymentId]\n      SUB \t\t\tprocessedPayment[paymentId]\n      SWAP1 \t\t\tprocessedPayment[paymentId]\n      KECCAK256 \t\t\tprocessedPayment[paymentId]\n      PUSH 0\t\t\tprocessedPayment[paymentId]\n      PUSH 100\t\t\tprocessedPayment[paymentId] = ...\n      EXP \t\t\tprocessedPayment[paymentId] = ...\n      DUP2 \t\t\tprocessedPayment[paymentId] = ...\n      SLOAD \t\t\tprocessedPayment[paymentId] = ...\n      DUP2 \t\t\tprocessedPayment[paymentId] = ...\n      PUSH FF\t\t\tprocessedPayment[paymentId] = ...\n      MUL \t\t\tprocessedPayment[paymentId] = ...\n      NOT \t\t\tprocessedPayment[paymentId] = ...\n      AND \t\t\tprocessedPayment[paymentId] = ...\n      SWAP1 \t\t\tprocessedPayment[paymentId] = ...\n      DUP4 \t\t\tprocessedPayment[paymentId] = ...\n      ISZERO \t\t\tprocessedPayment[paymentId] = ...\n      ISZERO \t\t\tprocessedPayment[paymentId] = ...\n      MUL \t\t\tprocessedPayment[paymentId] = ...\n      OR \t\t\tprocessedPayment[paymentId] = ...\n      SWAP1 \t\t\tprocessedPayment[paymentId] = ...\n      SSTORE \t\t\tprocessedPayment[paymentId] = ...\n      POP \t\t\tprocessedPayment[paymentId] = ...\n      PUSH 0\t\t\taddress artistPayee\n      DUP5 \t\t\tartistContract\n      PUSH 1\t\t\t\n      PUSH 1\t\t\t\n      PUSH A0\t\t\t\n      SHL \t\t\t\n      SUB \t\t\t\n      AND \t\t\tIMferMint(artistContract).owne...\n      PUSH 8DA5CB5B\t\t\tIMferMint(artistContract).owne...\n      PUSH 40\t\t\tIMferMint(artistContract).owne...\n      MLOAD \t\t\tIMferMint(artistContract).owne...\n      DUP2 \t\t\tIMferMint(artistContract).owne...\n      PUSH FFFFFFFF\t\t\tIMferMint(artistContract).owne...\n      AND \t\t\tIMferMint(artistContract).owne...\n      PUSH E0\t\t\tIMferMint(artistContract).owne...\n      SHL \t\t\tIMferMint(artistContract).owne...\n      DUP2 \t\t\tIMferMint(artistContract).owne...\n      MSTORE \t\t\tIMferMint(artistContract).owne...\n      PUSH 4\t\t\tIMferMint(artistContract).owne...\n      ADD \t\t\tIMferMint(artistContract).owne...\n      PUSH 20\t\t\tIMferMint(artistContract).owne...\n      PUSH 40\t\t\tIMferMint(artistContract).owne...\n      MLOAD \t\t\tIMferMint(artistContract).owne...\n      DUP1 \t\t\tIMferMint(artistContract).owne...\n      DUP4 \t\t\tIMferMint(artistContract).owne...\n      SUB \t\t\tIMferMint(artistContract).owne...\n      DUP2 \t\t\tIMferMint(artistContract).owne...\n      DUP7 \t\t\tIMferMint(artistContract).owne...\n      GAS \t\t\tIMferMint(artistContract).owne...\n      STATICCALL \t\t\tIMferMint(artistContract).owne...\n      SWAP3 \t\t\tIMferMint(artistContract).owne...\n      POP \t\t\tIMferMint(artistContract).owne...\n      POP \t\t\tIMferMint(artistContract).owne...\n      POP \t\t\tIMferMint(artistContract).owne...\n      DUP1 \t\t\tIMferMint(artistContract).owne...\n      ISZERO \t\t\tIMferMint(artistContract).owne...\n      PUSH [tag] 229\t\t\tIMferMint(artistContract).owne...\n      JUMPI \t\t\tIMferMint(artistContract).owne...\n      POP \t\t\t\n      PUSH 40\t\t\tIMferMint(artistContract).owne...\n      DUP1 \t\t\tIMferMint(artistContract).owne...\n      MLOAD \t\t\tIMferMint(artistContract).owne...\n      PUSH 1F\t\t\tIMferMint(artistContract).owne...\n      RETURNDATASIZE \t\t\tIMferMint(artistContract).owne...\n      SWAP1 \t\t\tIMferMint(artistContract).owne...\n      DUP2 \t\t\tIMferMint(artistContract).owne...\n      ADD \t\t\tIMferMint(artistContract).owne...\n      PUSH 1F\t\t\t\n      NOT \t\t\t\n      AND \t\t\tIMferMint(artistContract).owne...\n      DUP3 \t\t\tIMferMint(artistContract).owne...\n      ADD \t\t\tIMferMint(artistContract).owne...\n      SWAP1 \t\t\tIMferMint(artistContract).owne...\n      SWAP3 \t\t\tIMferMint(artistContract).owne...\n      MSTORE \t\t\tIMferMint(artistContract).owne...\n      PUSH [tag] 230\t\t\tIMferMint(artistContract).owne...\n      SWAP2 \t\t\tIMferMint(artistContract).owne...\n      DUP2 \t\t\tIMferMint(artistContract).owne...\n      ADD \t\t\tIMferMint(artistContract).owne...\n      SWAP1 \t\t\tIMferMint(artistContract).owne...\n      PUSH [tag] 231\t\t\tIMferMint(artistContract).owne...\n      JUMP \t\t\tIMferMint(artistContract).owne...\n    tag 230\t\t\tIMferMint(artistContract).owne...\n      JUMPDEST \t\t\tIMferMint(artistContract).owne...\n      PUSH 1\t\t\tIMferMint(artistContract).owne...\n    tag 229\t\t\tIMferMint(artistContract).owne...\n      JUMPDEST \t\t\tIMferMint(artistContract).owne...\n      PUSH [tag] 232\t\t\ttry IMferMint(artistContract)....\n      JUMPI \t\t\ttry IMferMint(artistContract)....\n      PUSH 40\t\t\trevert(\"Artist contract must i...\n      MLOAD \t\t\trevert(\"Artist contract must i...\n      PUSH 461BCD\t\t\t\n      PUSH E5\t\t\t\n      SHL \t\t\t\n      DUP2 \t\t\trevert(\"Artist contract must i...\n      MSTORE \t\t\trevert(\"Artist contract must i...\n      PUSH 4\t\t\trevert(\"Artist contract must i...\n      ADD \t\t\trevert(\"Artist contract must i...\n      PUSH [tag] 183\t\t\trevert(\"Artist contract must i...\n      SWAP1 \t\t\trevert(\"Artist contract must i...\n      PUSH [tag] 237\t\t\trevert(\"Artist contract must i...\n      JUMP \t\t\trevert(\"Artist contract must i...\n    tag 232\t\t\ttry IMferMint(artistContract)....\n      JUMPDEST \t\t\ttry IMferMint(artistContract)....\n      PUSH 1\t\t\t\n      PUSH 1\t\t\t\n      PUSH A0\t\t\t\n      SHL \t\t\t\n      SUB \t\t\t\n      DUP2 \t\t\t_owner != ADDRESS_ZERO\n      AND \t\t\t_owner != ADDRESS_ZERO\n      PUSH [tag] 239\t\t\trequire(_owner != ADDRESS_ZERO...\n      JUMPI \t\t\trequire(_owner != ADDRESS_ZERO...\n      PUSH 40\t\t\trequire(_owner != ADDRESS_ZERO...\n      MLOAD \t\t\trequire(_owner != ADDRESS_ZERO...\n      PUSH 461BCD\t\t\t\n      PUSH E5\t\t\t\n      SHL \t\t\t\n      DUP2 \t\t\trequire(_owner != ADDRESS_ZERO...\n      MSTORE \t\t\trequire(_owner != ADDRESS_ZERO...\n      PUSH 20\t\t\tal\n      PUSH 4\t\t\trequire(_owner != ADDRESS_ZERO...\n      DUP3 \t\t\trequire(_owner != ADDRESS_ZERO...\n      ADD \t\t\trequire(_owner != ADDRESS_ZERO...\n      MSTORE \t\t\t  receive() external \n      PUSH 1B\t\t\tsg\n      PUSH 24\t\t\t  emit ETHReceived\n      DUP3 \t\t\t  emit ETHReceived\n      ADD \t\t\t  emit ETHReceived\n      MSTORE \t\t\t\\n        emit ETHReceived(msg...\n      PUSH 417274697374206F776E6572206E6F7420636F6E666967757265640000000000\t\t\t\n      PUSH 44\t\t\te);\\n    }\\n}\\n\n      DUP3 \t\t\te);\\n    }\\n}\\n\n      ADD \t\t\te);\\n    }\\n}\\n\n      MSTORE \t\t\tsg.value);\\n    }\\n}\\n\n      PUSH 64\t\t\t\n      ADD \t\t\t\n      PUSH [tag] 183\t\t\trequire(_owner != ADDRESS_ZERO...\n      JUMP \t\t\tlance >= amount, \"Insufficient...\n    tag 239\t\t\trequire(_owner != ADDRESS_ZERO...\n      JUMPDEST \t\t\trequire(_owner != ADDRESS_ZERO...\n      SWAP1 \t\t\t_owner\n      POP \t\t\t\n      PUSH 40\t\t\tpayable(artistPayee).transfer(...\n      MLOAD \t\t\tpayable(artistPayee).transfer(...\n      PUSH 1\t\t\t\n      PUSH 1\t\t\t\n      PUSH A0\t\t\t\n      SHL \t\t\t\n      SUB \t\t\t\n      DUP3 \t\t\tpayable(artistPayee).transfer\n      AND \t\t\tpayable(artistPayee).transfer\n      SWAP1 \t\t\tpayable(artistPayee).transfer\n      PUSH 0\t\t\tpayable(artistPayee).transfer(...\n      SWAP1 \t\t\tpayable(artistPayee).transfer(...\n      PUSH B5E620F48000\t\t\t200_000_000_000_000\n      SWAP1 \t\t\t200_000_000_000_000\n      DUP3 \t\t\tpayable(artistPayee).transfer(...\n      DUP2 \t\t\tpayable(artistPayee).transfer(...\n      DUP2 \t\t\tpayable(artistPayee).transfer(...\n      DUP2 \t\t\tpayable(artistPayee).transfer(...\n      DUP6 \t\t\t200_000_000_000_000\n      DUP9 \t\t\tpayable(artistPayee).transfer\n      DUP4 \t\t\tpayable(artistPayee).transfer(...\n      CALL \t\t\tpayable(artistPayee).transfer(...\n      SWAP4 \t\t\tpayable(artistPayee).transfer(...\n      POP \t\t\tpayable(artistPayee).transfer(...\n      POP \t\t\tpayable(artistPayee).transfer(...\n      POP \t\t\tpayable(artistPayee).transfer(...\n      POP \t\t\tpayable(artistPayee).transfer(...\n      ISZERO \t\t\tpayable(artistPayee).transfer(...\n      DUP1 \t\t\tpayable(artistPayee).transfer(...\n      ISZERO \t\t\tpayable(artistPayee).transfer(...\n      PUSH [tag] 244\t\t\tpayable(artistPayee).transfer(...\n      JUMPI \t\t\tpayable(artistPayee).transfer(...\n      RETURNDATASIZE \t\t\tpayable(artistPayee).transfer(...\n      PUSH 0\t\t\tpayable(artistPayee).transfer(...\n      DUP1 \t\t\tpayable(artistPayee).transfer(...\n      RETURNDATACOPY \t\t\tpayable(artistPayee).transfer(...\n      RETURNDATASIZE \t\t\tpayable(artistPayee).transfer(...\n      PUSH 0\t\t\tpayable(artistPayee).transfer(...\n      REVERT \t\t\tpayable(artistPayee).transfer(...\n    tag 244\t\t\tpayable(artistPayee).transfer(...\n      JUMPDEST \t\t\tpayable(artistPayee).transfer(...\n      POP \t\t\tpayable(artistPayee).transfer(...\n      PUSH 4\t\t\tpayee2\n      SLOAD \t\t\tpayee2\n      PUSH 40\t\t\tpayable(payee2).transfer(PAYEE...\n      MLOAD \t\t\tpayable(payee2).transfer(PAYEE...\n      PUSH 1\t\t\t\n      PUSH 1\t\t\t\n      PUSH A0\t\t\t\n      SHL \t\t\t\n      SUB \t\t\t\n      SWAP1 \t\t\tpayee2\n      SWAP2 \t\t\tpayee2\n      AND \t\t\tpayee2\n      SWAP1 \t\t\tpayee2\n      PUSH 0\t\t\tpayee2\n      SWAP1 \t\t\tpayee2\n      PUSH 5AF3107A4000\t\t\t100_000_000_000_000\n      SWAP1 \t\t\t100_000_000_000_000\n      DUP3 \t\t\tpayee2\n      DUP2 \t\t\tpayable(payee2).transfer(PAYEE...\n      DUP2 \t\t\tpayee2\n      DUP2 \t\t\tpayable(payee2).transfer(PAYEE...\n      DUP6 \t\t\t100_000_000_000_000\n      DUP9 \t\t\tpayee2\n      DUP4 \t\t\tpayee2\n      CALL \t\t\tpayable(payee2).transfer(PAYEE...\n      SWAP4 \t\t\tpayable(payee2).transfer(PAYEE...\n      POP \t\t\tpayable(payee2).transfer(PAYEE...\n      POP \t\t\tpayable(payee2).transfer(PAYEE...\n      POP \t\t\tpayable(payee2).transfer(PAYEE...\n      POP \t\t\tpayable(payee2).transfer(PAYEE...\n      ISZERO \t\t\tpayable(payee2).transfer(PAYEE...\n      DUP1 \t\t\tpayable(payee2).transfer(PAYEE...\n      ISZERO \t\t\tpayable(payee2).transfer(PAYEE...\n      PUSH [tag] 247\t\t\tpayable(payee2).transfer(PAYEE...\n      JUMPI \t\t\tpayable(payee2).transfer(PAYEE...\n      RETURNDATASIZE \t\t\tpayable(payee2).transfer(PAYEE...\n      PUSH 0\t\t\tpayable(payee2).transfer(PAYEE...\n      DUP1 \t\t\tpayable(payee2).transfer(PAYEE...\n      RETURNDATACOPY \t\t\tpayable(payee2).transfer(PAYEE...\n      RETURNDATASIZE \t\t\tpayable(payee2).transfer(PAYEE...\n      PUSH 0\t\t\tpayable(payee2).transfer(PAYEE...\n      REVERT \t\t\tpayable(payee2).transfer(PAYEE...\n    tag 247\t\t\tpayable(payee2).transfer(PAYEE...\n      JUMPDEST \t\t\tpayable(payee2).transfer(PAYEE...\n      POP \t\t\tpayable(payee2).transfer(PAYEE...\n      PUSH 0\t\t\tuint256 remainingValue\n      PUSH 5AF3107A4000\t\t\t100_000_000_000_000\n      PUSH [tag] 248\t\t\tMINT_PRICE - PAYEE1_AMOUNT\n      PUSH B5E620F48000\t\t\t200_000_000_000_000\n      PUSH 110D9316EC000\t\t\t300_000_000_000_000\n      PUSH [tag] 249\t\t\tMINT_PRICE - PAYEE1_AMOUNT\n      JUMP \t\t\tMINT_PRICE - PAYEE1_AMOUNT\n    tag 248\t\t\tMINT_PRICE - PAYEE1_AMOUNT\n      JUMPDEST \t\t\tMINT_PRICE - PAYEE1_AMOUNT\n      PUSH [tag] 250\t\t\tMINT_PRICE - PAYEE1_AMOUNT - P...\n      SWAP2 \t\t\tMINT_PRICE - PAYEE1_AMOUNT - P...\n      SWAP1 \t\t\tMINT_PRICE - PAYEE1_AMOUNT - P...\n      PUSH [tag] 249\t\t\tMINT_PRICE - PAYEE1_AMOUNT - P...\n      JUMP \t\t\tMINT_PRICE - PAYEE1_AMOUNT - P...\n    tag 250\t\t\tMINT_PRICE - PAYEE1_AMOUNT - P...\n      JUMPDEST \t\t\tMINT_PRICE - PAYEE1_AMOUNT - P...\n      SWAP1 \t\t\tuint256 remainingValue = MINT_...\n      POP \t\t\tuint256 remainingValue = MINT_...\n      DUP6 \t\t\tartistContract\n      PUSH 1\t\t\t\n      PUSH 1\t\t\t\n      PUSH A0\t\t\t\n      SHL \t\t\t\n      SUB \t\t\t\n      AND \t\t\tIMferMint(artistContract).mint...\n      PUSH 66100DE2\t\t\tIMferMint(artistContract).mint...\n      DUP3 \t\t\tremainingValue\n      DUP8 \t\t\tto\n      DUP8 \t\t\tpaymentId\n      DUP8 \t\t\tpaymentId\n      PUSH 40\t\t\tIMferMint(artistContract).mint...\n      MLOAD \t\t\tIMferMint(artistContract).mint...\n      DUP6 \t\t\tIMferMint(artistContract).mint...\n      PUSH FFFFFFFF\t\t\tIMferMint(artistContract).mint...\n      AND \t\t\tIMferMint(artistContract).mint...\n      PUSH E0\t\t\tIMferMint(artistContract).mint...\n      SHL \t\t\tIMferMint(artistContract).mint...\n      DUP2 \t\t\tIMferMint(artistContract).mint...\n      MSTORE \t\t\tIMferMint(artistContract).mint...\n      PUSH 4\t\t\tIMferMint(artistContract).mint...\n      ADD \t\t\tIMferMint(artistContract).mint...\n      PUSH [tag] 251\t\t\tIMferMint(artistContract).mint...\n      SWAP4 \t\t\tIMferMint(artistContract).mint...\n      SWAP3 \t\t\tIMferMint(artistContract).mint...\n      SWAP2 \t\t\tIMferMint(artistContract).mint...\n      SWAP1 \t\t\tIMferMint(artistContract).mint...\n      PUSH [tag] 252\t\t\tIMferMint(artistContract).mint...\n      JUMP \t\t\tIMferMint(artistContract).mint...\n    tag 251\t\t\tIMferMint(artistContract).mint...\n      JUMPDEST \t\t\tIMferMint(artistContract).mint...\n      PUSH 0\t\t\tIMferMint(artistContract).mint...\n      PUSH 40\t\t\tIMferMint(artistContract).mint...\n      MLOAD \t\t\tIMferMint(artistContract).mint...\n      DUP1 \t\t\tIMferMint(artistContract).mint...\n      DUP4 \t\t\tIMferMint(artistContract).mint...\n      SUB \t\t\tIMferMint(artistContract).mint...\n      DUP2 \t\t\tIMferMint(artistContract).mint...\n      DUP6 \t\t\tIMferMint(artistContract).mint...\n      DUP9 \t\t\tIMferMint(artistContract).mint...\n      DUP1 \t\t\tIMferMint(artistContract).mint...\n      EXTCODESIZE \t\t\tIMferMint(artistContract).mint...\n      ISZERO \t\t\tIMferMint(artistContract).mint...\n      DUP1 \t\t\tIMferMint(artistContract).mint...\n      ISZERO \t\t\tIMferMint(artistContract).mint...\n      PUSH [tag] 253\t\t\tIMferMint(artistContract).mint...\n      JUMPI \t\t\tIMferMint(artistContract).mint...\n      PUSH 0\t\t\tIMferMint(artistContract).mint...\n      DUP1 \t\t\tIMferMint(artistContract).mint...\n      REVERT \t\t\tIMferMint(artistContract).mint...\n    tag 253\t\t\tIMferMint(artistContract).mint...\n      JUMPDEST \t\t\tIMferMint(artistContract).mint...\n      POP \t\t\tIMferMint(artistContract).mint...\n      GAS \t\t\tIMferMint(artistContract).mint...\n      CALL \t\t\tIMferMint(artistContract).mint...\n      SWAP4 \t\t\tIMferMint(artistContract).mint...\n      POP \t\t\tIMferMint(artistContract).mint...\n      POP \t\t\tIMferMint(artistContract).mint...\n      POP \t\t\tIMferMint(artistContract).mint...\n      POP \t\t\tIMferMint(artistContract).mint...\n      DUP1 \t\t\tIMferMint(artistContract).mint...\n      ISZERO \t\t\tIMferMint(artistContract).mint...\n      PUSH [tag] 254\t\t\tIMferMint(artistContract).mint...\n      JUMPI \t\t\tIMferMint(artistContract).mint...\n      POP \t\t\tIMferMint(artistContract).mint...\n      PUSH 1\t\t\tIMferMint(artistContract).mint...\n    tag 254\t\t\tIMferMint(artistContract).mint...\n      JUMPDEST \t\t\tIMferMint(artistContract).mint...\n      PUSH [tag] 255\t\t\ttry IMferMint(artistContract)....\n      JUMPI \t\t\ttry IMferMint(artistContract)....\n      PUSH [tag] 259\t\t\ttry IMferMint(artistContract)....\n      PUSH [tag] 260\t\t\ttry IMferMint(artistContract)....\n      JUMP \t\t\ttry IMferMint(artistContract)....\n    tag 259\t\t\ttry IMferMint(artistContract)....\n      JUMPDEST \t\t\ttry IMferMint(artistContract)....\n      DUP1 \t\t\ttry IMferMint(artistContract)....\n      PUSH 8C379A0\t\t\ttry IMferMint(artistContract)....\n      SUB \t\t\ttry IMferMint(artistContract)....\n      PUSH [tag] 258\t\t\ttry IMferMint(artistContract)....\n      JUMPI \t\t\ttry IMferMint(artistContract)....\n      POP \t\t\ttry IMferMint(artistContract)....\n      PUSH [tag] 261\t\t\ttry IMferMint(artistContract)....\n      PUSH [tag] 262\t\t\ttry IMferMint(artistContract)....\n      JUMP \t\t\ttry IMferMint(artistContract)....\n    tag 261\t\t\ttry IMferMint(artistContract)....\n      JUMPDEST \t\t\ttry IMferMint(artistContract)....\n      DUP1 \t\t\ttry IMferMint(artistContract)....\n      PUSH [tag] 263\t\t\ttry IMferMint(artistContract)....\n      JUMPI \t\t\ttry IMferMint(artistContract)....\n      POP \t\t\ttry IMferMint(artistContract)....\n      PUSH [tag] 257\t\t\ttry IMferMint(artistContract)....\n      JUMP \t\t\ttry IMferMint(artistContract)....\n    tag 263\t\t\ttry IMferMint(artistContract)....\n      JUMPDEST \t\t\ttry IMferMint(artistContract)....\n      DUP1 \t\t\treason\n      PUSH 40\t\t\tabi.encodePacked(\"Minting fail...\n      MLOAD \t\t\tabi.encodePacked(\"Minting fail...\n      PUSH 20\t\t\tabi.encodePacked(\"Minting fail...\n      ADD \t\t\tabi.encodePacked(\"Minting fail...\n      PUSH [tag] 264\t\t\tabi.encodePacked(\"Minting fail...\n      SWAP2 \t\t\tabi.encodePacked(\"Minting fail...\n      SWAP1 \t\t\tabi.encodePacked(\"Minting fail...\n      PUSH [tag] 265\t\t\tabi.encodePacked(\"Minting fail...\n      JUMP \t\t\tabi.encodePacked(\"Minting fail...\n    tag 264\t\t\tabi.encodePacked(\"Minting fail...\n      JUMPDEST \t\t\tabi.encodePacked(\"Minting fail...\n      PUSH 40\t\t\tabi.encodePacked(\"Minting fail...\n      DUP1 \t\t\tabi.encodePacked(\"Minting fail...\n      MLOAD \t\t\tabi.encodePacked(\"Minting fail...\n      PUSH 1F\t\t\t\n      NOT \t\t\t\n      DUP2 \t\t\tabi.encodePacked(\"Minting fail...\n      DUP5 \t\t\tabi.encodePacked(\"Minting fail...\n      SUB \t\t\tabi.encodePacked(\"Minting fail...\n      ADD \t\t\tabi.encodePacked(\"Minting fail...\n      DUP2 \t\t\tabi.encodePacked(\"Minting fail...\n      MSTORE \t\t\tabi.encodePacked(\"Minting fail...\n      SWAP1 \t\t\tabi.encodePacked(\"Minting fail...\n      DUP3 \t\t\tabi.encodePacked(\"Minting fail...\n      SWAP1 \t\t\tabi.encodePacked(\"Minting fail...\n      MSTORE \t\t\tabi.encodePacked(\"Minting fail...\n      PUSH 461BCD\t\t\t\n      PUSH E5\t\t\t\n      SHL \t\t\t\n      DUP3 \t\t\trevert(string(abi.encodePacked...\n      MSTORE \t\t\trevert(string(abi.encodePacked...\n      PUSH [tag] 183\t\t\trevert(string(abi.encodePacked...\n      SWAP2 \t\t\trevert(string(abi.encodePacked...\n      PUSH 4\t\t\trevert(string(abi.encodePacked...\n      ADD \t\t\trevert(string(abi.encodePacked...\n      PUSH [tag] 267\t\t\trevert(string(abi.encodePacked...\n      JUMP \t\t\trevert(string(abi.encodePacked...\n    tag 258\t\t\ttry IMferMint(artistContract)....\n      JUMPDEST \t\t\ttry IMferMint(artistContract)....\n      POP \t\t\ttry IMferMint(artistContract)....\n    tag 257\t\t\ttry IMferMint(artistContract)....\n      JUMPDEST \t\t\ttry IMferMint(artistContract)....\n      PUSH 40\t\t\trevert(\"Minting failed: unknow...\n      MLOAD \t\t\trevert(\"Minting failed: unknow...\n      PUSH 461BCD\t\t\t\n      PUSH E5\t\t\t\n      SHL \t\t\t\n      DUP2 \t\t\trevert(\"Minting failed: unknow...\n      MSTORE \t\t\trevert(\"Minting failed: unknow...\n      PUSH 20\t\t\t\n      PUSH 4\t\t\trevert(\"Minting failed: unknow...\n      DUP3 \t\t\trevert(\"Minting failed: unknow...\n      ADD \t\t\trevert(\"Minting failed: unknow...\n      MSTORE \t\t\t\n      PUSH 1D\t\t\t\n      PUSH 24\t\t\t\n      DUP3 \t\t\t\n      ADD \t\t\t\n      MSTORE \t\t\t\n      PUSH 4D696E74696E67206661696C65643A20756E6B6E6F776E206572726F72000000\t\t\t\n      PUSH 44\t\t\t\n      DUP3 \t\t\t\n      ADD \t\t\t\n      MSTORE \t\t\t\n      PUSH 64\t\t\t\n      ADD \t\t\t\n      PUSH [tag] 183\t\t\trevert(\"Minting failed: unknow...\n      JUMP \t\t\t\n    tag 255\t\t\ttry IMferMint(artistContract)....\n      JUMPDEST \t\t\ttry IMferMint(artistContract)....\n      DUP5 \t\t\tto\n      PUSH 1\t\t\t\n      PUSH 1\t\t\t\n      PUSH A0\t\t\t\n      SHL \t\t\t\n      SUB \t\t\t\n      AND \t\t\tProcessed(artistContract, arti...\n      DUP3 \t\t\tartistPayee\n      PUSH 1\t\t\t\n      PUSH 1\t\t\t\n      PUSH A0\t\t\t\n      SHL \t\t\t\n      SUB \t\t\t\n      AND \t\t\tProcessed(artistContract, arti...\n      DUP8 \t\t\tartistContract\n      PUSH 1\t\t\t\n      PUSH 1\t\t\t\n      PUSH A0\t\t\t\n      SHL \t\t\t\n      SUB \t\t\t\n      AND \t\t\tProcessed(artistContract, arti...\n      PUSH 9F5F2E026D346F31C5E7E284210968D5C32B9C42A43995FA31ADF964D9CD672E\t\t\tProcessed(artistContract, arti...\n      PUSH 110D9316EC000\t\t\t300_000_000_000_000\n      DUP9 \t\t\tpaymentId\n      DUP9 \t\t\tpaymentId\n      PUSH 40\t\t\tProcessed(artistContract, arti...\n      MLOAD \t\t\tProcessed(artistContract, arti...\n      PUSH [tag] 271\t\t\tProcessed(artistContract, arti...\n      SWAP4 \t\t\tProcessed(artistContract, arti...\n      SWAP3 \t\t\tProcessed(artistContract, arti...\n      SWAP2 \t\t\tProcessed(artistContract, arti...\n      SWAP1 \t\t\tProcessed(artistContract, arti...\n      PUSH [tag] 272\t\t\tProcessed(artistContract, arti...\n      JUMP \t\t\tProcessed(artistContract, arti...\n    tag 271\t\t\tProcessed(artistContract, arti...\n      JUMPDEST \t\t\tProcessed(artistContract, arti...\n      PUSH 40\t\t\tProcessed(artistContract, arti...\n      MLOAD \t\t\tProcessed(artistContract, arti...\n      DUP1 \t\t\tProcessed(artistContract, arti...\n      SWAP2 \t\t\tProcessed(artistContract, arti...\n      SUB \t\t\tProcessed(artistContract, arti...\n      SWAP1 \t\t\tProcessed(artistContract, arti...\n      LOG4 \t\t\tProcessed(artistContract, arti...\n      POP \t\t\t{\\n        // 1. Checks (requi...\n      POP \t\t\t{\\n        // 1. Checks (requi...\n      PUSH [tag] 273\t\t\t indexed role, addre\n      PUSH 1\t\t\tl\n      DUP1 \t\t\t;\\n    }\\n\\n    construct\n      SSTORE \t\t\t;\\n    }\\n\\n    construct\n      JUMP \t\t\tAYER_ROLE, msg.sender), \"Only ...\n    tag 273\t\t\t indexed role, addre\n      JUMPDEST \t\t\t indexed role, addre\n      POP \t\t\tfunction payAndMint(\\n        ...\n      POP \t\t\tfunction payAndMint(\\n        ...\n      POP \t\t\tfunction payAndMint(\\n        ...\n      POP \t\t\tfunction payAndMint(\\n        ...\n      JUMP \t\t\tfunction payAndMint(\\n        ...\n    tag 119\t\t\tfunction pause() external only...\n      JUMPDEST \t\t\tfunction pause() external only...\n      PUSH 0\t\t\tunt)\n      PUSH [tag] 276\t\t\tER_ROLE, msg.sen\n      DUP2 \t\t\tunt)\n      PUSH [tag] 175\t\t\tER_ROLE, m\n      JUMP \t\t\tER_ROLE, msg.sen\n    tag 276\t\t\tER_ROLE, msg.sen\n      JUMPDEST \t\t\tER_ROLE, msg.sen\n      PUSH [tag] 190\t\t\t_pause()\n      PUSH [tag] 279\t\t\t_pause\n      JUMP \t\t\t_pause()\n    tag 123\t\t\t_usdc != ADDRESS_ZERO, \"USDC a...\n      JUMPDEST \t\t\t_usdc != ADDRESS_ZERO, \"USDC a...\n      PUSH 0\t\t\t    \n      SWAP2 \t\t\t != ADDRESS_\n      DUP3 \t\t\t != ADDRESS_\n      MSTORE \t\t\t != ADDRESS_\n      PUSH 20\t\t\t != ADDRESS_\n      DUP3 \t\t\t != ADDRESS_\n      DUP2 \t\t\t != ADDRESS_\n      MSTORE \t\t\t != ADDRESS_\n      PUSH 40\t\t\t != ADDRESS_\n      DUP1 \t\t\t != ADDRESS_\n      DUP5 \t\t\t != ADDRESS_\n      KECCAK256 \t\t\t != ADDRESS_\n      PUSH 1\t\t\t\n      PUSH 1\t\t\t\n      PUSH A0\t\t\t\n      SHL \t\t\t\n      SUB \t\t\t\n      SWAP4 \t\t\t != ADDRESS_ZERO, \"Invalid mu\n      SWAP1 \t\t\t != ADDRESS_ZERO, \"Invalid mu\n      SWAP4 \t\t\t != ADDRESS_ZERO, \"Invalid mu\n      AND \t\t\t != ADDRESS_ZERO, \"Invalid mu\n      DUP5 \t\t\t != ADDRESS_ZERO, \"Invalid mu\n      MSTORE \t\t\t != ADDRESS_ZERO, \"Invalid mu\n      SWAP2 \t\t\t != ADDRESS_ZERO, \"Invalid mu\n      SWAP1 \t\t\t != ADDRESS_ZERO, \"Invalid mu\n      MSTORE \t\t\t != ADDRESS_ZERO, \"Invalid mu\n      SWAP1 \t\t\t != ADDRESS_ZERO, \"Invalid mu\n      KECCAK256 \t\t\t != ADDRESS_ZERO, \"Invalid mu\n      SLOAD \t\t\t != ADDRESS_ZERO, \"Invalid mu\n      PUSH FF\t\t\t != ADDRESS_ZERO, \"Invalid mu\n      AND \t\t\t != ADDRESS_ZERO, \"Invalid mu\n      SWAP1 \t\t\t != ADDRESS_ZERO, \"Invalid mu\n      JUMP \t\t\t_usdc != ADDRESS_ZERO, \"USDC a...\n    tag 136\t\t\tfunction setGalleryPayee(addre...\n      JUMPDEST \t\t\tfunction setGalleryPayee(addre...\n      PUSH 0\t\t\tunt)\n      PUSH [tag] 282\t\t\tER_ROLE, msg.sen\n      DUP2 \t\t\tunt)\n      PUSH [tag] 175\t\t\tER_ROLE, m\n      JUMP \t\t\tER_ROLE, msg.sen\n    tag 282\t\t\tER_ROLE, msg.sen\n      JUMPDEST \t\t\tER_ROLE, msg.sen\n      PUSH 1\t\t\t\n      PUSH 1\t\t\t\n      PUSH A0\t\t\t\n      SHL \t\t\t\n      SUB \t\t\t\n      DUP3 \t\t\t_payee2 != ADDRESS_ZERO\n      AND \t\t\t_payee2 != ADDRESS_ZERO\n      PUSH [tag] 284\t\t\trequire(_payee2 != ADDRESS_ZER...\n      JUMPI \t\t\trequire(_payee2 != ADDRESS_ZER...\n      PUSH 40\t\t\trequire(_payee2 != ADDRESS_ZER...\n      MLOAD \t\t\trequire(_payee2 != ADDRESS_ZER...\n      PUSH 461BCD\t\t\t\n      PUSH E5\t\t\t\n      SHL \t\t\t\n      DUP2 \t\t\trequire(_payee2 != ADDRESS_ZER...\n      MSTORE \t\t\trequire(_payee2 != ADDRESS_ZER...\n      PUSH 20\t\t\t\n      PUSH 4\t\t\trequire(_payee2 != ADDRESS_ZER...\n      DUP3 \t\t\trequire(_payee2 != ADDRESS_ZER...\n      ADD \t\t\trequire(_payee2 != ADDRESS_ZER...\n      MSTORE \t\t\t\n      PUSH D\t\t\t\n      PUSH 24\t\t\t\n      DUP3 \t\t\t\n      ADD \t\t\t\n      MSTORE \t\t\t\n      PUSH 696E76616C6964207061796565\t\t\t\n      PUSH 98\t\t\t\n      SHL \t\t\t\n      PUSH 44\t\t\t\n      DUP3 \t\t\t\n      ADD \t\t\t\n      MSTORE \t\t\t\n      PUSH 64\t\t\t\n      ADD \t\t\t\n      PUSH [tag] 183\t\t\trequire(_payee2 != ADDRESS_ZER...\n      JUMP \t\t\t\n    tag 284\t\t\trequire(_payee2 != ADDRESS_ZER...\n      JUMPDEST \t\t\trequire(_payee2 != ADDRESS_ZER...\n      PUSH 4\t\t\tpayee2\n      DUP1 \t\t\tpayee2 = _payee2\n      SLOAD \t\t\tpayee2 = _payee2\n      PUSH 1\t\t\t\n      PUSH 1\t\t\t\n      PUSH A0\t\t\t\n      SHL \t\t\t\n      SUB \t\t\t\n      NOT \t\t\t\n      AND \t\t\tpayee2 = _payee2\n      PUSH 1\t\t\t\n      PUSH 1\t\t\t\n      PUSH A0\t\t\t\n      SHL \t\t\t\n      SUB \t\t\t\n      DUP5 \t\t\tpayee2 = _payee2\n      AND \t\t\tpayee2 = _payee2\n      SWAP1 \t\t\tpayee2 = _payee2\n      DUP2 \t\t\tpayee2 = _payee2\n      OR \t\t\tpayee2 = _payee2\n      SWAP1 \t\t\tpayee2 = _payee2\n      SWAP2 \t\t\tpayee2 = _payee2\n      SSTORE \t\t\tpayee2 = _payee2\n      PUSH 40\t\t\tGalleryPayeeUpdated(_payee2)\n      MLOAD \t\t\tGalleryPayeeUpdated(_payee2)\n      PUSH 20B93562E05C6E5F99BEBF52C1E2AFE142D48F37032CBDD6A2583FBDA41EC100\t\t\tGalleryPayeeUpdated(_payee2)\n      SWAP1 \t\t\tGalleryPayeeUpdated(_payee2)\n      PUSH 0\t\t\t\n      SWAP1 \t\t\t\n      LOG2 \t\t\tGalleryPayeeUpdated(_payee2)\n      POP \t\t\tfunction setGalleryPayee(addre...\n      POP \t\t\tfunction setGalleryPayee(addre...\n      JUMP \t\t\tfunction setGalleryPayee(addre...\n    tag 141\t\t\tfunction processPayment(\\n    ...\n      JUMPDEST \t\t\tfunction processPayment(\\n    ...\n      PUSH [tag] 288\t\t\thasRole(RELAYER_ROLE, msg.send...\n      PUSH 0\t\t\t\n      DUP1 \t\t\t\n      MLOAD \t\t\t\n      PUSH 20\t\t\t\n      PUSH data 403133B1402CFE4D9C8C47E614CC41ED4051237B14DE112F0B24C8D3D6AA6CAD\t\t\t\n      DUP4 \t\t\t\n      CODECOPY \t\t\t\n      DUP2 \t\t\t\n      MLOAD \t\t\t\n      SWAP2 \t\t\t\n      MSTORE \t\t\t\n      CALLER \t\t\tmsg.sender\n      PUSH [tag] 123\t\t\thasRole\n      JUMP \t\t\thasRole(RELAYER_ROLE, msg.send...\n    tag 288\t\t\thasRole(RELAYER_ROLE, msg.send...\n      JUMPDEST \t\t\thasRole(RELAYER_ROLE, msg.send...\n      PUSH [tag] 289\t\t\trequire(hasRole(RELAYER_ROLE, ...\n      JUMPI \t\t\trequire(hasRole(RELAYER_ROLE, ...\n      PUSH 40\t\t\trequire(hasRole(RELAYER_ROLE, ...\n      MLOAD \t\t\trequire(hasRole(RELAYER_ROLE, ...\n      PUSH 461BCD\t\t\t\n      PUSH E5\t\t\t\n      SHL \t\t\t\n      DUP2 \t\t\trequire(hasRole(RELAYER_ROLE, ...\n      MSTORE \t\t\trequire(hasRole(RELAYER_ROLE, ...\n      PUSH 20\t\t\t\n      PUSH 4\t\t\trequire(hasRole(RELAYER_ROLE, ...\n      DUP3 \t\t\trequire(hasRole(RELAYER_ROLE, ...\n      ADD \t\t\trequire(hasRole(RELAYER_ROLE, ...\n      MSTORE \t\t\t\n      PUSH C\t\t\t\n      PUSH 24\t\t\t\n      DUP3 \t\t\t\n      ADD \t\t\t\n      MSTORE \t\t\t\n      PUSH 27B7363C903932B630BCB2B9\t\t\t\n      PUSH A1\t\t\t\n      SHL \t\t\t\n      PUSH 44\t\t\t\n      DUP3 \t\t\t\n      ADD \t\t\t\n      MSTORE \t\t\t\n      PUSH 64\t\t\t\n      ADD \t\t\t\n      PUSH [tag] 183\t\t\trequire(hasRole(RELAYER_ROLE, ...\n      JUMP \t\t\t\n    tag 289\t\t\trequire(hasRole(RELAYER_ROLE, ...\n      JUMPDEST \t\t\trequire(hasRole(RELAYER_ROLE, ...\n      PUSH [tag] 293\t\t\ted account);\\n    even\n      PUSH [tag] 206\t\t\ted account);\\n    ev\n      JUMP \t\t\ted account);\\n    even\n    tag 293\t\t\ted account);\\n    even\n      JUMPDEST \t\t\ted account);\\n    even\n      PUSH [tag] 295\t\t\tble usdc;\\n    addre\n      PUSH [tag] 209\t\t\tble usdc;\\n    add\n      JUMP \t\t\tble usdc;\\n    addre\n    tag 295\t\t\tble usdc;\\n    addre\n      JUMPDEST \t\t\tble usdc;\\n    addre\n      PUSH 5\t\t\tprocessedPayment\n      DUP3 \t\t\tpaymentId\n      DUP3 \t\t\tpaymentId\n      PUSH 40\t\t\tprocessedPayment[paymentId]\n      MLOAD \t\t\tprocessedPayment[paymentId]\n      PUSH [tag] 297\t\t\tprocessedPayment[paymentId]\n      SWAP3 \t\t\tprocessedPayment[paymentId]\n      SWAP2 \t\t\tprocessedPayment[paymentId]\n      SWAP1 \t\t\tprocessedPayment[paymentId]\n      PUSH [tag] 215\t\t\tprocessedPayment[paymentId]\n      JUMP \t\t\tprocessedPayment[paymentId]\n    tag 297\t\t\tprocessedPayment[paymentId]\n      JUMPDEST \t\t\tprocessedPayment[paymentId]\n      SWAP1 \t\t\tprocessedPayment[paymentId]\n      DUP2 \t\t\tprocessedPayment[paymentId]\n      MSTORE \t\t\tprocessedPayment[paymentId]\n      PUSH 40\t\t\tprocessedPayment[paymentId]\n      MLOAD \t\t\tprocessedPayment[paymentId]\n      SWAP1 \t\t\tprocessedPayment[paymentId]\n      DUP2 \t\t\tprocessedPayment[paymentId]\n      SWAP1 \t\t\tprocessedPayment[paymentId]\n      SUB \t\t\tprocessedPayment[paymentId]\n      PUSH 20\t\t\tprocessedPayment[paymentId]\n      ADD \t\t\tprocessedPayment[paymentId]\n      SWAP1 \t\t\tprocessedPayment[paymentId]\n      KECCAK256 \t\t\tprocessedPayment[paymentId]\n      SLOAD \t\t\tprocessedPayment[paymentId]\n      PUSH FF\t\t\tprocessedPayment[paymentId]\n      AND \t\t\tprocessedPayment[paymentId]\n      ISZERO \t\t\t!processedPayment[paymentId]\n      PUSH [tag] 298\t\t\trequire(!processedPayment[paym...\n      JUMPI \t\t\trequire(!processedPayment[paym...\n      PUSH 40\t\t\trequire(!processedPayment[paym...\n      MLOAD \t\t\trequire(!processedPayment[paym...\n      PUSH 461BCD\t\t\t\n      PUSH E5\t\t\t\n      SHL \t\t\t\n      DUP2 \t\t\trequire(!processedPayment[paym...\n      MSTORE \t\t\trequire(!processedPayment[paym...\n      PUSH 20\t\t\t);\n      PUSH 4\t\t\trequire(!processedPayment[paym...\n      DUP3 \t\t\trequire(!processedPayment[paym...\n      ADD \t\t\trequire(!processedPayment[paym...\n      MSTORE \t\t\td artist contract\");\\n\n      PUSH 19\t\t\tRO\n      PUSH 24\t\t\tpayee2 != ADDRESS_\n      DUP3 \t\t\tpayee2 != ADDRESS_\n      ADD \t\t\tpayee2 != ADDRESS_\n      MSTORE \t\t\tequire(payee2 != ADDRESS_ZERO,\n      PUSH 14185E5B595B9D08185B1C9958591E481C1C9BD8D95CDCD959\t\t\t\n      PUSH 3A\t\t\t\n      SHL \t\t\t\n      PUSH 44\t\t\tnot set\");\\n\\n      \n      DUP3 \t\t\tnot set\");\\n\\n      \n      ADD \t\t\tnot set\");\\n\\n      \n      MSTORE \t\t\t payee not set\");\\n\\n        /...\n      PUSH 64\t\t\tedPayment[paymentI\n      ADD \t\t\tedPayment[paymentI\n      PUSH [tag] 183\t\t\trequire(!processedPayment[paym...\n      JUMP \t\t\t   require(!processedPayment[p...\n    tag 298\t\t\trequire(!processedPayment[paym...\n      JUMPDEST \t\t\trequire(!processedPayment[paym...\n      PUSH 40\t\t\tusdc.balanceOf(address(this))\n      MLOAD \t\t\tusdc.balanceOf(address(this))\n      PUSH 70A08231\t\t\t\n      PUSH E0\t\t\t\n      SHL \t\t\t\n      DUP2 \t\t\tusdc.balanceOf(address(this))\n      MSTORE \t\t\tusdc.balanceOf(address(this))\n      ADDRESS \t\t\tthis\n      PUSH 4\t\t\tusdc.balanceOf(address(this))\n      DUP3 \t\t\tusdc.balanceOf(address(this))\n      ADD \t\t\tusdc.balanceOf(address(this))\n      MSTORE \t\t\tOUNT = 100_000_000_000_000; //...\n      PUSH 0\t\t\tuint256 contractBalance\n      SWAP1 \t\t\tuint256 contractBalance\n      PUSHIMMUTABLE 53\t\t\tusdc\n      PUSH 1\t\t\t\n      PUSH 1\t\t\t\n      PUSH A0\t\t\t\n      SHL \t\t\t\n      SUB \t\t\t\n      AND \t\t\tusdc.balanceOf\n      SWAP1 \t\t\tusdc.balanceOf\n      PUSH 70A08231\t\t\tusdc.balanceOf\n      SWAP1 \t\t\tusdc.balanceOf\n      PUSH 24\t\t\t6 public constant \n      ADD \t\t\t6 public constant \n      PUSH 20\t\t\tusdc.balanceOf(address(this))\n      PUSH 40\t\t\tusdc.balanceOf(address(this))\n      MLOAD \t\t\tusdc.balanceOf(address(this))\n      DUP1 \t\t\tusdc.balanceOf(address(this))\n      DUP4 \t\t\tusdc.balanceOf(address(this))\n      SUB \t\t\tusdc.balanceOf(address(this))\n      DUP2 \t\t\tusdc.balanceOf(address(this))\n      DUP7 \t\t\tusdc.balanceOf(address(this))\n      GAS \t\t\tusdc.balanceOf(address(this))\n      STATICCALL \t\t\tusdc.balanceOf(address(this))\n      ISZERO \t\t\tusdc.balanceOf(address(this))\n      DUP1 \t\t\tusdc.balanceOf(address(this))\n      ISZERO \t\t\tusdc.balanceOf(address(this))\n      PUSH [tag] 302\t\t\tusdc.balanceOf(address(this))\n      JUMPI \t\t\tusdc.balanceOf(address(this))\n      RETURNDATASIZE \t\t\tusdc.balanceOf(address(this))\n      PUSH 0\t\t\tusdc.balanceOf(address(this))\n      DUP1 \t\t\tusdc.balanceOf(address(this))\n      RETURNDATACOPY \t\t\tusdc.balanceOf(address(this))\n      RETURNDATASIZE \t\t\tusdc.balanceOf(address(this))\n      PUSH 0\t\t\tusdc.balanceOf(address(this))\n      REVERT \t\t\tusdc.balanceOf(address(this))\n    tag 302\t\t\tusdc.balanceOf(address(this))\n      JUMPDEST \t\t\tusdc.balanceOf(address(this))\n      POP \t\t\tusdc.balanceOf(address(this))\n      POP \t\t\tusdc.balanceOf(address(this))\n      POP \t\t\tusdc.balanceOf(address(this))\n      POP \t\t\tusdc.balanceOf(address(this))\n      PUSH 40\t\t\tusdc.balanceOf(address(this))\n      MLOAD \t\t\tusdc.balanceOf(address(this))\n      RETURNDATASIZE \t\t\tusdc.balanceOf(address(this))\n      PUSH 1F\t\t\tusdc.balanceOf(address(this))\n      NOT \t\t\tusdc.balanceOf(address(this))\n      PUSH 1F\t\t\tusdc.balanceOf(address(this))\n      DUP3 \t\t\tusdc.balanceOf(address(this))\n      ADD \t\t\tusdc.balanceOf(address(this))\n      AND \t\t\tusdc.balanceOf(address(this))\n      DUP3 \t\t\tusdc.balanceOf(address(this))\n      ADD \t\t\tusdc.balanceOf(address(this))\n      DUP1 \t\t\tusdc.balanceOf(address(this))\n      PUSH 40\t\t\tusdc.balanceOf(address(this))\n      MSTORE \t\t\tusdc.balanceOf(address(this))\n      POP \t\t\tusdc.balanceOf(address(this))\n      DUP2 \t\t\tusdc.balanceOf(address(this))\n      ADD \t\t\tusdc.balanceOf(address(this))\n      SWAP1 \t\t\tusdc.balanceOf(address(this))\n      PUSH [tag] 303\t\t\tusdc.balanceOf(address(this))\n      SWAP2 \t\t\tusdc.balanceOf(address(this))\n      SWAP1 \t\t\tusdc.balanceOf(address(this))\n      PUSH [tag] 304\t\t\tusdc.balanceOf(address(this))\n      JUMP \t\t\tusdc.balanceOf(address(this))\n    tag 303\t\t\tusdc.balanceOf(address(this))\n      JUMPDEST \t\t\tusdc.balanceOf(address(this))\n      SWAP1 \t\t\tuint256 contractBalance = usdc...\n      POP \t\t\tuint256 contractBalance = usdc...\n      DUP4 \t\t\tamount\n      DUP2 \t\t\tcontractBalance\n      LT \t\t\tcontractBalance >= amount\n      ISZERO \t\t\tcontractBalance >= amount\n      PUSH [tag] 305\t\t\trequire(contractBalance >= amo...\n      JUMPI \t\t\trequire(contractBalance >= amo...\n      PUSH 40\t\t\trequire(contractBalance >= amo...\n      MLOAD \t\t\trequire(contractBalance >= amo...\n      PUSH 461BCD\t\t\t\n      PUSH E5\t\t\t\n      SHL \t\t\t\n      DUP2 \t\t\trequire(contractBalance >= amo...\n      MSTORE \t\t\trequire(contractBalance >= amo...\n      PUSH 20\t\t\t\n      PUSH 4\t\t\trequire(contractBalance >= amo...\n      DUP3 \t\t\trequire(contractBalance >= amo...\n      ADD \t\t\trequire(contractBalance >= amo...\n      MSTORE \t\t\t\n      PUSH 11\t\t\t\n      PUSH 24\t\t\t\n      DUP3 \t\t\t\n      ADD \t\t\t\n      MSTORE \t\t\t\n      PUSH 496E73756666696369656E742055534443\t\t\t\n      PUSH 78\t\t\t\n      SHL \t\t\t\n      PUSH 44\t\t\t\n      DUP3 \t\t\t\n      ADD \t\t\t\n      MSTORE \t\t\t\n      PUSH 64\t\t\t\n      ADD \t\t\t\n      PUSH [tag] 183\t\t\trequire(contractBalance >= amo...\n      JUMP \t\t\t\n    tag 305\t\t\trequire(contractBalance >= amo...\n      JUMPDEST \t\t\trequire(contractBalance >= amo...\n      PUSH 1\t\t\t\n      PUSH 1\t\t\t\n      PUSH A0\t\t\t\n      SHL \t\t\t\n      SUB \t\t\t\n      DUP6 \t\t\tto != ADDRESS_ZERO\n      AND \t\t\tto != ADDRESS_ZERO\n      PUSH [tag] 308\t\t\trequire(to != ADDRESS_ZERO, \"i...\n      JUMPI \t\t\trequire(to != ADDRESS_ZERO, \"i...\n      PUSH 40\t\t\trequire(to != ADDRESS_ZERO, \"i...\n      MLOAD \t\t\trequire(to != ADDRESS_ZERO, \"i...\n      PUSH 461BCD\t\t\t\n      PUSH E5\t\t\t\n      SHL \t\t\t\n      DUP2 \t\t\trequire(to != ADDRESS_ZERO, \"i...\n      MSTORE \t\t\trequire(to != ADDRESS_ZERO, \"i...\n      PUSH 20\t\t\tot\n      PUSH 4\t\t\trequire(to != ADDRESS_ZERO, \"i...\n      DUP3 \t\t\trequire(to != ADDRESS_ZERO, \"i...\n      ADD \t\t\trequire(to != ADDRESS_ZERO, \"i...\n      MSTORE \t\t\tO, \"Artist owner not \n      PUSH 11\t\t\te \n      PUSH 24\t\t\t          artistPa\n      DUP3 \t\t\t          artistPa\n      ADD \t\t\t          artistPa\n      MSTORE \t\t\td\");\\n            artistPayee ...\n      PUSH 1A5B9D985B1A59081C9958DA5C1A595B9D\t\t\t\n      PUSH 7A\t\t\t\n      SHL \t\t\t\n      PUSH 44\t\t\t } catch {\\n       \n      DUP3 \t\t\t } catch {\\n       \n      ADD \t\t\t } catch {\\n       \n      MSTORE \t\t\t        } catch {\\n           ...\n      PUSH 64\t\t\tment owner() funct\n      ADD \t\t\tment owner() funct\n      PUSH [tag] 183\t\t\trequire(to != ADDRESS_ZERO, \"i...\n      JUMP \t\t\t\\n        // Get artist owner ...\n    tag 308\t\t\trequire(to != ADDRESS_ZERO, \"i...\n      JUMPDEST \t\t\trequire(to != ADDRESS_ZERO, \"i...\n      PUSH 1\t\t\t\n      PUSH 1\t\t\t\n      PUSH A0\t\t\t\n      SHL \t\t\t\n      SUB \t\t\t\n      DUP7 \t\t\tartistContract != ADDRESS_ZERO\n      AND \t\t\tartistContract != ADDRESS_ZERO\n      PUSH [tag] 310\t\t\trequire(artistContract != ADDR...\n      JUMPI \t\t\trequire(artistContract != ADDR...\n      PUSH 40\t\t\trequire(artistContract != ADDR...\n      MLOAD \t\t\trequire(artistContract != ADDR...\n      PUSH 461BCD\t\t\t\n      PUSH E5\t\t\t\n      SHL \t\t\t\n      DUP2 \t\t\trequire(artistContract != ADDR...\n      MSTORE \t\t\trequire(artistContract != ADDR...\n      PUSH 20\t\t\t_A\n      PUSH 4\t\t\trequire(artistContract != ADDR...\n      DUP3 \t\t\trequire(artistContract != ADDR...\n      ADD \t\t\trequire(artistContract != ADDR...\n      MSTORE \t\t\t        if (PAYEE2_AM\n      PUSH 17\t\t\tAY\n      PUSH 24\t\t\te(payee2).transfer\n      DUP3 \t\t\te(payee2).transfer\n      ADD \t\t\te(payee2).transfer\n      MSTORE \t\t\t payable(payee2).transfer(PAYE\n      PUSH 1A5B9D985B1A5908185C9D1A5CDD0818DBDB9D1C9858DD\t\t\t\n      PUSH 4A\t\t\t\n      SHL \t\t\t\n      PUSH 44\t\t\t     // Mint NFT w\n      DUP3 \t\t\t     // Mint NFT w\n      ADD \t\t\t     // Mint NFT w\n      MSTORE \t\t\t);\\n\\n        // Mint NFT with...\n      PUSH 64\t\t\ter payee splits)\\n \n      ADD \t\t\ter payee splits)\\n \n      PUSH [tag] 183\t\t\trequire(artistContract != ADDR...\n      JUMP \t\t\t    }\\n\\n        // 3. Interac...\n    tag 310\t\t\trequire(artistContract != ADDR...\n      JUMPDEST \t\t\trequire(artistContract != ADDR...\n      PUSH 1\t\t\ttrue\n      PUSH 5\t\t\tprocessedPayment\n      DUP5 \t\t\tpaymentId\n      DUP5 \t\t\tpaymentId\n      PUSH 40\t\t\tprocessedPayment[paymentId]\n      MLOAD \t\t\tprocessedPayment[paymentId]\n      PUSH [tag] 312\t\t\tprocessedPayment[paymentId]\n      SWAP3 \t\t\tprocessedPayment[paymentId]\n      SWAP2 \t\t\tprocessedPayment[paymentId]\n      SWAP1 \t\t\tprocessedPayment[paymentId]\n      PUSH [tag] 215\t\t\tprocessedPayment[paymentId]\n      JUMP \t\t\tprocessedPayment[paymentId]\n    tag 312\t\t\tprocessedPayment[paymentId]\n      JUMPDEST \t\t\tprocessedPayment[paymentId]\n      SWAP1 \t\t\tprocessedPayment[paymentId]\n      DUP2 \t\t\tprocessedPayment[paymentId]\n      MSTORE \t\t\tprocessedPayment[paymentId]\n      PUSH 20\t\t\tprocessedPayment[paymentId]\n      ADD \t\t\tprocessedPayment[paymentId]\n      PUSH 40\t\t\tprocessedPayment[paymentId]\n      MLOAD \t\t\tprocessedPayment[paymentId]\n      DUP1 \t\t\tprocessedPayment[paymentId]\n      SWAP2 \t\t\tprocessedPayment[paymentId]\n      SUB \t\t\tprocessedPayment[paymentId]\n      SWAP1 \t\t\tprocessedPayment[paymentId]\n      KECCAK256 \t\t\tprocessedPayment[paymentId]\n      PUSH 0\t\t\tprocessedPayment[paymentId]\n      PUSH 100\t\t\tprocessedPayment[paymentId] = ...\n      EXP \t\t\tprocessedPayment[paymentId] = ...\n      DUP2 \t\t\tprocessedPayment[paymentId] = ...\n      SLOAD \t\t\tprocessedPayment[paymentId] = ...\n      DUP2 \t\t\tprocessedPayment[paymentId] = ...\n      PUSH FF\t\t\tprocessedPayment[paymentId] = ...\n      MUL \t\t\tprocessedPayment[paymentId] = ...\n      NOT \t\t\tprocessedPayment[paymentId] = ...\n      AND \t\t\tprocessedPayment[paymentId] = ...\n      SWAP1 \t\t\tprocessedPayment[paymentId] = ...\n      DUP4 \t\t\tprocessedPayment[paymentId] = ...\n      ISZERO \t\t\tprocessedPayment[paymentId] = ...\n      ISZERO \t\t\tprocessedPayment[paymentId] = ...\n      MUL \t\t\tprocessedPayment[paymentId] = ...\n      OR \t\t\tprocessedPayment[paymentId] = ...\n      SWAP1 \t\t\tprocessedPayment[paymentId] = ...\n      SSTORE \t\t\tprocessedPayment[paymentId] = ...\n      POP \t\t\tprocessedPayment[paymentId] = ...\n      PUSH 0\t\t\taddress artistPayee\n      DUP7 \t\t\tartistContract\n      PUSH 1\t\t\t\n      PUSH 1\t\t\t\n      PUSH A0\t\t\t\n      SHL \t\t\t\n      SUB \t\t\t\n      AND \t\t\tIMferMint(artistContract).owne...\n      PUSH 8DA5CB5B\t\t\tIMferMint(artistContract).owne...\n      PUSH 40\t\t\tIMferMint(artistContract).owne...\n      MLOAD \t\t\tIMferMint(artistContract).owne...\n      DUP2 \t\t\tIMferMint(artistContract).owne...\n      PUSH FFFFFFFF\t\t\tIMferMint(artistContract).owne...\n      AND \t\t\tIMferMint(artistContract).owne...\n      PUSH E0\t\t\tIMferMint(artistContract).owne...\n      SHL \t\t\tIMferMint(artistContract).owne...\n      DUP2 \t\t\tIMferMint(artistContract).owne...\n      MSTORE \t\t\tIMferMint(artistContract).owne...\n      PUSH 4\t\t\tIMferMint(artistContract).owne...\n      ADD \t\t\tIMferMint(artistContract).owne...\n      PUSH 20\t\t\tIMferMint(artistContract).owne...\n      PUSH 40\t\t\tIMferMint(artistContract).owne...\n      MLOAD \t\t\tIMferMint(artistContract).owne...\n      DUP1 \t\t\tIMferMint(artistContract).owne...\n      DUP4 \t\t\tIMferMint(artistContract).owne...\n      SUB \t\t\tIMferMint(artistContract).owne...\n      DUP2 \t\t\tIMferMint(artistContract).owne...\n      DUP7 \t\t\tIMferMint(artistContract).owne...\n      GAS \t\t\tIMferMint(artistContract).owne...\n      STATICCALL \t\t\tIMferMint(artistContract).owne...\n      SWAP3 \t\t\tIMferMint(artistContract).owne...\n      POP \t\t\tIMferMint(artistContract).owne...\n      POP \t\t\tIMferMint(artistContract).owne...\n      POP \t\t\tIMferMint(artistContract).owne...\n      DUP1 \t\t\tIMferMint(artistContract).owne...\n      ISZERO \t\t\tIMferMint(artistContract).owne...\n      PUSH [tag] 313\t\t\tIMferMint(artistContract).owne...\n      JUMPI \t\t\tIMferMint(artistContract).owne...\n      POP \t\t\t\n      PUSH 40\t\t\tIMferMint(artistContract).owne...\n      DUP1 \t\t\tIMferMint(artistContract).owne...\n      MLOAD \t\t\tIMferMint(artistContract).owne...\n      PUSH 1F\t\t\tIMferMint(artistContract).owne...\n      RETURNDATASIZE \t\t\tIMferMint(artistContract).owne...\n      SWAP1 \t\t\tIMferMint(artistContract).owne...\n      DUP2 \t\t\tIMferMint(artistContract).owne...\n      ADD \t\t\tIMferMint(artistContract).owne...\n      PUSH 1F\t\t\t\n      NOT \t\t\t\n      AND \t\t\tIMferMint(artistContract).owne...\n      DUP3 \t\t\tIMferMint(artistContract).owne...\n      ADD \t\t\tIMferMint(artistContract).owne...\n      SWAP1 \t\t\tIMferMint(artistContract).owne...\n      SWAP3 \t\t\tIMferMint(artistContract).owne...\n      MSTORE \t\t\tIMferMint(artistContract).owne...\n      PUSH [tag] 314\t\t\tIMferMint(artistContract).owne...\n      SWAP2 \t\t\tIMferMint(artistContract).owne...\n      DUP2 \t\t\tIMferMint(artistContract).owne...\n      ADD \t\t\tIMferMint(artistContract).owne...\n      SWAP1 \t\t\tIMferMint(artistContract).owne...\n      PUSH [tag] 231\t\t\tIMferMint(artistContract).owne...\n      JUMP \t\t\tIMferMint(artistContract).owne...\n    tag 314\t\t\tIMferMint(artistContract).owne...\n      JUMPDEST \t\t\tIMferMint(artistContract).owne...\n      PUSH 1\t\t\tIMferMint(artistContract).owne...\n    tag 313\t\t\tIMferMint(artistContract).owne...\n      JUMPDEST \t\t\tIMferMint(artistContract).owne...\n      PUSH [tag] 315\t\t\ttry IMferMint(artistContract)....\n      JUMPI \t\t\ttry IMferMint(artistContract)....\n      PUSH 40\t\t\trevert(\"Artist contract must i...\n      MLOAD \t\t\trevert(\"Artist contract must i...\n      PUSH 461BCD\t\t\t\n      PUSH E5\t\t\t\n      SHL \t\t\t\n      DUP2 \t\t\trevert(\"Artist contract must i...\n      MSTORE \t\t\trevert(\"Artist contract must i...\n      PUSH 4\t\t\trevert(\"Artist contract must i...\n      ADD \t\t\trevert(\"Artist contract must i...\n      PUSH [tag] 183\t\t\trevert(\"Artist contract must i...\n      SWAP1 \t\t\trevert(\"Artist contract must i...\n      PUSH [tag] 237\t\t\trevert(\"Artist contract must i...\n      JUMP \t\t\trevert(\"Artist contract must i...\n    tag 315\t\t\ttry IMferMint(artistContract)....\n      JUMPDEST \t\t\ttry IMferMint(artistContract)....\n      PUSH 1\t\t\t\n      PUSH 1\t\t\t\n      PUSH A0\t\t\t\n      SHL \t\t\t\n      SUB \t\t\t\n      DUP2 \t\t\t_owner != ADDRESS_ZERO\n      AND \t\t\t_owner != ADDRESS_ZERO\n      PUSH [tag] 321\t\t\trequire(_owner != ADDRESS_ZERO...\n      JUMPI \t\t\trequire(_owner != ADDRESS_ZERO...\n      PUSH 40\t\t\trequire(_owner != ADDRESS_ZERO...\n      MLOAD \t\t\trequire(_owner != ADDRESS_ZERO...\n      PUSH 461BCD\t\t\t\n      PUSH E5\t\t\t\n      SHL \t\t\t\n      DUP2 \t\t\trequire(_owner != ADDRESS_ZERO...\n      MSTORE \t\t\trequire(_owner != ADDRESS_ZERO...\n      PUSH 20\t\t\tal\n      PUSH 4\t\t\trequire(_owner != ADDRESS_ZERO...\n      DUP3 \t\t\trequire(_owner != ADDRESS_ZERO...\n      ADD \t\t\trequire(_owner != ADDRESS_ZERO...\n      MSTORE \t\t\t  receive() external \n      PUSH 1B\t\t\tsg\n      PUSH 24\t\t\t  emit ETHReceived\n      DUP3 \t\t\t  emit ETHReceived\n      ADD \t\t\t  emit ETHReceived\n      MSTORE \t\t\t\\n        emit ETHReceived(msg...\n      PUSH 417274697374206F776E6572206E6F7420636F6E666967757265640000000000\t\t\t\n      PUSH 44\t\t\te);\\n    }\\n}\\n\n      DUP3 \t\t\te);\\n    }\\n}\\n\n      ADD \t\t\te);\\n    }\\n}\\n\n      MSTORE \t\t\tsg.value);\\n    }\\n}\\n\n      PUSH 64\t\t\t\n      ADD \t\t\t\n      PUSH [tag] 183\t\t\trequire(_owner != ADDRESS_ZERO...\n      JUMP \t\t\tlance >= amount, \"Insufficient...\n    tag 321\t\t\trequire(_owner != ADDRESS_ZERO...\n      JUMPDEST \t\t\trequire(_owner != ADDRESS_ZERO...\n      SWAP1 \t\t\t_owner\n      POP \t\t\t\n      PUSH 0\t\t\tuint256 fee\n      DUP1 \t\t\t0\n      PUSH 3\t\t\tfeeBps\n      SLOAD \t\t\tfeeBps\n      GT \t\t\tfeeBps > 0\n      DUP1 \t\t\tfeeBps > 0 && feeRecipient != ...\n      ISZERO \t\t\tfeeBps > 0 && feeRecipient != ...\n      PUSH [tag] 323\t\t\tfeeBps > 0 && feeRecipient != ...\n      JUMPI \t\t\tfeeBps > 0 && feeRecipient != ...\n      POP \t\t\t\n      PUSH 2\t\t\tfeeRecipient\n      SLOAD \t\t\tfeeRecipient\n      PUSH 100\t\t\tfeeRecipient\n      SWAP1 \t\t\tfeeRecipient\n      DIV \t\t\tfeeRecipient\n      PUSH 1\t\t\t\n      PUSH 1\t\t\t\n      PUSH A0\t\t\t\n      SHL \t\t\t\n      SUB \t\t\t\n      AND \t\t\tfeeRecipient\n      ISZERO \t\t\tfeeRecipient != ADDRESS_ZERO\n      ISZERO \t\t\tfeeRecipient != ADDRESS_ZERO\n    tag 323\t\t\tfeeBps > 0 && feeRecipient != ...\n      JUMPDEST \t\t\tfeeBps > 0 && feeRecipient != ...\n      PUSH [tag] 324\t\t\t(feeBps > 0 && feeRecipient !=...\n      JUMPI \t\t\t(feeBps > 0 && feeRecipient !=...\n      PUSH 0\t\t\t0\n      PUSH [tag] 328\t\t\t(feeBps > 0 && feeRecipient !=...\n      JUMP \t\t\t(feeBps > 0 && feeRecipient !=...\n    tag 324\t\t\t(feeBps > 0 && feeRecipient !=...\n      JUMPDEST \t\t\t(feeBps > 0 && feeRecipient !=...\n      PUSH 2710\t\t\t10000\n      PUSH 3\t\t\tfeeBps\n      SLOAD \t\t\tfeeBps\n      DUP8 \t\t\tamount\n      PUSH [tag] 326\t\t\tamount * feeBps\n      SWAP2 \t\t\tamount * feeBps\n      SWAP1 \t\t\tamount * feeBps\n      PUSH [tag] 327\t\t\tamount * feeBps\n      JUMP \t\t\tamount * feeBps\n    tag 326\t\t\tamount * feeBps\n      JUMPDEST \t\t\tamount * feeBps\n      PUSH [tag] 328\t\t\t(amount * feeBps) / 10000\n      SWAP2 \t\t\t(amount * feeBps) / 10000\n      SWAP1 \t\t\t(amount * feeBps) / 10000\n      PUSH [tag] 329\t\t\t(amount * feeBps) / 10000\n      JUMP \t\t\t(amount * feeBps) / 10000\n    tag 328\t\t\t(amount * feeBps) / 10000\n      JUMPDEST \t\t\t(amount * feeBps) / 10000\n      SWAP1 \t\t\tuint256 fee = (feeBps > 0 && f...\n      POP \t\t\t\n      DUP1 \t\t\tfee > 0\n      ISZERO \t\t\tfee > 0\n      PUSH [tag] 331\t\t\tif (fee > 0) {\\n            us...\n      JUMPI \t\t\tif (fee > 0) {\\n            us...\n      PUSH 2\t\t\tfeeRecipient\n      SLOAD \t\t\tfeeRecipient\n      PUSH [tag] 331\t\t\tusdc.safeTransfer(feeRecipient...\n      SWAP1 \t\t\tusdc.safeTransfer(feeRecipient...\n      PUSH 1\t\t\t\n      PUSH 1\t\t\t\n      PUSH A0\t\t\t\n      SHL \t\t\t\n      SUB \t\t\t\n      PUSHIMMUTABLE 53\t\t\tusdc\n      DUP2 \t\t\tusdc.safeTransfer\n      AND \t\t\tusdc.safeTransfer\n      SWAP2 \t\t\tusdc.safeTransfer\n      PUSH 100\t\t\tfeeRecipient\n      SWAP1 \t\t\tfeeRecipient\n      DIV \t\t\tfeeRecipient\n      AND \t\t\tfeeRecipient\n      DUP4 \t\t\tfee\n      PUSH [tag] 332\t\t\tusdc.safeTransfer\n      JUMP \t\t\tusdc.safeTransfer(feeRecipient...\n    tag 331\t\t\tusdc.safeTransfer(feeRecipient...\n      JUMPDEST \t\t\tusdc.safeTransfer(feeRecipient...\n      PUSH 0\t\t\tuint256 amountAfterFee\n      PUSH [tag] 333\t\t\tamount - fee\n      DUP3 \t\t\tfee\n      DUP9 \t\t\tamount\n      PUSH [tag] 249\t\t\tamount - fee\n      JUMP \t\t\tamount - fee\n    tag 333\t\t\tamount - fee\n      JUMPDEST \t\t\tamount - fee\n      SWAP1 \t\t\tuint256 amountAfterFee = amoun...\n      POP \t\t\t\n      PUSH [tag] 334\t\t\tusdc.safeTransfer(artistPayee,...\n      PUSH 1\t\t\t\n      PUSH 1\t\t\t\n      PUSH A0\t\t\t\n      SHL \t\t\t\n      SUB \t\t\t\n      PUSHIMMUTABLE 53\t\t\tusdc\n      AND \t\t\tusdc.safeTransfer\n      DUP5 \t\t\tartistPayee\n      DUP4 \t\t\tuint256 amountAfterFee = amoun...\n      PUSH [tag] 332\t\t\tusdc.safeTransfer\n      JUMP \t\t\tusdc.safeTransfer(artistPayee,...\n    tag 334\t\t\tusdc.safeTransfer(artistPayee,...\n      JUMPDEST \t\t\tusdc.safeTransfer(artistPayee,...\n      PUSH 40\t\t\tIMferMint(artistContract).mint...\n      MLOAD \t\t\tIMferMint(artistContract).mint...\n      PUSH 4ED6A5F7\t\t\t\n      PUSH E0\t\t\t\n      SHL \t\t\t\n      DUP2 \t\t\tIMferMint(artistContract).mint...\n      MSTORE \t\t\tIMferMint(artistContract).mint...\n      PUSH 1\t\t\t\n      PUSH 1\t\t\t\n      PUSH A0\t\t\t\n      SHL \t\t\t\n      SUB \t\t\t\n      DUP11 \t\t\tIMferMint(artistContract).mint...\n      AND \t\t\tIMferMint(artistContract).mint...\n      SWAP1 \t\t\tIMferMint(artistContract).mint...\n      PUSH 4ED6A5F7\t\t\tIMferMint(artistContract).mint...\n      SWAP1 \t\t\tIMferMint(artistContract).mint...\n      PUSH [tag] 335\t\t\tIMferMint(artistContract).mint...\n      SWAP1 \t\t\tIMferMint(artistContract).mint...\n      DUP12 \t\t\tto\n      SWAP1 \t\t\tto\n      DUP11 \t\t\tpaymentId\n      SWAP1 \t\t\tpaymentId\n      DUP11 \t\t\tpaymentId\n      SWAP1 \t\t\tpaymentId\n      PUSH 4\t\t\tIMferMint(artistContract).mint...\n      ADD \t\t\tIMferMint(artistContract).mint...\n      PUSH [tag] 252\t\t\tIMferMint(artistContract).mint...\n      JUMP \t\t\tIMferMint(artistContract).mint...\n    tag 335\t\t\tIMferMint(artistContract).mint...\n      JUMPDEST \t\t\tIMferMint(artistContract).mint...\n      PUSH 0\t\t\tIMferMint(artistContract).mint...\n      PUSH 40\t\t\tIMferMint(artistContract).mint...\n      MLOAD \t\t\tIMferMint(artistContract).mint...\n      DUP1 \t\t\tIMferMint(artistContract).mint...\n      DUP4 \t\t\tIMferMint(artistContract).mint...\n      SUB \t\t\tIMferMint(artistContract).mint...\n      DUP2 \t\t\tIMferMint(artistContract).mint...\n      PUSH 0\t\t\tIMferMint(artistContract).mint...\n      DUP8 \t\t\tIMferMint(artistContract).mint...\n      DUP1 \t\t\tIMferMint(artistContract).mint...\n      EXTCODESIZE \t\t\tIMferMint(artistContract).mint...\n      ISZERO \t\t\tIMferMint(artistContract).mint...\n      DUP1 \t\t\tIMferMint(artistContract).mint...\n      ISZERO \t\t\tIMferMint(artistContract).mint...\n      PUSH [tag] 336\t\t\tIMferMint(artistContract).mint...\n      JUMPI \t\t\tIMferMint(artistContract).mint...\n      PUSH 0\t\t\tIMferMint(artistContract).mint...\n      DUP1 \t\t\tIMferMint(artistContract).mint...\n      REVERT \t\t\tIMferMint(artistContract).mint...\n    tag 336\t\t\tIMferMint(artistContract).mint...\n      JUMPDEST \t\t\tIMferMint(artistContract).mint...\n      POP \t\t\tIMferMint(artistContract).mint...\n      GAS \t\t\tIMferMint(artistContract).mint...\n      CALL \t\t\tIMferMint(artistContract).mint...\n      SWAP3 \t\t\tIMferMint(artistContract).mint...\n      POP \t\t\tIMferMint(artistContract).mint...\n      POP \t\t\tIMferMint(artistContract).mint...\n      POP \t\t\tIMferMint(artistContract).mint...\n      DUP1 \t\t\tIMferMint(artistContract).mint...\n      ISZERO \t\t\tIMferMint(artistContract).mint...\n      PUSH [tag] 337\t\t\tIMferMint(artistContract).mint...\n      JUMPI \t\t\tIMferMint(artistContract).mint...\n      POP \t\t\tIMferMint(artistContract).mint...\n      PUSH 1\t\t\tIMferMint(artistContract).mint...\n    tag 337\t\t\tIMferMint(artistContract).mint...\n      JUMPDEST \t\t\tIMferMint(artistContract).mint...\n      PUSH [tag] 338\t\t\ttry IMferMint(artistContract)....\n      JUMPI \t\t\ttry IMferMint(artistContract)....\n      PUSH [tag] 259\t\t\ttry IMferMint(artistContract)....\n      PUSH [tag] 260\t\t\ttry IMferMint(artistContract)....\n      JUMP \t\t\ttry IMferMint(artistContract)....\n    tag 338\t\t\ttry IMferMint(artistContract)....\n      JUMPDEST \t\t\ttry IMferMint(artistContract)....\n      DUP8 \t\t\tto\n      PUSH 1\t\t\t\n      PUSH 1\t\t\t\n      PUSH A0\t\t\t\n      SHL \t\t\t\n      SUB \t\t\t\n      AND \t\t\tProcessed(artistContract, arti...\n      DUP4 \t\t\tartistPayee\n      PUSH 1\t\t\t\n      PUSH 1\t\t\t\n      PUSH A0\t\t\t\n      SHL \t\t\t\n      SUB \t\t\t\n      AND \t\t\tProcessed(artistContract, arti...\n      DUP11 \t\t\tartistContract\n      PUSH 1\t\t\t\n      PUSH 1\t\t\t\n      PUSH A0\t\t\t\n      SHL \t\t\t\n      SUB \t\t\t\n      AND \t\t\tProcessed(artistContract, arti...\n      PUSH 9F5F2E026D346F31C5E7E284210968D5C32B9C42A43995FA31ADF964D9CD672E\t\t\tProcessed(artistContract, arti...\n      DUP11 \t\t\tamount\n      DUP11 \t\t\tpaymentId\n      DUP11 \t\t\tpaymentId\n      PUSH 40\t\t\tProcessed(artistContract, arti...\n      MLOAD \t\t\tProcessed(artistContract, arti...\n      PUSH [tag] 349\t\t\tProcessed(artistContract, arti...\n      SWAP4 \t\t\tProcessed(artistContract, arti...\n      SWAP3 \t\t\tProcessed(artistContract, arti...\n      SWAP2 \t\t\tProcessed(artistContract, arti...\n      SWAP1 \t\t\tProcessed(artistContract, arti...\n      PUSH [tag] 272\t\t\tProcessed(artistContract, arti...\n      JUMP \t\t\tProcessed(artistContract, arti...\n    tag 349\t\t\tProcessed(artistContract, arti...\n      JUMPDEST \t\t\tProcessed(artistContract, arti...\n      PUSH 40\t\t\tProcessed(artistContract, arti...\n      MLOAD \t\t\tProcessed(artistContract, arti...\n      DUP1 \t\t\tProcessed(artistContract, arti...\n      SWAP2 \t\t\tProcessed(artistContract, arti...\n      SUB \t\t\tProcessed(artistContract, arti...\n      SWAP1 \t\t\tProcessed(artistContract, arti...\n      LOG4 \t\t\tProcessed(artistContract, arti...\n      POP \t\t\t{\\n        require(!processedP...\n      POP \t\t\t{\\n        require(!processedP...\n      POP \t\t\t{\\n        require(!processedP...\n      POP \t\t\t{\\n        require(!processedP...\n      PUSH [tag] 350\t\t\t indexed role, addre\n      PUSH 1\t\t\tl\n      DUP1 \t\t\t;\\n    }\\n\\n    construct\n      SSTORE \t\t\t;\\n    }\\n\\n    construct\n      JUMP \t\t\tAYER_ROLE, msg.sender), \"Only ...\n    tag 350\t\t\t indexed role, addre\n      JUMPDEST \t\t\t indexed role, addre\n      POP \t\t\tfunction processPayment(\\n    ...\n      POP \t\t\tfunction processPayment(\\n    ...\n      POP \t\t\tfunction processPayment(\\n    ...\n      POP \t\t\tfunction processPayment(\\n    ...\n      POP \t\t\tfunction processPayment(\\n    ...\n      JUMP \t\t\tfunction processPayment(\\n    ...\n    tag 149\t\t\t uint256 contractBalance = usd...\n      JUMPDEST \t\t\t uint256 contractBalance = usd...\n      PUSH 0\t\t\t  emit \n      DUP3 \t\t\t_ROLE, _rela\n      DUP2 \t\t\t_ROLE, _rela\n      MSTORE \t\t\t_ROLE, _rela\n      PUSH 20\t\t\t_ROLE, _rela\n      DUP2 \t\t\t_ROLE, _rela\n      SWAP1 \t\t\t_ROLE, _rela\n      MSTORE \t\t\t_ROLE, _rela\n      PUSH 40\t\t\t_ROLE, _rela\n      SWAP1 \t\t\t_ROLE, _rela\n      KECCAK256 \t\t\t_ROLE, _rela\n      PUSH 1\t\t\t_ROLE, _relayer);\\n    \n      ADD \t\t\t_ROLE, _relayer);\\n    \n      SLOAD \t\t\t_ROLE, _relayer);\\n    \n      PUSH [tag] 353\t\t\tER_ROLE, msg.sen\n      DUP2 \t\t\tg.se\n      PUSH [tag] 175\t\t\tER_ROLE, m\n      JUMP \t\t\tER_ROLE, msg.sen\n    tag 353\t\t\tER_ROLE, msg.sen\n      JUMPDEST \t\t\tER_ROLE, msg.sen\n      PUSH [tag] 177\t\t\t USDC\");\\n        \\n        \n      DUP4 \t\t\t    \n      DUP4 \t\t\t       \n      PUSH [tag] 186\t\t\t USDC\");\\n  \n      JUMP \t\t\t USDC\");\\n        \\n        \n    tag 154\t\t\tfunction withdrawUSDC(uint256 ...\n      JUMPDEST \t\t\tfunction withdrawUSDC(uint256 ...\n      PUSH 0\t\t\tunt)\n      PUSH [tag] 357\t\t\tER_ROLE, msg.sen\n      DUP2 \t\t\tunt)\n      PUSH [tag] 175\t\t\tER_ROLE, m\n      JUMP \t\t\tER_ROLE, msg.sen\n    tag 357\t\t\tER_ROLE, msg.sen\n      JUMPDEST \t\t\tER_ROLE, msg.sen\n      PUSH [tag] 359\t\t\tble usdc;\\n    addre\n      PUSH [tag] 209\t\t\tble usdc;\\n    add\n      JUMP \t\t\tble usdc;\\n    addre\n    tag 359\t\t\tble usdc;\\n    addre\n      JUMPDEST \t\t\tble usdc;\\n    addre\n      PUSH 0\t\t\t0\n      DUP3 \t\t\tamount\n      GT \t\t\tamount > 0\n      PUSH [tag] 361\t\t\trequire(amount > 0, \"amount mu...\n      JUMPI \t\t\trequire(amount > 0, \"amount mu...\n      PUSH 40\t\t\trequire(amount > 0, \"amount mu...\n      MLOAD \t\t\trequire(amount > 0, \"amount mu...\n      PUSH 461BCD\t\t\t\n      PUSH E5\t\t\t\n      SHL \t\t\t\n      DUP2 \t\t\trequire(amount > 0, \"amount mu...\n      MSTORE \t\t\trequire(amount > 0, \"amount mu...\n      PUSH 20\t\t\t\n      PUSH 4\t\t\trequire(amount > 0, \"amount mu...\n      DUP3 \t\t\trequire(amount > 0, \"amount mu...\n      ADD \t\t\trequire(amount > 0, \"amount mu...\n      MSTORE \t\t\t\n      PUSH 12\t\t\t\n      PUSH 24\t\t\t\n      DUP3 \t\t\t\n      ADD \t\t\t\n      MSTORE \t\t\t\n      PUSH 616D6F756E74206D757374206265203E203\t\t\t\n      PUSH 74\t\t\t\n      SHL \t\t\t\n      PUSH 44\t\t\t\n      DUP3 \t\t\t\n      ADD \t\t\t\n      MSTORE \t\t\t\n      PUSH 64\t\t\t\n      ADD \t\t\t\n      PUSH [tag] 183\t\t\trequire(amount > 0, \"amount mu...\n      JUMP \t\t\t\n    tag 361\t\t\trequire(amount > 0, \"amount mu...\n      JUMPDEST \t\t\trequire(amount > 0, \"amount mu...\n      PUSH 40\t\t\tusdc.balanceOf(address(this))\n      MLOAD \t\t\tusdc.balanceOf(address(this))\n      PUSH 70A08231\t\t\t\n      PUSH E0\t\t\t\n      SHL \t\t\t\n      DUP2 \t\t\tusdc.balanceOf(address(this))\n      MSTORE \t\t\tusdc.balanceOf(address(this))\n      ADDRESS \t\t\tthis\n      PUSH 4\t\t\tusdc.balanceOf(address(this))\n      DUP3 \t\t\tusdc.balanceOf(address(this))\n      ADD \t\t\tusdc.balanceOf(address(this))\n      MSTORE \t\t\tOUNT = 100_000_000_000_000; //...\n      DUP3 \t\t\tamount\n      SWAP1 \t\t\tamount\n      PUSHIMMUTABLE 53\t\t\tusdc\n      PUSH 1\t\t\t\n      PUSH 1\t\t\t\n      PUSH A0\t\t\t\n      SHL \t\t\t\n      SUB \t\t\t\n      AND \t\t\tusdc.balanceOf\n      SWAP1 \t\t\tusdc.balanceOf\n      PUSH 70A08231\t\t\tusdc.balanceOf\n      SWAP1 \t\t\tusdc.balanceOf\n      PUSH 24\t\t\t6 public constant \n      ADD \t\t\t6 public constant \n      PUSH 20\t\t\tusdc.balanceOf(address(this))\n      PUSH 40\t\t\tusdc.balanceOf(address(this))\n      MLOAD \t\t\tusdc.balanceOf(address(this))\n      DUP1 \t\t\tusdc.balanceOf(address(this))\n      DUP4 \t\t\tusdc.balanceOf(address(this))\n      SUB \t\t\tusdc.balanceOf(address(this))\n      DUP2 \t\t\tusdc.balanceOf(address(this))\n      DUP7 \t\t\tusdc.balanceOf(address(this))\n      GAS \t\t\tusdc.balanceOf(address(this))\n      STATICCALL \t\t\tusdc.balanceOf(address(this))\n      ISZERO \t\t\tusdc.balanceOf(address(this))\n      DUP1 \t\t\tusdc.balanceOf(address(this))\n      ISZERO \t\t\tusdc.balanceOf(address(this))\n      PUSH [tag] 366\t\t\tusdc.balanceOf(address(this))\n      JUMPI \t\t\tusdc.balanceOf(address(this))\n      RETURNDATASIZE \t\t\tusdc.balanceOf(address(this))\n      PUSH 0\t\t\tusdc.balanceOf(address(this))\n      DUP1 \t\t\tusdc.balanceOf(address(this))\n      RETURNDATACOPY \t\t\tusdc.balanceOf(address(this))\n      RETURNDATASIZE \t\t\tusdc.balanceOf(address(this))\n      PUSH 0\t\t\tusdc.balanceOf(address(this))\n      REVERT \t\t\tusdc.balanceOf(address(this))\n    tag 366\t\t\tusdc.balanceOf(address(this))\n      JUMPDEST \t\t\tusdc.balanceOf(address(this))\n      POP \t\t\tusdc.balanceOf(address(this))\n      POP \t\t\tusdc.balanceOf(address(this))\n      POP \t\t\tusdc.balanceOf(address(this))\n      POP \t\t\tusdc.balanceOf(address(this))\n      PUSH 40\t\t\tusdc.balanceOf(address(this))\n      MLOAD \t\t\tusdc.balanceOf(address(this))\n      RETURNDATASIZE \t\t\tusdc.balanceOf(address(this))\n      PUSH 1F\t\t\tusdc.balanceOf(address(this))\n      NOT \t\t\tusdc.balanceOf(address(this))\n      PUSH 1F\t\t\tusdc.balanceOf(address(this))\n      DUP3 \t\t\tusdc.balanceOf(address(this))\n      ADD \t\t\tusdc.balanceOf(address(this))\n      AND \t\t\tusdc.balanceOf(address(this))\n      DUP3 \t\t\tusdc.balanceOf(address(this))\n      ADD \t\t\tusdc.balanceOf(address(this))\n      DUP1 \t\t\tusdc.balanceOf(address(this))\n      PUSH 40\t\t\tusdc.balanceOf(address(this))\n      MSTORE \t\t\tusdc.balanceOf(address(this))\n      POP \t\t\tusdc.balanceOf(address(this))\n      DUP2 \t\t\tusdc.balanceOf(address(this))\n      ADD \t\t\tusdc.balanceOf(address(this))\n      SWAP1 \t\t\tusdc.balanceOf(address(this))\n      PUSH [tag] 367\t\t\tusdc.balanceOf(address(this))\n      SWAP2 \t\t\tusdc.balanceOf(address(this))\n      SWAP1 \t\t\tusdc.balanceOf(address(this))\n      PUSH [tag] 304\t\t\tusdc.balanceOf(address(this))\n      JUMP \t\t\tusdc.balanceOf(address(this))\n    tag 367\t\t\tusdc.balanceOf(address(this))\n      JUMPDEST \t\t\tusdc.balanceOf(address(this))\n      LT \t\t\tusdc.balanceOf(address(this)) ...\n      ISZERO \t\t\tusdc.balanceOf(address(this)) ...\n      PUSH [tag] 368\t\t\trequire(usdc.balanceOf(address...\n      JUMPI \t\t\trequire(usdc.balanceOf(address...\n      PUSH 40\t\t\trequire(usdc.balanceOf(address...\n      MLOAD \t\t\trequire(usdc.balanceOf(address...\n      PUSH 461BCD\t\t\t\n      PUSH E5\t\t\t\n      SHL \t\t\t\n      DUP2 \t\t\trequire(usdc.balanceOf(address...\n      MSTORE \t\t\trequire(usdc.balanceOf(address...\n      PUSH 20\t\t\t\n      PUSH 4\t\t\trequire(usdc.balanceOf(address...\n      DUP3 \t\t\trequire(usdc.balanceOf(address...\n      ADD \t\t\trequire(usdc.balanceOf(address...\n      MSTORE \t\t\t\n      PUSH 11\t\t\t\n      PUSH 24\t\t\t\n      DUP3 \t\t\t\n      ADD \t\t\t\n      MSTORE \t\t\t\n      PUSH 496E73756666696369656E742055534443\t\t\t\n      PUSH 78\t\t\t\n      SHL \t\t\t\n      PUSH 44\t\t\t\n      DUP3 \t\t\t\n      ADD \t\t\t\n      MSTORE \t\t\t\n      PUSH 64\t\t\t\n      ADD \t\t\t\n      PUSH [tag] 183\t\t\trequire(usdc.balanceOf(address...\n      JUMP \t\t\t\n    tag 368\t\t\trequire(usdc.balanceOf(address...\n      JUMPDEST \t\t\trequire(usdc.balanceOf(address...\n      PUSH [tag] 370\t\t\tusdc.safeTransfer(msg.sender, ...\n      PUSH 1\t\t\t\n      PUSH 1\t\t\t\n      PUSH A0\t\t\t\n      SHL \t\t\t\n      SUB \t\t\t\n      PUSHIMMUTABLE 53\t\t\tusdc\n      AND \t\t\tusdc.safeTransfer\n      CALLER \t\t\tmsg.sender\n      DUP5 \t\t\tamount\n      PUSH [tag] 332\t\t\tusdc.safeTransfer\n      JUMP \t\t\tusdc.safeTransfer(msg.sender, ...\n    tag 370\t\t\tusdc.safeTransfer(msg.sender, ...\n      JUMPDEST \t\t\tusdc.safeTransfer(msg.sender, ...\n      PUSH 40\t\t\tWithdrawnUSDC(msg.sender, amou...\n      MLOAD \t\t\tWithdrawnUSDC(msg.sender, amou...\n      DUP3 \t\t\tsions/IERC20Metadata.sol\"\n      DUP2 \t\t\tsions/IERC20Metadata.sol\"\n      MSTORE \t\t\tsions/IERC20Metadata.sol\"\n      CALLER \t\t\tmsg.sender\n      SWAP1 \t\t\tmsg.sender\n      PUSH 9064B460FD73B0517CAA24227D99918304810044CAB6170024069608DC4CA0E6\t\t\tWithdrawnUSDC(msg.sender, amou...\n      SWAP1 \t\t\tWithdrawnUSDC(msg.sender, amou...\n      PUSH 20\t\t\t/E\n      ADD \t\t\tcontracts/token/ER\n    tag 371\t\t\tWithdrawnUSDC(msg.sender, amou...\n      JUMPDEST \t\t\tWithdrawnUSDC(msg.sender, amou...\n      PUSH 40\t\t\tWithdrawnUSDC(msg.sender, amou...\n      MLOAD \t\t\tWithdrawnUSDC(msg.sender, amou...\n      DUP1 \t\t\tWithdrawnUSDC(msg.sender, amou...\n      SWAP2 \t\t\tWithdrawnUSDC(msg.sender, amou...\n      SUB \t\t\tWithdrawnUSDC(msg.sender, amou...\n      SWAP1 \t\t\tWithdrawnUSDC(msg.sender, amou...\n      LOG2 \t\t\tWithdrawnUSDC(msg.sender, amou...\n      POP \t\t\tfunction withdrawUSDC(uint256 ...\n      POP \t\t\tfunction withdrawUSDC(uint256 ...\n      JUMP \t\t\tfunction withdrawUSDC(uint256 ...\n    tag 159\t\t\tfunction setFee(address _recip...\n      JUMPDEST \t\t\tfunction setFee(address _recip...\n      PUSH 0\t\t\tunt)\n      PUSH [tag] 373\t\t\tER_ROLE, msg.sen\n      DUP2 \t\t\tunt)\n      PUSH [tag] 175\t\t\tER_ROLE, m\n      JUMP \t\t\tER_ROLE, msg.sen\n    tag 373\t\t\tER_ROLE, msg.sen\n      JUMPDEST \t\t\tER_ROLE, msg.sen\n      PUSH 2710\t\t\t10000\n      DUP3 \t\t\t_bps\n      GT \t\t\t_bps <= 10000\n      ISZERO \t\t\t_bps <= 10000\n      PUSH [tag] 375\t\t\trequire(_bps <= 10000, \"bps to...\n      JUMPI \t\t\trequire(_bps <= 10000, \"bps to...\n      PUSH 40\t\t\trequire(_bps <= 10000, \"bps to...\n      MLOAD \t\t\trequire(_bps <= 10000, \"bps to...\n      PUSH 461BCD\t\t\t\n      PUSH E5\t\t\t\n      SHL \t\t\t\n      DUP2 \t\t\trequire(_bps <= 10000, \"bps to...\n      MSTORE \t\t\trequire(_bps <= 10000, \"bps to...\n      PUSH 20\t\t\t\n      PUSH 4\t\t\trequire(_bps <= 10000, \"bps to...\n      DUP3 \t\t\trequire(_bps <= 10000, \"bps to...\n      ADD \t\t\trequire(_bps <= 10000, \"bps to...\n      MSTORE \t\t\t\n      PUSH D\t\t\t\n      PUSH 24\t\t\t\n      DUP3 \t\t\t\n      ADD \t\t\t\n      MSTORE \t\t\t\n      PUSH 62707320746F6F206C61726765\t\t\t\n      PUSH 98\t\t\t\n      SHL \t\t\t\n      PUSH 44\t\t\t\n      DUP3 \t\t\t\n      ADD \t\t\t\n      MSTORE \t\t\t\n      PUSH 64\t\t\t\n      ADD \t\t\t\n      PUSH [tag] 183\t\t\trequire(_bps <= 10000, \"bps to...\n      JUMP \t\t\t\n    tag 375\t\t\trequire(_bps <= 10000, \"bps to...\n      JUMPDEST \t\t\trequire(_bps <= 10000, \"bps to...\n      PUSH 1\t\t\t\n      PUSH 1\t\t\t\n      PUSH A0\t\t\t\n      SHL \t\t\t\n      SUB \t\t\t\n      DUP4 \t\t\t_recipient != ADDRESS_ZERO\n      AND \t\t\t_recipient != ADDRESS_ZERO\n      ISZERO \t\t\t_recipient != ADDRESS_ZERO\n      ISZERO \t\t\t_recipient != ADDRESS_ZERO\n      DUP1 \t\t\t_recipient != ADDRESS_ZERO\n      PUSH [tag] 378\t\t\t_recipient != ADDRESS_ZERO || ...\n      JUMPI \t\t\t_recipient != ADDRESS_ZERO || ...\n      POP \t\t\t\n      DUP2 \t\t\t_bps == 0\n      ISZERO \t\t\t_bps == 0\n    tag 378\t\t\t_recipient != ADDRESS_ZERO || ...\n      JUMPDEST \t\t\t_recipient != ADDRESS_ZERO || ...\n      PUSH [tag] 379\t\t\trequire(_recipient != ADDRESS_...\n      JUMPI \t\t\trequire(_recipient != ADDRESS_...\n      PUSH 40\t\t\trequire(_recipient != ADDRESS_...\n      MLOAD \t\t\trequire(_recipient != ADDRESS_...\n      PUSH 461BCD\t\t\t\n      PUSH E5\t\t\t\n      SHL \t\t\t\n      DUP2 \t\t\trequire(_recipient != ADDRESS_...\n      MSTORE \t\t\trequire(_recipient != ADDRESS_...\n      PUSH 20\t\t\t\n      PUSH 4\t\t\trequire(_recipient != ADDRESS_...\n      DUP3 \t\t\trequire(_recipient != ADDRESS_...\n      ADD \t\t\trequire(_recipient != ADDRESS_...\n      MSTORE \t\t\t\n      PUSH 15\t\t\t\n      PUSH 24\t\t\t\n      DUP3 \t\t\t\n      ADD \t\t\t\n      MSTORE \t\t\t\n      PUSH 1A5B9D985B1A5908199959481C9958DA5C1A595B9D\t\t\t\n      PUSH 5A\t\t\t\n      SHL \t\t\t\n      PUSH 44\t\t\t\n      DUP3 \t\t\t\n      ADD \t\t\t\n      MSTORE \t\t\t\n      PUSH 64\t\t\t\n      ADD \t\t\t\n      PUSH [tag] 183\t\t\trequire(_recipient != ADDRESS_...\n      JUMP \t\t\t\n    tag 379\t\t\trequire(_recipient != ADDRESS_...\n      JUMPDEST \t\t\trequire(_recipient != ADDRESS_...\n      PUSH 3\t\t\tfeeBps\n      DUP1 \t\t\tfeeBps\n      SLOAD \t\t\tfeeBps\n      PUSH 2\t\t\tfeeRecipient\n      DUP1 \t\t\tfeeRecipient = _recipient\n      SLOAD \t\t\tfeeRecipient = _recipient\n      PUSH 100\t\t\t\n      PUSH 1\t\t\t\n      PUSH A8\t\t\t\n      SHL \t\t\t\n      SUB \t\t\t\n      NOT \t\t\t\n      AND \t\t\tfeeRecipient = _recipient\n      PUSH 100\t\t\tfeeRecipient = _recipient\n      PUSH 1\t\t\t\n      PUSH 1\t\t\t\n      PUSH A0\t\t\t\n      SHL \t\t\t\n      SUB \t\t\t\n      DUP9 \t\t\tfeeRecipient = _recipient\n      AND \t\t\tfeeRecipient = _recipient\n      SWAP1 \t\t\tfeeRecipient = _recipient\n      DUP2 \t\t\tfeeRecipient = _recipient\n      MUL \t\t\tfeeRecipient = _recipient\n      SWAP2 \t\t\tfeeRecipient = _recipient\n      SWAP1 \t\t\tfeeRecipient = _recipient\n      SWAP2 \t\t\tfeeRecipient = _recipient\n      OR \t\t\tfeeRecipient = _recipient\n      SWAP1 \t\t\tfeeRecipient = _recipient\n      SWAP2 \t\t\tfeeRecipient = _recipient\n      SSTORE \t\t\tfeeRecipient = _recipient\n      SWAP2 \t\t\tfeeBps = _bps\n      DUP5 \t\t\tfeeBps = _bps\n      SWAP1 \t\t\tfeeBps = _bps\n      SSTORE \t\t\tfeeBps = _bps\n      PUSH 40\t\t\tFeeUpdated(_recipient, oldBps,...\n      MLOAD \t\t\tFeeUpdated(_recipient, oldBps,...\n      SWAP1 \t\t\tfeeBps\n      SWAP2 \t\t\tfeeBps\n      DUP5 \t\t\tfeeBps = _bps\n      SWAP2 \t\t\tfeeBps = _bps\n      DUP4 \t\t\tfeeBps\n      SWAP2 \t\t\tfeeBps\n      SWAP1 \t\t\tfeeRecipient = _recipient\n      PUSH CF5B6C438B64611D8EE0722509D7AD5149D4F779F0B29BC845152F0D89E42E19\t\t\tFeeUpdated(_recipient, oldBps,...\n      SWAP1 \t\t\tFeeUpdated(_recipient, oldBps,...\n      PUSH 0\t\t\t\n      SWAP1 \t\t\t\n      LOG4 \t\t\tFeeUpdated(_recipient, oldBps,...\n      POP \t\t\t{\\n        require(_bps <= 100...\n      POP \t\t\tfunction setFee(address _recip...\n      POP \t\t\tfunction setFee(address _recip...\n      POP \t\t\tfunction setFee(address _recip...\n      JUMP \t\t\tfunction setFee(address _recip...\n    tag 167\t\t\tfunction withdrawETH(uint256 a...\n      JUMPDEST \t\t\tfunction withdrawETH(uint256 a...\n      PUSH 0\t\t\tunt)\n      PUSH [tag] 383\t\t\tER_ROLE, msg.sen\n      DUP2 \t\t\tunt)\n      PUSH [tag] 175\t\t\tER_ROLE, m\n      JUMP \t\t\tER_ROLE, msg.sen\n    tag 383\t\t\tER_ROLE, msg.sen\n      JUMPDEST \t\t\tER_ROLE, msg.sen\n      PUSH [tag] 385\t\t\tble usdc;\\n    addre\n      PUSH [tag] 209\t\t\tble usdc;\\n    add\n      JUMP \t\t\tble usdc;\\n    addre\n    tag 385\t\t\tble usdc;\\n    addre\n      JUMPDEST \t\t\tble usdc;\\n    addre\n      PUSH 0\t\t\t0\n      DUP3 \t\t\tamount\n      GT \t\t\tamount > 0\n      PUSH [tag] 387\t\t\trequire(amount > 0, \"amount mu...\n      JUMPI \t\t\trequire(amount > 0, \"amount mu...\n      PUSH 40\t\t\trequire(amount > 0, \"amount mu...\n      MLOAD \t\t\trequire(amount > 0, \"amount mu...\n      PUSH 461BCD\t\t\t\n      PUSH E5\t\t\t\n      SHL \t\t\t\n      DUP2 \t\t\trequire(amount > 0, \"amount mu...\n      MSTORE \t\t\trequire(amount > 0, \"amount mu...\n      PUSH 20\t\t\t\n      PUSH 4\t\t\trequire(amount > 0, \"amount mu...\n      DUP3 \t\t\trequire(amount > 0, \"amount mu...\n      ADD \t\t\trequire(amount > 0, \"amount mu...\n      MSTORE \t\t\t\n      PUSH 12\t\t\t\n      PUSH 24\t\t\t\n      DUP3 \t\t\t\n      ADD \t\t\t\n      MSTORE \t\t\t\n      PUSH 616D6F756E74206D757374206265203E203\t\t\t\n      PUSH 74\t\t\t\n      SHL \t\t\t\n      PUSH 44\t\t\t\n      DUP3 \t\t\t\n      ADD \t\t\t\n      MSTORE \t\t\t\n      PUSH 64\t\t\t\n      ADD \t\t\t\n      PUSH [tag] 183\t\t\trequire(amount > 0, \"amount mu...\n      JUMP \t\t\t\n    tag 387\t\t\trequire(amount > 0, \"amount mu...\n      JUMPDEST \t\t\trequire(amount > 0, \"amount mu...\n      DUP2 \t\t\tamount\n      SELFBALANCE \t\t\taddress(this).balance\n      LT \t\t\taddress(this).balance >= amoun...\n      ISZERO \t\t\taddress(this).balance >= amoun...\n      PUSH [tag] 389\t\t\trequire(address(this).balance ...\n      JUMPI \t\t\trequire(address(this).balance ...\n      PUSH 40\t\t\trequire(address(this).balance ...\n      MLOAD \t\t\trequire(address(this).balance ...\n      PUSH 461BCD\t\t\t\n      PUSH E5\t\t\t\n      SHL \t\t\t\n      DUP2 \t\t\trequire(address(this).balance ...\n      MSTORE \t\t\trequire(address(this).balance ...\n      PUSH 20\t\t\t\n      PUSH 4\t\t\trequire(address(this).balance ...\n      DUP3 \t\t\trequire(address(this).balance ...\n      ADD \t\t\trequire(address(this).balance ...\n      MSTORE \t\t\t\n      PUSH 10\t\t\t\n      PUSH 24\t\t\t\n      DUP3 \t\t\t\n      ADD \t\t\t\n      MSTORE \t\t\t\n      PUSH 92DCE6EACCCCD2C6D2CADCE8408AA89\t\t\t\n      PUSH 83\t\t\t\n      SHL \t\t\t\n      PUSH 44\t\t\t\n      DUP3 \t\t\t\n      ADD \t\t\t\n      MSTORE \t\t\t\n      PUSH 64\t\t\t\n      ADD \t\t\t\n      PUSH [tag] 183\t\t\trequire(address(this).balance ...\n      JUMP \t\t\t\n    tag 389\t\t\trequire(address(this).balance ...\n      JUMPDEST \t\t\trequire(address(this).balance ...\n      PUSH 40\t\t\tpayable(msg.sender).transfer(a...\n      MLOAD \t\t\tpayable(msg.sender).transfer(a...\n      CALLER \t\t\tmsg.sender\n      SWAP1 \t\t\tmsg.sender\n      DUP4 \t\t\tpayable(msg.sender).transfer(a...\n      ISZERO \t\t\tpayable(msg.sender).transfer(a...\n      PUSH 8FC\t\t\tpayable(msg.sender).transfer(a...\n      MUL \t\t\tpayable(msg.sender).transfer(a...\n      SWAP1 \t\t\tpayable(msg.sender).transfer(a...\n      DUP5 \t\t\tamount\n      SWAP1 \t\t\tamount\n      PUSH 0\t\t\tpayable(msg.sender).transfer(a...\n      DUP2 \t\t\tpayable(msg.sender).transfer(a...\n      DUP2 \t\t\tpayable(msg.sender).transfer(a...\n      DUP2 \t\t\tpayable(msg.sender).transfer(a...\n      DUP6 \t\t\tamount\n      DUP9 \t\t\tmsg.sender\n      DUP9 \t\t\tpayable(msg.sender).transfer(a...\n      CALL \t\t\tpayable(msg.sender).transfer(a...\n      SWAP4 \t\t\tpayable(msg.sender).transfer(a...\n      POP \t\t\tpayable(msg.sender).transfer(a...\n      POP \t\t\tpayable(msg.sender).transfer(a...\n      POP \t\t\tpayable(msg.sender).transfer(a...\n      POP \t\t\tpayable(msg.sender).transfer(a...\n      ISZERO \t\t\tpayable(msg.sender).transfer(a...\n      DUP1 \t\t\tpayable(msg.sender).transfer(a...\n      ISZERO \t\t\tpayable(msg.sender).transfer(a...\n      PUSH [tag] 393\t\t\tpayable(msg.sender).transfer(a...\n      JUMPI \t\t\tpayable(msg.sender).transfer(a...\n      RETURNDATASIZE \t\t\tpayable(msg.sender).transfer(a...\n      PUSH 0\t\t\tpayable(msg.sender).transfer(a...\n      DUP1 \t\t\tpayable(msg.sender).transfer(a...\n      RETURNDATACOPY \t\t\tpayable(msg.sender).transfer(a...\n      RETURNDATASIZE \t\t\tpayable(msg.sender).transfer(a...\n      PUSH 0\t\t\tpayable(msg.sender).transfer(a...\n      REVERT \t\t\tpayable(msg.sender).transfer(a...\n    tag 393\t\t\tpayable(msg.sender).transfer(a...\n      JUMPDEST \t\t\tpayable(msg.sender).transfer(a...\n      POP \t\t\t\n      PUSH 40\t\t\tWithdrawnETH(msg.sender, amoun...\n      MLOAD \t\t\tWithdrawnETH(msg.sender, amoun...\n      DUP3 \t\t\tsions/IERC20Metadata.sol\"\n      DUP2 \t\t\tsions/IERC20Metadata.sol\"\n      MSTORE \t\t\tsions/IERC20Metadata.sol\"\n      CALLER \t\t\tmsg.sender\n      SWAP1 \t\t\tmsg.sender\n      PUSH 5817FE91D2748C33F168D8A78037FC073ADAF6EC8E3613A758D44A2CFAE4563D\t\t\tWithdrawnETH(msg.sender, amoun...\n      SWAP1 \t\t\tWithdrawnETH(msg.sender, amoun...\n      PUSH 20\t\t\t/E\n      ADD \t\t\tcontracts/token/ER\n      PUSH [tag] 371\t\t\tWithdrawnETH(msg.sender, amoun...\n      JUMP \t\t\te-Identifier: MIT\\npragma soli...\n    tag 170\t\t\t    require(hasRole(DEFAULT_AD...\n      JUMPDEST \t\t\t    require(hasRole(DEFAULT_AD...\n      PUSH 0\t\t\t\\n   \n      PUSH 1\t\t\t\n      PUSH 1\t\t\t\n      PUSH E0\t\t\t\n      SHL \t\t\t\n      SUB \t\t\t\n      NOT \t\t\t\n      DUP3 \t\t\t   address _usdc,\\n        add...\n      AND \t\t\t   address _usdc,\\n        add...\n      PUSH 7965DB0B\t\t\t\n      PUSH E0\t\t\t\n      SHL \t\t\t\n      EQ \t\t\t   address _usdc,\\n        add...\n      DUP1 \t\t\t   address _usdc,\\n        add...\n      PUSH [tag] 169\t\t\t   address _usdc,\\n        add...\n      JUMPI \t\t\t   address _usdc,\\n        add...\n      POP \t\t\t\n      PUSH 1FFC9A7\t\t\t\n      PUSH E0\t\t\t\n      SHL \t\t\t\n      PUSH 1\t\t\t\n      PUSH 1\t\t\t\n      PUSH E0\t\t\t\n      SHL \t\t\t\n      SUB \t\t\t\n      NOT \t\t\t\n      DUP4 \t\t\tGuard, Pausable {\\n    using S...\n      AND \t\t\tGuard, Pausable {\\n    using S...\n      EQ \t\t\tGuard, Pausable {\\n    using S...\n      PUSH [tag] 169\t\t\t  address _payee2,\\n        ad...\n      JUMP \t\t\te;\\n    function owner() exter...\n    tag 175\t\t\t_ADMIN_ROLE, _admin);\\n       ...\n      JUMPDEST \t\t\t_ADMIN_ROLE, _admin);\\n       ...\n      PUSH [tag] 190\t\t\tisig);\\n        _grantRole(REL...\n      DUP2 \t\t\t    \n      CALLER \t\t\tentId) ext\n      PUSH [tag] 402\t\t\tisig);\\n   \n      JUMP \t\t\tisig);\\n        _grantRole(REL...\n    tag 178\t\t\t    require(_owner != ADDRESS_...\n      JUMPDEST \t\t\t    require(_owner != ADDRESS_...\n      PUSH [tag] 404\t\t\tistPayee = _owner;\\n   \n      DUP3 \t\t\t = _\n      DUP3 \t\t\tner;\\n  \n      PUSH [tag] 123\t\t\tistPaye\n      JUMP \t\t\tistPayee = _owner;\\n   \n    tag 404\t\t\tistPayee = _owner;\\n   \n      JUMPDEST \t\t\tistPayee = _owner;\\n   \n      PUSH [tag] 185\t\t\t  artistPayee = _owner;\\n     ...\n      JUMPI \t\t\t  artistPayee = _owner;\\n     ...\n      PUSH 0\t\t\t      \n      DUP3 \t\t\t           r\n      DUP2 \t\t\t           r\n      MSTORE \t\t\t           r\n      PUSH 20\t\t\t           r\n      DUP2 \t\t\t           r\n      DUP2 \t\t\t           r\n      MSTORE \t\t\t           r\n      PUSH 40\t\t\t           r\n      DUP1 \t\t\t           r\n      DUP4 \t\t\t           r\n      KECCAK256 \t\t\t           r\n      PUSH 1\t\t\t\n      PUSH 1\t\t\t\n      PUSH A0\t\t\t\n      SHL \t\t\t\n      SUB \t\t\t\n      DUP6 \t\t\t           revert(\"Artist con\n      AND \t\t\t           revert(\"Artist con\n      DUP5 \t\t\t           revert(\"Artist con\n      MSTORE \t\t\t           revert(\"Artist con\n      SWAP1 \t\t\t           revert(\"Artist con\n      SWAP2 \t\t\t           revert(\"Artist con\n      MSTORE \t\t\t           revert(\"Artist con\n      SWAP1 \t\t\t           revert(\"Artist con\n      KECCAK256 \t\t\t           revert(\"Artist con\n      DUP1 \t\t\t           revert(\"Artist cont...\n      SLOAD \t\t\t           revert(\"Artist cont...\n      PUSH FF\t\t\t\n      NOT \t\t\t\n      AND \t\t\t           revert(\"Artist cont...\n      PUSH 1\t\t\tct m\n      OR \t\t\t           revert(\"Artist cont...\n      SWAP1 \t\t\t           revert(\"Artist cont...\n      SSTORE \t\t\t           revert(\"Artist cont...\n      PUSH [tag] 406\t\t\t       // 3.\n      CALLER \t\t\tentId) ext\n      SWAP1 \t\t\tentId) ext\n      JUMP \t\t\t\";\\n\\ninterface IMferMint {\\n ...\n    tag 406\t\t\t       // 3.\n      JUMPDEST \t\t\t       // 3.\n      PUSH 1\t\t\t\n      PUSH 1\t\t\t\n      PUSH A0\t\t\t\n      SHL \t\t\t\n      SUB \t\t\t\n      AND \t\t\t() function\");\\n        }\\n\\n ...\n      DUP2 \t\t\t     }\\n\n      PUSH 1\t\t\t\n      PUSH 1\t\t\t\n      PUSH A0\t\t\t\n      SHL \t\t\t\n      SUB \t\t\t\n      AND \t\t\t() function\");\\n        }\\n\\n ...\n      DUP4 \t\t\t);\\n \n      PUSH 2F8788117E7EFF1D82E926EC794901D17C78024A50270940304540A733656F0D\t\t\t() function\");\\n        }\\n\\n ...\n      PUSH 40\t\t\t() function\");\\n        }\\n\\n ...\n      MLOAD \t\t\t() function\");\\n        }\\n\\n ...\n      PUSH 40\t\t\t() function\");\\n        }\\n\\n ...\n      MLOAD \t\t\t() function\");\\n        }\\n\\n ...\n      DUP1 \t\t\t() function\");\\n        }\\n\\n ...\n      SWAP2 \t\t\t() function\");\\n        }\\n\\n ...\n      SUB \t\t\t() function\");\\n        }\\n\\n ...\n      SWAP1 \t\t\t() function\");\\n        }\\n\\n ...\n      LOG4 \t\t\t() function\");\\n        }\\n\\n ...\n      POP \t\t\t    require(_owner != ADDRESS_...\n      POP \t\t\t    require(_owner != ADDRESS_...\n      JUMP \t\t\t    require(_owner != ADDRESS_...\n    tag 186\t\t\t > 0) payable(payee2).transfer...\n      JUMPDEST \t\t\t > 0) payable(payee2).transfer...\n      PUSH [tag] 409\t\t\tling (forward remainin\n      DUP3 \t\t\trwar\n      DUP3 \t\t\tremaini\n      PUSH [tag] 123\t\t\tling (f\n      JUMP \t\t\tling (forward remainin\n    tag 409\t\t\tling (forward remainin\n      JUMPDEST \t\t\tling (forward remainin\n      ISZERO \t\t\thandling (forward remaining ET...\n      PUSH [tag] 185\t\t\thandling (forward remaining ET...\n      JUMPI \t\t\thandling (forward remaining ET...\n      PUSH 0\t\t\tingVa\n      DUP3 \t\t\te splits)\\n  \n      DUP2 \t\t\te splits)\\n  \n      MSTORE \t\t\te splits)\\n  \n      PUSH 20\t\t\te splits)\\n  \n      DUP2 \t\t\te splits)\\n  \n      DUP2 \t\t\te splits)\\n  \n      MSTORE \t\t\te splits)\\n  \n      PUSH 40\t\t\te splits)\\n  \n      DUP1 \t\t\te splits)\\n  \n      DUP4 \t\t\te splits)\\n  \n      KECCAK256 \t\t\te splits)\\n  \n      PUSH 1\t\t\t\n      PUSH 1\t\t\t\n      PUSH A0\t\t\t\n      SHL \t\t\t\n      SUB \t\t\t\n      DUP6 \t\t\te splits)\\n        uint256 rem\n      AND \t\t\te splits)\\n        uint256 rem\n      DUP1 \t\t\te splits)\\n        uint256 rem\n      DUP6 \t\t\te splits)\\n        uint256 rem\n      MSTORE \t\t\te splits)\\n        uint256 rem\n      SWAP3 \t\t\te splits)\\n        uint256 rem\n      MSTORE \t\t\te splits)\\n        uint256 rem\n      DUP1 \t\t\te splits)\\n        uint256 rem\n      DUP4 \t\t\te splits)\\n        uint256 rem\n      KECCAK256 \t\t\te splits)\\n        uint256 rem\n      DUP1 \t\t\te splits)\\n        uint256 rem...\n      SLOAD \t\t\te splits)\\n        uint256 rem...\n      PUSH FF\t\t\t\n      NOT \t\t\t\n      AND \t\t\te splits)\\n        uint256 rem...\n      SWAP1 \t\t\te splits)\\n        uint256 rem...\n      SSTORE \t\t\te splits)\\n        uint256 rem...\n      MLOAD \t\t\tPAYEE1_AMOUNT - PAYEE2_AMOUNT;...\n      CALLER \t\t\tentId) ext\n      SWAP3 \t\t\tentId) ext\n      DUP6 \t\t\te splits)\\n  \n      SWAP2 \t\t\te splits)\\n  \n      PUSH F6391F5C32D9C69D2A47EA670B442974B53935D1EDC7FD64EB21E047A839171B\t\t\tPAYEE1_AMOUNT - PAYEE2_AMOUNT;...\n      SWAP2 \t\t\tPAYEE1_AMOUNT - PAYEE2_AMOUNT;...\n      SWAP1 \t\t\tingVa\n      LOG4 \t\t\tPAYEE1_AMOUNT - PAYEE2_AMOUNT;...\n      POP \t\t\t > 0) payable(payee2).transfer...\n      POP \t\t\t > 0) payable(payee2).transfer...\n      JUMP \t\t\t > 0) payable(payee2).transfer...\n    tag 191\t\t\tndexed sender, uint256 amount)...\n      JUMPDEST \t\t\tndexed sender, uint256 amount)...\n      PUSH [tag] 413\t\t\try address (fixe\n      PUSH [tag] 414\t\t\try address (fi\n      JUMP \t\t\try address (fixe\n    tag 413\t\t\try address (fixe\n      JUMPDEST \t\t\try address (fixe\n      PUSH 2\t\t\tn wei (\n      DUP1 \t\t\tn wei (0.0003 E\n      SLOAD \t\t\tn wei (0.0003 E\n      PUSH FF\t\t\t\n      NOT \t\t\t\n      AND \t\t\tn wei (0.0003 E\n      SWAP1 \t\t\tn wei (0.0003 E\n      SSTORE \t\t\tn wei (0.0003 E\n      PUSH 5DB9EE0A495BF2E6FF9C91A7834C1BA4FDD244A5E8AA4E537BD38AEAE4B073AA\t\t\t public constant MINT_\n      CALLER \t\t\tentId) ext\n    tag 416\t\t\tonstant MINT\n      JUMPDEST \t\t\tonstant MINT\n      PUSH 40\t\t\t public constant MINT_\n      MLOAD \t\t\t public constant MINT_\n      PUSH 1\t\t\t\n      PUSH 1\t\t\t\n      PUSH A0\t\t\t\n      SHL \t\t\t\n      SUB \t\t\t\n      SWAP1 \t\t\t_000_000; // 0.0001 ETH (Galle...\n      SWAP2 \t\t\t_000_000; // 0.0001 ETH (Galle...\n      AND \t\t\t_000_000; // 0.0001 ETH (Galle...\n      DUP2 \t\t\tOUNT = 100_000_000_000_000; //...\n      MSTORE \t\t\tOUNT = 100_000_000_000_000; //...\n      PUSH 20\t\t\tnt\n      ADD \t\t\t6 public constant \n      PUSH 40\t\t\t public constant MINT_\n      MLOAD \t\t\t public constant MINT_\n      DUP1 \t\t\t public constant MINT_\n      SWAP2 \t\t\t public constant MINT_\n      SUB \t\t\t public constant MINT_\n      SWAP1 \t\t\t public constant MINT_\n      LOG1 \t\t\t public constant MINT_\n      JUMP \t\t\tndexed sender, uint256 amount)...\n    tag 206\t\t\tcount);\\n    event GalleryPaye...\n      JUMPDEST \t\t\tcount);\\n    event GalleryPaye...\n      PUSH 2\t\t\tp\n      PUSH 1\t\t\t  // Fi\n      SLOAD \t\t\t  // Fi\n      SUB \t\t\t  // Fixed mint pri\n      PUSH [tag] 419\t\t\tnt);\\n\\n    // Fixed mint pric...\n      JUMPI \t\t\tnt);\\n\\n    // Fixed mint pric...\n      PUSH 40\t\t\tnt);\\n\\n    // Fixed mint pric...\n      MLOAD \t\t\tnt);\\n\\n    // Fixed mint pric...\n      PUSH 461BCD\t\t\t\n      PUSH E5\t\t\t\n      SHL \t\t\t\n      DUP2 \t\t\tnt);\\n\\n    // Fixed mint pric...\n      MSTORE \t\t\tnt);\\n\\n    // Fixed mint pric...\n      PUSH 20\t\t\t\n      PUSH 4\t\t\tnt);\\n\\n    // Fixed mint pric...\n      DUP3 \t\t\tnt);\\n\\n    // Fixed mint pric...\n      ADD \t\t\tnt);\\n\\n    // Fixed mint pric...\n      MSTORE \t\t\t\n      PUSH 1F\t\t\t\n      PUSH 24\t\t\t\n      DUP3 \t\t\t\n      ADD \t\t\t\n      MSTORE \t\t\t\n      PUSH 5265656E7472616E637947756172643A207265656E7472616E742063616C6C00\t\t\t\n      PUSH 44\t\t\t\n      DUP3 \t\t\t\n      ADD \t\t\t\n      MSTORE \t\t\t\n      PUSH 64\t\t\t\n      ADD \t\t\t\n      PUSH [tag] 183\t\t\tnt);\\n\\n    // Fixed mint pric...\n      JUMP \t\t\t\n    tag 419\t\t\tnt);\\n\\n    // Fixed mint pric...\n      JUMPDEST \t\t\tnt);\\n\\n    // Fixed mint pric...\n      PUSH 2\t\t\tp\n      PUSH 1\t\t\t) {\\n   \n      SSTORE \t\t\t) {\\n        requir\n      JUMP \t\t\tcount);\\n    event GalleryPaye...\n    tag 209\t\t\treplay attacks\\n    mapping(st...\n      JUMPDEST \t\t\treplay attacks\\n    mapping(st...\n      PUSH 2\t\t\t_000_00\n      SLOAD \t\t\t_000_00\n      PUSH FF\t\t\t_000_00\n      AND \t\t\t_000_00\n      ISZERO \t\t\t    // Ev\n      PUSH [tag] 424\t\t\tyment;\\n\\n    // Events\\n    e...\n      JUMPI \t\t\tyment;\\n\\n    // Events\\n    e...\n      PUSH 40\t\t\tyment;\\n\\n    // Events\\n    e...\n      MLOAD \t\t\tyment;\\n\\n    // Events\\n    e...\n      PUSH 461BCD\t\t\t\n      PUSH E5\t\t\t\n      SHL \t\t\t\n      DUP2 \t\t\tyment;\\n\\n    // Events\\n    e...\n      MSTORE \t\t\tyment;\\n\\n    // Events\\n    e...\n      PUSH 20\t\t\t\n      PUSH 4\t\t\tyment;\\n\\n    // Events\\n    e...\n      DUP3 \t\t\tyment;\\n\\n    // Events\\n    e...\n      ADD \t\t\tyment;\\n\\n    // Events\\n    e...\n      MSTORE \t\t\t\n      PUSH 10\t\t\t\n      PUSH 24\t\t\t\n      DUP3 \t\t\t\n      ADD \t\t\t\n      MSTORE \t\t\t\n      PUSH 14185D5CD8589B194E881C185D5CD959\t\t\t\n      PUSH 82\t\t\t\n      SHL \t\t\t\n      PUSH 44\t\t\t\n      DUP3 \t\t\t\n      ADD \t\t\t\n      MSTORE \t\t\t\n      PUSH 64\t\t\t\n      ADD \t\t\t\n      PUSH [tag] 183\t\t\tyment;\\n\\n    // Events\\n    e...\n      JUMP \t\t\t\n    tag 424\t\t\tyment;\\n\\n    // Events\\n    e...\n      JUMPDEST \t\t\tyment;\\n\\n    // Events\\n    e...\n      JUMP \t\t\treplay attacks\\n    mapping(st...\n    tag 279\t\t\t uint256 amount);\\n    event R...\n      JUMPDEST \t\t\t uint256 amount);\\n    event R...\n      PUSH [tag] 429\t\t\tble usdc;\\n    addre\n      PUSH [tag] 209\t\t\tble usdc;\\n    add\n      JUMP \t\t\tble usdc;\\n    addre\n    tag 429\t\t\tble usdc;\\n    addre\n      JUMPDEST \t\t\tble usdc;\\n    addre\n      PUSH 2\t\t\te, addr\n      DUP1 \t\t\te, address ind\n      SLOAD \t\t\te, address ind\n      PUSH FF\t\t\t\n      NOT \t\t\t\n      AND \t\t\te, address ind\n      PUSH 1\t\t\t ind\n      OR \t\t\te, address ind\n      SWAP1 \t\t\te, address ind\n      SSTORE \t\t\te, address ind\n      PUSH 62E78CEA01BEE320CD4E420270B5EA74000D11B0C9F74754EBDBFC544B05A258\t\t\t    event RoleRevoke\n      PUSH [tag] 416\t\t\tnt RoleRevok\n      CALLER \t\t\tentId) ext\n      SWAP1 \t\t\tentId) ext\n      JUMP \t\t\t\";\\n\\ninterface IMferMint {\\n ...\n    tag 332\t\t\td, Pausable {\\n    using SafeE...\n      JUMPDEST \t\t\td, Pausable {\\n    using SafeE...\n      PUSH 40\t\t\t_ROLE;\\n    bytes32 public con...\n      DUP1 \t\t\t_ROLE;\\n    bytes32 public con...\n      MLOAD \t\t\t_ROLE;\\n    bytes32 public con...\n      PUSH 1\t\t\t\n      PUSH 1\t\t\t\n      PUSH A0\t\t\t\n      SHL \t\t\t\n      SUB \t\t\t\n      DUP5 \t\t\t\n      AND \t\t\t\n      PUSH 24\t\t\t_ROLE;\\n    bytes32 public con...\n      DUP3 \t\t\t_ROLE;\\n    bytes32 public con...\n      ADD \t\t\t_ROLE;\\n    bytes32 public con...\n      MSTORE \t\t\t\n      PUSH 44\t\t\t\n      DUP1 \t\t\t\n      DUP3 \t\t\t\n      ADD \t\t\t\n      DUP5 \t\t\t\n      SWAP1 \t\t\t\n      MSTORE \t\t\t\n      DUP3 \t\t\t_ROLE;\\n    bytes32 public con...\n      MLOAD \t\t\t_ROLE;\\n    bytes32 public con...\n      DUP1 \t\t\t_ROLE;\\n    bytes32 public con...\n      DUP4 \t\t\t_ROLE;\\n    bytes32 public con...\n      SUB \t\t\t_ROLE;\\n    bytes32 public con...\n      SWAP1 \t\t\t_ROLE;\\n    bytes32 public con...\n      SWAP2 \t\t\t_ROLE;\\n    bytes32 public con...\n      ADD \t\t\t_ROLE;\\n    bytes32 public con...\n      DUP2 \t\t\t_ROLE;\\n    bytes32 public con...\n      MSTORE \t\t\t_ROLE;\\n    bytes32 public con...\n      PUSH 64\t\t\t\n      SWAP1 \t\t\t\n      SWAP2 \t\t\t\n      ADD \t\t\t\n      SWAP1 \t\t\t_ROLE;\\n    bytes32 public con...\n      SWAP2 \t\t\t_ROLE;\\n    bytes32 public con...\n      MSTORE \t\t\t_ROLE;\\n    bytes32 public con...\n      PUSH 20\t\t\t_ROLE;\\n    bytes32 public con...\n      DUP2 \t\t\t_ROLE;\\n    bytes32 public con...\n      ADD \t\t\t_ROLE;\\n    bytes32 public con...\n      DUP1 \t\t\t_ROLE;\\n    bytes32 public con...\n      MLOAD \t\t\t_ROLE;\\n    bytes32 public con...\n      PUSH 1\t\t\t\n      PUSH 1\t\t\t\n      PUSH E0\t\t\t\n      SHL \t\t\t\n      SUB \t\t\t\n      AND \t\t\t_ROLE;\\n    bytes32 public con...\n      PUSH A9059CBB\t\t\t\n      PUSH E0\t\t\t\n      SHL \t\t\t\n      OR \t\t\t_ROLE;\\n    bytes32 public con...\n      SWAP1 \t\t\t_ROLE;\\n    bytes32 public con...\n      MSTORE \t\t\t_ROLE;\\n    bytes32 public con...\n      PUSH [tag] 177\t\t\t ADMIN_ROLE = DEFAULT_ADMIN_RO...\n      SWAP1 \t\t\t ADMIN_ROLE = DEFAULT_ADMIN_RO...\n      DUP5 \t\t\tT_ADM\n      SWAP1 \t\t\tT_ADM\n      PUSH [tag] 437\t\t\t ADMIN_ROLE = DEFAU\n      JUMP \t\t\t ADMIN_ROLE = DEFAULT_ADMIN_RO...\n    tag 402\t\t\t     uint256 oldBps = feeBps;\\...\n      JUMPDEST \t\t\t     uint256 oldBps = feeBps;\\...\n      PUSH [tag] 440\t\t\t        emit FeeUpdate\n      DUP3 \t\t\temit\n      DUP3 \t\t\teeUpdat\n      PUSH [tag] 123\t\t\t       \n      JUMP \t\t\t        emit FeeUpdate\n    tag 440\t\t\t        emit FeeUpdate\n      JUMPDEST \t\t\t        emit FeeUpdate\n      PUSH [tag] 185\t\t\tbps;\\n        emit FeeUpdated(...\n      JUMPI \t\t\tbps;\\n        emit FeeUpdated(...\n      PUSH [tag] 442\t\t\t, \"invalid payee\");\\n        \n      DUP2 \t\t\t       \n      PUSH [tag] 443\t\t\t, \"invalid payee\");\n      JUMP \t\t\t, \"invalid payee\");\\n        \n    tag 442\t\t\t, \"invalid payee\");\\n        \n      JUMPDEST \t\t\t, \"invalid payee\");\\n        \n      PUSH [tag] 444\t\t\t function pause() external onl...\n      DUP4 \t\t\tnlyR\n      PUSH 20\t\t\t(D\n      PUSH [tag] 445\t\t\t function pause() e\n      JUMP \t\t\t function pause() external onl...\n    tag 444\t\t\t function pause() external onl...\n      JUMPDEST \t\t\t function pause() external onl...\n      PUSH 40\t\t\tress _payee2) external onlyRol...\n      MLOAD \t\t\tress _payee2) external onlyRol...\n      PUSH 20\t\t\tress _payee2) external onlyRol...\n      ADD \t\t\tress _payee2) external onlyRol...\n      PUSH [tag] 264\t\t\tress _payee2) external onlyRol...\n      SWAP3 \t\t\tress _payee2) external onlyRol...\n      SWAP2 \t\t\tress _payee2) external onlyRol...\n      SWAP1 \t\t\tress _payee2) external onlyRol...\n      PUSH [tag] 447\t\t\tress _payee2) external onlyRol...\n      JUMP \t\t\tress _payee2) external onlyRol...\n    tag 414\t\t\t;\\n    event Processed(address...\n      JUMPDEST \t\t\t;\\n    event Processed(address...\n      PUSH 2\t\t\t_000_00\n      SLOAD \t\t\t_000_00\n      PUSH FF\t\t\t_000_00\n      AND \t\t\t_000_00\n      PUSH [tag] 424\t\t\tess indexed artistPayee, addre...\n      JUMPI \t\t\tess indexed artistPayee, addre...\n      PUSH 40\t\t\tess indexed artistPayee, addre...\n      MLOAD \t\t\tess indexed artistPayee, addre...\n      PUSH 461BCD\t\t\t\n      PUSH E5\t\t\t\n      SHL \t\t\t\n      DUP2 \t\t\tess indexed artistPayee, addre...\n      MSTORE \t\t\tess indexed artistPayee, addre...\n      PUSH 20\t\t\t\n      PUSH 4\t\t\tess indexed artistPayee, addre...\n      DUP3 \t\t\tess indexed artistPayee, addre...\n      ADD \t\t\tess indexed artistPayee, addre...\n      MSTORE \t\t\t\n      PUSH 14\t\t\t\n      PUSH 24\t\t\t\n      DUP3 \t\t\t\n      ADD \t\t\t\n      MSTORE \t\t\t\n      PUSH 14185D5CD8589B194E881B9BDD081C185D5CD959\t\t\t\n      PUSH 62\t\t\t\n      SHL \t\t\t\n      PUSH 44\t\t\t\n      DUP3 \t\t\t\n      ADD \t\t\t\n      MSTORE \t\t\t\n      PUSH 64\t\t\t\n      ADD \t\t\t\n      PUSH [tag] 183\t\t\tess indexed artistPayee, addre...\n      JUMP \t\t\t\n    tag 437\t\t\t) external onlyRelayer nonReen...\n      JUMPDEST \t\t\t) external onlyRelayer nonReen...\n      PUSH 0\t\t\t\"invalid artist contrac\n      PUSH [tag] 455\t\t\t;\\n\\n        processedPayment[...\n      DUP3 \t\t\tpaym\n      PUSH 40\t\t\t;\\n\\n        processedPayment[...\n      MLOAD \t\t\t;\\n\\n        processedPayment[...\n      DUP1 \t\t\t;\\n\\n        processedPayment[...\n      PUSH 40\t\t\t;\\n\\n        processedPayment[...\n      ADD \t\t\t;\\n\\n        processedPayment[...\n      PUSH 40\t\t\t;\\n\\n        processedPayment[...\n      MSTORE \t\t\t;\\n\\n        processedPayment[...\n      DUP1 \t\t\t;\\n\\n        processedPayment[...\n      PUSH 20\t\t\t;\\n\\n        processedPayment[...\n      DUP2 \t\t\t;\\n\\n        processedPayment[...\n      MSTORE \t\t\t;\\n\\n        processedPayment[...\n      PUSH 20\t\t\t;\\n\\n        processedPayment[...\n      ADD \t\t\t;\\n\\n        processedPayment[...\n      PUSH 5361666545524332303A206C6F772D6C6576656C2063616C6C206661696C6564\t\t\t;\\n\\n        processedPayment[...\n      DUP2 \t\t\t;\\n\\n        processedPayment[...\n      MSTORE \t\t\t;\\n\\n        processedPayment[...\n      POP \t\t\t;\\n\\n        processedPayment[...\n      DUP6 \t\t\t   pr\n      PUSH 1\t\t\t\n      PUSH 1\t\t\t\n      PUSH A0\t\t\t\n      SHL \t\t\t\n      SUB \t\t\t\n      AND \t\t\t;\\n\\n        processedPayment\n      PUSH [tag] 456\t\t\t;\\n\\n        processedPayment\n      SWAP1 \t\t\t;\\n\\n        processedPayment\n      SWAP3 \t\t\t;\\n\\n        processedPayment[...\n      SWAP2 \t\t\t;\\n\\n        processedPayment[...\n      SWAP1 \t\t\t;\\n\\n        processedPayment[...\n      PUSH FFFFFFFF\t\t\t;\\n\\n        processedPayment[...\n      AND \t\t\t;\\n\\n        processedPayment[...\n      JUMP \t\t\t;\\n\\n        processedPayment[...\n    tag 455\t\t\t;\\n\\n        processedPayment[...\n      JUMPDEST \t\t\t;\\n\\n        processedPayment[...\n      SWAP1 \t\t\t\"invalid artist contract\");\\n\\...\n      POP \t\t\t\"invalid artist contract\");\\n\\...\n      DUP1 \t\t\t\\n        a\n      MLOAD \t\t\t\\n        address \n      PUSH 0\t\t\ts\n      EQ \t\t\t\\n        address artis\n      DUP1 \t\t\t\\n        address artistPayee;...\n      PUSH [tag] 458\t\t\t\\n        address artistPayee;...\n      JUMPI \t\t\t\\n        address artistPayee;...\n      POP \t\t\t\\n        address artistPayee;...\n      DUP1 \t\t\t try IMfer\n      DUP1 \t\t\tee;\\n        try IMferMint(art...\n      PUSH 20\t\t\tee;\\n        try IMferMint(art...\n      ADD \t\t\tee;\\n        try IMferMint(art...\n      SWAP1 \t\t\tee;\\n        try IMferMint(art...\n      MLOAD \t\t\tee;\\n        try IMferMint(art...\n      DUP2 \t\t\tee;\\n        try IMferMint(art...\n      ADD \t\t\tee;\\n        try IMferMint(art...\n      SWAP1 \t\t\tee;\\n        try IMferMint(art...\n      PUSH [tag] 458\t\t\tee;\\n        try IMferMint(art...\n      SWAP2 \t\t\tee;\\n        try IMferMint(art...\n      SWAP1 \t\t\tee;\\n        try IMferMint(art...\n      PUSH [tag] 459\t\t\tee;\\n        try IMferMint(art...\n      JUMP \t\t\tee;\\n        try IMferMint(art...\n    tag 458\t\t\tee;\\n        try IMferMint(art...\n      JUMPDEST \t\t\tee;\\n        try IMferMint(art...\n      PUSH [tag] 177\t\t\tamically\\n        address arti...\n      JUMPI \t\t\tamically\\n        address arti...\n      PUSH 40\t\t\tamically\\n        address arti...\n      MLOAD \t\t\tamically\\n        address arti...\n      PUSH 461BCD\t\t\t\n      PUSH E5\t\t\t\n      SHL \t\t\t\n      DUP2 \t\t\tamically\\n        address arti...\n      MSTORE \t\t\tamically\\n        address arti...\n      PUSH 20\t\t\t\n      PUSH 4\t\t\tamically\\n        address arti...\n      DUP3 \t\t\tamically\\n        address arti...\n      ADD \t\t\tamically\\n        address arti...\n      MSTORE \t\t\t\n      PUSH 2A\t\t\t\n      PUSH 24\t\t\t\n      DUP3 \t\t\t\n      ADD \t\t\t\n      MSTORE \t\t\t\n      PUSH 5361666545524332303A204552433230206F7065726174696F6E20646964206E\t\t\t\n      PUSH 44\t\t\t\n      DUP3 \t\t\t\n      ADD \t\t\t\n      MSTORE \t\t\t\n      PUSH 1BDD081CDD58D8D95959\t\t\t\n      PUSH B2\t\t\t\n      SHL \t\t\t\n      PUSH 64\t\t\t\n      DUP3 \t\t\t\n      ADD \t\t\t\n      MSTORE \t\t\t\n      PUSH 84\t\t\t\n      ADD \t\t\t\n      PUSH [tag] 183\t\t\tamically\\n        address arti...\n      JUMP \t\t\t\n    tag 443\t\t\tvent ETHReceived(address index...\n      JUMPDEST \t\t\tvent ETHReceived(address index...\n      PUSH 60\t\t\t\\n    // Fixed\n      PUSH [tag] 169\t\t\t(0.0003 ETH)\\n    uint256 publ...\n      PUSH 1\t\t\t\n      PUSH 1\t\t\t\n      PUSH A0\t\t\t\n      SHL \t\t\t\n      SUB \t\t\t\n      DUP4 \t\t\t\\n    uint256 public co\n      AND \t\t\t\\n    uint256 public co\n      PUSH 14\t\t\tin\n    tag 445\t\t\trocessedPayment;\\n\\n    // Eve...\n      JUMPDEST \t\t\trocessedPayment;\\n\\n    // Eve...\n      PUSH 60\t\t\tent, uint256 \n      PUSH 0\t\t\tps, uint256 indexed\n      PUSH [tag] 466\t\t\t event Pro\n      DUP4 \t\t\tnt Pro\n      PUSH 2\t\t\t \n      PUSH [tag] 327\t\t\t event Pro\n      JUMP \t\t\t event Pro\n    tag 466\t\t\t event Pro\n      JUMPDEST \t\t\t event Pro\n      PUSH [tag] 467\t\t\t event Process\n      SWAP1 \t\t\t event Process\n      PUSH 2\t\t\ts\n      PUSH [tag] 468\t\t\t event Process\n      JUMP \t\t\t event Process\n    tag 467\t\t\t event Process\n      JUMPDEST \t\t\t event Process\n      PUSH FFFFFFFFFFFFFFFF\t\t\twBps);\\n    event Processe\n      DUP2 \t\t\twBps);\\n    event Processe\n      GT \t\t\twBps);\\n    event Processe\n      ISZERO \t\t\twBps);\\n    event Processe\n      PUSH [tag] 470\t\t\twBps);\\n    event Processe\n      JUMPI \t\t\twBps);\\n    event Processe\n      PUSH [tag] 470\t\t\twBps);\\n    event Processe\n      PUSH [tag] 471\t\t\twBps);\\n    event Processe\n      JUMP \t\t\twBps);\\n    event Processe\n    tag 470\t\t\twBps);\\n    event Processe\n      JUMPDEST \t\t\twBps);\\n    event Processe\n      PUSH 40\t\t\twBps);\\n    event Processe\n      MLOAD \t\t\twBps);\\n    event Processe\n      SWAP1 \t\t\twBps);\\n    event Processe\n      DUP1 \t\t\twBps);\\n    event Processe\n      DUP3 \t\t\twBps);\\n    event Processe\n      MSTORE \t\t\twBps);\\n    event Processe\n      DUP1 \t\t\twBps);\\n    event Processe\n      PUSH 1F\t\t\twBps);\\n    event Processe\n      ADD \t\t\twBps);\\n    event Processe\n      PUSH 1F\t\t\twBps);\\n    event Processe\n      NOT \t\t\twBps);\\n    event Processe\n      AND \t\t\twBps);\\n    event Processe\n      PUSH 20\t\t\twBps);\\n    event Processe\n      ADD \t\t\twBps);\\n    event Processe\n      DUP3 \t\t\twBps);\\n    event Processe\n      ADD \t\t\twBps);\\n    event Processe\n      PUSH 40\t\t\twBps);\\n    event Processe\n      MSTORE \t\t\twBps);\\n    event Processe\n      DUP1 \t\t\twBps);\\n    event Processe\n      ISZERO \t\t\twBps);\\n    event Processe\n      PUSH [tag] 472\t\t\twBps);\\n    event Processe\n      JUMPI \t\t\twBps);\\n    event Processe\n      PUSH 20\t\t\twBps);\\n    event Processe\n      DUP3 \t\t\twBps);\\n    event Processe\n      ADD \t\t\twBps);\\n    event Processe\n      DUP2 \t\t\twBps);\\n    event Processe\n      DUP1 \t\t\twBps);\\n    event Processe\n      CALLDATASIZE \t\t\twBps);\\n    event Processe\n      DUP4 \t\t\twBps);\\n    event Processe\n      CALLDATACOPY \t\t\twBps);\\n    event Processe\n      ADD \t\t\twBps);\\n    event Processe\n      SWAP1 \t\t\twBps);\\n    event Processe\n      POP \t\t\t\n    tag 472\t\t\twBps);\\n    event Processe\n      JUMPDEST \t\t\twBps);\\n    event Processe\n      POP \t\t\twBps);\\n    event Processe\n      SWAP1 \t\t\tps, uint256 indexed newBps);\\n...\n      POP \t\t\tps, uint256 indexed newBps);\\n...\n      PUSH 3\t\t\t\n      PUSH FC\t\t\t\n      SHL \t\t\t\n      DUP2 \t\t\tindexe\n      PUSH 0\t\t\t \n      DUP2 \t\t\tindexed a\n      MLOAD \t\t\tindexed a\n      DUP2 \t\t\tindexed a\n      LT \t\t\tindexed a\n      PUSH [tag] 474\t\t\tindexed a\n      JUMPI \t\t\tindexed a\n      PUSH [tag] 474\t\t\tindexed a\n      PUSH [tag] 475\t\t\tindexed a\n      JUMP \t\t\tindexed a\n    tag 474\t\t\tindexed a\n      JUMPDEST \t\t\tindexed a\n      PUSH 20\t\t\tindexed a\n      ADD \t\t\tindexed a\n      ADD \t\t\tindexed a\n      SWAP1 \t\t\tindexed artistC\n      PUSH 1\t\t\t\n      PUSH 1\t\t\t\n      PUSH F8\t\t\t\n      SHL \t\t\t\n      SUB \t\t\t\n      NOT \t\t\tindexed artistC\n      AND \t\t\tindexed artistC\n      SWAP1 \t\t\tindexed artistC\n      DUP2 \t\t\tindexed artistC\n      PUSH 0\t\t\tindexed artistC\n      BYTE \t\t\tindexed artistC\n      SWAP1 \t\t\tindexed artistC\n      MSTORE8 \t\t\tindexed artistC\n      POP \t\t\tindexed artistC\n      PUSH F\t\t\t\n      PUSH FB\t\t\t\n      SHL \t\t\t\n      DUP2 \t\t\tddress\n      PUSH 1\t\t\ti\n      DUP2 \t\t\tddress in\n      MLOAD \t\t\tddress in\n      DUP2 \t\t\tddress in\n      LT \t\t\tddress in\n      PUSH [tag] 477\t\t\tddress in\n      JUMPI \t\t\tddress in\n      PUSH [tag] 477\t\t\tddress in\n      PUSH [tag] 475\t\t\tddress in\n      JUMP \t\t\tddress in\n    tag 477\t\t\tddress in\n      JUMPDEST \t\t\tddress in\n      PUSH 20\t\t\tddress in\n      ADD \t\t\tddress in\n      ADD \t\t\tddress in\n      SWAP1 \t\t\tddress indexed \n      PUSH 1\t\t\t\n      PUSH 1\t\t\t\n      PUSH F8\t\t\t\n      SHL \t\t\t\n      SUB \t\t\t\n      NOT \t\t\tddress indexed \n      AND \t\t\tddress indexed \n      SWAP1 \t\t\tddress indexed \n      DUP2 \t\t\tddress indexed \n      PUSH 0\t\t\tddress indexed \n      BYTE \t\t\tddress indexed \n      SWAP1 \t\t\tddress indexed \n      MSTORE8 \t\t\tddress indexed \n      POP \t\t\t\n      PUSH 0\t\t\tdress ind\n      PUSH [tag] 481\t\t\td to, uint\n      DUP5 \t\t\t, uint\n      PUSH 2\t\t\td\n      PUSH [tag] 327\t\t\td to, uint\n      JUMP \t\t\td to, uint\n    tag 481\t\t\td to, uint\n      JUMPDEST \t\t\td to, uint\n      PUSH [tag] 482\t\t\td to, uint256 \n      SWAP1 \t\t\td to, uint256 \n      PUSH 1\t\t\t \n      PUSH [tag] 468\t\t\td to, uint256 \n      JUMP \t\t\td to, uint256 \n    tag 482\t\t\td to, uint256 \n      JUMPDEST \t\t\td to, uint256 \n      SWAP1 \t\t\tdress indexed to, uint256 \n      POP \t\t\tdress indexed to, uint256 \n    tag 478\t\t\te, address indexed to, uint256...\n      JUMPDEST \t\t\te, address indexed to, uint256...\n      PUSH 1\t\t\t,\n      DUP2 \t\t\to\n      GT \t\t\tount,\n      ISZERO \t\t\te, address indexed to, uint256...\n      PUSH [tag] 479\t\t\te, address indexed to, uint256...\n      JUMPI \t\t\te, address indexed to, uint256...\n      PUSH 181899199A1A9B1B9C1CB0B131B232B3\t\t\t\n      PUSH 81\t\t\t\n      SHL \t\t\t\n      DUP6 \t\t\tC(add\n      PUSH F\t\t\ts i\n      AND \t\t\tC(address i\n      PUSH 10\t\t\thdrawnUSDC(address in\n      DUP2 \t\t\thdrawnUSDC(address in\n      LT \t\t\thdrawnUSDC(address in\n      PUSH [tag] 484\t\t\thdrawnUSDC(address in\n      JUMPI \t\t\thdrawnUSDC(address in\n      PUSH [tag] 484\t\t\thdrawnUSDC(address in\n      PUSH [tag] 475\t\t\thdrawnUSDC(address in\n      JUMP \t\t\thdrawnUSDC(address in\n    tag 484\t\t\thdrawnUSDC(address in\n      JUMPDEST \t\t\thdrawnUSDC(address in\n      BYTE \t\t\thdrawnUSDC(address in\n      PUSH F8\t\t\thdrawnUSDC(address in\n      SHL \t\t\thdrawnUSDC(address in\n      DUP3 \t\t\t   eve\n      DUP3 \t\t\tt\n      DUP2 \t\t\t   event \n      MLOAD \t\t\t   event \n      DUP2 \t\t\t   event \n      LT \t\t\t   event \n      PUSH [tag] 486\t\t\t   event \n      JUMPI \t\t\t   event \n      PUSH [tag] 486\t\t\t   event \n      PUSH [tag] 475\t\t\t   event \n      JUMP \t\t\t   event \n    tag 486\t\t\t   event \n      JUMPDEST \t\t\t   event \n      PUSH 20\t\t\t   event \n      ADD \t\t\t   event \n      ADD \t\t\t   event \n      SWAP1 \t\t\t   event WithdrawnUSDC(address...\n      PUSH 1\t\t\t\n      PUSH 1\t\t\t\n      PUSH F8\t\t\t\n      SHL \t\t\t\n      SUB \t\t\t\n      NOT \t\t\t   event WithdrawnUSDC(address...\n      AND \t\t\t   event WithdrawnUSDC(address...\n      SWAP1 \t\t\t   event WithdrawnUSDC(address...\n      DUP2 \t\t\t   event WithdrawnUSDC(address...\n      PUSH 0\t\t\t   event WithdrawnUSDC(address...\n      BYTE \t\t\t   event WithdrawnUSDC(address...\n      SWAP1 \t\t\t   event WithdrawnUSDC(address...\n      MSTORE8 \t\t\t   event WithdrawnUSDC(address...\n      POP \t\t\t\n      PUSH 4\t\t\t)\n      SWAP5 \t\t\t256 amount)\n      SWAP1 \t\t\t256 amount)\n      SWAP5 \t\t\t256 amount)\n      SHR \t\t\t256 amount)\n      SWAP4 \t\t\t256 amount)\n      PUSH [tag] 487\t\t\ttri\n      DUP2 \t\t\ttri\n      PUSH [tag] 488\t\t\ttri\n      JUMP \t\t\ttri\n    tag 487\t\t\ttri\n      JUMPDEST \t\t\ttri\n      SWAP1 \t\t\ttri\n      POP \t\t\ttri\n      PUSH [tag] 478\t\t\te, address indexed to, uint256...\n      JUMP \t\t\te, address indexed to, uint256...\n    tag 479\t\t\te, address indexed to, uint256...\n      JUMPDEST \t\t\te, address indexed to, uint256...\n      POP \t\t\t\n      DUP4 \t\t\tress index\n      ISZERO \t\t\tress index\n      PUSH [tag] 489\t\t\tnETH(address indexed to, uint2...\n      JUMPI \t\t\tnETH(address indexed to, uint2...\n      PUSH 40\t\t\tnETH(address indexed to, uint2...\n      MLOAD \t\t\tnETH(address indexed to, uint2...\n      PUSH 461BCD\t\t\t\n      PUSH E5\t\t\t\n      SHL \t\t\t\n      DUP2 \t\t\tnETH(address indexed to, uint2...\n      MSTORE \t\t\tnETH(address indexed to, uint2...\n      PUSH 20\t\t\t\n      PUSH 4\t\t\tnETH(address indexed to, uint2...\n      DUP3 \t\t\tnETH(address indexed to, uint2...\n      ADD \t\t\tnETH(address indexed to, uint2...\n      DUP2 \t\t\t\n      SWAP1 \t\t\t\n      MSTORE \t\t\t\n      PUSH 24\t\t\t\n      DUP3 \t\t\t\n      ADD \t\t\t\n      MSTORE \t\t\t\n      PUSH 537472696E67733A20686578206C656E67746820696E73756666696369656E74\t\t\t\n      PUSH 44\t\t\t\n      DUP3 \t\t\t\n      ADD \t\t\t\n      MSTORE \t\t\t\n      PUSH 64\t\t\t\n      ADD \t\t\t\n      PUSH [tag] 183\t\t\tnETH(address indexed to, uint2...\n      JUMP \t\t\t\n    tag 489\t\t\tnETH(address indexed to, uint2...\n      JUMPDEST \t\t\tnETH(address indexed to, uint2...\n      SWAP4 \t\t\t role,\n      SWAP3 \t\t\trocessedPayment;\\n\\n    // Eve...\n      POP \t\t\t\n      POP \t\t\t\n      POP \t\t\t\n      JUMP \t\t\trocessedPayment;\\n\\n    // Eve...\n    tag 456\t\t\tSS_ZERO, \"invalid payee\");\\n  ...\n      JUMPDEST \t\t\tSS_ZERO, \"invalid payee\");\\n  ...\n      PUSH 60\t\t\tonlyRole(DEF\n      PUSH [tag] 493\t\t\t        _pause();\\n    }\\n\\n  ...\n      DUP5 \t\t\t}\\n\\n   \n      DUP5 \t\t\tunct\n      PUSH 0\t\t\tn\n      DUP6 \t\t\tnpause() ext\n      PUSH [tag] 494\t\t\t        _pause();\\n   \n      JUMP \t\t\t        _pause();\\n    }\\n\\n  ...\n    tag 493\t\t\t        _pause();\\n    }\\n\\n  ...\n      JUMPDEST \t\t\t        _pause();\\n    }\\n\\n  ...\n      SWAP5 \t\t\tOLE) {\\n        _pause();\\n   ...\n      SWAP4 \t\t\tSS_ZERO, \"invalid payee\");\\n  ...\n      POP \t\t\t\n      POP \t\t\t\n      POP \t\t\t\n      POP \t\t\t\n      JUMP \t\t\tSS_ZERO, \"invalid payee\");\\n  ...\n    tag 494\t\t\ttId\\n    ) external onlyRelaye...\n      JUMPDEST \t\t\ttId\\n    ) external onlyRelaye...\n      PUSH 60\t\t\tance to save\n      DUP3 \t\t\talanc\n      SELFBALANCE \t\t\t contractBalance = us\n      LT \t\t\t contractBalance = usdc.balanc\n      ISZERO \t\t\t contractBalance = usdc.balanc\n      PUSH [tag] 496\t\t\t uint256 contractBalance = usd...\n      JUMPI \t\t\t uint256 contractBalance = usd...\n      PUSH 40\t\t\t uint256 contractBalance = usd...\n      MLOAD \t\t\t uint256 contractBalance = usd...\n      PUSH 461BCD\t\t\t\n      PUSH E5\t\t\t\n      SHL \t\t\t\n      DUP2 \t\t\t uint256 contractBalance = usd...\n      MSTORE \t\t\t uint256 contractBalance = usd...\n      PUSH 20\t\t\t\n      PUSH 4\t\t\t uint256 contractBalance = usd...\n      DUP3 \t\t\t uint256 contractBalance = usd...\n      ADD \t\t\t uint256 contractBalance = usd...\n      MSTORE \t\t\t\n      PUSH 26\t\t\t\n      PUSH 24\t\t\t\n      DUP3 \t\t\t\n      ADD \t\t\t\n      MSTORE \t\t\t\n      PUSH 416464726573733A20696E73756666696369656E742062616C616E636520666F\t\t\t\n      PUSH 44\t\t\t\n      DUP3 \t\t\t\n      ADD \t\t\t\n      MSTORE \t\t\t\n      PUSH 1C8818D85B1B\t\t\t\n      PUSH D2\t\t\t\n      SHL \t\t\t\n      PUSH 64\t\t\t\n      DUP3 \t\t\t\n      ADD \t\t\t\n      MSTORE \t\t\t\n      PUSH 84\t\t\t\n      ADD \t\t\t\n      PUSH [tag] 183\t\t\t uint256 contractBalance = usd...\n      JUMP \t\t\t\n    tag 496\t\t\t uint256 contractBalance = usd...\n      JUMPDEST \t\t\t uint256 contractBalance = usd...\n      PUSH 0\t\t\t amount, \"In\n      DUP1 \t\t\tfficient USDC\");\\n      \n      DUP7 \t\t\t      \n      PUSH 1\t\t\t\n      PUSH 1\t\t\t\n      PUSH A0\t\t\t\n      SHL \t\t\t\n      SUB \t\t\t\n      AND \t\t\t       requ\n      DUP6 \t\t\t= ADD\n      DUP8 \t\t\tSS_Z\n      PUSH 40\t\t\t       require(to != ADDRESS_Z...\n      MLOAD \t\t\t       require(to != ADDRESS_Z...\n      PUSH [tag] 499\t\t\t       require(to != ADDRESS_Z...\n      SWAP2 \t\t\t       require(to != ADDRESS_Z...\n      SWAP1 \t\t\t       require(to != ADDRESS_Z...\n      PUSH [tag] 500\t\t\t       require(to != ADDRESS_Z...\n      JUMP \t\t\t       require(to != ADDRESS_Z...\n    tag 499\t\t\t       require(to != ADDRESS_Z...\n      JUMPDEST \t\t\t       require(to != ADDRESS_Z...\n      PUSH 0\t\t\t       require(to != ADDRESS_Z...\n      PUSH 40\t\t\t       require(to != ADDRESS_Z...\n      MLOAD \t\t\t       require(to != ADDRESS_Z...\n      DUP1 \t\t\t       require(to != ADDRESS_Z...\n      DUP4 \t\t\t       require(to != ADDRESS_Z...\n      SUB \t\t\t       require(to != ADDRESS_Z...\n      DUP2 \t\t\t       require(to != ADDRESS_Z...\n      DUP6 \t\t\t       require(to != ADDRESS_Z...\n      DUP8 \t\t\t       require(to != ADDRESS_Z...\n      GAS \t\t\t       require(to != ADDRESS_Z...\n      CALL \t\t\t       require(to != ADDRESS_Z...\n      SWAP3 \t\t\t       require(to != ADDRESS_Z...\n      POP \t\t\t       require(to != ADDRESS_Z...\n      POP \t\t\t       require(to != ADDRESS_Z...\n      POP \t\t\t       require(to != ADDRESS_Z...\n      RETURNDATASIZE \t\t\t       require(to != ADDRESS_Z...\n      DUP1 \t\t\t       require(to != ADDRESS_Z...\n      PUSH 0\t\t\t       require(to != ADDRESS_Z...\n      DUP2 \t\t\t       require(to != ADDRESS_Z...\n      EQ \t\t\t       require(to != ADDRESS_Z...\n      PUSH [tag] 503\t\t\t       require(to != ADDRESS_Z...\n      JUMPI \t\t\t       require(to != ADDRESS_Z...\n      PUSH 40\t\t\t       require(to != ADDRESS_Z...\n      MLOAD \t\t\t       require(to != ADDRESS_Z...\n      SWAP2 \t\t\t       require(to != ADDRESS_Z...\n      POP \t\t\t       require(to != ADDRESS_Z...\n      PUSH 1F\t\t\t       require(to != ADDRESS_Z...\n      NOT \t\t\t       require(to != ADDRESS_Z...\n      PUSH 3F\t\t\t       require(to != ADDRESS_Z...\n      RETURNDATASIZE \t\t\t       require(to != ADDRESS_Z...\n      ADD \t\t\t       require(to != ADDRESS_Z...\n      AND \t\t\t       require(to != ADDRESS_Z...\n      DUP3 \t\t\t       require(to != ADDRESS_Z...\n      ADD \t\t\t       require(to != ADDRESS_Z...\n      PUSH 40\t\t\t       require(to != ADDRESS_Z...\n      MSTORE \t\t\t       require(to != ADDRESS_Z...\n      RETURNDATASIZE \t\t\t       require(to != ADDRESS_Z...\n      DUP3 \t\t\t       require(to != ADDRESS_Z...\n      MSTORE \t\t\t       require(to != ADDRESS_Z...\n      RETURNDATASIZE \t\t\t       require(to != ADDRESS_Z...\n      PUSH 0\t\t\t       require(to != ADDRESS_Z...\n      PUSH 20\t\t\t       require(to != ADDRESS_Z...\n      DUP5 \t\t\t       require(to != ADDRESS_Z...\n      ADD \t\t\t       require(to != ADDRESS_Z...\n      RETURNDATACOPY \t\t\t       require(to != ADDRESS_Z...\n      PUSH [tag] 502\t\t\t       require(to != ADDRESS_Z...\n      JUMP \t\t\t       require(to != ADDRESS_Z...\n    tag 503\t\t\t       require(to != ADDRESS_Z...\n      JUMPDEST \t\t\t       require(to != ADDRESS_Z...\n      PUSH 60\t\t\t       require(to != ADDRESS_Z...\n      SWAP2 \t\t\t       require(to != ADDRESS_Z...\n      POP \t\t\t       require(to != ADDRESS_Z...\n    tag 502\t\t\t       require(to != ADDRESS_Z...\n      JUMPDEST \t\t\t       require(to != ADDRESS_Z...\n      POP \t\t\t       require(to != ADDRESS_Z...\n      SWAP2 \t\t\t= amount, \"Insufficient USDC\")...\n      POP \t\t\t= amount, \"Insufficient USDC\")...\n      SWAP2 \t\t\t= amount, \"Insufficient USDC\")...\n      POP \t\t\t= amount, \"Insufficient USDC\")...\n      PUSH [tag] 504\t\t\tpient\");\\n        require(arti...\n      DUP8 \t\t\ttistCo\n      DUP4 \t\t\tract !=\n      DUP4 \t\t\tDDRESS_ZER\n      DUP8 \t\t\t \"invalid ar\n      PUSH [tag] 505\t\t\tpient\");\\n        require(a\n      JUMP \t\t\tpient\");\\n        require(arti...\n    tag 504\t\t\tpient\");\\n        require(arti...\n      JUMPDEST \t\t\tpient\");\\n        require(arti...\n      SWAP8 \t\t\tid recipient\");\\n        requi...\n      SWAP7 \t\t\ttId\\n    ) external onlyRelaye...\n      POP \t\t\t\n      POP \t\t\t\n      POP \t\t\t\n      POP \t\t\t\n      POP \t\t\t\n      POP \t\t\t\n      POP \t\t\t\n      JUMP \t\t\ttId\\n    ) external onlyRelaye...\n    tag 505\t\t\tstPayee = _owner;\\n        } c...\n      JUMPDEST \t\t\tstPayee = _owner;\\n        } c...\n      PUSH 60\t\t\tayment (fail\n      DUP4 \t\t\ters fai\n      ISZERO \t\t\tansfers fail)\\n        if (PAY...\n      PUSH [tag] 507\t\t\tansfers fail)\\n        if (PAY...\n      JUMPI \t\t\tansfers fail)\\n        if (PAY...\n      DUP3 \t\t\t1_AMOUNT >\n      MLOAD \t\t\t1_AMOUNT > 0) pay\n      PUSH 0\t\t\t(\n      SUB \t\t\t1_AMOUNT > 0) payable(\n      PUSH [tag] 511\t\t\tAYEE1_AMOUNT > 0) payable(arti...\n      JUMPI \t\t\tAYEE1_AMOUNT > 0) payable(arti...\n      PUSH 1\t\t\t\n      PUSH 1\t\t\t\n      PUSH A0\t\t\t\n      SHL \t\t\t\n      SUB \t\t\t\n      DUP6 \t\t\t0.0001 ETH (Gallery\n      AND \t\t\t0.0001 ETH (Gallery\n      EXTCODESIZE \t\t\t0.0001 ETH (Gallery\n      PUSH [tag] 511\t\t\t splits)\\n        uint256 rema...\n      JUMPI \t\t\t splits)\\n        uint256 rema...\n      PUSH 40\t\t\t splits)\\n        uint256 rema...\n      MLOAD \t\t\t splits)\\n        uint256 rema...\n      PUSH 461BCD\t\t\t\n      PUSH E5\t\t\t\n      SHL \t\t\t\n      DUP2 \t\t\t splits)\\n        uint256 rema...\n      MSTORE \t\t\t splits)\\n        uint256 rema...\n      PUSH 20\t\t\t\n      PUSH 4\t\t\t splits)\\n        uint256 rema...\n      DUP3 \t\t\t splits)\\n        uint256 rema...\n      ADD \t\t\t splits)\\n        uint256 rema...\n      MSTORE \t\t\t\n      PUSH 1D\t\t\t\n      PUSH 24\t\t\t\n      DUP3 \t\t\t\n      ADD \t\t\t\n      MSTORE \t\t\t\n      PUSH 416464726573733A2063616C6C20746F206E6F6E2D636F6E7472616374000000\t\t\t\n      PUSH 44\t\t\t\n      DUP3 \t\t\t\n      ADD \t\t\t\n      MSTORE \t\t\t\n      PUSH 64\t\t\t\n      ADD \t\t\t\n      PUSH [tag] 183\t\t\t splits)\\n        uint256 rema...\n      JUMP \t\t\t\n    tag 511\t\t\t splits)\\n        uint256 rema...\n      JUMPDEST \t\t\t splits)\\n        uint256 rema...\n      POP \t\t\t\n      DUP2 \t\t\try IMferMi\n      PUSH [tag] 493\t\t\t      try IMferMi\n      JUMP \t\t\t      try IMferMi\n    tag 507\t\t\tansfers fail)\\n        if (PAY...\n      JUMPDEST \t\t\tansfers fail)\\n        if (PAY...\n      PUSH [tag] 493\t\t\tthFromGallery{value: remaining...\n      DUP4 \t\t\tllery{valu\n      DUP4 \t\t\t remainingVa\n      DUP2 \t\t\t  function withdr\n      MLOAD \t\t\t  function withdr\n      ISZERO \t\t\t  function withdrawET\n      PUSH [tag] 519\t\t\t\\n\\n    function withdrawETH(u...\n      JUMPI \t\t\t\\n\\n    function withdrawETH(u...\n      DUP2 \t\t\te(msg.send\n      MLOAD \t\t\tpayable(msg.sende\n      DUP1 \t\t\tH(msg.sender, a\n      DUP4 \t\t\tt Withdraw\n      PUSH 20\t\t\t e\n      ADD \t\t\t     emit Withdrawn\n      REVERT \t\t\tt);\\n        emit WithdrawnETH...\n    tag 519\t\t\t\\n\\n    function withdrawETH(u...\n      JUMPDEST \t\t\t\\n\\n    function withdrawETH(u...\n      DUP1 \t\t\te) ---\\n    r\n      PUSH 40\t\t\tefensive) ---\\n    re\n      MLOAD \t\t\tefensive) ---\\n    re\n      PUSH 461BCD\t\t\t\n      PUSH E5\t\t\t\n      SHL \t\t\t\n      DUP2 \t\t\tefensive) ---\\n    re\n      MSTORE \t\t\tefensive) ---\\n    re\n      PUSH 4\t\t\tefensive) ---\\n    re\n      ADD \t\t\tefensive) ---\\n    re\n      PUSH [tag] 183\t\t\tefensive) ---\\n    re\n      SWAP2 \t\t\tefensive) ---\\n    re\n      SWAP1 \t\t\tefensive) ---\\n    re\n      PUSH [tag] 267\t\t\tefensive) ---\\n    re\n      JUMP \t\t\tefensive) ---\\n    re\n    tag 45\t\t\tttps://github.com/OpenZeppelin...\n      JUMPDEST \t\t\tttps://github.com/OpenZeppelin...\n      PUSH 0\t\t\t/v4.9.\n      PUSH 20\t\t\tmp\n      DUP3 \t\t\tRC20.sol\"\n      DUP5 \t\t\tils/Saf\n      SUB \t\t\t0/utils/SafeERC20.sol\";\n      SLT \t\t\tERC20/utils/SafeERC20.sol\";\\ni...\n      ISZERO \t\t\ten/ERC20/utils/SafeERC20.sol\";...\n      PUSH [tag] 531\t\t\ten/ERC20/utils/SafeERC20.sol\";...\n      JUMPI \t\t\ten/ERC20/utils/SafeERC20.sol\";...\n      PUSH 0\t\t\ti\n      DUP1 \t\t\t/\n      REVERT \t\t\t\"https://git\n    tag 531\t\t\ten/ERC20/utils/SafeERC20.sol\";...\n      JUMPDEST \t\t\ten/ERC20/utils/SafeERC20.sol\";...\n      DUP2 \t\t\tnzeppelin-contracts/blo\n      CALLDATALOAD \t\t\tnzeppelin-contracts/blo\n      PUSH 1\t\t\t\n      PUSH 1\t\t\t\n      PUSH E0\t\t\t\n      SHL \t\t\t\n      SUB \t\t\t\n      NOT \t\t\t\n      DUP2 \t\t\teentrancyGuard.sol\";\\nimport \"...\n      AND \t\t\teentrancyGuard.sol\";\\nimport \"...\n      DUP2 \t\t\tsecurity/ReentrancyGuard.sol\";...\n      EQ \t\t\tsecurity/ReentrancyGuard.sol\";...\n      PUSH [tag] 489\t\t\tcontracts/security/ReentrancyG...\n      JUMPI \t\t\tcontracts/security/ReentrancyG...\n      PUSH 0\t\t\t/\n      DUP1 \t\t\tc\n      REVERT \t\t\tgithub.com/O\n    tag 56\t\t\tmintFor(address to, string cal...\n      JUMPDEST \t\t\tmintFor(address to, string cal...\n      PUSH 0\t\t\t  func\n      PUSH 20\t\t\tng\n      DUP3 \t\t\tess to, s\n      DUP5 \t\t\tlery(ad\n      SUB \t\t\tmGallery(address to, st\n      SLT \t\t\thFromGallery(address to, strin...\n      ISZERO \t\t\thEthFromGallery(address to, st...\n      PUSH [tag] 535\t\t\thEthFromGallery(address to, st...\n      JUMPI \t\t\thEthFromGallery(address to, st...\n      PUSH 0\t\t\te\n      DUP1 \t\t\ta\n      REVERT \t\t\tldata paymen\n    tag 535\t\t\thEthFromGallery(address to, st...\n      JUMPDEST \t\t\thEthFromGallery(address to, st...\n      POP \t\t\t\n      CALLDATALOAD \t\t\t;\\n    function owner() \n      SWAP2 \t\t\t;\\n    function owner() \n      SWAP1 \t\t\tmintFor(address to, string cal...\n      POP \t\t\t\n      JUMP \t\t\tmintFor(address to, string cal...\n    tag 522\t\t\tDMIN_ROLE;\\n    bytes32 public...\n      JUMPDEST \t\t\tDMIN_ROLE;\\n    bytes32 public...\n      PUSH 1\t\t\t\n      PUSH 1\t\t\t\n      PUSH A0\t\t\t\n      SHL \t\t\t\n      SUB \t\t\t\n      DUP2 \t\t\tLE\");\\n    address private con...\n      AND \t\t\tLE\");\\n    address private con...\n      DUP2 \t\t\tRELAYER_ROLE\");\\n    address p...\n      EQ \t\t\tRELAYER_ROLE\");\\n    address p...\n      PUSH [tag] 190\t\t\teccak256(\"RELAYER_ROLE\");\\n   ...\n      JUMPI \t\t\teccak256(\"RELAYER_ROLE\");\\n   ...\n      PUSH 0\t\t\tO\n      DUP1 \t\t\tZ\n      REVERT \t\t\tDDRESS_ZERO \n    tag 67\t\t\t\\n\\n    // State variables\\n  ...\n      JUMPDEST \t\t\t\\n\\n    // State variables\\n  ...\n      PUSH 0\t\t\t   add\n      DUP1 \t\t\tss pub\n      PUSH 40\t\t\t p\n      DUP4 \t\t\tc feeBps;\n      DUP6 \t\t\t256 pub\n      SUB \t\t\tuint256 public feeBps; \n      SLT \t\t\t    uint256 public feeBps; // ...\n      ISZERO \t\t\tt;\\n    uint256 public feeBps;...\n      PUSH [tag] 540\t\t\tt;\\n    uint256 public feeBps;...\n      JUMPI \t\t\tt;\\n    uint256 public feeBps;...\n      PUSH 0\t\t\te\n      DUP1 \t\t\tk\n      REVERT \t\t\t per 10k (e.\n    tag 540\t\t\tt;\\n    uint256 public feeBps;...\n      JUMPDEST \t\t\tt;\\n    uint256 public feeBps;...\n      DUP3 \t\t\tses (conf\n      CALLDATALOAD \t\t\t Payee addresses (confi\n      SWAP2 \t\t\t%)\\n\\n    // Payee addresses (...\n      POP \t\t\t%)\\n\\n    // Payee addresses (...\n      PUSH 20\t\t\t o\n      DUP4 \t\t\ttion Issu\n      ADD \t\t\tllection Issuer ow\n      CALLDATALOAD \t\t\t// payee1: Collection Issuer o...\n      PUSH [tag] 541\t\t\tED - now dynamic via owner())\\...\n      DUP2 \t\t\tr())\\n\n      PUSH [tag] 522\t\t\tED - now dynamic via owner())\\...\n      JUMP \t\t\tED - now dynamic via owner())\\...\n    tag 541\t\t\tED - now dynamic via owner())\\...\n      JUMPDEST \t\t\tED - now dynamic via owner())\\...\n      DUP1 \t\t\try ad\n      SWAP2 \t\t\tee2: Gallery ad\n      POP \t\t\tee2: Gallery ad\n      POP \t\t\tee2: Gallery ad\n      SWAP3 \t\t\t\\n\\n    // State variables\\n  ...\n      POP \t\t\t\\n\\n    // State variables\\n  ...\n      SWAP3 \t\t\t\\n\\n    // State variables\\n  ...\n      SWAP1 \t\t\t\\n\\n    // State variables\\n  ...\n      POP \t\t\t\\n\\n    // State variables\\n  ...\n      JUMP \t\t\t\\n\\n    // State variables\\n  ...\n    tag 97\t\t\tBps);\\n    event Processed(add...\n      JUMPDEST \t\t\tBps);\\n    event Processed(add...\n      PUSH 0\t\t\tddress\n      PUSH 20\t\t\t56\n      DUP3 \t\t\ted to, ui\n      DUP5 \t\t\tess ind\n      SUB \t\t\taddress indexed to, uin\n      SLT \t\t\tee, address indexed to, uint25...\n      ISZERO \t\t\tPayee, address indexed to, uin...\n      PUSH [tag] 545\t\t\tPayee, address indexed to, uin...\n      JUMPI \t\t\tPayee, address indexed to, uin...\n      PUSH 0\t\t\tg\n      DUP1 \t\t\tr\n      REVERT \t\t\tunt, string \n    tag 545\t\t\tPayee, address indexed to, uin...\n      JUMPDEST \t\t\tPayee, address indexed to, uin...\n      DUP2 \t\t\tddress in\n      CALLDATALOAD \t\t\tthdrawnUSDC(address ind\n      PUSH [tag] 489\t\t\tuint256 amount);\\n    event Wi...\n      DUP2 \t\t\tt Wit\n      PUSH [tag] 522\t\t\tuint256 amount);\\n    event Wi...\n      JUMP \t\t\tuint256 amount);\\n    event Wi...\n    tag 471\t\t\t6 amount);\\n    event RoleGran...\n      JUMPDEST \t\t\t6 amount);\\n    event RoleGran...\n      PUSH 4E487B71\t\t\ts indexed \n      PUSH E0\t\t\tddr\n      SHL \t\t\te, address indexed a\n      PUSH 0\t\t\tr\n      MSTORE \t\t\tndexed role, address indexed a...\n      PUSH 41\t\t\toleR\n      PUSH 4\t\t\tt\n      MSTORE \t\t\t   event RoleRe\n      PUSH 24\t\t\ted r\n      PUSH 0\t\t\td\n      REVERT \t\t\tes32 indexed ro\n    tag 523\t\t\t indexed account);\\n    event ...\n      JUMPDEST \t\t\t indexed account);\\n    event ...\n      PUSH 1F\t\t\tex\n      DUP3 \t\t\teceived(addre\n      ADD \t\t\teceived(addre\n      PUSH 1F\t\t\t\n      NOT \t\t\t\n      AND \t\t\tETHReceived(address indexed\n      DUP2 \t\t\t;\\n    event ETHReceived(addre...\n      ADD \t\t\t;\\n    event ETHReceived(addre...\n      PUSH FFFFFFFFFFFFFFFF\t\t\t// Fixed mint pric\n      DUP2 \t\t\t amount);\\n\\n    // Fixed mint...\n      GT \t\t\t amount);\\n\\n    // Fixed mint...\n      DUP3 \t\t\tn wei (0.0003 ETH)\\n   \n      DUP3 \t\t\tn wei (0.0003 ETH)\\n   \n      LT \t\t\tn wei (0.0003 ETH)\\n   \n      OR \t\t\t256 amount);\\n\\n    // Fixed m...\n      ISZERO \t\t\tint256 amount);\\n\\n    // Fixe...\n      PUSH [tag] 550\t\t\tint256 amount);\\n\\n    // Fixe...\n      JUMPI \t\t\tint256 amount);\\n\\n    // Fixe...\n      PUSH [tag] 550\t\t\tt256 public consta\n      PUSH [tag] 471\t\t\tt256 public consta\n      JUMP \t\t\tt256 public consta\n    tag 550\t\t\tt256 public consta\n      JUMPDEST \t\t\tt256 public consta\n      PUSH 40\t\t\t0_\n      MSTORE \t\t\tCE = 300_000_000_000_0\n      POP \t\t\t\n      POP \t\t\t\n      JUMP \t\t\t indexed account);\\n    event ...\n    tag 102\t\t\tdifier onlyRelayer() {\\n      ...\n      JUMPDEST \t\t\tdifier onlyRelayer() {\\n      ...\n      PUSH 0\t\t\ter), \"\n      PUSH 20\t\t\t;\\n\n      DUP1 \t\t\tn(\n      DUP4 \t\t\tnouncingA\n      DUP6 \t\t\tonlyNon\n      SUB \t\t\tier onlyNonRenouncingAd\n      SLT \t\t\todifier onlyNonRenouncingAdmin...\n      ISZERO \t\t\t  modifier onlyNonRenouncingAd...\n      PUSH [tag] 552\t\t\t  modifier onlyNonRenouncingAd...\n      JUMPI \t\t\t  modifier onlyNonRenouncingAd...\n      PUSH 0\t\t\tq\n      DUP1 \t\t\t \n      REVERT \t\t\t        requ\n    tag 552\t\t\t  modifier onlyNonRenouncingAd...\n      JUMPDEST \t\t\t  modifier onlyNonRenouncingAd...\n      DUP3 \t\t\tnder), \"O\n      CALLDATALOAD \t\t\t_ROLE, msg.sender), \"On\n      PUSH FFFFFFFFFFFFFFFF\t\t\t _;\\n    }\\n\\n    con\n      DUP1 \t\t\tss\n      DUP3 \t\t\t   add\n      GT \t\t\t      address \n      ISZERO \t\t\t\\n        address _usdc,\\n    ...\n      PUSH [tag] 553\t\t\t\\n        address _usdc,\\n    ...\n      JUMPI \t\t\t\\n        address _usdc,\\n    ...\n      PUSH 0\t\t\t \n      DUP1 \t\t\t \n      REVERT \t\t\tdc,\\n        \n    tag 553\t\t\t\\n        address _usdc,\\n    ...\n      JUMPDEST \t\t\t\\n        address _usdc,\\n    ...\n      DUP2 \t\t\tpayee2\n      DUP6 \t\t\t  address\n      ADD \t\t\t      address _payee2,\n      SWAP2 \t\t\tltisig,\\n        address _paye...\n      POP \t\t\tltisig,\\n        address _paye...\n      DUP6 \t\t\tress _a\n      PUSH 1F\t\t\t    \n      DUP4 \t\t\t  \n      ADD \t\t\ter,\\n        a\n      SLT \t\t\telayer,\\n        address _ad\n      PUSH [tag] 554\t\t\taddress _relayer,\\n        add...\n      JUMPI \t\t\taddress _relayer,\\n        add...\n      PUSH 0\t\t\t \n      DUP1 \t\t\t\\n\n      REVERT \t\t\t    ) {\\n    \n    tag 554\t\t\taddress _relayer,\\n        add...\n      JUMPDEST \t\t\taddress _relayer,\\n        add...\n      DUP2 \t\t\t  \n      CALLDATALOAD \t\t\tdata(_usdc);\\n   \n      DUP2 \t\t\t!=\n      DUP2 \t\t\tsd\n      GT \t\t\t(_usdc != \n      ISZERO \t\t\tire(_usdc != ADDRESS_ZERO, \"US...\n      PUSH [tag] 556\t\t\tire(_usdc != ADDRESS_ZERO, \"US...\n      JUMPI \t\t\tire(_usdc != ADDRESS_ZERO, \"US...\n      PUSH [tag] 556\t\t\tRESS_ZERO, \"USDC a\n      PUSH [tag] 471\t\t\tRESS_ZERO, \"USDC a\n      JUMP \t\t\tRESS_ZERO, \"USDC a\n    tag 556\t\t\tRESS_ZERO, \"USDC a\n      JUMPDEST \t\t\tRESS_ZERO, \"USDC a\n      PUSH 40\t\t\tRe\n      MLOAD \t\t\t   feeRec\n      SWAP2 \t\t\t   feeRec\n      POP \t\t\t\n      PUSH [tag] 557\t\t\t_multisig;\\n        require(_m...\n      PUSH 1F\t\t\tIn\n      DUP3 \t\t\t != ADDRESS_Z\n      ADD \t\t\t != ADDRESS_Z\n      PUSH 1F\t\t\t\n      NOT \t\t\t\n      AND \t\t\tisig != ADDRESS_ZERO, \"Inva\n      DUP6 \t\t\tmultisig != ADDRESS_ZERO, \"Inv...\n      ADD \t\t\tmultisig != ADDRESS_ZERO, \"Inv...\n      DUP4 \t\t\t   feeRec\n      PUSH [tag] 523\t\t\t_multisig;\\n        require(_m...\n      JUMP \t\t\t_multisig;\\n        require(_m...\n    tag 557\t\t\t_multisig;\\n        require(_m...\n      JUMPDEST \t\t\t_multisig;\\n        require(_m...\n      DUP1 \t\t\ts \n      DUP3 \t\t\t   fee\n      MSTORE \t\t\t\\n\\n        feeBps =\n      DUP7 \t\t\tlery ad\n      DUP5 \t\t\t/ \n      DUP3 \t\t\t2;\n      DUP6 \t\t\tay\n      ADD \t\t\t= _payee2; \n      ADD \t\t\tee2 = _payee2;  // G\n      GT \t\t\tpayee2 = _payee2;  // Gallery ...\n      ISZERO \t\t\t   payee2 = _payee2;  // Galle...\n      PUSH [tag] 558\t\t\t   payee2 = _payee2;  // Galle...\n      JUMPI \t\t\t   payee2 = _payee2;  // Galle...\n      PUSH 0\t\t\t \n      DUP1 \t\t\td\n      REVERT \t\t\ts (fixed)\\n  \n    tag 558\t\t\t   payee2 = _payee2;  // Galle...\n      JUMPDEST \t\t\t   payee2 = _payee2;  // Galle...\n      DUP1 \t\t\tre\n      DUP5 \t\t\tay\n      DUP5 \t\t\try\n      ADD \t\t\tallery paye\n      DUP6 \t\t\tO,\n      DUP5 \t\t\tRESS_Z\n      ADD \t\t\t ADDRESS_ZERO, \n      CALLDATACOPY \t\t\tre(_payee2 != ADDRESS_ZERO, \"G...\n      PUSH 0\t\t\tE\n      SWAP1 \t\t\tquire(_relayer \n      DUP3 \t\t\tquire(_relayer \n      ADD \t\t\tquire(_relayer \n      SWAP1 \t\t\t  require(_relayer != AD\n      SWAP4 \t\t\t  require(_relayer != AD\n      ADD \t\t\t  require(_relayer != AD\n      SWAP3 \t\t\t\\n        require(_relayer != ...\n      SWAP1 \t\t\t\\n        require(_relayer != ...\n      SWAP3 \t\t\t\\n        require(_relayer != ...\n      MSTORE \t\t\t\\n        require(_relayer != ...\n      POP \t\t\t\n      SWAP4 \t\t\te(_rel\n      SWAP3 \t\t\tdifier onlyRelayer() {\\n      ...\n      POP \t\t\t\n      POP \t\t\t\n      POP \t\t\t\n      JUMP \t\t\tdifier onlyRelayer() {\\n      ...\n    tag 524\t\t\trequire(_admin != ADDRESS_ZERO...\n      JUMPDEST \t\t\trequire(_admin != ADDRESS_ZERO...\n      PUSH 0\t\t\t       _\n      DUP1 \t\t\tantRol\n      DUP4 \t\t\te(D\n      PUSH 1F\t\t\trant\n      DUP5 \t\t\t      \n      ADD \t\t\t;\\n        _grantR\n      SLT \t\t\tmin);\\n        _grantRole(DE\n      PUSH [tag] 560\t\t\t_ROLE, _admin);\\n        _gran...\n      JUMPI \t\t\t_ROLE, _admin);\\n        _gran...\n      PUSH 0\t\t\tL\n      DUP1 \t\t\t_\n      REVERT \t\t\tT_ADMIN_ROLE\n    tag 560\t\t\t_ROLE, _admin);\\n        _gran...\n      JUMPDEST \t\t\t_ROLE, _admin);\\n        _gran...\n      POP \t\t\t\n      DUP2 \t\t\t _grantRole(RELAYER_\n      CALLDATALOAD \t\t\t _grantRole(RELAYER_\n      PUSH FFFFFFFFFFFFFFFF\t\t\t\\n    // --- Admin \n      DUP2 \t\t\ter);\\n    }\\n\\n    // --- Admi...\n      GT \t\t\ter);\\n    }\\n\\n    // --- Admi...\n      ISZERO \t\t\tlayer);\\n    }\\n\\n    // --- A...\n      PUSH [tag] 561\t\t\tlayer);\\n    }\\n\\n    // --- A...\n      JUMPI \t\t\tlayer);\\n    }\\n\\n    // --- A...\n      PUSH 0\t\t\t \n      DUP1 \t\t\t-\n      REVERT \t\t\ttions ---\\n  \n    tag 561\t\t\tlayer);\\n    }\\n\\n    // --- A...\n      JUMPDEST \t\t\tlayer);\\n    }\\n\\n    // --- A...\n      PUSH 20\t\t\tt, u\n      DUP4 \t\t\trecipi\n      ADD \t\t\tss _recipient, ui\n      SWAP2 \t\t\tsetFee(address _recipient, ui\n      POP \t\t\tsetFee(address _recipient, ui\n      DUP4 \t\t\tE) \n      PUSH 20\t\t\tMIN_\n      DUP3 \t\t\tEFAULT\n      DUP6 \t\t\tlyRole\n      ADD \t\t\tl onlyRole(DEFAULT_\n      ADD \t\t\ternal onlyRole(DEFAULT_ADMIN_R\n      GT \t\t\texternal onlyRole(DEFAULT_ADMI...\n      ISZERO \t\t\ts) external onlyRole(DEFAULT_A...\n      PUSH [tag] 562\t\t\ts) external onlyRole(DEFAULT_A...\n      JUMPI \t\t\ts) external onlyRole(DEFAULT_A...\n      PUSH 0\t\t\ti\n      DUP1 \t\t\te\n      REVERT \t\t\t      requir\n    tag 562\t\t\ts) external onlyRole(DEFAULT_A...\n      JUMPDEST \t\t\ts) external onlyRole(DEFAULT_A...\n      SWAP3 \t\t\trequire(_admin != ADDRESS_ZERO...\n      POP \t\t\trequire(_admin != ADDRESS_ZERO...\n      SWAP3 \t\t\trequire(_admin != ADDRESS_ZERO...\n      SWAP1 \t\t\trequire(_admin != ADDRESS_ZERO...\n      POP \t\t\trequire(_admin != ADDRESS_ZERO...\n      JUMP \t\t\trequire(_admin != ADDRESS_ZERO...\n    tag 111\t\t\t00, \"bps too large\");\\n       ...\n      JUMPDEST \t\t\t00, \"bps too large\");\\n       ...\n      PUSH 0\t\t\tee rec\n      DUP1 \t\t\tient\")\n      PUSH 0\t\t\t      \n      DUP1 \t\t\tuint25\n      PUSH 60\t\t\tpi\n      DUP6 \t\t\tient = _r\n      DUP8 \t\t\t feeRec\n      SUB \t\t\t     feeRecipient = _re\n      SLT \t\t\t\\n        feeRecipient = _reci...\n      ISZERO \t\t\tps;\\n        feeRecipient = _r...\n      PUSH [tag] 564\t\t\tps;\\n        feeRecipient = _r...\n      JUMPI \t\t\tps;\\n        feeRecipient = _r...\n      PUSH 0\t\t\te\n      DUP1 \t\t\t \n      REVERT \t\t\t\\n        fee\n    tag 564\t\t\tps;\\n        feeRecipient = _r...\n      JUMPDEST \t\t\tps;\\n        feeRecipient = _r...\n      DUP5 \t\t\trecipient\n      CALLDATALOAD \t\t\t FeeUpdated(_recipient,\n      PUSH [tag] 565\t\t\t_bps);\\n    }\\n\\n    function ...\n      DUP2 \t\t\tn set\n      PUSH [tag] 522\t\t\t_bps);\\n    }\\n\\n    function ...\n      JUMP \t\t\t_bps);\\n    }\\n\\n    function ...\n    tag 565\t\t\t_bps);\\n    }\\n\\n    function ...\n      JUMPDEST \t\t\t_bps);\\n    }\\n\\n    function ...\n      SWAP4 \t\t\t _pay\n      POP \t\t\t\n      PUSH 20\t\t\t r\n      DUP6 \t\t\tROLE) {\\n        re\n      ADD \t\t\tROLE) {\\n        re\n      CALLDATALOAD \t\t\tEFAULT_ADMIN_ROLE) {\\n        ...\n      PUSH [tag] 566\t\t\tee2 != ADDRESS_ZERO, \"invalid ...\n      DUP2 \t\t\tEFAULT_ADMIN_ROLE) {\\n        ...\n      PUSH [tag] 522\t\t\tee2 != ADDRESS_ZERO, \"invalid ...\n      JUMP \t\t\tee2 != ADDRESS_ZERO, \"invalid ...\n    tag 566\t\t\tee2 != ADDRESS_ZERO, \"invalid ...\n      JUMPDEST \t\t\tee2 != ADDRESS_ZERO, \"invalid ...\n      SWAP3 \t\t\t2 = _pa\n      POP \t\t\t\n      PUSH 40\t\t\t  \n      DUP6 \t\t\ted(_payee2);\\n    }\n      ADD \t\t\ted(_payee2);\\n    }\n      CALLDATALOAD \t\t\teryPayeeUpdated(_payee2);\\n   ...\n      PUSH FFFFFFFFFFFFFFFF\t\t\txternal onlyRole(D\n      DUP2 \t\t\tn pause() external onlyRole(DE\n      GT \t\t\tn pause() external onlyRole(DE\n      ISZERO \t\t\ttion pause() external onlyRole...\n      PUSH [tag] 567\t\t\ttion pause() external onlyRole...\n      JUMPI \t\t\ttion pause() external onlyRole...\n      PUSH 0\t\t\tO\n      DUP1 \t\t\tN\n      REVERT \t\t\tLT_ADMIN_ROL\n    tag 567\t\t\ttion pause() external onlyRole...\n      JUMPDEST \t\t\ttion pause() external onlyRole...\n      PUSH [tag] 568\t\t\tction unpause() external onlyR...\n      DUP8 \t\t\tE) {\\n  \n      DUP3 \t\t\tADMIN_\n      DUP9 \t\t\tle(DEFAUL\n      ADD \t\t\tlyRole(DEFAULT_ADMIN_R\n      PUSH [tag] 524\t\t\tction unpause() external onlyR...\n      JUMP \t\t\tction unpause() external onlyR...\n    tag 568\t\t\tction unpause() external onlyR...\n      JUMPDEST \t\t\tction unpause() external onlyR...\n      SWAP6 \t\t\t00, \"bps too large\");\\n       ...\n      SWAP9 \t\t\t00, \"bps too large\");\\n       ...\n      SWAP5 \t\t\t00, \"bps too large\");\\n       ...\n      SWAP8 \t\t\t00, \"bps too large\");\\n       ...\n      POP \t\t\t\n      SWAP6 \t\t\t  }\\n\\n   \n      POP \t\t\t\n      POP \t\t\t\n      POP \t\t\t\n      POP \t\t\t\n      JUMP \t\t\t00, \"bps too large\");\\n       ...\n    tag 140\t\t\t external onlyRole(DEFAULT_ADM...\n      JUMPDEST \t\t\t external onlyRole(DEFAULT_ADM...\n      PUSH 0\t\t\t;\\n    \n      DUP1 \t\t\t  _gra\n      PUSH 0\t\t\tRole(R\n      DUP1 \t\t\tAYER_R\n      PUSH 0\t\t\tE, _re\n      PUSH 80\t\t\t_re\n      DUP7 \t\t\tLAYER_ROL\n      DUP9 \t\t\tranted(\n      SUB \t\t\toleGranted(RELAYER_ROLE\n      SLT \t\t\tit RoleGranted(RELAYER_ROLE, _...\n      ISZERO \t\t\t emit RoleGranted(RELAYER_ROLE...\n      PUSH [tag] 570\t\t\t emit RoleGranted(RELAYER_ROLE...\n      JUMPI \t\t\t emit RoleGranted(RELAYER_ROLE...\n      PUSH 0\t\t\t\\n\n      DUP1 \t\t\t \n      REVERT \t\t\tr);\\n    }\\n\\n \n    tag 570\t\t\t emit RoleGranted(RELAYER_ROLE...\n      JUMPDEST \t\t\t emit RoleGranted(RELAYER_ROLE...\n      DUP6 \t\t\tlayer) ex\n      CALLDATALOAD \t\t\tr(address _relayer) ext\n      PUSH [tag] 571\t\t\tyRole(DEFAULT_ADMIN_ROLE) {\\n ...\n      DUP2 \t\t\t {\\n  \n      PUSH [tag] 522\t\t\tyRole(DEFAULT_ADMIN_ROLE) {\\n ...\n      JUMP \t\t\tyRole(DEFAULT_ADMIN_ROLE) {\\n ...\n    tag 571\t\t\tyRole(DEFAULT_ADMIN_ROLE) {\\n ...\n      JUMPDEST \t\t\tyRole(DEFAULT_ADMIN_ROLE) {\\n ...\n      SWAP5 \t\t\tLAYER\n      POP \t\t\t\n      PUSH 20\t\t\tOL\n      DUP7 \t\t\tvoked(RELAYER_ROLE\n      ADD \t\t\tvoked(RELAYER_ROLE\n      CALLDATALOAD \t\t\t  emit RoleRevoked(RELAYER_ROL...\n      PUSH [tag] 572\t\t\t);\\n    }\\n\\n    // --- ERC-16...\n      DUP2 \t\t\t  emit RoleRevoked(RELAYER_ROL...\n      PUSH [tag] 522\t\t\t);\\n    }\\n\\n    // --- ERC-16...\n      JUMP \t\t\t);\\n    }\\n\\n    // --- ERC-16...\n    tag 572\t\t\t);\\n    }\\n\\n    // --- ERC-16...\n      JUMPDEST \t\t\t);\\n    }\\n\\n    // --- ERC-16...\n      SWAP4 \t\t\tn suppo\n      POP \t\t\t\n      PUSH 40\t\t\trt\n      DUP7 \t\t\t public view virtu\n      ADD \t\t\t public view virtu\n      CALLDATALOAD \t\t\t interfaceId) public view virt...\n      SWAP3 \t\t\t interfaceId) public view virt...\n      POP \t\t\t\n      PUSH 60\t\t\tpp\n      DUP7 \t\t\treturn super.suppo\n      ADD \t\t\treturn super.suppo\n      CALLDATALOAD \t\t\tl) {\\n        return super.sup...\n      PUSH FFFFFFFFFFFFFFFF\t\t\t);\\n    }\\n\\n    // -\n      DUP2 \t\t\tinterfaceId);\\n    }\\n\\n    //...\n      GT \t\t\tinterfaceId);\\n    }\\n\\n    //...\n      ISZERO \t\t\tce(interfaceId);\\n    }\\n\\n   ...\n      PUSH [tag] 573\t\t\tce(interfaceId);\\n    }\\n\\n   ...\n      JUMPI \t\t\tce(interfaceId);\\n    }\\n\\n   ...\n      PUSH 0\t\t\t-\n      DUP1 \t\t\ti\n      REVERT \t\t\tore Logic --\n    tag 573\t\t\tce(interfaceId);\\n    }\\n\\n   ...\n      JUMPDEST \t\t\tce(interfaceId);\\n    }\\n\\n   ...\n      PUSH [tag] 574\t\t\t  address artistContract,\\n   ...\n      DUP9 \t\t\t   uint\n      DUP3 \t\t\tto,\\n  \n      DUP10 \t\t\t   addres\n      ADD \t\t\t       address to,\\n   \n      PUSH [tag] 524\t\t\t  address artistContract,\\n   ...\n      JUMP \t\t\t  address artistContract,\\n   ...\n    tag 574\t\t\t  address artistContract,\\n   ...\n      JUMPDEST \t\t\t  address artistContract,\\n   ...\n      SWAP7 \t\t\t external onlyRole(DEFAULT_ADM...\n      SWAP10 \t\t\t external onlyRole(DEFAULT_ADM...\n      SWAP6 \t\t\t external onlyRole(DEFAULT_ADM...\n      SWAP9 \t\t\t external onlyRole(DEFAULT_ADM...\n      POP \t\t\t\n      SWAP4 \t\t\t external onlyRole(DEFAULT_ADM...\n      SWAP7 \t\t\t external onlyRole(DEFAULT_ADM...\n      POP \t\t\t\n      SWAP3 \t\t\tstring c\n      SWAP5 \t\t\tstring c\n      SWAP4 \t\t\tion processPayment(\\n        a...\n      SWAP3 \t\t\t external onlyRole(DEFAULT_ADM...\n      POP \t\t\t\n      POP \t\t\t\n      POP \t\t\t\n      JUMP \t\t\t external onlyRole(DEFAULT_ADM...\n    tag 158\t\t\tance = usdc.balanceOf(address(...\n      JUMPDEST \t\t\tance = usdc.balanceOf(address(...\n      PUSH 0\t\t\te >= a\n      DUP1 \t\t\tunt, \"\n      PUSH 40\t\t\to \n      DUP4 \t\t\t   requir\n      DUP6 \t\t\t   \\n   \n      SUB \t\t\t       \\n        require\n      SLT \t\t\t);\\n        \\n        require(...\n      ISZERO \t\t\tDC\");\\n        \\n        requi...\n      PUSH [tag] 578\t\t\tDC\");\\n        \\n        requi...\n      JUMPI \t\t\tDC\");\\n        \\n        requi...\n      PUSH 0\t\t\tO\n      DUP1 \t\t\tZ\n      REVERT \t\t\tDDRESS_ZERO,\n    tag 578\t\t\tDC\");\\n        \\n        requi...\n      JUMPDEST \t\t\tDC\");\\n        \\n        requi...\n      DUP3 \t\t\te(artistC\n      CALLDATALOAD \t\t\t       require(artistCo\n      PUSH [tag] 579\t\t\t ADDRESS_ZERO, \"invalid artist...\n      DUP2 \t\t\trtist\n      PUSH [tag] 522\t\t\t ADDRESS_ZERO, \"invalid artist...\n      JUMP \t\t\t ADDRESS_ZERO, \"invalid artist...\n    tag 579\t\t\t ADDRESS_ZERO, \"invalid artist...\n      JUMPDEST \t\t\t ADDRESS_ZERO, \"invalid artist...\n      SWAP5 \t\t\t  pro\n      PUSH 20\t\t\tt \n      SWAP4 \t\t\t\\n\\n        // Get a\n      SWAP1 \t\t\t\\n\\n        // Get a\n      SWAP4 \t\t\t\\n\\n        // Get a\n      ADD \t\t\t\\n\\n        // Get a\n      CALLDATALOAD \t\t\tntId] = true;\\n\\n        // Ge...\n      SWAP4 \t\t\tntId] = true;\\n\\n        // Ge...\n      POP \t\t\t\n      POP \t\t\t\n      POP \t\t\t\n      JUMP \t\t\tance = usdc.balanceOf(address(...\n    tag 215\t\t\t  function payAndMint(\\n      ...\n      JUMPDEST \t\t\t  function payAndMint(\\n      ...\n      DUP2 \t\t\tquire \n      DUP4 \t\t\tecks (\n      DUP3 \t\t\t1. \n      CALLDATACOPY \t\t\t{\\n        // 1. Checks (requi...\n      PUSH 0\t\t\tant\n      SWAP2 \t\t\trequire(msg.valu\n      ADD \t\t\trequire(msg.valu\n      SWAP1 \t\t\t_PRICE, \"Inco\n      DUP2 \t\t\t_PRICE, \"Inco\n      MSTORE \t\t\t_PRICE, \"Inco\n      SWAP2 \t\t\trequire(msg.valu\n      SWAP1 \t\t\t  function payAndMint(\\n      ...\n      POP \t\t\t\n      JUMP \t\t\t  function payAndMint(\\n      ...\n    tag 231\t\t\tMinting failed: unknown error\"...\n      JUMPDEST \t\t\tMinting failed: unknown error\"...\n      PUSH 0\t\t\tssed(a\n      PUSH 20\t\t\tme\n      DUP3 \t\t\tT_PRICE, \n      DUP5 \t\t\t, to, M\n      SUB \t\t\tayee, to, MINT_PRICE, p\n      SLT \t\t\tistPayee, to, MINT_PRICE, paym...\n      ISZERO \t\t\tartistPayee, to, MINT_PRICE, p...\n      PUSH [tag] 589\t\t\tartistPayee, to, MINT_PRICE, p...\n      JUMPI \t\t\tartistPayee, to, MINT_PRICE, p...\n      PUSH 0\t\t\t \n      DUP1 \t\t\t}\n      REVERT \t\t\t);\\n    }\\n\\n  \n    tag 589\t\t\tartistPayee, to, MINT_PRICE, p...\n      JUMPDEST \t\t\tartistPayee, to, MINT_PRICE, p...\n      DUP2 \t\t\tunction w\n      MLOAD \t\t\t\\n    function wi\n      PUSH [tag] 489\t\t\tC(uint256 amount) external onl...\n      DUP2 \t\t\tl onl\n      PUSH [tag] 522\t\t\tC(uint256 amount) external onl...\n      JUMP \t\t\tC(uint256 amount) external onl...\n    tag 237\t\t\tsed {\\n        require(amount ...\n      JUMPDEST \t\t\tsed {\\n        require(amount ...\n      PUSH 20\t\t\taw\n      DUP1 \t\t\t       emit Withdrawn\n      DUP3 \t\t\t       emit Withdrawn\n      MSTORE \t\t\t       emit Withdrawn\n      PUSH 2F\t\t\t f\n      SWAP1 \t\t\t amount);\\n    }\\n\\n \n      DUP3 \t\t\t amount);\\n    }\\n\\n \n      ADD \t\t\t amount);\\n    }\\n\\n \n      MSTORE \t\t\tsender, amount);\\n    }\\n\\n   ...\n      PUSH 41727469737420636F6E7472616374206D75737420696D706C656D656E74206F\t\t\txternal onlyRole(DEFAULT_ADMIN...\n      PUSH 40\t\t\tnt\n      DUP3 \t\t\tTH(uint256 amount)\n      ADD \t\t\tTH(uint256 amount)\n      MSTORE \t\t\tthdrawETH(uint256 amount) exte...\n      PUSH 3BB732B9141490333AB731BA34B7B7\t\t\t\n      PUSH 89\t\t\t\n      SHL \t\t\t\n      PUSH 60\t\t\tre\n      DUP3 \t\t\t{\\n        require(\n      ADD \t\t\t{\\n        require(\n      MSTORE \t\t\tPaused {\\n        require(amou...\n      PUSH 80\t\t\tddr\n      ADD \t\t\t      require(addre\n      SWAP1 \t\t\t      require(addre\n      JUMP \t\t\tsed {\\n        require(amount ...\n    tag 525\t\t\t\n      JUMPDEST \t\t\t\n      PUSH 4E487B71\t\t\t\n      PUSH E0\t\t\t\n      SHL \t\t\t\n      PUSH 0\t\t\t\n      MSTORE \t\t\t\n      PUSH 11\t\t\t\n      PUSH 4\t\t\t\n      MSTORE \t\t\t\n      PUSH 24\t\t\t\n      PUSH 0\t\t\t\n      REVERT \t\t\t\n    tag 249\t\t\t\n      JUMPDEST \t\t\t\n      DUP2 \t\t\t\n      DUP2 \t\t\t\n      SUB \t\t\t\n      DUP2 \t\t\t\n      DUP2 \t\t\t\n      GT \t\t\t\n      ISZERO \t\t\t\n      PUSH [tag] 169\t\t\t\n      JUMPI \t\t\t\n      PUSH [tag] 169\t\t\t\n      PUSH [tag] 525\t\t\t\n      JUMP \t\t\t\n    tag 526\t\t\t\n      JUMPDEST \t\t\t\n      DUP2 \t\t\t\n      DUP4 \t\t\t\n      MSTORE \t\t\t\n      DUP2 \t\t\t\n      DUP2 \t\t\t\n      PUSH 20\t\t\t\n      DUP6 \t\t\t\n      ADD \t\t\t\n      CALLDATACOPY \t\t\t\n      POP \t\t\t\n      PUSH 0\t\t\t\n      DUP3 \t\t\t\n      DUP3 \t\t\t\n      ADD \t\t\t\n      PUSH 20\t\t\t\n      SWAP1 \t\t\t\n      DUP2 \t\t\t\n      ADD \t\t\t\n      SWAP2 \t\t\t\n      SWAP1 \t\t\t\n      SWAP2 \t\t\t\n      MSTORE \t\t\t\n      PUSH 1F\t\t\t\n      SWAP1 \t\t\t\n      SWAP2 \t\t\t\n      ADD \t\t\t\n      PUSH 1F\t\t\t\n      NOT \t\t\t\n      AND \t\t\t\n      SWAP1 \t\t\t\n      SWAP2 \t\t\t\n      ADD \t\t\t\n      ADD \t\t\t\n      SWAP1 \t\t\t\n      JUMP \t\t\t\n    tag 252\t\t\t\n      JUMPDEST \t\t\t\n      PUSH 1\t\t\t\n      PUSH 1\t\t\t\n      PUSH A0\t\t\t\n      SHL \t\t\t\n      SUB \t\t\t\n      DUP5 \t\t\t\n      AND \t\t\t\n      DUP2 \t\t\t\n      MSTORE \t\t\t\n      PUSH 40\t\t\t\n      PUSH 20\t\t\t\n      DUP3 \t\t\t\n      ADD \t\t\t\n      DUP2 \t\t\t\n      SWAP1 \t\t\t\n      MSTORE \t\t\t\n      PUSH 0\t\t\t\n      SWAP1 \t\t\t\n      PUSH [tag] 599\t\t\t\n      SWAP1 \t\t\t\n      DUP4 \t\t\t\n      ADD \t\t\t\n      DUP5 \t\t\t\n      DUP7 \t\t\t\n      PUSH [tag] 526\t\t\t\n      JUMP \t\t\t\n    tag 599\t\t\t\n      JUMPDEST \t\t\t\n      SWAP6 \t\t\t\n      SWAP5 \t\t\t\n      POP \t\t\t\n      POP \t\t\t\n      POP \t\t\t\n      POP \t\t\t\n      POP \t\t\t\n      JUMP \t\t\t\n    tag 260\t\t\t\n      JUMPDEST \t\t\t\n      PUSH 0\t\t\t\n      PUSH 3\t\t\t\n      RETURNDATASIZE \t\t\t\n      GT \t\t\t\n      ISZERO \t\t\t\n      PUSH [tag] 601\t\t\t\n      JUMPI \t\t\t\n      PUSH 4\t\t\t\n      PUSH 0\t\t\t\n      DUP1 \t\t\t\n      RETURNDATACOPY \t\t\t\n      POP \t\t\t\n      PUSH 0\t\t\t\n      MLOAD \t\t\t\n      PUSH E0\t\t\t\n      SHR \t\t\t\n    tag 601\t\t\t\n      JUMPDEST \t\t\t\n      SWAP1 \t\t\t\n      JUMP \t\t\t\n    tag 262\t\t\t\n      JUMPDEST \t\t\t\n      PUSH 0\t\t\t\n      PUSH 44\t\t\t\n      RETURNDATASIZE \t\t\t\n      LT \t\t\t\n      ISZERO \t\t\t\n      PUSH [tag] 603\t\t\t\n      JUMPI \t\t\t\n      SWAP1 \t\t\t\n      JUMP \t\t\t\n    tag 603\t\t\t\n      JUMPDEST \t\t\t\n      PUSH 40\t\t\t\n      MLOAD \t\t\t\n      PUSH 3\t\t\t\n      NOT \t\t\t\n      RETURNDATASIZE \t\t\t\n      DUP2 \t\t\t\n      ADD \t\t\t\n      PUSH 4\t\t\t\n      DUP4 \t\t\t\n      RETURNDATACOPY \t\t\t\n      DUP2 \t\t\t\n      MLOAD \t\t\t\n      RETURNDATASIZE \t\t\t\n      PUSH FFFFFFFFFFFFFFFF\t\t\t\n      DUP2 \t\t\t\n      PUSH 24\t\t\t\n      DUP5 \t\t\t\n      ADD \t\t\t\n      GT \t\t\t\n      DUP2 \t\t\t\n      DUP5 \t\t\t\n      GT \t\t\t\n      OR \t\t\t\n      ISZERO \t\t\t\n      PUSH [tag] 604\t\t\t\n      JUMPI \t\t\t\n      POP \t\t\t\n      POP \t\t\t\n      POP \t\t\t\n      POP \t\t\t\n      POP \t\t\t\n      SWAP1 \t\t\t\n      JUMP \t\t\t\n    tag 604\t\t\t\n      JUMPDEST \t\t\t\n      DUP3 \t\t\t\n      DUP6 \t\t\t\n      ADD \t\t\t\n      SWAP2 \t\t\t\n      POP \t\t\t\n      DUP2 \t\t\t\n      MLOAD \t\t\t\n      DUP2 \t\t\t\n      DUP2 \t\t\t\n      GT \t\t\t\n      ISZERO \t\t\t\n      PUSH [tag] 605\t\t\t\n      JUMPI \t\t\t\n      POP \t\t\t\n      POP \t\t\t\n      POP \t\t\t\n      POP \t\t\t\n      POP \t\t\t\n      POP \t\t\t\n      SWAP1 \t\t\t\n      JUMP \t\t\t\n    tag 605\t\t\t\n      JUMPDEST \t\t\t\n      DUP5 \t\t\t\n      RETURNDATASIZE \t\t\t\n      DUP8 \t\t\t\n      ADD \t\t\t\n      ADD \t\t\t\n      PUSH 20\t\t\t\n      DUP3 \t\t\t\n      DUP6 \t\t\t\n      ADD \t\t\t\n      ADD \t\t\t\n      GT \t\t\t\n      ISZERO \t\t\t\n      PUSH [tag] 606\t\t\t\n      JUMPI \t\t\t\n      POP \t\t\t\n      POP \t\t\t\n      POP \t\t\t\n      POP \t\t\t\n      POP \t\t\t\n      POP \t\t\t\n      SWAP1 \t\t\t\n      JUMP \t\t\t\n    tag 606\t\t\t\n      JUMPDEST \t\t\t\n      PUSH [tag] 607\t\t\t\n      PUSH 20\t\t\t\n      DUP3 \t\t\t\n      DUP7 \t\t\t\n      ADD \t\t\t\n      ADD \t\t\t\n      DUP8 \t\t\t\n      PUSH [tag] 523\t\t\t\n      JUMP \t\t\t\n    tag 607\t\t\t\n      JUMPDEST \t\t\t\n      POP \t\t\t\n      SWAP1 \t\t\t\n      SWAP6 \t\t\t\n      SWAP5 \t\t\t\n      POP \t\t\t\n      POP \t\t\t\n      POP \t\t\t\n      POP \t\t\t\n      POP \t\t\t\n      JUMP \t\t\t\n    tag 527\t\t\t\n      JUMPDEST \t\t\t\n      PUSH 0\t\t\t\n    tag 609\t\t\t\n      JUMPDEST \t\t\t\n      DUP4 \t\t\t\n      DUP2 \t\t\t\n      LT \t\t\t\n      ISZERO \t\t\t\n      PUSH [tag] 611\t\t\t\n      JUMPI \t\t\t\n      DUP2 \t\t\t\n      DUP2 \t\t\t\n      ADD \t\t\t\n      MLOAD \t\t\t\n      DUP4 \t\t\t\n      DUP3 \t\t\t\n      ADD \t\t\t\n      MSTORE \t\t\t\n      PUSH 20\t\t\t\n      ADD \t\t\t\n      PUSH [tag] 609\t\t\t\n      JUMP \t\t\t\n    tag 611\t\t\t\n      JUMPDEST \t\t\t\n      POP \t\t\t\n      POP \t\t\t\n      PUSH 0\t\t\t\n      SWAP2 \t\t\t\n      ADD \t\t\t\n      MSTORE \t\t\t\n      JUMP \t\t\t\n    tag 265\t\t\t\n      JUMPDEST \t\t\t\n      PUSH 26B4B73A34B733903330B4B632B21D1\t\t\t\n      PUSH 85\t\t\t\n      SHL \t\t\t\n      DUP2 \t\t\t\n      MSTORE \t\t\t\n      PUSH 0\t\t\t\n      DUP3 \t\t\t\n      MLOAD \t\t\t\n      PUSH [tag] 613\t\t\t\n      DUP2 \t\t\t\n      PUSH 10\t\t\t\n      DUP6 \t\t\t\n      ADD \t\t\t\n      PUSH 20\t\t\t\n      DUP8 \t\t\t\n      ADD \t\t\t\n      PUSH [tag] 527\t\t\t\n      JUMP \t\t\t\n    tag 613\t\t\t\n      JUMPDEST \t\t\t\n      SWAP2 \t\t\t\n      SWAP1 \t\t\t\n      SWAP2 \t\t\t\n      ADD \t\t\t\n      PUSH 10\t\t\t\n      ADD \t\t\t\n      SWAP3 \t\t\t\n      SWAP2 \t\t\t\n      POP \t\t\t\n      POP \t\t\t\n      JUMP \t\t\t\n    tag 267\t\t\t\n      JUMPDEST \t\t\t\n      PUSH 20\t\t\t\n      DUP2 \t\t\t\n      MSTORE \t\t\t\n      PUSH 0\t\t\t\n      DUP3 \t\t\t\n      MLOAD \t\t\t\n      DUP1 \t\t\t\n      PUSH 20\t\t\t\n      DUP5 \t\t\t\n      ADD \t\t\t\n      MSTORE \t\t\t\n      PUSH [tag] 615\t\t\t\n      DUP2 \t\t\t\n      PUSH 40\t\t\t\n      DUP6 \t\t\t\n      ADD \t\t\t\n      PUSH 20\t\t\t\n      DUP8 \t\t\t\n      ADD \t\t\t\n      PUSH [tag] 527\t\t\t\n      JUMP \t\t\t\n    tag 615\t\t\t\n      JUMPDEST \t\t\t\n      PUSH 1F\t\t\t\n      ADD \t\t\t\n      PUSH 1F\t\t\t\n      NOT \t\t\t\n      AND \t\t\t\n      SWAP2 \t\t\t\n      SWAP1 \t\t\t\n      SWAP2 \t\t\t\n      ADD \t\t\t\n      PUSH 40\t\t\t\n      ADD \t\t\t\n      SWAP3 \t\t\t\n      SWAP2 \t\t\t\n      POP \t\t\t\n      POP \t\t\t\n      JUMP \t\t\t\n    tag 272\t\t\t\n      JUMPDEST \t\t\t\n      DUP4 \t\t\t\n      DUP2 \t\t\t\n      MSTORE \t\t\t\n      PUSH 40\t\t\t\n      PUSH 20\t\t\t\n      DUP3 \t\t\t\n      ADD \t\t\t\n      MSTORE \t\t\t\n      PUSH 0\t\t\t\n      PUSH [tag] 599\t\t\t\n      PUSH 40\t\t\t\n      DUP4 \t\t\t\n      ADD \t\t\t\n      DUP5 \t\t\t\n      DUP7 \t\t\t\n      PUSH [tag] 526\t\t\t\n      JUMP \t\t\t\n    tag 304\t\t\t\n      JUMPDEST \t\t\t\n      PUSH 0\t\t\t\n      PUSH 20\t\t\t\n      DUP3 \t\t\t\n      DUP5 \t\t\t\n      SUB \t\t\t\n      SLT \t\t\t\n      ISZERO \t\t\t\n      PUSH [tag] 622\t\t\t\n      JUMPI \t\t\t\n      PUSH 0\t\t\t\n      DUP1 \t\t\t\n      REVERT \t\t\t\n    tag 622\t\t\t\n      JUMPDEST \t\t\t\n      POP \t\t\t\n      MLOAD \t\t\t\n      SWAP2 \t\t\t\n      SWAP1 \t\t\t\n      POP \t\t\t\n      JUMP \t\t\t\n    tag 327\t\t\t\n      JUMPDEST \t\t\t\n      DUP1 \t\t\t\n      DUP3 \t\t\t\n      MUL \t\t\t\n      DUP2 \t\t\t\n      ISZERO \t\t\t\n      DUP3 \t\t\t\n      DUP3 \t\t\t\n      DIV \t\t\t\n      DUP5 \t\t\t\n      EQ \t\t\t\n      OR \t\t\t\n      PUSH [tag] 169\t\t\t\n      JUMPI \t\t\t\n      PUSH [tag] 169\t\t\t\n      PUSH [tag] 525\t\t\t\n      JUMP \t\t\t\n    tag 329\t\t\t\n      JUMPDEST \t\t\t\n      PUSH 0\t\t\t\n      DUP3 \t\t\t\n      PUSH [tag] 628\t\t\t\n      JUMPI \t\t\t\n      PUSH 4E487B71\t\t\t\n      PUSH E0\t\t\t\n      SHL \t\t\t\n      PUSH 0\t\t\t\n      MSTORE \t\t\t\n      PUSH 12\t\t\t\n      PUSH 4\t\t\t\n      MSTORE \t\t\t\n      PUSH 24\t\t\t\n      PUSH 0\t\t\t\n      REVERT \t\t\t\n    tag 628\t\t\t\n      JUMPDEST \t\t\t\n      POP \t\t\t\n      DIV \t\t\t\n      SWAP1 \t\t\t\n      JUMP \t\t\t\n    tag 447\t\t\t\n      JUMPDEST \t\t\t\n      PUSH 416363657373436F6E74726F6C3A206163636F756E7420000000000000000000\t\t\t\n      DUP2 \t\t\t\n      MSTORE \t\t\t\n      PUSH 0\t\t\t\n      DUP4 \t\t\t\n      MLOAD \t\t\t\n      PUSH [tag] 637\t\t\t\n      DUP2 \t\t\t\n      PUSH 17\t\t\t\n      DUP6 \t\t\t\n      ADD \t\t\t\n      PUSH 20\t\t\t\n      DUP9 \t\t\t\n      ADD \t\t\t\n      PUSH [tag] 527\t\t\t\n      JUMP \t\t\t\n    tag 637\t\t\t\n      JUMPDEST \t\t\t\n      PUSH 1034B99036B4B9B9B4B733903937B6329\t\t\t\n      PUSH 7D\t\t\t\n      SHL \t\t\t\n      PUSH 17\t\t\t\n      SWAP2 \t\t\t\n      DUP5 \t\t\t\n      ADD \t\t\t\n      SWAP2 \t\t\t\n      DUP3 \t\t\t\n      ADD \t\t\t\n      MSTORE \t\t\t\n      DUP4 \t\t\t\n      MLOAD \t\t\t\n      PUSH [tag] 638\t\t\t\n      DUP2 \t\t\t\n      PUSH 28\t\t\t\n      DUP5 \t\t\t\n      ADD \t\t\t\n      PUSH 20\t\t\t\n      DUP9 \t\t\t\n      ADD \t\t\t\n      PUSH [tag] 527\t\t\t\n      JUMP \t\t\t\n    tag 638\t\t\t\n      JUMPDEST \t\t\t\n      ADD \t\t\t\n      PUSH 28\t\t\t\n      ADD \t\t\t\n      SWAP5 \t\t\t\n      SWAP4 \t\t\t\n      POP \t\t\t\n      POP \t\t\t\n      POP \t\t\t\n      POP \t\t\t\n      JUMP \t\t\t\n    tag 459\t\t\t\n      JUMPDEST \t\t\t\n      PUSH 0\t\t\t\n      PUSH 20\t\t\t\n      DUP3 \t\t\t\n      DUP5 \t\t\t\n      SUB \t\t\t\n      SLT \t\t\t\n      ISZERO \t\t\t\n      PUSH [tag] 641\t\t\t\n      JUMPI \t\t\t\n      PUSH 0\t\t\t\n      DUP1 \t\t\t\n      REVERT \t\t\t\n    tag 641\t\t\t\n      JUMPDEST \t\t\t\n      DUP2 \t\t\t\n      MLOAD \t\t\t\n      DUP1 \t\t\t\n      ISZERO \t\t\t\n      ISZERO \t\t\t\n      DUP2 \t\t\t\n      EQ \t\t\t\n      PUSH [tag] 489\t\t\t\n      JUMPI \t\t\t\n      PUSH 0\t\t\t\n      DUP1 \t\t\t\n      REVERT \t\t\t\n    tag 468\t\t\t\n      JUMPDEST \t\t\t\n      DUP1 \t\t\t\n      DUP3 \t\t\t\n      ADD \t\t\t\n      DUP1 \t\t\t\n      DUP3 \t\t\t\n      GT \t\t\t\n      ISZERO \t\t\t\n      PUSH [tag] 169\t\t\t\n      JUMPI \t\t\t\n      PUSH [tag] 169\t\t\t\n      PUSH [tag] 525\t\t\t\n      JUMP \t\t\t\n    tag 475\t\t\t\n      JUMPDEST \t\t\t\n      PUSH 4E487B71\t\t\t\n      PUSH E0\t\t\t\n      SHL \t\t\t\n      PUSH 0\t\t\t\n      MSTORE \t\t\t\n      PUSH 32\t\t\t\n      PUSH 4\t\t\t\n      MSTORE \t\t\t\n      PUSH 24\t\t\t\n      PUSH 0\t\t\t\n      REVERT \t\t\t\n    tag 488\t\t\t\n      JUMPDEST \t\t\t\n      PUSH 0\t\t\t\n      DUP2 \t\t\t\n      PUSH [tag] 650\t\t\t\n      JUMPI \t\t\t\n      PUSH [tag] 650\t\t\t\n      PUSH [tag] 525\t\t\t\n      JUMP \t\t\t\n    tag 650\t\t\t\n      JUMPDEST \t\t\t\n      POP \t\t\t\n      PUSH 0\t\t\t\n      NOT \t\t\t\n      ADD \t\t\t\n      SWAP1 \t\t\t\n      JUMP \t\t\t\n    tag 500\t\t\t\n      JUMPDEST \t\t\t\n      PUSH 0\t\t\t\n      DUP3 \t\t\t\n      MLOAD \t\t\t\n      PUSH [tag] 654\t\t\t\n      DUP2 \t\t\t\n      DUP5 \t\t\t\n      PUSH 20\t\t\t\n      DUP8 \t\t\t\n      ADD \t\t\t\n      PUSH [tag] 527\t\t\t\n      JUMP \t\t\t\n    tag 654\t\t\t\n      JUMPDEST \t\t\t\n      SWAP2 \t\t\t\n      SWAP1 \t\t\t\n      SWAP2 \t\t\t\n      ADD \t\t\t\n      SWAP3 \t\t\t\n      SWAP2 \t\t\t\n      POP \t\t\t\n      POP \t\t\t\n      JUMP \t\t\t\n    .data\n      403133B1402CFE4D9C8C47E614CC41ED4051237B14DE112F0B24C8D3D6AA6CAD:\n        e2b7fb3b832174769106daebcfd6d1970523240dda11281102db9363b83b0dc4\n"
}